{
	"SolidityProjects/contracts/SolidityGrammers/14-IfElse(控制流).sol": {
		"InsertionSort": {
			"abi": [
				{
					"inputs": [
						{
							"internalType": "uint256[]",
							"name": "a",
							"type": "uint256[]"
						}
					],
					"name": "InsertionSortWrong",
					"outputs": [
						{
							"internalType": "uint256[]",
							"name": "",
							"type": "uint256[]"
						}
					],
					"stateMutability": "pure",
					"type": "function"
				},
				{
					"inputs": [],
					"name": "doWhileLoopTest",
					"outputs": [
						{
							"internalType": "uint256",
							"name": "",
							"type": "uint256"
						}
					],
					"stateMutability": "pure",
					"type": "function"
				},
				{
					"inputs": [],
					"name": "forLoopTest",
					"outputs": [
						{
							"internalType": "uint256",
							"name": "",
							"type": "uint256"
						}
					],
					"stateMutability": "pure",
					"type": "function"
				},
				{
					"inputs": [
						{
							"internalType": "uint256",
							"name": "number",
							"type": "uint256"
						}
					],
					"name": "ifElseTest",
					"outputs": [
						{
							"internalType": "bool",
							"name": "",
							"type": "bool"
						}
					],
					"stateMutability": "pure",
					"type": "function"
				},
				{
					"inputs": [
						{
							"internalType": "uint256[]",
							"name": "a",
							"type": "uint256[]"
						}
					],
					"name": "insertionSort",
					"outputs": [
						{
							"internalType": "uint256[]",
							"name": "",
							"type": "uint256[]"
						}
					],
					"stateMutability": "pure",
					"type": "function"
				},
				{
					"inputs": [
						{
							"internalType": "uint256",
							"name": "x",
							"type": "uint256"
						},
						{
							"internalType": "uint256",
							"name": "y",
							"type": "uint256"
						}
					],
					"name": "ternaryTest",
					"outputs": [
						{
							"internalType": "uint256",
							"name": "",
							"type": "uint256"
						}
					],
					"stateMutability": "pure",
					"type": "function"
				},
				{
					"inputs": [],
					"name": "whileLoopTest",
					"outputs": [
						{
							"internalType": "uint256",
							"name": "",
							"type": "uint256"
						}
					],
					"stateMutability": "pure",
					"type": "function"
				}
			],
			"devdoc": {
				"kind": "dev",
				"methods": {},
				"version": 1
			},
			"evm": {
				"assembly": "    /* \"SolidityProjects/contracts/SolidityGrammers/14-IfElse(\\xe6\\x8e\\xa7\\xe5\\x88\\xb6\\xe6\\xb5\\x81).sol\":203:2320  contract InsertionSort{... */\n  mstore(0x40, 0x80)\n  callvalue\n  dup1\n  iszero\n  tag_1\n  jumpi\n  0x00\n  dup1\n  revert\ntag_1:\n  pop\n  dataSize(sub_0)\n  dup1\n  dataOffset(sub_0)\n  0x00\n  codecopy\n  0x00\n  return\nstop\n\nsub_0: assembly {\n        /* \"SolidityProjects/contracts/SolidityGrammers/14-IfElse(\\xe6\\x8e\\xa7\\xe5\\x88\\xb6\\xe6\\xb5\\x81).sol\":203:2320  contract InsertionSort{... */\n      mstore(0x40, 0x80)\n      callvalue\n      dup1\n      iszero\n      tag_1\n      jumpi\n      0x00\n      dup1\n      revert\n    tag_1:\n      pop\n      jumpi(tag_2, lt(calldatasize, 0x04))\n      shr(0xe0, calldataload(0x00))\n      dup1\n      0x6297206f\n      gt\n      tag_10\n      jumpi\n      dup1\n      0x6297206f\n      eq\n      tag_6\n      jumpi\n      dup1\n      0x7141fb00\n      eq\n      tag_7\n      jumpi\n      dup1\n      0x9ccadc4d\n      eq\n      tag_8\n      jumpi\n      dup1\n      0xb0cfa9fc\n      eq\n      tag_9\n      jumpi\n      jump(tag_2)\n    tag_10:\n      dup1\n      0x034ae524\n      eq\n      tag_3\n      jumpi\n      dup1\n      0x28766320\n      eq\n      tag_4\n      jumpi\n      dup1\n      0x53c5ac86\n      eq\n      tag_5\n      jumpi\n    tag_2:\n      0x00\n      dup1\n      revert\n        /* \"SolidityProjects/contracts/SolidityGrammers/14-IfElse(\\xe6\\x8e\\xa7\\xe5\\x88\\xb6\\xe6\\xb5\\x81).sol\":1332:1698  function InsertionSortWrong(uint[] memory a) public pure returns(uint[] memory){... */\n    tag_3:\n      tag_11\n      0x04\n      dup1\n      calldatasize\n      sub\n      dup2\n      add\n      swap1\n      tag_12\n      swap2\n      swap1\n      tag_13\n      jump\t// in\n    tag_12:\n      tag_14\n      jump\t// in\n    tag_11:\n      mload(0x40)\n      tag_15\n      swap2\n      swap1\n      tag_16\n      jump\t// in\n    tag_15:\n      mload(0x40)\n      dup1\n      swap2\n      sub\n      swap1\n      return\n        /* \"SolidityProjects/contracts/SolidityGrammers/14-IfElse(\\xe6\\x8e\\xa7\\xe5\\x88\\xb6\\xe6\\xb5\\x81).sol\":1139:1253  function ternaryTest(uint256 x,uint256 y) public pure returns(uint256){... */\n    tag_4:\n      tag_17\n      0x04\n      dup1\n      calldatasize\n      sub\n      dup2\n      add\n      swap1\n      tag_18\n      swap2\n      swap1\n      tag_19\n      jump\t// in\n    tag_18:\n      tag_20\n      jump\t// in\n    tag_17:\n      mload(0x40)\n      tag_21\n      swap2\n      swap1\n      tag_22\n      jump\t// in\n    tag_21:\n      mload(0x40)\n      dup1\n      swap2\n      sub\n      swap1\n      return\n        /* \"SolidityProjects/contracts/SolidityGrammers/14-IfElse(\\xe6\\x8e\\xa7\\xe5\\x88\\xb6\\xe6\\xb5\\x81).sol\":660:866  function whileLoopTest() public pure returns(uint256){... */\n    tag_5:\n      tag_23\n      tag_24\n      jump\t// in\n    tag_23:\n      mload(0x40)\n      tag_25\n      swap2\n      swap1\n      tag_22\n      jump\t// in\n    tag_25:\n      mload(0x40)\n      dup1\n      swap2\n      sub\n      swap1\n      return\n        /* \"SolidityProjects/contracts/SolidityGrammers/14-IfElse(\\xe6\\x8e\\xa7\\xe5\\x88\\xb6\\xe6\\xb5\\x81).sol\":1935:2317  function insertionSort(uint[] memory a) public pure returns(uint[] memory){... */\n    tag_6:\n      tag_26\n      0x04\n      dup1\n      calldatasize\n      sub\n      dup2\n      add\n      swap1\n      tag_27\n      swap2\n      swap1\n      tag_13\n      jump\t// in\n    tag_27:\n      tag_28\n      jump\t// in\n    tag_26:\n      mload(0x40)\n      tag_29\n      swap2\n      swap1\n      tag_16\n      jump\t// in\n    tag_29:\n      mload(0x40)\n      dup1\n      swap2\n      sub\n      swap1\n      return\n        /* \"SolidityProjects/contracts/SolidityGrammers/14-IfElse(\\xe6\\x8e\\xa7\\xe5\\x88\\xb6\\xe6\\xb5\\x81).sol\":252:427  function ifElseTest(uint256 number) public pure returns(bool){... */\n    tag_7:\n      tag_30\n      0x04\n      dup1\n      calldatasize\n      sub\n      dup2\n      add\n      swap1\n      tag_31\n      swap2\n      swap1\n      tag_32\n      jump\t// in\n    tag_31:\n      tag_33\n      jump\t// in\n    tag_30:\n      mload(0x40)\n      tag_34\n      swap2\n      swap1\n      tag_35\n      jump\t// in\n    tag_34:\n      mload(0x40)\n      dup1\n      swap2\n      sub\n      swap1\n      return\n        /* \"SolidityProjects/contracts/SolidityGrammers/14-IfElse(\\xe6\\x8e\\xa7\\xe5\\x88\\xb6\\xe6\\xb5\\x81).sol\":899:1105  function doWhileLoopTest() public pure returns(uint256){... */\n    tag_8:\n      tag_36\n      tag_37\n      jump\t// in\n    tag_36:\n      mload(0x40)\n      tag_38\n      swap2\n      swap1\n      tag_22\n      jump\t// in\n    tag_38:\n      mload(0x40)\n      dup1\n      swap2\n      sub\n      swap1\n      return\n        /* \"SolidityProjects/contracts/SolidityGrammers/14-IfElse(\\xe6\\x8e\\xa7\\xe5\\x88\\xb6\\xe6\\xb5\\x81).sol\":455:630  function forLoopTest() public pure returns(uint256){... */\n    tag_9:\n      tag_39\n      tag_40\n      jump\t// in\n    tag_39:\n      mload(0x40)\n      tag_41\n      swap2\n      swap1\n      tag_22\n      jump\t// in\n    tag_41:\n      mload(0x40)\n      dup1\n      swap2\n      sub\n      swap1\n      return\n        /* \"SolidityProjects/contracts/SolidityGrammers/14-IfElse(\\xe6\\x8e\\xa7\\xe5\\x88\\xb6\\xe6\\xb5\\x81).sol\":1332:1698  function InsertionSortWrong(uint[] memory a) public pure returns(uint[] memory){... */\n    tag_14:\n        /* \"SolidityProjects/contracts/SolidityGrammers/14-IfElse(\\xe6\\x8e\\xa7\\xe5\\x88\\xb6\\xe6\\xb5\\x81).sol\":1397:1410  uint[] memory */\n      0x60\n        /* \"SolidityProjects/contracts/SolidityGrammers/14-IfElse(\\xe6\\x8e\\xa7\\xe5\\x88\\xb6\\xe6\\xb5\\x81).sol\":1426:1432  uint i */\n      0x00\n        /* \"SolidityProjects/contracts/SolidityGrammers/14-IfElse(\\xe6\\x8e\\xa7\\xe5\\x88\\xb6\\xe6\\xb5\\x81).sol\":1435:1436  1 */\n      0x01\n        /* \"SolidityProjects/contracts/SolidityGrammers/14-IfElse(\\xe6\\x8e\\xa7\\xe5\\x88\\xb6\\xe6\\xb5\\x81).sol\":1426:1436  uint i = 1 */\n      swap1\n      pop\n        /* \"SolidityProjects/contracts/SolidityGrammers/14-IfElse(\\xe6\\x8e\\xa7\\xe5\\x88\\xb6\\xe6\\xb5\\x81).sol\":1422:1672  for(uint i = 1;i < a.length;i++){... */\n    tag_43:\n        /* \"SolidityProjects/contracts/SolidityGrammers/14-IfElse(\\xe6\\x8e\\xa7\\xe5\\x88\\xb6\\xe6\\xb5\\x81).sol\":1441:1442  a */\n      dup3\n        /* \"SolidityProjects/contracts/SolidityGrammers/14-IfElse(\\xe6\\x8e\\xa7\\xe5\\x88\\xb6\\xe6\\xb5\\x81).sol\":1441:1449  a.length */\n      mload\n        /* \"SolidityProjects/contracts/SolidityGrammers/14-IfElse(\\xe6\\x8e\\xa7\\xe5\\x88\\xb6\\xe6\\xb5\\x81).sol\":1437:1438  i */\n      dup2\n        /* \"SolidityProjects/contracts/SolidityGrammers/14-IfElse(\\xe6\\x8e\\xa7\\xe5\\x88\\xb6\\xe6\\xb5\\x81).sol\":1437:1449  i < a.length */\n      lt\n        /* \"SolidityProjects/contracts/SolidityGrammers/14-IfElse(\\xe6\\x8e\\xa7\\xe5\\x88\\xb6\\xe6\\xb5\\x81).sol\":1422:1672  for(uint i = 1;i < a.length;i++){... */\n      iszero\n      tag_44\n      jumpi\n        /* \"SolidityProjects/contracts/SolidityGrammers/14-IfElse(\\xe6\\x8e\\xa7\\xe5\\x88\\xb6\\xe6\\xb5\\x81).sol\":1469:1478  uint temp */\n      0x00\n        /* \"SolidityProjects/contracts/SolidityGrammers/14-IfElse(\\xe6\\x8e\\xa7\\xe5\\x88\\xb6\\xe6\\xb5\\x81).sol\":1481:1482  a */\n      dup4\n        /* \"SolidityProjects/contracts/SolidityGrammers/14-IfElse(\\xe6\\x8e\\xa7\\xe5\\x88\\xb6\\xe6\\xb5\\x81).sol\":1483:1484  i */\n      dup3\n        /* \"SolidityProjects/contracts/SolidityGrammers/14-IfElse(\\xe6\\x8e\\xa7\\xe5\\x88\\xb6\\xe6\\xb5\\x81).sol\":1481:1485  a[i] */\n      dup2\n      mload\n      dup2\n      lt\n      tag_46\n      jumpi\n      tag_47\n      tag_48\n      jump\t// in\n    tag_47:\n    tag_46:\n      0x20\n      mul\n      0x20\n      add\n      add\n      mload\n        /* \"SolidityProjects/contracts/SolidityGrammers/14-IfElse(\\xe6\\x8e\\xa7\\xe5\\x88\\xb6\\xe6\\xb5\\x81).sol\":1469:1485  uint temp = a[i] */\n      swap1\n      pop\n        /* \"SolidityProjects/contracts/SolidityGrammers/14-IfElse(\\xe6\\x8e\\xa7\\xe5\\x88\\xb6\\xe6\\xb5\\x81).sol\":1500:1506  uint j */\n      0x00\n        /* \"SolidityProjects/contracts/SolidityGrammers/14-IfElse(\\xe6\\x8e\\xa7\\xe5\\x88\\xb6\\xe6\\xb5\\x81).sol\":1513:1514  1 */\n      0x01\n        /* \"SolidityProjects/contracts/SolidityGrammers/14-IfElse(\\xe6\\x8e\\xa7\\xe5\\x88\\xb6\\xe6\\xb5\\x81).sol\":1509:1510  i */\n      dup4\n        /* \"SolidityProjects/contracts/SolidityGrammers/14-IfElse(\\xe6\\x8e\\xa7\\xe5\\x88\\xb6\\xe6\\xb5\\x81).sol\":1509:1514  i - 1 */\n      tag_49\n      swap2\n      swap1\n      tag_50\n      jump\t// in\n    tag_49:\n        /* \"SolidityProjects/contracts/SolidityGrammers/14-IfElse(\\xe6\\x8e\\xa7\\xe5\\x88\\xb6\\xe6\\xb5\\x81).sol\":1500:1514  uint j = i - 1 */\n      swap1\n      pop\n        /* \"SolidityProjects/contracts/SolidityGrammers/14-IfElse(\\xe6\\x8e\\xa7\\xe5\\x88\\xb6\\xe6\\xb5\\x81).sol\":1529:1633  while((j >= 0) && (temp < a[j])){... */\n    tag_51:\n        /* \"SolidityProjects/contracts/SolidityGrammers/14-IfElse(\\xe6\\x8e\\xa7\\xe5\\x88\\xb6\\xe6\\xb5\\x81).sol\":1541:1542  0 */\n      0x00\n        /* \"SolidityProjects/contracts/SolidityGrammers/14-IfElse(\\xe6\\x8e\\xa7\\xe5\\x88\\xb6\\xe6\\xb5\\x81).sol\":1536:1537  j */\n      dup2\n        /* \"SolidityProjects/contracts/SolidityGrammers/14-IfElse(\\xe6\\x8e\\xa7\\xe5\\x88\\xb6\\xe6\\xb5\\x81).sol\":1536:1542  j >= 0 */\n      lt\n      iszero\n        /* \"SolidityProjects/contracts/SolidityGrammers/14-IfElse(\\xe6\\x8e\\xa7\\xe5\\x88\\xb6\\xe6\\xb5\\x81).sol\":1535:1560  (j >= 0) && (temp < a[j]) */\n      dup1\n      iszero\n      tag_53\n      jumpi\n      pop\n        /* \"SolidityProjects/contracts/SolidityGrammers/14-IfElse(\\xe6\\x8e\\xa7\\xe5\\x88\\xb6\\xe6\\xb5\\x81).sol\":1555:1556  a */\n      dup5\n        /* \"SolidityProjects/contracts/SolidityGrammers/14-IfElse(\\xe6\\x8e\\xa7\\xe5\\x88\\xb6\\xe6\\xb5\\x81).sol\":1557:1558  j */\n      dup2\n        /* \"SolidityProjects/contracts/SolidityGrammers/14-IfElse(\\xe6\\x8e\\xa7\\xe5\\x88\\xb6\\xe6\\xb5\\x81).sol\":1555:1559  a[j] */\n      dup2\n      mload\n      dup2\n      lt\n      tag_54\n      jumpi\n      tag_55\n      tag_48\n      jump\t// in\n    tag_55:\n    tag_54:\n      0x20\n      mul\n      0x20\n      add\n      add\n      mload\n        /* \"SolidityProjects/contracts/SolidityGrammers/14-IfElse(\\xe6\\x8e\\xa7\\xe5\\x88\\xb6\\xe6\\xb5\\x81).sol\":1548:1552  temp */\n      dup3\n        /* \"SolidityProjects/contracts/SolidityGrammers/14-IfElse(\\xe6\\x8e\\xa7\\xe5\\x88\\xb6\\xe6\\xb5\\x81).sol\":1548:1559  temp < a[j] */\n      lt\n        /* \"SolidityProjects/contracts/SolidityGrammers/14-IfElse(\\xe6\\x8e\\xa7\\xe5\\x88\\xb6\\xe6\\xb5\\x81).sol\":1535:1560  (j >= 0) && (temp < a[j]) */\n    tag_53:\n        /* \"SolidityProjects/contracts/SolidityGrammers/14-IfElse(\\xe6\\x8e\\xa7\\xe5\\x88\\xb6\\xe6\\xb5\\x81).sol\":1529:1633  while((j >= 0) && (temp < a[j])){... */\n      iszero\n      tag_52\n      jumpi\n        /* \"SolidityProjects/contracts/SolidityGrammers/14-IfElse(\\xe6\\x8e\\xa7\\xe5\\x88\\xb6\\xe6\\xb5\\x81).sol\":1591:1592  a */\n      dup5\n        /* \"SolidityProjects/contracts/SolidityGrammers/14-IfElse(\\xe6\\x8e\\xa7\\xe5\\x88\\xb6\\xe6\\xb5\\x81).sol\":1593:1594  j */\n      dup2\n        /* \"SolidityProjects/contracts/SolidityGrammers/14-IfElse(\\xe6\\x8e\\xa7\\xe5\\x88\\xb6\\xe6\\xb5\\x81).sol\":1591:1595  a[j] */\n      dup2\n      mload\n      dup2\n      lt\n      tag_56\n      jumpi\n      tag_57\n      tag_48\n      jump\t// in\n    tag_57:\n    tag_56:\n      0x20\n      mul\n      0x20\n      add\n      add\n      mload\n        /* \"SolidityProjects/contracts/SolidityGrammers/14-IfElse(\\xe6\\x8e\\xa7\\xe5\\x88\\xb6\\xe6\\xb5\\x81).sol\":1580:1581  a */\n      dup6\n        /* \"SolidityProjects/contracts/SolidityGrammers/14-IfElse(\\xe6\\x8e\\xa7\\xe5\\x88\\xb6\\xe6\\xb5\\x81).sol\":1586:1587  1 */\n      0x01\n        /* \"SolidityProjects/contracts/SolidityGrammers/14-IfElse(\\xe6\\x8e\\xa7\\xe5\\x88\\xb6\\xe6\\xb5\\x81).sol\":1582:1583  j */\n      dup4\n        /* \"SolidityProjects/contracts/SolidityGrammers/14-IfElse(\\xe6\\x8e\\xa7\\xe5\\x88\\xb6\\xe6\\xb5\\x81).sol\":1582:1587  j + 1 */\n      tag_58\n      swap2\n      swap1\n      tag_59\n      jump\t// in\n    tag_58:\n        /* \"SolidityProjects/contracts/SolidityGrammers/14-IfElse(\\xe6\\x8e\\xa7\\xe5\\x88\\xb6\\xe6\\xb5\\x81).sol\":1580:1588  a[j + 1] */\n      dup2\n      mload\n      dup2\n      lt\n      tag_60\n      jumpi\n      tag_61\n      tag_48\n      jump\t// in\n    tag_61:\n    tag_60:\n      0x20\n      mul\n      0x20\n      add\n      add\n        /* \"SolidityProjects/contracts/SolidityGrammers/14-IfElse(\\xe6\\x8e\\xa7\\xe5\\x88\\xb6\\xe6\\xb5\\x81).sol\":1580:1595  a[j + 1] = a[j] */\n      dup2\n      dup2\n      mstore\n      pop\n      pop\n        /* \"SolidityProjects/contracts/SolidityGrammers/14-IfElse(\\xe6\\x8e\\xa7\\xe5\\x88\\xb6\\xe6\\xb5\\x81).sol\":1614:1617  j-- */\n      dup1\n      dup1\n      tag_62\n      swap1\n      tag_63\n      jump\t// in\n    tag_62:\n      swap2\n      pop\n      pop\n        /* \"SolidityProjects/contracts/SolidityGrammers/14-IfElse(\\xe6\\x8e\\xa7\\xe5\\x88\\xb6\\xe6\\xb5\\x81).sol\":1529:1633  while((j >= 0) && (temp < a[j])){... */\n      jump(tag_51)\n    tag_52:\n        /* \"SolidityProjects/contracts/SolidityGrammers/14-IfElse(\\xe6\\x8e\\xa7\\xe5\\x88\\xb6\\xe6\\xb5\\x81).sol\":1656:1660  temp */\n      dup2\n        /* \"SolidityProjects/contracts/SolidityGrammers/14-IfElse(\\xe6\\x8e\\xa7\\xe5\\x88\\xb6\\xe6\\xb5\\x81).sol\":1647:1648  a */\n      dup6\n        /* \"SolidityProjects/contracts/SolidityGrammers/14-IfElse(\\xe6\\x8e\\xa7\\xe5\\x88\\xb6\\xe6\\xb5\\x81).sol\":1651:1652  1 */\n      0x01\n        /* \"SolidityProjects/contracts/SolidityGrammers/14-IfElse(\\xe6\\x8e\\xa7\\xe5\\x88\\xb6\\xe6\\xb5\\x81).sol\":1649:1650  j */\n      dup4\n        /* \"SolidityProjects/contracts/SolidityGrammers/14-IfElse(\\xe6\\x8e\\xa7\\xe5\\x88\\xb6\\xe6\\xb5\\x81).sol\":1649:1652  j+1 */\n      tag_64\n      swap2\n      swap1\n      tag_59\n      jump\t// in\n    tag_64:\n        /* \"SolidityProjects/contracts/SolidityGrammers/14-IfElse(\\xe6\\x8e\\xa7\\xe5\\x88\\xb6\\xe6\\xb5\\x81).sol\":1647:1653  a[j+1] */\n      dup2\n      mload\n      dup2\n      lt\n      tag_65\n      jumpi\n      tag_66\n      tag_48\n      jump\t// in\n    tag_66:\n    tag_65:\n      0x20\n      mul\n      0x20\n      add\n      add\n        /* \"SolidityProjects/contracts/SolidityGrammers/14-IfElse(\\xe6\\x8e\\xa7\\xe5\\x88\\xb6\\xe6\\xb5\\x81).sol\":1647:1660  a[j+1] = temp */\n      dup2\n      dup2\n      mstore\n      pop\n      pop\n        /* \"SolidityProjects/contracts/SolidityGrammers/14-IfElse(\\xe6\\x8e\\xa7\\xe5\\x88\\xb6\\xe6\\xb5\\x81).sol\":1454:1672  {... */\n      pop\n      pop\n        /* \"SolidityProjects/contracts/SolidityGrammers/14-IfElse(\\xe6\\x8e\\xa7\\xe5\\x88\\xb6\\xe6\\xb5\\x81).sol\":1450:1453  i++ */\n      dup1\n      dup1\n      tag_67\n      swap1\n      tag_68\n      jump\t// in\n    tag_67:\n      swap2\n      pop\n      pop\n        /* \"SolidityProjects/contracts/SolidityGrammers/14-IfElse(\\xe6\\x8e\\xa7\\xe5\\x88\\xb6\\xe6\\xb5\\x81).sol\":1422:1672  for(uint i = 1;i < a.length;i++){... */\n      jump(tag_43)\n    tag_44:\n      pop\n        /* \"SolidityProjects/contracts/SolidityGrammers/14-IfElse(\\xe6\\x8e\\xa7\\xe5\\x88\\xb6\\xe6\\xb5\\x81).sol\":1689:1690  a */\n      dup2\n        /* \"SolidityProjects/contracts/SolidityGrammers/14-IfElse(\\xe6\\x8e\\xa7\\xe5\\x88\\xb6\\xe6\\xb5\\x81).sol\":1682:1690  return a */\n      swap1\n      pop\n        /* \"SolidityProjects/contracts/SolidityGrammers/14-IfElse(\\xe6\\x8e\\xa7\\xe5\\x88\\xb6\\xe6\\xb5\\x81).sol\":1332:1698  function InsertionSortWrong(uint[] memory a) public pure returns(uint[] memory){... */\n      swap2\n      swap1\n      pop\n      jump\t// out\n        /* \"SolidityProjects/contracts/SolidityGrammers/14-IfElse(\\xe6\\x8e\\xa7\\xe5\\x88\\xb6\\xe6\\xb5\\x81).sol\":1139:1253  function ternaryTest(uint256 x,uint256 y) public pure returns(uint256){... */\n    tag_20:\n        /* \"SolidityProjects/contracts/SolidityGrammers/14-IfElse(\\xe6\\x8e\\xa7\\xe5\\x88\\xb6\\xe6\\xb5\\x81).sol\":1201:1208  uint256 */\n      0x00\n        /* \"SolidityProjects/contracts/SolidityGrammers/14-IfElse(\\xe6\\x8e\\xa7\\xe5\\x88\\xb6\\xe6\\xb5\\x81).sol\":1232:1233  y */\n      dup2\n        /* \"SolidityProjects/contracts/SolidityGrammers/14-IfElse(\\xe6\\x8e\\xa7\\xe5\\x88\\xb6\\xe6\\xb5\\x81).sol\":1227:1228  x */\n      dup4\n        /* \"SolidityProjects/contracts/SolidityGrammers/14-IfElse(\\xe6\\x8e\\xa7\\xe5\\x88\\xb6\\xe6\\xb5\\x81).sol\":1227:1233  x >= y */\n      lt\n      iszero\n        /* \"SolidityProjects/contracts/SolidityGrammers/14-IfElse(\\xe6\\x8e\\xa7\\xe5\\x88\\xb6\\xe6\\xb5\\x81).sol\":1227:1241  x >= y ? x : y */\n      tag_70\n      jumpi\n        /* \"SolidityProjects/contracts/SolidityGrammers/14-IfElse(\\xe6\\x8e\\xa7\\xe5\\x88\\xb6\\xe6\\xb5\\x81).sol\":1240:1241  y */\n      dup2\n        /* \"SolidityProjects/contracts/SolidityGrammers/14-IfElse(\\xe6\\x8e\\xa7\\xe5\\x88\\xb6\\xe6\\xb5\\x81).sol\":1227:1241  x >= y ? x : y */\n      jump(tag_71)\n    tag_70:\n        /* \"SolidityProjects/contracts/SolidityGrammers/14-IfElse(\\xe6\\x8e\\xa7\\xe5\\x88\\xb6\\xe6\\xb5\\x81).sol\":1236:1237  x */\n      dup3\n        /* \"SolidityProjects/contracts/SolidityGrammers/14-IfElse(\\xe6\\x8e\\xa7\\xe5\\x88\\xb6\\xe6\\xb5\\x81).sol\":1227:1241  x >= y ? x : y */\n    tag_71:\n        /* \"SolidityProjects/contracts/SolidityGrammers/14-IfElse(\\xe6\\x8e\\xa7\\xe5\\x88\\xb6\\xe6\\xb5\\x81).sol\":1220:1241  return x >= y ? x : y */\n      swap1\n      pop\n        /* \"SolidityProjects/contracts/SolidityGrammers/14-IfElse(\\xe6\\x8e\\xa7\\xe5\\x88\\xb6\\xe6\\xb5\\x81).sol\":1139:1253  function ternaryTest(uint256 x,uint256 y) public pure returns(uint256){... */\n      swap3\n      swap2\n      pop\n      pop\n      jump\t// out\n        /* \"SolidityProjects/contracts/SolidityGrammers/14-IfElse(\\xe6\\x8e\\xa7\\xe5\\x88\\xb6\\xe6\\xb5\\x81).sol\":660:866  function whileLoopTest() public pure returns(uint256){... */\n    tag_24:\n        /* \"SolidityProjects/contracts/SolidityGrammers/14-IfElse(\\xe6\\x8e\\xa7\\xe5\\x88\\xb6\\xe6\\xb5\\x81).sol\":705:712  uint256 */\n      0x00\n        /* \"SolidityProjects/contracts/SolidityGrammers/14-IfElse(\\xe6\\x8e\\xa7\\xe5\\x88\\xb6\\xe6\\xb5\\x81).sol\":726:734  uint sum */\n      dup1\n        /* \"SolidityProjects/contracts/SolidityGrammers/14-IfElse(\\xe6\\x8e\\xa7\\xe5\\x88\\xb6\\xe6\\xb5\\x81).sol\":737:738  0 */\n      0x00\n        /* \"SolidityProjects/contracts/SolidityGrammers/14-IfElse(\\xe6\\x8e\\xa7\\xe5\\x88\\xb6\\xe6\\xb5\\x81).sol\":726:738  uint sum = 0 */\n      swap1\n      pop\n        /* \"SolidityProjects/contracts/SolidityGrammers/14-IfElse(\\xe6\\x8e\\xa7\\xe5\\x88\\xb6\\xe6\\xb5\\x81).sol\":749:755  uint i */\n      0x00\n        /* \"SolidityProjects/contracts/SolidityGrammers/14-IfElse(\\xe6\\x8e\\xa7\\xe5\\x88\\xb6\\xe6\\xb5\\x81).sol\":770:836  while(i < 10){... */\n    tag_73:\n        /* \"SolidityProjects/contracts/SolidityGrammers/14-IfElse(\\xe6\\x8e\\xa7\\xe5\\x88\\xb6\\xe6\\xb5\\x81).sol\":780:782  10 */\n      0x0a\n        /* \"SolidityProjects/contracts/SolidityGrammers/14-IfElse(\\xe6\\x8e\\xa7\\xe5\\x88\\xb6\\xe6\\xb5\\x81).sol\":776:777  i */\n      dup2\n        /* \"SolidityProjects/contracts/SolidityGrammers/14-IfElse(\\xe6\\x8e\\xa7\\xe5\\x88\\xb6\\xe6\\xb5\\x81).sol\":776:782  i < 10 */\n      lt\n        /* \"SolidityProjects/contracts/SolidityGrammers/14-IfElse(\\xe6\\x8e\\xa7\\xe5\\x88\\xb6\\xe6\\xb5\\x81).sol\":770:836  while(i < 10){... */\n      iszero\n      tag_74\n      jumpi\n        /* \"SolidityProjects/contracts/SolidityGrammers/14-IfElse(\\xe6\\x8e\\xa7\\xe5\\x88\\xb6\\xe6\\xb5\\x81).sol\":805:806  i */\n      dup1\n        /* \"SolidityProjects/contracts/SolidityGrammers/14-IfElse(\\xe6\\x8e\\xa7\\xe5\\x88\\xb6\\xe6\\xb5\\x81).sol\":798:806  sum += i */\n      dup3\n      tag_75\n      swap2\n      swap1\n      tag_59\n      jump\t// in\n    tag_75:\n      swap2\n      pop\n        /* \"SolidityProjects/contracts/SolidityGrammers/14-IfElse(\\xe6\\x8e\\xa7\\xe5\\x88\\xb6\\xe6\\xb5\\x81).sol\":821:824  i++ */\n      dup1\n      dup1\n      tag_76\n      swap1\n      tag_68\n      jump\t// in\n    tag_76:\n      swap2\n      pop\n      pop\n        /* \"SolidityProjects/contracts/SolidityGrammers/14-IfElse(\\xe6\\x8e\\xa7\\xe5\\x88\\xb6\\xe6\\xb5\\x81).sol\":770:836  while(i < 10){... */\n      jump(tag_73)\n    tag_74:\n        /* \"SolidityProjects/contracts/SolidityGrammers/14-IfElse(\\xe6\\x8e\\xa7\\xe5\\x88\\xb6\\xe6\\xb5\\x81).sol\":853:856  sum */\n      dup2\n        /* \"SolidityProjects/contracts/SolidityGrammers/14-IfElse(\\xe6\\x8e\\xa7\\xe5\\x88\\xb6\\xe6\\xb5\\x81).sol\":846:856  return sum */\n      swap3\n      pop\n      pop\n      pop\n        /* \"SolidityProjects/contracts/SolidityGrammers/14-IfElse(\\xe6\\x8e\\xa7\\xe5\\x88\\xb6\\xe6\\xb5\\x81).sol\":660:866  function whileLoopTest() public pure returns(uint256){... */\n      swap1\n      jump\t// out\n        /* \"SolidityProjects/contracts/SolidityGrammers/14-IfElse(\\xe6\\x8e\\xa7\\xe5\\x88\\xb6\\xe6\\xb5\\x81).sol\":1935:2317  function insertionSort(uint[] memory a) public pure returns(uint[] memory){... */\n    tag_28:\n        /* \"SolidityProjects/contracts/SolidityGrammers/14-IfElse(\\xe6\\x8e\\xa7\\xe5\\x88\\xb6\\xe6\\xb5\\x81).sol\":1995:2008  uint[] memory */\n      0x60\n        /* \"SolidityProjects/contracts/SolidityGrammers/14-IfElse(\\xe6\\x8e\\xa7\\xe5\\x88\\xb6\\xe6\\xb5\\x81).sol\":2024:2030  uint i */\n      0x00\n        /* \"SolidityProjects/contracts/SolidityGrammers/14-IfElse(\\xe6\\x8e\\xa7\\xe5\\x88\\xb6\\xe6\\xb5\\x81).sol\":2033:2034  1 */\n      0x01\n        /* \"SolidityProjects/contracts/SolidityGrammers/14-IfElse(\\xe6\\x8e\\xa7\\xe5\\x88\\xb6\\xe6\\xb5\\x81).sol\":2024:2034  uint i = 1 */\n      swap1\n      pop\n        /* \"SolidityProjects/contracts/SolidityGrammers/14-IfElse(\\xe6\\x8e\\xa7\\xe5\\x88\\xb6\\xe6\\xb5\\x81).sol\":2020:2290  for(uint i = 1;i < a.length;i++){... */\n    tag_78:\n        /* \"SolidityProjects/contracts/SolidityGrammers/14-IfElse(\\xe6\\x8e\\xa7\\xe5\\x88\\xb6\\xe6\\xb5\\x81).sol\":2039:2040  a */\n      dup3\n        /* \"SolidityProjects/contracts/SolidityGrammers/14-IfElse(\\xe6\\x8e\\xa7\\xe5\\x88\\xb6\\xe6\\xb5\\x81).sol\":2039:2047  a.length */\n      mload\n        /* \"SolidityProjects/contracts/SolidityGrammers/14-IfElse(\\xe6\\x8e\\xa7\\xe5\\x88\\xb6\\xe6\\xb5\\x81).sol\":2035:2036  i */\n      dup2\n        /* \"SolidityProjects/contracts/SolidityGrammers/14-IfElse(\\xe6\\x8e\\xa7\\xe5\\x88\\xb6\\xe6\\xb5\\x81).sol\":2035:2047  i < a.length */\n      lt\n        /* \"SolidityProjects/contracts/SolidityGrammers/14-IfElse(\\xe6\\x8e\\xa7\\xe5\\x88\\xb6\\xe6\\xb5\\x81).sol\":2020:2290  for(uint i = 1;i < a.length;i++){... */\n      iszero\n      tag_79\n      jumpi\n        /* \"SolidityProjects/contracts/SolidityGrammers/14-IfElse(\\xe6\\x8e\\xa7\\xe5\\x88\\xb6\\xe6\\xb5\\x81).sol\":2067:2076  uint temp */\n      0x00\n        /* \"SolidityProjects/contracts/SolidityGrammers/14-IfElse(\\xe6\\x8e\\xa7\\xe5\\x88\\xb6\\xe6\\xb5\\x81).sol\":2079:2080  a */\n      dup4\n        /* \"SolidityProjects/contracts/SolidityGrammers/14-IfElse(\\xe6\\x8e\\xa7\\xe5\\x88\\xb6\\xe6\\xb5\\x81).sol\":2081:2082  i */\n      dup3\n        /* \"SolidityProjects/contracts/SolidityGrammers/14-IfElse(\\xe6\\x8e\\xa7\\xe5\\x88\\xb6\\xe6\\xb5\\x81).sol\":2079:2083  a[i] */\n      dup2\n      mload\n      dup2\n      lt\n      tag_81\n      jumpi\n      tag_82\n      tag_48\n      jump\t// in\n    tag_82:\n    tag_81:\n      0x20\n      mul\n      0x20\n      add\n      add\n      mload\n        /* \"SolidityProjects/contracts/SolidityGrammers/14-IfElse(\\xe6\\x8e\\xa7\\xe5\\x88\\xb6\\xe6\\xb5\\x81).sol\":2067:2083  uint temp = a[i] */\n      swap1\n      pop\n        /* \"SolidityProjects/contracts/SolidityGrammers/14-IfElse(\\xe6\\x8e\\xa7\\xe5\\x88\\xb6\\xe6\\xb5\\x81).sol\":2098:2104  uint j */\n      0x00\n        /* \"SolidityProjects/contracts/SolidityGrammers/14-IfElse(\\xe6\\x8e\\xa7\\xe5\\x88\\xb6\\xe6\\xb5\\x81).sol\":2107:2108  i */\n      dup3\n        /* \"SolidityProjects/contracts/SolidityGrammers/14-IfElse(\\xe6\\x8e\\xa7\\xe5\\x88\\xb6\\xe6\\xb5\\x81).sol\":2098:2108  uint j = i */\n      swap1\n      pop\n        /* \"SolidityProjects/contracts/SolidityGrammers/14-IfElse(\\xe6\\x8e\\xa7\\xe5\\x88\\xb6\\xe6\\xb5\\x81).sol\":2148:2253  while( (j >= 1) && (temp < a[j-1])){... */\n    tag_83:\n        /* \"SolidityProjects/contracts/SolidityGrammers/14-IfElse(\\xe6\\x8e\\xa7\\xe5\\x88\\xb6\\xe6\\xb5\\x81).sol\":2161:2162  1 */\n      0x01\n        /* \"SolidityProjects/contracts/SolidityGrammers/14-IfElse(\\xe6\\x8e\\xa7\\xe5\\x88\\xb6\\xe6\\xb5\\x81).sol\":2156:2157  j */\n      dup2\n        /* \"SolidityProjects/contracts/SolidityGrammers/14-IfElse(\\xe6\\x8e\\xa7\\xe5\\x88\\xb6\\xe6\\xb5\\x81).sol\":2156:2162  j >= 1 */\n      lt\n      iszero\n        /* \"SolidityProjects/contracts/SolidityGrammers/14-IfElse(\\xe6\\x8e\\xa7\\xe5\\x88\\xb6\\xe6\\xb5\\x81).sol\":2155:2182  (j >= 1) && (temp < a[j-1]) */\n      dup1\n      iszero\n      tag_85\n      jumpi\n      pop\n        /* \"SolidityProjects/contracts/SolidityGrammers/14-IfElse(\\xe6\\x8e\\xa7\\xe5\\x88\\xb6\\xe6\\xb5\\x81).sol\":2175:2176  a */\n      dup5\n        /* \"SolidityProjects/contracts/SolidityGrammers/14-IfElse(\\xe6\\x8e\\xa7\\xe5\\x88\\xb6\\xe6\\xb5\\x81).sol\":2179:2180  1 */\n      0x01\n        /* \"SolidityProjects/contracts/SolidityGrammers/14-IfElse(\\xe6\\x8e\\xa7\\xe5\\x88\\xb6\\xe6\\xb5\\x81).sol\":2177:2178  j */\n      dup3\n        /* \"SolidityProjects/contracts/SolidityGrammers/14-IfElse(\\xe6\\x8e\\xa7\\xe5\\x88\\xb6\\xe6\\xb5\\x81).sol\":2177:2180  j-1 */\n      tag_86\n      swap2\n      swap1\n      tag_50\n      jump\t// in\n    tag_86:\n        /* \"SolidityProjects/contracts/SolidityGrammers/14-IfElse(\\xe6\\x8e\\xa7\\xe5\\x88\\xb6\\xe6\\xb5\\x81).sol\":2175:2181  a[j-1] */\n      dup2\n      mload\n      dup2\n      lt\n      tag_87\n      jumpi\n      tag_88\n      tag_48\n      jump\t// in\n    tag_88:\n    tag_87:\n      0x20\n      mul\n      0x20\n      add\n      add\n      mload\n        /* \"SolidityProjects/contracts/SolidityGrammers/14-IfElse(\\xe6\\x8e\\xa7\\xe5\\x88\\xb6\\xe6\\xb5\\x81).sol\":2168:2172  temp */\n      dup3\n        /* \"SolidityProjects/contracts/SolidityGrammers/14-IfElse(\\xe6\\x8e\\xa7\\xe5\\x88\\xb6\\xe6\\xb5\\x81).sol\":2168:2181  temp < a[j-1] */\n      lt\n        /* \"SolidityProjects/contracts/SolidityGrammers/14-IfElse(\\xe6\\x8e\\xa7\\xe5\\x88\\xb6\\xe6\\xb5\\x81).sol\":2155:2182  (j >= 1) && (temp < a[j-1]) */\n    tag_85:\n        /* \"SolidityProjects/contracts/SolidityGrammers/14-IfElse(\\xe6\\x8e\\xa7\\xe5\\x88\\xb6\\xe6\\xb5\\x81).sol\":2148:2253  while( (j >= 1) && (temp < a[j-1])){... */\n      iszero\n      tag_84\n      jumpi\n        /* \"SolidityProjects/contracts/SolidityGrammers/14-IfElse(\\xe6\\x8e\\xa7\\xe5\\x88\\xb6\\xe6\\xb5\\x81).sol\":2209:2210  a */\n      dup5\n        /* \"SolidityProjects/contracts/SolidityGrammers/14-IfElse(\\xe6\\x8e\\xa7\\xe5\\x88\\xb6\\xe6\\xb5\\x81).sol\":2213:2214  1 */\n      0x01\n        /* \"SolidityProjects/contracts/SolidityGrammers/14-IfElse(\\xe6\\x8e\\xa7\\xe5\\x88\\xb6\\xe6\\xb5\\x81).sol\":2211:2212  j */\n      dup3\n        /* \"SolidityProjects/contracts/SolidityGrammers/14-IfElse(\\xe6\\x8e\\xa7\\xe5\\x88\\xb6\\xe6\\xb5\\x81).sol\":2211:2214  j-1 */\n      tag_89\n      swap2\n      swap1\n      tag_50\n      jump\t// in\n    tag_89:\n        /* \"SolidityProjects/contracts/SolidityGrammers/14-IfElse(\\xe6\\x8e\\xa7\\xe5\\x88\\xb6\\xe6\\xb5\\x81).sol\":2209:2215  a[j-1] */\n      dup2\n      mload\n      dup2\n      lt\n      tag_90\n      jumpi\n      tag_91\n      tag_48\n      jump\t// in\n    tag_91:\n    tag_90:\n      0x20\n      mul\n      0x20\n      add\n      add\n      mload\n        /* \"SolidityProjects/contracts/SolidityGrammers/14-IfElse(\\xe6\\x8e\\xa7\\xe5\\x88\\xb6\\xe6\\xb5\\x81).sol\":2202:2203  a */\n      dup6\n        /* \"SolidityProjects/contracts/SolidityGrammers/14-IfElse(\\xe6\\x8e\\xa7\\xe5\\x88\\xb6\\xe6\\xb5\\x81).sol\":2204:2205  j */\n      dup3\n        /* \"SolidityProjects/contracts/SolidityGrammers/14-IfElse(\\xe6\\x8e\\xa7\\xe5\\x88\\xb6\\xe6\\xb5\\x81).sol\":2202:2206  a[j] */\n      dup2\n      mload\n      dup2\n      lt\n      tag_92\n      jumpi\n      tag_93\n      tag_48\n      jump\t// in\n    tag_93:\n    tag_92:\n      0x20\n      mul\n      0x20\n      add\n      add\n        /* \"SolidityProjects/contracts/SolidityGrammers/14-IfElse(\\xe6\\x8e\\xa7\\xe5\\x88\\xb6\\xe6\\xb5\\x81).sol\":2202:2215  a[j] = a[j-1] */\n      dup2\n      dup2\n      mstore\n      pop\n      pop\n        /* \"SolidityProjects/contracts/SolidityGrammers/14-IfElse(\\xe6\\x8e\\xa7\\xe5\\x88\\xb6\\xe6\\xb5\\x81).sol\":2234:2237  j-- */\n      dup1\n      dup1\n      tag_94\n      swap1\n      tag_63\n      jump\t// in\n    tag_94:\n      swap2\n      pop\n      pop\n        /* \"SolidityProjects/contracts/SolidityGrammers/14-IfElse(\\xe6\\x8e\\xa7\\xe5\\x88\\xb6\\xe6\\xb5\\x81).sol\":2148:2253  while( (j >= 1) && (temp < a[j-1])){... */\n      jump(tag_83)\n    tag_84:\n        /* \"SolidityProjects/contracts/SolidityGrammers/14-IfElse(\\xe6\\x8e\\xa7\\xe5\\x88\\xb6\\xe6\\xb5\\x81).sol\":2274:2278  temp */\n      dup2\n        /* \"SolidityProjects/contracts/SolidityGrammers/14-IfElse(\\xe6\\x8e\\xa7\\xe5\\x88\\xb6\\xe6\\xb5\\x81).sol\":2267:2268  a */\n      dup6\n        /* \"SolidityProjects/contracts/SolidityGrammers/14-IfElse(\\xe6\\x8e\\xa7\\xe5\\x88\\xb6\\xe6\\xb5\\x81).sol\":2269:2270  j */\n      dup3\n        /* \"SolidityProjects/contracts/SolidityGrammers/14-IfElse(\\xe6\\x8e\\xa7\\xe5\\x88\\xb6\\xe6\\xb5\\x81).sol\":2267:2271  a[j] */\n      dup2\n      mload\n      dup2\n      lt\n      tag_95\n      jumpi\n      tag_96\n      tag_48\n      jump\t// in\n    tag_96:\n    tag_95:\n      0x20\n      mul\n      0x20\n      add\n      add\n        /* \"SolidityProjects/contracts/SolidityGrammers/14-IfElse(\\xe6\\x8e\\xa7\\xe5\\x88\\xb6\\xe6\\xb5\\x81).sol\":2267:2278  a[j] = temp */\n      dup2\n      dup2\n      mstore\n      pop\n      pop\n        /* \"SolidityProjects/contracts/SolidityGrammers/14-IfElse(\\xe6\\x8e\\xa7\\xe5\\x88\\xb6\\xe6\\xb5\\x81).sol\":2052:2290  {... */\n      pop\n      pop\n        /* \"SolidityProjects/contracts/SolidityGrammers/14-IfElse(\\xe6\\x8e\\xa7\\xe5\\x88\\xb6\\xe6\\xb5\\x81).sol\":2048:2051  i++ */\n      dup1\n      dup1\n      tag_97\n      swap1\n      tag_68\n      jump\t// in\n    tag_97:\n      swap2\n      pop\n      pop\n        /* \"SolidityProjects/contracts/SolidityGrammers/14-IfElse(\\xe6\\x8e\\xa7\\xe5\\x88\\xb6\\xe6\\xb5\\x81).sol\":2020:2290  for(uint i = 1;i < a.length;i++){... */\n      jump(tag_78)\n    tag_79:\n      pop\n        /* \"SolidityProjects/contracts/SolidityGrammers/14-IfElse(\\xe6\\x8e\\xa7\\xe5\\x88\\xb6\\xe6\\xb5\\x81).sol\":2307:2308  a */\n      dup2\n        /* \"SolidityProjects/contracts/SolidityGrammers/14-IfElse(\\xe6\\x8e\\xa7\\xe5\\x88\\xb6\\xe6\\xb5\\x81).sol\":2300:2309  return(a) */\n      swap1\n      pop\n        /* \"SolidityProjects/contracts/SolidityGrammers/14-IfElse(\\xe6\\x8e\\xa7\\xe5\\x88\\xb6\\xe6\\xb5\\x81).sol\":1935:2317  function insertionSort(uint[] memory a) public pure returns(uint[] memory){... */\n      swap2\n      swap1\n      pop\n      jump\t// out\n        /* \"SolidityProjects/contracts/SolidityGrammers/14-IfElse(\\xe6\\x8e\\xa7\\xe5\\x88\\xb6\\xe6\\xb5\\x81).sol\":252:427  function ifElseTest(uint256 number) public pure returns(bool){... */\n    tag_33:\n        /* \"SolidityProjects/contracts/SolidityGrammers/14-IfElse(\\xe6\\x8e\\xa7\\xe5\\x88\\xb6\\xe6\\xb5\\x81).sol\":308:312  bool */\n      0x00\n        /* \"SolidityProjects/contracts/SolidityGrammers/14-IfElse(\\xe6\\x8e\\xa7\\xe5\\x88\\xb6\\xe6\\xb5\\x81).sol\":337:338  1 */\n      0x01\n        /* \"SolidityProjects/contracts/SolidityGrammers/14-IfElse(\\xe6\\x8e\\xa7\\xe5\\x88\\xb6\\xe6\\xb5\\x81).sol\":327:333  number */\n      dup3\n        /* \"SolidityProjects/contracts/SolidityGrammers/14-IfElse(\\xe6\\x8e\\xa7\\xe5\\x88\\xb6\\xe6\\xb5\\x81).sol\":327:338  number == 1 */\n      sub\n        /* \"SolidityProjects/contracts/SolidityGrammers/14-IfElse(\\xe6\\x8e\\xa7\\xe5\\x88\\xb6\\xe6\\xb5\\x81).sol\":324:420  if(number == 1){... */\n      tag_99\n      jumpi\n        /* \"SolidityProjects/contracts/SolidityGrammers/14-IfElse(\\xe6\\x8e\\xa7\\xe5\\x88\\xb6\\xe6\\xb5\\x81).sol\":361:365  true */\n      0x01\n        /* \"SolidityProjects/contracts/SolidityGrammers/14-IfElse(\\xe6\\x8e\\xa7\\xe5\\x88\\xb6\\xe6\\xb5\\x81).sol\":354:365  return true */\n      swap1\n      pop\n      jump(tag_98)\n        /* \"SolidityProjects/contracts/SolidityGrammers/14-IfElse(\\xe6\\x8e\\xa7\\xe5\\x88\\xb6\\xe6\\xb5\\x81).sol\":324:420  if(number == 1){... */\n    tag_99:\n        /* \"SolidityProjects/contracts/SolidityGrammers/14-IfElse(\\xe6\\x8e\\xa7\\xe5\\x88\\xb6\\xe6\\xb5\\x81).sol\":403:408  false */\n      0x00\n        /* \"SolidityProjects/contracts/SolidityGrammers/14-IfElse(\\xe6\\x8e\\xa7\\xe5\\x88\\xb6\\xe6\\xb5\\x81).sol\":396:408  return false */\n      swap1\n      pop\n        /* \"SolidityProjects/contracts/SolidityGrammers/14-IfElse(\\xe6\\x8e\\xa7\\xe5\\x88\\xb6\\xe6\\xb5\\x81).sol\":252:427  function ifElseTest(uint256 number) public pure returns(bool){... */\n    tag_98:\n      swap2\n      swap1\n      pop\n      jump\t// out\n        /* \"SolidityProjects/contracts/SolidityGrammers/14-IfElse(\\xe6\\x8e\\xa7\\xe5\\x88\\xb6\\xe6\\xb5\\x81).sol\":899:1105  function doWhileLoopTest() public pure returns(uint256){... */\n    tag_37:\n        /* \"SolidityProjects/contracts/SolidityGrammers/14-IfElse(\\xe6\\x8e\\xa7\\xe5\\x88\\xb6\\xe6\\xb5\\x81).sol\":946:953  uint256 */\n      0x00\n        /* \"SolidityProjects/contracts/SolidityGrammers/14-IfElse(\\xe6\\x8e\\xa7\\xe5\\x88\\xb6\\xe6\\xb5\\x81).sol\":965:973  uint sum */\n      dup1\n        /* \"SolidityProjects/contracts/SolidityGrammers/14-IfElse(\\xe6\\x8e\\xa7\\xe5\\x88\\xb6\\xe6\\xb5\\x81).sol\":976:977  0 */\n      0x00\n        /* \"SolidityProjects/contracts/SolidityGrammers/14-IfElse(\\xe6\\x8e\\xa7\\xe5\\x88\\xb6\\xe6\\xb5\\x81).sol\":965:977  uint sum = 0 */\n      swap1\n      pop\n        /* \"SolidityProjects/contracts/SolidityGrammers/14-IfElse(\\xe6\\x8e\\xa7\\xe5\\x88\\xb6\\xe6\\xb5\\x81).sol\":988:994  uint i */\n      0x00\n        /* \"SolidityProjects/contracts/SolidityGrammers/14-IfElse(\\xe6\\x8e\\xa7\\xe5\\x88\\xb6\\xe6\\xb5\\x81).sol\":1009:1077  do{... */\n    tag_102:\n        /* \"SolidityProjects/contracts/SolidityGrammers/14-IfElse(\\xe6\\x8e\\xa7\\xe5\\x88\\xb6\\xe6\\xb5\\x81).sol\":1033:1034  i */\n      dup1\n        /* \"SolidityProjects/contracts/SolidityGrammers/14-IfElse(\\xe6\\x8e\\xa7\\xe5\\x88\\xb6\\xe6\\xb5\\x81).sol\":1026:1034  sum += i */\n      dup3\n      tag_105\n      swap2\n      swap1\n      tag_59\n      jump\t// in\n    tag_105:\n      swap2\n      pop\n        /* \"SolidityProjects/contracts/SolidityGrammers/14-IfElse(\\xe6\\x8e\\xa7\\xe5\\x88\\xb6\\xe6\\xb5\\x81).sol\":1049:1052  i++ */\n      dup1\n      dup1\n      tag_106\n      swap1\n      tag_68\n      jump\t// in\n    tag_106:\n      swap2\n      pop\n      pop\n        /* \"SolidityProjects/contracts/SolidityGrammers/14-IfElse(\\xe6\\x8e\\xa7\\xe5\\x88\\xb6\\xe6\\xb5\\x81).sol\":1073:1075  10 */\n      0x0a\n        /* \"SolidityProjects/contracts/SolidityGrammers/14-IfElse(\\xe6\\x8e\\xa7\\xe5\\x88\\xb6\\xe6\\xb5\\x81).sol\":1070:1071  i */\n      dup2\n        /* \"SolidityProjects/contracts/SolidityGrammers/14-IfElse(\\xe6\\x8e\\xa7\\xe5\\x88\\xb6\\xe6\\xb5\\x81).sol\":1070:1075  i< 10 */\n      lt\n        /* \"SolidityProjects/contracts/SolidityGrammers/14-IfElse(\\xe6\\x8e\\xa7\\xe5\\x88\\xb6\\xe6\\xb5\\x81).sol\":1009:1077  do{... */\n      tag_102\n      jumpi\n        /* \"SolidityProjects/contracts/SolidityGrammers/14-IfElse(\\xe6\\x8e\\xa7\\xe5\\x88\\xb6\\xe6\\xb5\\x81).sol\":1094:1097  sum */\n      dup2\n        /* \"SolidityProjects/contracts/SolidityGrammers/14-IfElse(\\xe6\\x8e\\xa7\\xe5\\x88\\xb6\\xe6\\xb5\\x81).sol\":1087:1097  return sum */\n      swap3\n      pop\n      pop\n      pop\n        /* \"SolidityProjects/contracts/SolidityGrammers/14-IfElse(\\xe6\\x8e\\xa7\\xe5\\x88\\xb6\\xe6\\xb5\\x81).sol\":899:1105  function doWhileLoopTest() public pure returns(uint256){... */\n      swap1\n      jump\t// out\n        /* \"SolidityProjects/contracts/SolidityGrammers/14-IfElse(\\xe6\\x8e\\xa7\\xe5\\x88\\xb6\\xe6\\xb5\\x81).sol\":455:630  function forLoopTest() public pure returns(uint256){... */\n    tag_40:\n        /* \"SolidityProjects/contracts/SolidityGrammers/14-IfElse(\\xe6\\x8e\\xa7\\xe5\\x88\\xb6\\xe6\\xb5\\x81).sol\":498:505  uint256 */\n      0x00\n        /* \"SolidityProjects/contracts/SolidityGrammers/14-IfElse(\\xe6\\x8e\\xa7\\xe5\\x88\\xb6\\xe6\\xb5\\x81).sol\":517:525  uint sum */\n      dup1\n        /* \"SolidityProjects/contracts/SolidityGrammers/14-IfElse(\\xe6\\x8e\\xa7\\xe5\\x88\\xb6\\xe6\\xb5\\x81).sol\":528:529  0 */\n      0x00\n        /* \"SolidityProjects/contracts/SolidityGrammers/14-IfElse(\\xe6\\x8e\\xa7\\xe5\\x88\\xb6\\xe6\\xb5\\x81).sol\":517:529  uint sum = 0 */\n      swap1\n      pop\n        /* \"SolidityProjects/contracts/SolidityGrammers/14-IfElse(\\xe6\\x8e\\xa7\\xe5\\x88\\xb6\\xe6\\xb5\\x81).sol\":544:550  uint i */\n      0x00\n        /* \"SolidityProjects/contracts/SolidityGrammers/14-IfElse(\\xe6\\x8e\\xa7\\xe5\\x88\\xb6\\xe6\\xb5\\x81).sol\":540:602  for(uint i = 0;i < 10; i++){... */\n    tag_108:\n        /* \"SolidityProjects/contracts/SolidityGrammers/14-IfElse(\\xe6\\x8e\\xa7\\xe5\\x88\\xb6\\xe6\\xb5\\x81).sol\":559:561  10 */\n      0x0a\n        /* \"SolidityProjects/contracts/SolidityGrammers/14-IfElse(\\xe6\\x8e\\xa7\\xe5\\x88\\xb6\\xe6\\xb5\\x81).sol\":555:556  i */\n      dup2\n        /* \"SolidityProjects/contracts/SolidityGrammers/14-IfElse(\\xe6\\x8e\\xa7\\xe5\\x88\\xb6\\xe6\\xb5\\x81).sol\":555:561  i < 10 */\n      lt\n        /* \"SolidityProjects/contracts/SolidityGrammers/14-IfElse(\\xe6\\x8e\\xa7\\xe5\\x88\\xb6\\xe6\\xb5\\x81).sol\":540:602  for(uint i = 0;i < 10; i++){... */\n      iszero\n      tag_109\n      jumpi\n        /* \"SolidityProjects/contracts/SolidityGrammers/14-IfElse(\\xe6\\x8e\\xa7\\xe5\\x88\\xb6\\xe6\\xb5\\x81).sol\":589:590  i */\n      dup1\n        /* \"SolidityProjects/contracts/SolidityGrammers/14-IfElse(\\xe6\\x8e\\xa7\\xe5\\x88\\xb6\\xe6\\xb5\\x81).sol\":582:590  sum += i */\n      dup3\n      tag_111\n      swap2\n      swap1\n      tag_59\n      jump\t// in\n    tag_111:\n      swap2\n      pop\n        /* \"SolidityProjects/contracts/SolidityGrammers/14-IfElse(\\xe6\\x8e\\xa7\\xe5\\x88\\xb6\\xe6\\xb5\\x81).sol\":563:566  i++ */\n      dup1\n      dup1\n      tag_112\n      swap1\n      tag_68\n      jump\t// in\n    tag_112:\n      swap2\n      pop\n      pop\n        /* \"SolidityProjects/contracts/SolidityGrammers/14-IfElse(\\xe6\\x8e\\xa7\\xe5\\x88\\xb6\\xe6\\xb5\\x81).sol\":540:602  for(uint i = 0;i < 10; i++){... */\n      jump(tag_108)\n    tag_109:\n      pop\n        /* \"SolidityProjects/contracts/SolidityGrammers/14-IfElse(\\xe6\\x8e\\xa7\\xe5\\x88\\xb6\\xe6\\xb5\\x81).sol\":619:622  sum */\n      dup1\n        /* \"SolidityProjects/contracts/SolidityGrammers/14-IfElse(\\xe6\\x8e\\xa7\\xe5\\x88\\xb6\\xe6\\xb5\\x81).sol\":612:622  return sum */\n      swap2\n      pop\n      pop\n        /* \"SolidityProjects/contracts/SolidityGrammers/14-IfElse(\\xe6\\x8e\\xa7\\xe5\\x88\\xb6\\xe6\\xb5\\x81).sol\":455:630  function forLoopTest() public pure returns(uint256){... */\n      swap1\n      jump\t// out\n        /* \"#utility.yul\":7:82   */\n    tag_113:\n        /* \"#utility.yul\":40:46   */\n      0x00\n        /* \"#utility.yul\":73:75   */\n      0x40\n        /* \"#utility.yul\":67:76   */\n      mload\n        /* \"#utility.yul\":57:76   */\n      swap1\n      pop\n        /* \"#utility.yul\":7:82   */\n      swap1\n      jump\t// out\n        /* \"#utility.yul\":88:205   */\n    tag_114:\n        /* \"#utility.yul\":197:198   */\n      0x00\n        /* \"#utility.yul\":194:195   */\n      dup1\n        /* \"#utility.yul\":187:199   */\n      revert\n        /* \"#utility.yul\":211:328   */\n    tag_115:\n        /* \"#utility.yul\":320:321   */\n      0x00\n        /* \"#utility.yul\":317:318   */\n      dup1\n        /* \"#utility.yul\":310:322   */\n      revert\n        /* \"#utility.yul\":334:451   */\n    tag_116:\n        /* \"#utility.yul\":443:444   */\n      0x00\n        /* \"#utility.yul\":440:441   */\n      dup1\n        /* \"#utility.yul\":433:445   */\n      revert\n        /* \"#utility.yul\":457:559   */\n    tag_117:\n        /* \"#utility.yul\":498:504   */\n      0x00\n        /* \"#utility.yul\":549:551   */\n      0x1f\n        /* \"#utility.yul\":545:552   */\n      not\n        /* \"#utility.yul\":540:542   */\n      0x1f\n        /* \"#utility.yul\":533:538   */\n      dup4\n        /* \"#utility.yul\":529:543   */\n      add\n        /* \"#utility.yul\":525:553   */\n      and\n        /* \"#utility.yul\":515:553   */\n      swap1\n      pop\n        /* \"#utility.yul\":457:559   */\n      swap2\n      swap1\n      pop\n      jump\t// out\n        /* \"#utility.yul\":565:745   */\n    tag_118:\n        /* \"#utility.yul\":613:690   */\n      0x4e487b7100000000000000000000000000000000000000000000000000000000\n        /* \"#utility.yul\":610:611   */\n      0x00\n        /* \"#utility.yul\":603:691   */\n      mstore\n        /* \"#utility.yul\":710:714   */\n      0x41\n        /* \"#utility.yul\":707:708   */\n      0x04\n        /* \"#utility.yul\":700:715   */\n      mstore\n        /* \"#utility.yul\":734:738   */\n      0x24\n        /* \"#utility.yul\":731:732   */\n      0x00\n        /* \"#utility.yul\":724:739   */\n      revert\n        /* \"#utility.yul\":751:1032   */\n    tag_119:\n        /* \"#utility.yul\":834:861   */\n      tag_147\n        /* \"#utility.yul\":856:860   */\n      dup3\n        /* \"#utility.yul\":834:861   */\n      tag_117\n      jump\t// in\n    tag_147:\n        /* \"#utility.yul\":826:832   */\n      dup2\n        /* \"#utility.yul\":822:862   */\n      add\n        /* \"#utility.yul\":964:970   */\n      dup2\n        /* \"#utility.yul\":952:962   */\n      dup2\n        /* \"#utility.yul\":949:971   */\n      lt\n        /* \"#utility.yul\":928:946   */\n      0xffffffffffffffff\n        /* \"#utility.yul\":916:926   */\n      dup3\n        /* \"#utility.yul\":913:947   */\n      gt\n        /* \"#utility.yul\":910:972   */\n      or\n        /* \"#utility.yul\":907:995   */\n      iszero\n      tag_148\n      jumpi\n        /* \"#utility.yul\":975:993   */\n      tag_149\n      tag_118\n      jump\t// in\n    tag_149:\n        /* \"#utility.yul\":907:995   */\n    tag_148:\n        /* \"#utility.yul\":1015:1025   */\n      dup1\n        /* \"#utility.yul\":1011:1013   */\n      0x40\n        /* \"#utility.yul\":1004:1026   */\n      mstore\n        /* \"#utility.yul\":794:1032   */\n      pop\n        /* \"#utility.yul\":751:1032   */\n      pop\n      pop\n      jump\t// out\n        /* \"#utility.yul\":1038:1167   */\n    tag_120:\n        /* \"#utility.yul\":1072:1078   */\n      0x00\n        /* \"#utility.yul\":1099:1119   */\n      tag_151\n      tag_113\n      jump\t// in\n    tag_151:\n        /* \"#utility.yul\":1089:1119   */\n      swap1\n      pop\n        /* \"#utility.yul\":1128:1161   */\n      tag_152\n        /* \"#utility.yul\":1156:1160   */\n      dup3\n        /* \"#utility.yul\":1148:1154   */\n      dup3\n        /* \"#utility.yul\":1128:1161   */\n      tag_119\n      jump\t// in\n    tag_152:\n        /* \"#utility.yul\":1038:1167   */\n      swap2\n      swap1\n      pop\n      jump\t// out\n        /* \"#utility.yul\":1173:1484   */\n    tag_121:\n        /* \"#utility.yul\":1250:1254   */\n      0x00\n        /* \"#utility.yul\":1340:1358   */\n      0xffffffffffffffff\n        /* \"#utility.yul\":1332:1338   */\n      dup3\n        /* \"#utility.yul\":1329:1359   */\n      gt\n        /* \"#utility.yul\":1326:1382   */\n      iszero\n      tag_154\n      jumpi\n        /* \"#utility.yul\":1362:1380   */\n      tag_155\n      tag_118\n      jump\t// in\n    tag_155:\n        /* \"#utility.yul\":1326:1382   */\n    tag_154:\n        /* \"#utility.yul\":1412:1416   */\n      0x20\n        /* \"#utility.yul\":1404:1410   */\n      dup3\n        /* \"#utility.yul\":1400:1417   */\n      mul\n        /* \"#utility.yul\":1392:1417   */\n      swap1\n      pop\n        /* \"#utility.yul\":1472:1476   */\n      0x20\n        /* \"#utility.yul\":1466:1470   */\n      dup2\n        /* \"#utility.yul\":1462:1477   */\n      add\n        /* \"#utility.yul\":1454:1477   */\n      swap1\n      pop\n        /* \"#utility.yul\":1173:1484   */\n      swap2\n      swap1\n      pop\n      jump\t// out\n        /* \"#utility.yul\":1490:1607   */\n    tag_122:\n        /* \"#utility.yul\":1599:1600   */\n      0x00\n        /* \"#utility.yul\":1596:1597   */\n      dup1\n        /* \"#utility.yul\":1589:1601   */\n      revert\n        /* \"#utility.yul\":1613:1690   */\n    tag_123:\n        /* \"#utility.yul\":1650:1657   */\n      0x00\n        /* \"#utility.yul\":1679:1684   */\n      dup2\n        /* \"#utility.yul\":1668:1684   */\n      swap1\n      pop\n        /* \"#utility.yul\":1613:1690   */\n      swap2\n      swap1\n      pop\n      jump\t// out\n        /* \"#utility.yul\":1696:1818   */\n    tag_124:\n        /* \"#utility.yul\":1769:1793   */\n      tag_159\n        /* \"#utility.yul\":1787:1792   */\n      dup2\n        /* \"#utility.yul\":1769:1793   */\n      tag_123\n      jump\t// in\n    tag_159:\n        /* \"#utility.yul\":1762:1767   */\n      dup2\n        /* \"#utility.yul\":1759:1794   */\n      eq\n        /* \"#utility.yul\":1749:1812   */\n      tag_160\n      jumpi\n        /* \"#utility.yul\":1808:1809   */\n      0x00\n        /* \"#utility.yul\":1805:1806   */\n      dup1\n        /* \"#utility.yul\":1798:1810   */\n      revert\n        /* \"#utility.yul\":1749:1812   */\n    tag_160:\n        /* \"#utility.yul\":1696:1818   */\n      pop\n      jump\t// out\n        /* \"#utility.yul\":1824:1963   */\n    tag_125:\n        /* \"#utility.yul\":1870:1875   */\n      0x00\n        /* \"#utility.yul\":1908:1914   */\n      dup2\n        /* \"#utility.yul\":1895:1915   */\n      calldataload\n        /* \"#utility.yul\":1886:1915   */\n      swap1\n      pop\n        /* \"#utility.yul\":1924:1957   */\n      tag_162\n        /* \"#utility.yul\":1951:1956   */\n      dup2\n        /* \"#utility.yul\":1924:1957   */\n      tag_124\n      jump\t// in\n    tag_162:\n        /* \"#utility.yul\":1824:1963   */\n      swap3\n      swap2\n      pop\n      pop\n      jump\t// out\n        /* \"#utility.yul\":1986:2696   */\n    tag_126:\n        /* \"#utility.yul\":2082:2087   */\n      0x00\n        /* \"#utility.yul\":2107:2188   */\n      tag_164\n        /* \"#utility.yul\":2123:2187   */\n      tag_165\n        /* \"#utility.yul\":2180:2186   */\n      dup5\n        /* \"#utility.yul\":2123:2187   */\n      tag_121\n      jump\t// in\n    tag_165:\n        /* \"#utility.yul\":2107:2188   */\n      tag_120\n      jump\t// in\n    tag_164:\n        /* \"#utility.yul\":2098:2188   */\n      swap1\n      pop\n        /* \"#utility.yul\":2208:2213   */\n      dup1\n        /* \"#utility.yul\":2237:2243   */\n      dup4\n        /* \"#utility.yul\":2230:2235   */\n      dup3\n        /* \"#utility.yul\":2223:2244   */\n      mstore\n        /* \"#utility.yul\":2271:2275   */\n      0x20\n        /* \"#utility.yul\":2264:2269   */\n      dup3\n        /* \"#utility.yul\":2260:2276   */\n      add\n        /* \"#utility.yul\":2253:2276   */\n      swap1\n      pop\n        /* \"#utility.yul\":2324:2328   */\n      0x20\n        /* \"#utility.yul\":2316:2322   */\n      dup5\n        /* \"#utility.yul\":2312:2329   */\n      mul\n        /* \"#utility.yul\":2304:2310   */\n      dup4\n        /* \"#utility.yul\":2300:2330   */\n      add\n        /* \"#utility.yul\":2353:2356   */\n      dup6\n        /* \"#utility.yul\":2345:2351   */\n      dup2\n        /* \"#utility.yul\":2342:2357   */\n      gt\n        /* \"#utility.yul\":2339:2461   */\n      iszero\n      tag_166\n      jumpi\n        /* \"#utility.yul\":2372:2451   */\n      tag_167\n      tag_122\n      jump\t// in\n    tag_167:\n        /* \"#utility.yul\":2339:2461   */\n    tag_166:\n        /* \"#utility.yul\":2487:2493   */\n      dup4\n        /* \"#utility.yul\":2470:2690   */\n    tag_168:\n        /* \"#utility.yul\":2504:2510   */\n      dup2\n        /* \"#utility.yul\":2499:2502   */\n      dup2\n        /* \"#utility.yul\":2496:2511   */\n      lt\n        /* \"#utility.yul\":2470:2690   */\n      iszero\n      tag_170\n      jumpi\n        /* \"#utility.yul\":2579:2582   */\n      dup1\n        /* \"#utility.yul\":2608:2645   */\n      tag_171\n        /* \"#utility.yul\":2641:2644   */\n      dup9\n        /* \"#utility.yul\":2629:2639   */\n      dup3\n        /* \"#utility.yul\":2608:2645   */\n      tag_125\n      jump\t// in\n    tag_171:\n        /* \"#utility.yul\":2603:2606   */\n      dup5\n        /* \"#utility.yul\":2596:2646   */\n      mstore\n        /* \"#utility.yul\":2675:2679   */\n      0x20\n        /* \"#utility.yul\":2670:2673   */\n      dup5\n        /* \"#utility.yul\":2666:2680   */\n      add\n        /* \"#utility.yul\":2659:2680   */\n      swap4\n      pop\n        /* \"#utility.yul\":2546:2690   */\n      pop\n        /* \"#utility.yul\":2530:2534   */\n      0x20\n        /* \"#utility.yul\":2525:2528   */\n      dup2\n        /* \"#utility.yul\":2521:2535   */\n      add\n        /* \"#utility.yul\":2514:2535   */\n      swap1\n      pop\n        /* \"#utility.yul\":2470:2690   */\n      jump(tag_168)\n    tag_170:\n        /* \"#utility.yul\":2474:2495   */\n      pop\n        /* \"#utility.yul\":2088:2696   */\n      pop\n      pop\n        /* \"#utility.yul\":1986:2696   */\n      swap4\n      swap3\n      pop\n      pop\n      pop\n      jump\t// out\n        /* \"#utility.yul\":2719:3089   */\n    tag_127:\n        /* \"#utility.yul\":2790:2795   */\n      0x00\n        /* \"#utility.yul\":2839:2842   */\n      dup3\n        /* \"#utility.yul\":2832:2836   */\n      0x1f\n        /* \"#utility.yul\":2824:2830   */\n      dup4\n        /* \"#utility.yul\":2820:2837   */\n      add\n        /* \"#utility.yul\":2816:2843   */\n      slt\n        /* \"#utility.yul\":2806:2928   */\n      tag_173\n      jumpi\n        /* \"#utility.yul\":2847:2926   */\n      tag_174\n      tag_116\n      jump\t// in\n    tag_174:\n        /* \"#utility.yul\":2806:2928   */\n    tag_173:\n        /* \"#utility.yul\":2964:2970   */\n      dup2\n        /* \"#utility.yul\":2951:2971   */\n      calldataload\n        /* \"#utility.yul\":2989:3083   */\n      tag_175\n        /* \"#utility.yul\":3079:3082   */\n      dup5\n        /* \"#utility.yul\":3071:3077   */\n      dup3\n        /* \"#utility.yul\":3064:3068   */\n      0x20\n        /* \"#utility.yul\":3056:3062   */\n      dup7\n        /* \"#utility.yul\":3052:3069   */\n      add\n        /* \"#utility.yul\":2989:3083   */\n      tag_126\n      jump\t// in\n    tag_175:\n        /* \"#utility.yul\":2980:3083   */\n      swap2\n      pop\n        /* \"#utility.yul\":2796:3089   */\n      pop\n        /* \"#utility.yul\":2719:3089   */\n      swap3\n      swap2\n      pop\n      pop\n      jump\t// out\n        /* \"#utility.yul\":3095:3634   */\n    tag_13:\n        /* \"#utility.yul\":3179:3185   */\n      0x00\n        /* \"#utility.yul\":3228:3230   */\n      0x20\n        /* \"#utility.yul\":3216:3225   */\n      dup3\n        /* \"#utility.yul\":3207:3214   */\n      dup5\n        /* \"#utility.yul\":3203:3226   */\n      sub\n        /* \"#utility.yul\":3199:3231   */\n      slt\n        /* \"#utility.yul\":3196:3315   */\n      iszero\n      tag_177\n      jumpi\n        /* \"#utility.yul\":3234:3313   */\n      tag_178\n      tag_114\n      jump\t// in\n    tag_178:\n        /* \"#utility.yul\":3196:3315   */\n    tag_177:\n        /* \"#utility.yul\":3382:3383   */\n      0x00\n        /* \"#utility.yul\":3371:3380   */\n      dup3\n        /* \"#utility.yul\":3367:3384   */\n      add\n        /* \"#utility.yul\":3354:3385   */\n      calldataload\n        /* \"#utility.yul\":3412:3430   */\n      0xffffffffffffffff\n        /* \"#utility.yul\":3404:3410   */\n      dup2\n        /* \"#utility.yul\":3401:3431   */\n      gt\n        /* \"#utility.yul\":3398:3515   */\n      iszero\n      tag_179\n      jumpi\n        /* \"#utility.yul\":3434:3513   */\n      tag_180\n      tag_115\n      jump\t// in\n    tag_180:\n        /* \"#utility.yul\":3398:3515   */\n    tag_179:\n        /* \"#utility.yul\":3539:3617   */\n      tag_181\n        /* \"#utility.yul\":3609:3616   */\n      dup5\n        /* \"#utility.yul\":3600:3606   */\n      dup3\n        /* \"#utility.yul\":3589:3598   */\n      dup6\n        /* \"#utility.yul\":3585:3607   */\n      add\n        /* \"#utility.yul\":3539:3617   */\n      tag_127\n      jump\t// in\n    tag_181:\n        /* \"#utility.yul\":3529:3617   */\n      swap2\n      pop\n        /* \"#utility.yul\":3325:3627   */\n      pop\n        /* \"#utility.yul\":3095:3634   */\n      swap3\n      swap2\n      pop\n      pop\n      jump\t// out\n        /* \"#utility.yul\":3640:3754   */\n    tag_128:\n        /* \"#utility.yul\":3707:3713   */\n      0x00\n        /* \"#utility.yul\":3741:3746   */\n      dup2\n        /* \"#utility.yul\":3735:3747   */\n      mload\n        /* \"#utility.yul\":3725:3747   */\n      swap1\n      pop\n        /* \"#utility.yul\":3640:3754   */\n      swap2\n      swap1\n      pop\n      jump\t// out\n        /* \"#utility.yul\":3760:3944   */\n    tag_129:\n        /* \"#utility.yul\":3859:3870   */\n      0x00\n        /* \"#utility.yul\":3893:3899   */\n      dup3\n        /* \"#utility.yul\":3888:3891   */\n      dup3\n        /* \"#utility.yul\":3881:3900   */\n      mstore\n        /* \"#utility.yul\":3933:3937   */\n      0x20\n        /* \"#utility.yul\":3928:3931   */\n      dup3\n        /* \"#utility.yul\":3924:3938   */\n      add\n        /* \"#utility.yul\":3909:3938   */\n      swap1\n      pop\n        /* \"#utility.yul\":3760:3944   */\n      swap3\n      swap2\n      pop\n      pop\n      jump\t// out\n        /* \"#utility.yul\":3950:4082   */\n    tag_130:\n        /* \"#utility.yul\":4017:4021   */\n      0x00\n        /* \"#utility.yul\":4040:4043   */\n      dup2\n        /* \"#utility.yul\":4032:4043   */\n      swap1\n      pop\n        /* \"#utility.yul\":4070:4074   */\n      0x20\n        /* \"#utility.yul\":4065:4068   */\n      dup3\n        /* \"#utility.yul\":4061:4075   */\n      add\n        /* \"#utility.yul\":4053:4075   */\n      swap1\n      pop\n        /* \"#utility.yul\":3950:4082   */\n      swap2\n      swap1\n      pop\n      jump\t// out\n        /* \"#utility.yul\":4088:4196   */\n    tag_131:\n        /* \"#utility.yul\":4165:4189   */\n      tag_186\n        /* \"#utility.yul\":4183:4188   */\n      dup2\n        /* \"#utility.yul\":4165:4189   */\n      tag_123\n      jump\t// in\n    tag_186:\n        /* \"#utility.yul\":4160:4163   */\n      dup3\n        /* \"#utility.yul\":4153:4190   */\n      mstore\n        /* \"#utility.yul\":4088:4196   */\n      pop\n      pop\n      jump\t// out\n        /* \"#utility.yul\":4202:4381   */\n    tag_132:\n        /* \"#utility.yul\":4271:4281   */\n      0x00\n        /* \"#utility.yul\":4292:4338   */\n      tag_188\n        /* \"#utility.yul\":4334:4337   */\n      dup4\n        /* \"#utility.yul\":4326:4332   */\n      dup4\n        /* \"#utility.yul\":4292:4338   */\n      tag_131\n      jump\t// in\n    tag_188:\n        /* \"#utility.yul\":4370:4374   */\n      0x20\n        /* \"#utility.yul\":4365:4368   */\n      dup4\n        /* \"#utility.yul\":4361:4375   */\n      add\n        /* \"#utility.yul\":4347:4375   */\n      swap1\n      pop\n        /* \"#utility.yul\":4202:4381   */\n      swap3\n      swap2\n      pop\n      pop\n      jump\t// out\n        /* \"#utility.yul\":4387:4500   */\n    tag_133:\n        /* \"#utility.yul\":4457:4461   */\n      0x00\n        /* \"#utility.yul\":4489:4493   */\n      0x20\n        /* \"#utility.yul\":4484:4487   */\n      dup3\n        /* \"#utility.yul\":4480:4494   */\n      add\n        /* \"#utility.yul\":4472:4494   */\n      swap1\n      pop\n        /* \"#utility.yul\":4387:4500   */\n      swap2\n      swap1\n      pop\n      jump\t// out\n        /* \"#utility.yul\":4536:5268   */\n    tag_134:\n        /* \"#utility.yul\":4655:4658   */\n      0x00\n        /* \"#utility.yul\":4684:4738   */\n      tag_191\n        /* \"#utility.yul\":4732:4737   */\n      dup3\n        /* \"#utility.yul\":4684:4738   */\n      tag_128\n      jump\t// in\n    tag_191:\n        /* \"#utility.yul\":4754:4840   */\n      tag_192\n        /* \"#utility.yul\":4833:4839   */\n      dup2\n        /* \"#utility.yul\":4828:4831   */\n      dup6\n        /* \"#utility.yul\":4754:4840   */\n      tag_129\n      jump\t// in\n    tag_192:\n        /* \"#utility.yul\":4747:4840   */\n      swap4\n      pop\n        /* \"#utility.yul\":4864:4920   */\n      tag_193\n        /* \"#utility.yul\":4914:4919   */\n      dup4\n        /* \"#utility.yul\":4864:4920   */\n      tag_130\n      jump\t// in\n    tag_193:\n        /* \"#utility.yul\":4943:4950   */\n      dup1\n        /* \"#utility.yul\":4974:4975   */\n      0x00\n        /* \"#utility.yul\":4959:5243   */\n    tag_194:\n        /* \"#utility.yul\":4984:4990   */\n      dup4\n        /* \"#utility.yul\":4981:4982   */\n      dup2\n        /* \"#utility.yul\":4978:4991   */\n      lt\n        /* \"#utility.yul\":4959:5243   */\n      iszero\n      tag_196\n      jumpi\n        /* \"#utility.yul\":5060:5066   */\n      dup2\n        /* \"#utility.yul\":5054:5067   */\n      mload\n        /* \"#utility.yul\":5087:5150   */\n      tag_197\n        /* \"#utility.yul\":5146:5149   */\n      dup9\n        /* \"#utility.yul\":5131:5144   */\n      dup3\n        /* \"#utility.yul\":5087:5150   */\n      tag_132\n      jump\t// in\n    tag_197:\n        /* \"#utility.yul\":5080:5150   */\n      swap8\n      pop\n        /* \"#utility.yul\":5173:5233   */\n      tag_198\n        /* \"#utility.yul\":5226:5232   */\n      dup4\n        /* \"#utility.yul\":5173:5233   */\n      tag_133\n      jump\t// in\n    tag_198:\n        /* \"#utility.yul\":5163:5233   */\n      swap3\n      pop\n        /* \"#utility.yul\":5019:5243   */\n      pop\n        /* \"#utility.yul\":5006:5007   */\n      0x01\n        /* \"#utility.yul\":5003:5004   */\n      dup2\n        /* \"#utility.yul\":4999:5008   */\n      add\n        /* \"#utility.yul\":4994:5008   */\n      swap1\n      pop\n        /* \"#utility.yul\":4959:5243   */\n      jump(tag_194)\n    tag_196:\n        /* \"#utility.yul\":4963:4977   */\n      pop\n        /* \"#utility.yul\":5259:5262   */\n      dup6\n        /* \"#utility.yul\":5252:5262   */\n      swap4\n      pop\n        /* \"#utility.yul\":4660:5268   */\n      pop\n      pop\n      pop\n        /* \"#utility.yul\":4536:5268   */\n      swap3\n      swap2\n      pop\n      pop\n      jump\t// out\n        /* \"#utility.yul\":5274:5647   */\n    tag_16:\n        /* \"#utility.yul\":5417:5421   */\n      0x00\n        /* \"#utility.yul\":5455:5457   */\n      0x20\n        /* \"#utility.yul\":5444:5453   */\n      dup3\n        /* \"#utility.yul\":5440:5458   */\n      add\n        /* \"#utility.yul\":5432:5458   */\n      swap1\n      pop\n        /* \"#utility.yul\":5504:5513   */\n      dup2\n        /* \"#utility.yul\":5498:5502   */\n      dup2\n        /* \"#utility.yul\":5494:5514   */\n      sub\n        /* \"#utility.yul\":5490:5491   */\n      0x00\n        /* \"#utility.yul\":5479:5488   */\n      dup4\n        /* \"#utility.yul\":5475:5492   */\n      add\n        /* \"#utility.yul\":5468:5515   */\n      mstore\n        /* \"#utility.yul\":5532:5640   */\n      tag_200\n        /* \"#utility.yul\":5635:5639   */\n      dup2\n        /* \"#utility.yul\":5626:5632   */\n      dup5\n        /* \"#utility.yul\":5532:5640   */\n      tag_134\n      jump\t// in\n    tag_200:\n        /* \"#utility.yul\":5524:5640   */\n      swap1\n      pop\n        /* \"#utility.yul\":5274:5647   */\n      swap3\n      swap2\n      pop\n      pop\n      jump\t// out\n        /* \"#utility.yul\":5653:6127   */\n    tag_19:\n        /* \"#utility.yul\":5721:5727   */\n      0x00\n        /* \"#utility.yul\":5729:5735   */\n      dup1\n        /* \"#utility.yul\":5778:5780   */\n      0x40\n        /* \"#utility.yul\":5766:5775   */\n      dup4\n        /* \"#utility.yul\":5757:5764   */\n      dup6\n        /* \"#utility.yul\":5753:5776   */\n      sub\n        /* \"#utility.yul\":5749:5781   */\n      slt\n        /* \"#utility.yul\":5746:5865   */\n      iszero\n      tag_202\n      jumpi\n        /* \"#utility.yul\":5784:5863   */\n      tag_203\n      tag_114\n      jump\t// in\n    tag_203:\n        /* \"#utility.yul\":5746:5865   */\n    tag_202:\n        /* \"#utility.yul\":5904:5905   */\n      0x00\n        /* \"#utility.yul\":5929:5982   */\n      tag_204\n        /* \"#utility.yul\":5974:5981   */\n      dup6\n        /* \"#utility.yul\":5965:5971   */\n      dup3\n        /* \"#utility.yul\":5954:5963   */\n      dup7\n        /* \"#utility.yul\":5950:5972   */\n      add\n        /* \"#utility.yul\":5929:5982   */\n      tag_125\n      jump\t// in\n    tag_204:\n        /* \"#utility.yul\":5919:5982   */\n      swap3\n      pop\n        /* \"#utility.yul\":5875:5992   */\n      pop\n        /* \"#utility.yul\":6031:6033   */\n      0x20\n        /* \"#utility.yul\":6057:6110   */\n      tag_205\n        /* \"#utility.yul\":6102:6109   */\n      dup6\n        /* \"#utility.yul\":6093:6099   */\n      dup3\n        /* \"#utility.yul\":6082:6091   */\n      dup7\n        /* \"#utility.yul\":6078:6100   */\n      add\n        /* \"#utility.yul\":6057:6110   */\n      tag_125\n      jump\t// in\n    tag_205:\n        /* \"#utility.yul\":6047:6110   */\n      swap2\n      pop\n        /* \"#utility.yul\":6002:6120   */\n      pop\n        /* \"#utility.yul\":5653:6127   */\n      swap3\n      pop\n      swap3\n      swap1\n      pop\n      jump\t// out\n        /* \"#utility.yul\":6133:6251   */\n    tag_135:\n        /* \"#utility.yul\":6220:6244   */\n      tag_207\n        /* \"#utility.yul\":6238:6243   */\n      dup2\n        /* \"#utility.yul\":6220:6244   */\n      tag_123\n      jump\t// in\n    tag_207:\n        /* \"#utility.yul\":6215:6218   */\n      dup3\n        /* \"#utility.yul\":6208:6245   */\n      mstore\n        /* \"#utility.yul\":6133:6251   */\n      pop\n      pop\n      jump\t// out\n        /* \"#utility.yul\":6257:6479   */\n    tag_22:\n        /* \"#utility.yul\":6350:6354   */\n      0x00\n        /* \"#utility.yul\":6388:6390   */\n      0x20\n        /* \"#utility.yul\":6377:6386   */\n      dup3\n        /* \"#utility.yul\":6373:6391   */\n      add\n        /* \"#utility.yul\":6365:6391   */\n      swap1\n      pop\n        /* \"#utility.yul\":6401:6472   */\n      tag_209\n        /* \"#utility.yul\":6469:6470   */\n      0x00\n        /* \"#utility.yul\":6458:6467   */\n      dup4\n        /* \"#utility.yul\":6454:6471   */\n      add\n        /* \"#utility.yul\":6445:6451   */\n      dup5\n        /* \"#utility.yul\":6401:6472   */\n      tag_135\n      jump\t// in\n    tag_209:\n        /* \"#utility.yul\":6257:6479   */\n      swap3\n      swap2\n      pop\n      pop\n      jump\t// out\n        /* \"#utility.yul\":6485:6814   */\n    tag_32:\n        /* \"#utility.yul\":6544:6550   */\n      0x00\n        /* \"#utility.yul\":6593:6595   */\n      0x20\n        /* \"#utility.yul\":6581:6590   */\n      dup3\n        /* \"#utility.yul\":6572:6579   */\n      dup5\n        /* \"#utility.yul\":6568:6591   */\n      sub\n        /* \"#utility.yul\":6564:6596   */\n      slt\n        /* \"#utility.yul\":6561:6680   */\n      iszero\n      tag_211\n      jumpi\n        /* \"#utility.yul\":6599:6678   */\n      tag_212\n      tag_114\n      jump\t// in\n    tag_212:\n        /* \"#utility.yul\":6561:6680   */\n    tag_211:\n        /* \"#utility.yul\":6719:6720   */\n      0x00\n        /* \"#utility.yul\":6744:6797   */\n      tag_213\n        /* \"#utility.yul\":6789:6796   */\n      dup5\n        /* \"#utility.yul\":6780:6786   */\n      dup3\n        /* \"#utility.yul\":6769:6778   */\n      dup6\n        /* \"#utility.yul\":6765:6787   */\n      add\n        /* \"#utility.yul\":6744:6797   */\n      tag_125\n      jump\t// in\n    tag_213:\n        /* \"#utility.yul\":6734:6797   */\n      swap2\n      pop\n        /* \"#utility.yul\":6690:6807   */\n      pop\n        /* \"#utility.yul\":6485:6814   */\n      swap3\n      swap2\n      pop\n      pop\n      jump\t// out\n        /* \"#utility.yul\":6820:6910   */\n    tag_136:\n        /* \"#utility.yul\":6854:6861   */\n      0x00\n        /* \"#utility.yul\":6897:6902   */\n      dup2\n        /* \"#utility.yul\":6890:6903   */\n      iszero\n        /* \"#utility.yul\":6883:6904   */\n      iszero\n        /* \"#utility.yul\":6872:6904   */\n      swap1\n      pop\n        /* \"#utility.yul\":6820:6910   */\n      swap2\n      swap1\n      pop\n      jump\t// out\n        /* \"#utility.yul\":6916:7025   */\n    tag_137:\n        /* \"#utility.yul\":6997:7018   */\n      tag_216\n        /* \"#utility.yul\":7012:7017   */\n      dup2\n        /* \"#utility.yul\":6997:7018   */\n      tag_136\n      jump\t// in\n    tag_216:\n        /* \"#utility.yul\":6992:6995   */\n      dup3\n        /* \"#utility.yul\":6985:7019   */\n      mstore\n        /* \"#utility.yul\":6916:7025   */\n      pop\n      pop\n      jump\t// out\n        /* \"#utility.yul\":7031:7241   */\n    tag_35:\n        /* \"#utility.yul\":7118:7122   */\n      0x00\n        /* \"#utility.yul\":7156:7158   */\n      0x20\n        /* \"#utility.yul\":7145:7154   */\n      dup3\n        /* \"#utility.yul\":7141:7159   */\n      add\n        /* \"#utility.yul\":7133:7159   */\n      swap1\n      pop\n        /* \"#utility.yul\":7169:7234   */\n      tag_218\n        /* \"#utility.yul\":7231:7232   */\n      0x00\n        /* \"#utility.yul\":7220:7229   */\n      dup4\n        /* \"#utility.yul\":7216:7233   */\n      add\n        /* \"#utility.yul\":7207:7213   */\n      dup5\n        /* \"#utility.yul\":7169:7234   */\n      tag_137\n      jump\t// in\n    tag_218:\n        /* \"#utility.yul\":7031:7241   */\n      swap3\n      swap2\n      pop\n      pop\n      jump\t// out\n        /* \"#utility.yul\":7247:7427   */\n    tag_48:\n        /* \"#utility.yul\":7295:7372   */\n      0x4e487b7100000000000000000000000000000000000000000000000000000000\n        /* \"#utility.yul\":7292:7293   */\n      0x00\n        /* \"#utility.yul\":7285:7373   */\n      mstore\n        /* \"#utility.yul\":7392:7396   */\n      0x32\n        /* \"#utility.yul\":7389:7390   */\n      0x04\n        /* \"#utility.yul\":7382:7397   */\n      mstore\n        /* \"#utility.yul\":7416:7420   */\n      0x24\n        /* \"#utility.yul\":7413:7414   */\n      0x00\n        /* \"#utility.yul\":7406:7421   */\n      revert\n        /* \"#utility.yul\":7433:7613   */\n    tag_138:\n        /* \"#utility.yul\":7481:7558   */\n      0x4e487b7100000000000000000000000000000000000000000000000000000000\n        /* \"#utility.yul\":7478:7479   */\n      0x00\n        /* \"#utility.yul\":7471:7559   */\n      mstore\n        /* \"#utility.yul\":7578:7582   */\n      0x11\n        /* \"#utility.yul\":7575:7576   */\n      0x04\n        /* \"#utility.yul\":7568:7583   */\n      mstore\n        /* \"#utility.yul\":7602:7606   */\n      0x24\n        /* \"#utility.yul\":7599:7600   */\n      0x00\n        /* \"#utility.yul\":7592:7607   */\n      revert\n        /* \"#utility.yul\":7619:7813   */\n    tag_50:\n        /* \"#utility.yul\":7659:7663   */\n      0x00\n        /* \"#utility.yul\":7679:7699   */\n      tag_222\n        /* \"#utility.yul\":7697:7698   */\n      dup3\n        /* \"#utility.yul\":7679:7699   */\n      tag_123\n      jump\t// in\n    tag_222:\n        /* \"#utility.yul\":7674:7699   */\n      swap2\n      pop\n        /* \"#utility.yul\":7713:7733   */\n      tag_223\n        /* \"#utility.yul\":7731:7732   */\n      dup4\n        /* \"#utility.yul\":7713:7733   */\n      tag_123\n      jump\t// in\n    tag_223:\n        /* \"#utility.yul\":7708:7733   */\n      swap3\n      pop\n        /* \"#utility.yul\":7757:7758   */\n      dup3\n        /* \"#utility.yul\":7754:7755   */\n      dup3\n        /* \"#utility.yul\":7750:7759   */\n      sub\n        /* \"#utility.yul\":7742:7759   */\n      swap1\n      pop\n        /* \"#utility.yul\":7781:7782   */\n      dup2\n        /* \"#utility.yul\":7775:7779   */\n      dup2\n        /* \"#utility.yul\":7772:7783   */\n      gt\n        /* \"#utility.yul\":7769:7806   */\n      iszero\n      tag_224\n      jumpi\n        /* \"#utility.yul\":7786:7804   */\n      tag_225\n      tag_138\n      jump\t// in\n    tag_225:\n        /* \"#utility.yul\":7769:7806   */\n    tag_224:\n        /* \"#utility.yul\":7619:7813   */\n      swap3\n      swap2\n      pop\n      pop\n      jump\t// out\n        /* \"#utility.yul\":7819:8010   */\n    tag_59:\n        /* \"#utility.yul\":7859:7862   */\n      0x00\n        /* \"#utility.yul\":7878:7898   */\n      tag_227\n        /* \"#utility.yul\":7896:7897   */\n      dup3\n        /* \"#utility.yul\":7878:7898   */\n      tag_123\n      jump\t// in\n    tag_227:\n        /* \"#utility.yul\":7873:7898   */\n      swap2\n      pop\n        /* \"#utility.yul\":7912:7932   */\n      tag_228\n        /* \"#utility.yul\":7930:7931   */\n      dup4\n        /* \"#utility.yul\":7912:7932   */\n      tag_123\n      jump\t// in\n    tag_228:\n        /* \"#utility.yul\":7907:7932   */\n      swap3\n      pop\n        /* \"#utility.yul\":7955:7956   */\n      dup3\n        /* \"#utility.yul\":7952:7953   */\n      dup3\n        /* \"#utility.yul\":7948:7957   */\n      add\n        /* \"#utility.yul\":7941:7957   */\n      swap1\n      pop\n        /* \"#utility.yul\":7976:7979   */\n      dup1\n        /* \"#utility.yul\":7973:7974   */\n      dup3\n        /* \"#utility.yul\":7970:7980   */\n      gt\n        /* \"#utility.yul\":7967:8003   */\n      iszero\n      tag_229\n      jumpi\n        /* \"#utility.yul\":7983:8001   */\n      tag_230\n      tag_138\n      jump\t// in\n    tag_230:\n        /* \"#utility.yul\":7967:8003   */\n    tag_229:\n        /* \"#utility.yul\":7819:8010   */\n      swap3\n      swap2\n      pop\n      pop\n      jump\t// out\n        /* \"#utility.yul\":8016:8187   */\n    tag_63:\n        /* \"#utility.yul\":8055:8058   */\n      0x00\n        /* \"#utility.yul\":8078:8102   */\n      tag_232\n        /* \"#utility.yul\":8096:8101   */\n      dup3\n        /* \"#utility.yul\":8078:8102   */\n      tag_123\n      jump\t// in\n    tag_232:\n        /* \"#utility.yul\":8069:8102   */\n      swap2\n      pop\n        /* \"#utility.yul\":8124:8128   */\n      0x00\n        /* \"#utility.yul\":8117:8122   */\n      dup3\n        /* \"#utility.yul\":8114:8129   */\n      sub\n        /* \"#utility.yul\":8111:8152   */\n      tag_233\n      jumpi\n        /* \"#utility.yul\":8132:8150   */\n      tag_234\n      tag_138\n      jump\t// in\n    tag_234:\n        /* \"#utility.yul\":8111:8152   */\n    tag_233:\n        /* \"#utility.yul\":8179:8180   */\n      0x01\n        /* \"#utility.yul\":8172:8177   */\n      dup3\n        /* \"#utility.yul\":8168:8181   */\n      sub\n        /* \"#utility.yul\":8161:8181   */\n      swap1\n      pop\n        /* \"#utility.yul\":8016:8187   */\n      swap2\n      swap1\n      pop\n      jump\t// out\n        /* \"#utility.yul\":8193:8426   */\n    tag_68:\n        /* \"#utility.yul\":8232:8235   */\n      0x00\n        /* \"#utility.yul\":8255:8279   */\n      tag_236\n        /* \"#utility.yul\":8273:8278   */\n      dup3\n        /* \"#utility.yul\":8255:8279   */\n      tag_123\n      jump\t// in\n    tag_236:\n        /* \"#utility.yul\":8246:8279   */\n      swap2\n      pop\n        /* \"#utility.yul\":8301:8367   */\n      0xffffffffffffffffffffffffffffffffffffffffffffffffffffffffffffffff\n        /* \"#utility.yul\":8294:8299   */\n      dup3\n        /* \"#utility.yul\":8291:8368   */\n      sub\n        /* \"#utility.yul\":8288:8391   */\n      tag_237\n      jumpi\n        /* \"#utility.yul\":8371:8389   */\n      tag_238\n      tag_138\n      jump\t// in\n    tag_238:\n        /* \"#utility.yul\":8288:8391   */\n    tag_237:\n        /* \"#utility.yul\":8418:8419   */\n      0x01\n        /* \"#utility.yul\":8411:8416   */\n      dup3\n        /* \"#utility.yul\":8407:8420   */\n      add\n        /* \"#utility.yul\":8400:8420   */\n      swap1\n      pop\n        /* \"#utility.yul\":8193:8426   */\n      swap2\n      swap1\n      pop\n      jump\t// out\n\n    auxdata: 0xa26469706673582212202943311afe4ea43fd09cad8c01b112f6adb72390ab31b32f9ac5edb691d9740264736f6c63430008150033\n}\n",
				"bytecode": {
					"linkReferences": {},
					"object": "608060405234801561000f575f80fd5b506109638061001d5f395ff3fe608060405234801561000f575f80fd5b506004361061007b575f3560e01c80636297206f116100595780636297206f146100fd5780637141fb001461012d5780639ccadc4d1461015d578063b0cfa9fc1461017b5761007b565b8063034ae5241461007f57806328766320146100af57806353c5ac86146100df575b5f80fd5b6100996004803603810190610094919061061d565b610199565b6040516100a6919061071b565b60405180910390f35b6100c960048036038101906100c4919061073b565b6102aa565b6040516100d69190610788565b60405180910390f35b6100e76102c3565b6040516100f49190610788565b60405180910390f35b6101176004803603810190610112919061061d565b6102fc565b604051610124919061071b565b60405180910390f35b610147600480360381019061014291906107a1565b610402565b60405161015491906107e6565b60405180910390f35b61016561041d565b6040516101729190610788565b60405180910390f35b610183610450565b6040516101909190610788565b60405180910390f35b60605f600190505b82518110156102a1575f8382815181106101be576101bd6107ff565b5b602002602001015190505f6001836101d69190610859565b90505b5f811015801561020257508481815181106101f7576101f66107ff565b5b602002602001015182105b156102605784818151811061021a576102196107ff565b5b602002602001015185600183610230919061088c565b81518110610241576102406107ff565b5b6020026020010181815250508080610258906108bf565b9150506101d9565b818560018361026f919061088c565b815181106102805761027f6107ff565b5b60200260200101818152505050508080610299906108e6565b9150506101a1565b50819050919050565b5f818310156102b957816102bb565b825b905092915050565b5f805f90505f5b600a8110156102f45780826102df919061088c565b915080806102ec906108e6565b9150506102ca565b819250505090565b60605f600190505b82518110156103f9575f838281518110610321576103206107ff565b5b602002602001015190505f8290505b6001811015801561036657508460018261034a9190610859565b8151811061035b5761035a6107ff565b5b602002602001015182105b156103c457846001826103799190610859565b8151811061038a576103896107ff565b5b60200260200101518582815181106103a5576103a46107ff565b5b60200260200101818152505080806103bc906108bf565b915050610330565b818582815181106103d8576103d76107ff565b5b602002602001018181525050505080806103f1906108e6565b915050610304565b50819050919050565b5f600182036104145760019050610418565b5f90505b919050565b5f805f90505f5b8082610430919061088c565b9150808061043d906108e6565b915050600a811061042457819250505090565b5f805f90505f5b600a81101561048157808261046c919061088c565b91508080610479906108e6565b915050610457565b508091505090565b5f604051905090565b5f80fd5b5f80fd5b5f80fd5b5f601f19601f8301169050919050565b7f4e487b71000000000000000000000000000000000000000000000000000000005f52604160045260245ffd5b6104e48261049e565b810181811067ffffffffffffffff82111715610503576105026104ae565b5b80604052505050565b5f610515610489565b905061052182826104db565b919050565b5f67ffffffffffffffff8211156105405761053f6104ae565b5b602082029050602081019050919050565b5f80fd5b5f819050919050565b61056781610555565b8114610571575f80fd5b50565b5f813590506105828161055e565b92915050565b5f61059a61059584610526565b61050c565b905080838252602082019050602084028301858111156105bd576105bc610551565b5b835b818110156105e657806105d28882610574565b8452602084019350506020810190506105bf565b5050509392505050565b5f82601f8301126106045761060361049a565b5b8135610614848260208601610588565b91505092915050565b5f6020828403121561063257610631610492565b5b5f82013567ffffffffffffffff81111561064f5761064e610496565b5b61065b848285016105f0565b91505092915050565b5f81519050919050565b5f82825260208201905092915050565b5f819050602082019050919050565b61069681610555565b82525050565b5f6106a7838361068d565b60208301905092915050565b5f602082019050919050565b5f6106c982610664565b6106d3818561066e565b93506106de8361067e565b805f5b8381101561070e5781516106f5888261069c565b9750610700836106b3565b9250506001810190506106e1565b5085935050505092915050565b5f6020820190508181035f83015261073381846106bf565b905092915050565b5f806040838503121561075157610750610492565b5b5f61075e85828601610574565b925050602061076f85828601610574565b9150509250929050565b61078281610555565b82525050565b5f60208201905061079b5f830184610779565b92915050565b5f602082840312156107b6576107b5610492565b5b5f6107c384828501610574565b91505092915050565b5f8115159050919050565b6107e0816107cc565b82525050565b5f6020820190506107f95f8301846107d7565b92915050565b7f4e487b71000000000000000000000000000000000000000000000000000000005f52603260045260245ffd5b7f4e487b71000000000000000000000000000000000000000000000000000000005f52601160045260245ffd5b5f61086382610555565b915061086e83610555565b92508282039050818111156108865761088561082c565b5b92915050565b5f61089682610555565b91506108a183610555565b92508282019050808211156108b9576108b861082c565b5b92915050565b5f6108c982610555565b91505f82036108db576108da61082c565b5b600182039050919050565b5f6108f082610555565b91507fffffffffffffffffffffffffffffffffffffffffffffffffffffffffffffffff82036109225761092161082c565b5b60018201905091905056fea26469706673582212202943311afe4ea43fd09cad8c01b112f6adb72390ab31b32f9ac5edb691d9740264736f6c63430008150033",
					"opcodes": "PUSH1 0x80 PUSH1 0x40 MSTORE CALLVALUE DUP1 ISZERO PUSH2 0xF JUMPI PUSH0 DUP1 REVERT JUMPDEST POP PUSH2 0x963 DUP1 PUSH2 0x1D PUSH0 CODECOPY PUSH0 RETURN INVALID PUSH1 0x80 PUSH1 0x40 MSTORE CALLVALUE DUP1 ISZERO PUSH2 0xF JUMPI PUSH0 DUP1 REVERT JUMPDEST POP PUSH1 0x4 CALLDATASIZE LT PUSH2 0x7B JUMPI PUSH0 CALLDATALOAD PUSH1 0xE0 SHR DUP1 PUSH4 0x6297206F GT PUSH2 0x59 JUMPI DUP1 PUSH4 0x6297206F EQ PUSH2 0xFD JUMPI DUP1 PUSH4 0x7141FB00 EQ PUSH2 0x12D JUMPI DUP1 PUSH4 0x9CCADC4D EQ PUSH2 0x15D JUMPI DUP1 PUSH4 0xB0CFA9FC EQ PUSH2 0x17B JUMPI PUSH2 0x7B JUMP JUMPDEST DUP1 PUSH4 0x34AE524 EQ PUSH2 0x7F JUMPI DUP1 PUSH4 0x28766320 EQ PUSH2 0xAF JUMPI DUP1 PUSH4 0x53C5AC86 EQ PUSH2 0xDF JUMPI JUMPDEST PUSH0 DUP1 REVERT JUMPDEST PUSH2 0x99 PUSH1 0x4 DUP1 CALLDATASIZE SUB DUP2 ADD SWAP1 PUSH2 0x94 SWAP2 SWAP1 PUSH2 0x61D JUMP JUMPDEST PUSH2 0x199 JUMP JUMPDEST PUSH1 0x40 MLOAD PUSH2 0xA6 SWAP2 SWAP1 PUSH2 0x71B JUMP JUMPDEST PUSH1 0x40 MLOAD DUP1 SWAP2 SUB SWAP1 RETURN JUMPDEST PUSH2 0xC9 PUSH1 0x4 DUP1 CALLDATASIZE SUB DUP2 ADD SWAP1 PUSH2 0xC4 SWAP2 SWAP1 PUSH2 0x73B JUMP JUMPDEST PUSH2 0x2AA JUMP JUMPDEST PUSH1 0x40 MLOAD PUSH2 0xD6 SWAP2 SWAP1 PUSH2 0x788 JUMP JUMPDEST PUSH1 0x40 MLOAD DUP1 SWAP2 SUB SWAP1 RETURN JUMPDEST PUSH2 0xE7 PUSH2 0x2C3 JUMP JUMPDEST PUSH1 0x40 MLOAD PUSH2 0xF4 SWAP2 SWAP1 PUSH2 0x788 JUMP JUMPDEST PUSH1 0x40 MLOAD DUP1 SWAP2 SUB SWAP1 RETURN JUMPDEST PUSH2 0x117 PUSH1 0x4 DUP1 CALLDATASIZE SUB DUP2 ADD SWAP1 PUSH2 0x112 SWAP2 SWAP1 PUSH2 0x61D JUMP JUMPDEST PUSH2 0x2FC JUMP JUMPDEST PUSH1 0x40 MLOAD PUSH2 0x124 SWAP2 SWAP1 PUSH2 0x71B JUMP JUMPDEST PUSH1 0x40 MLOAD DUP1 SWAP2 SUB SWAP1 RETURN JUMPDEST PUSH2 0x147 PUSH1 0x4 DUP1 CALLDATASIZE SUB DUP2 ADD SWAP1 PUSH2 0x142 SWAP2 SWAP1 PUSH2 0x7A1 JUMP JUMPDEST PUSH2 0x402 JUMP JUMPDEST PUSH1 0x40 MLOAD PUSH2 0x154 SWAP2 SWAP1 PUSH2 0x7E6 JUMP JUMPDEST PUSH1 0x40 MLOAD DUP1 SWAP2 SUB SWAP1 RETURN JUMPDEST PUSH2 0x165 PUSH2 0x41D JUMP JUMPDEST PUSH1 0x40 MLOAD PUSH2 0x172 SWAP2 SWAP1 PUSH2 0x788 JUMP JUMPDEST PUSH1 0x40 MLOAD DUP1 SWAP2 SUB SWAP1 RETURN JUMPDEST PUSH2 0x183 PUSH2 0x450 JUMP JUMPDEST PUSH1 0x40 MLOAD PUSH2 0x190 SWAP2 SWAP1 PUSH2 0x788 JUMP JUMPDEST PUSH1 0x40 MLOAD DUP1 SWAP2 SUB SWAP1 RETURN JUMPDEST PUSH1 0x60 PUSH0 PUSH1 0x1 SWAP1 POP JUMPDEST DUP3 MLOAD DUP2 LT ISZERO PUSH2 0x2A1 JUMPI PUSH0 DUP4 DUP3 DUP2 MLOAD DUP2 LT PUSH2 0x1BE JUMPI PUSH2 0x1BD PUSH2 0x7FF JUMP JUMPDEST JUMPDEST PUSH1 0x20 MUL PUSH1 0x20 ADD ADD MLOAD SWAP1 POP PUSH0 PUSH1 0x1 DUP4 PUSH2 0x1D6 SWAP2 SWAP1 PUSH2 0x859 JUMP JUMPDEST SWAP1 POP JUMPDEST PUSH0 DUP2 LT ISZERO DUP1 ISZERO PUSH2 0x202 JUMPI POP DUP5 DUP2 DUP2 MLOAD DUP2 LT PUSH2 0x1F7 JUMPI PUSH2 0x1F6 PUSH2 0x7FF JUMP JUMPDEST JUMPDEST PUSH1 0x20 MUL PUSH1 0x20 ADD ADD MLOAD DUP3 LT JUMPDEST ISZERO PUSH2 0x260 JUMPI DUP5 DUP2 DUP2 MLOAD DUP2 LT PUSH2 0x21A JUMPI PUSH2 0x219 PUSH2 0x7FF JUMP JUMPDEST JUMPDEST PUSH1 0x20 MUL PUSH1 0x20 ADD ADD MLOAD DUP6 PUSH1 0x1 DUP4 PUSH2 0x230 SWAP2 SWAP1 PUSH2 0x88C JUMP JUMPDEST DUP2 MLOAD DUP2 LT PUSH2 0x241 JUMPI PUSH2 0x240 PUSH2 0x7FF JUMP JUMPDEST JUMPDEST PUSH1 0x20 MUL PUSH1 0x20 ADD ADD DUP2 DUP2 MSTORE POP POP DUP1 DUP1 PUSH2 0x258 SWAP1 PUSH2 0x8BF JUMP JUMPDEST SWAP2 POP POP PUSH2 0x1D9 JUMP JUMPDEST DUP2 DUP6 PUSH1 0x1 DUP4 PUSH2 0x26F SWAP2 SWAP1 PUSH2 0x88C JUMP JUMPDEST DUP2 MLOAD DUP2 LT PUSH2 0x280 JUMPI PUSH2 0x27F PUSH2 0x7FF JUMP JUMPDEST JUMPDEST PUSH1 0x20 MUL PUSH1 0x20 ADD ADD DUP2 DUP2 MSTORE POP POP POP POP DUP1 DUP1 PUSH2 0x299 SWAP1 PUSH2 0x8E6 JUMP JUMPDEST SWAP2 POP POP PUSH2 0x1A1 JUMP JUMPDEST POP DUP2 SWAP1 POP SWAP2 SWAP1 POP JUMP JUMPDEST PUSH0 DUP2 DUP4 LT ISZERO PUSH2 0x2B9 JUMPI DUP2 PUSH2 0x2BB JUMP JUMPDEST DUP3 JUMPDEST SWAP1 POP SWAP3 SWAP2 POP POP JUMP JUMPDEST PUSH0 DUP1 PUSH0 SWAP1 POP PUSH0 JUMPDEST PUSH1 0xA DUP2 LT ISZERO PUSH2 0x2F4 JUMPI DUP1 DUP3 PUSH2 0x2DF SWAP2 SWAP1 PUSH2 0x88C JUMP JUMPDEST SWAP2 POP DUP1 DUP1 PUSH2 0x2EC SWAP1 PUSH2 0x8E6 JUMP JUMPDEST SWAP2 POP POP PUSH2 0x2CA JUMP JUMPDEST DUP2 SWAP3 POP POP POP SWAP1 JUMP JUMPDEST PUSH1 0x60 PUSH0 PUSH1 0x1 SWAP1 POP JUMPDEST DUP3 MLOAD DUP2 LT ISZERO PUSH2 0x3F9 JUMPI PUSH0 DUP4 DUP3 DUP2 MLOAD DUP2 LT PUSH2 0x321 JUMPI PUSH2 0x320 PUSH2 0x7FF JUMP JUMPDEST JUMPDEST PUSH1 0x20 MUL PUSH1 0x20 ADD ADD MLOAD SWAP1 POP PUSH0 DUP3 SWAP1 POP JUMPDEST PUSH1 0x1 DUP2 LT ISZERO DUP1 ISZERO PUSH2 0x366 JUMPI POP DUP5 PUSH1 0x1 DUP3 PUSH2 0x34A SWAP2 SWAP1 PUSH2 0x859 JUMP JUMPDEST DUP2 MLOAD DUP2 LT PUSH2 0x35B JUMPI PUSH2 0x35A PUSH2 0x7FF JUMP JUMPDEST JUMPDEST PUSH1 0x20 MUL PUSH1 0x20 ADD ADD MLOAD DUP3 LT JUMPDEST ISZERO PUSH2 0x3C4 JUMPI DUP5 PUSH1 0x1 DUP3 PUSH2 0x379 SWAP2 SWAP1 PUSH2 0x859 JUMP JUMPDEST DUP2 MLOAD DUP2 LT PUSH2 0x38A JUMPI PUSH2 0x389 PUSH2 0x7FF JUMP JUMPDEST JUMPDEST PUSH1 0x20 MUL PUSH1 0x20 ADD ADD MLOAD DUP6 DUP3 DUP2 MLOAD DUP2 LT PUSH2 0x3A5 JUMPI PUSH2 0x3A4 PUSH2 0x7FF JUMP JUMPDEST JUMPDEST PUSH1 0x20 MUL PUSH1 0x20 ADD ADD DUP2 DUP2 MSTORE POP POP DUP1 DUP1 PUSH2 0x3BC SWAP1 PUSH2 0x8BF JUMP JUMPDEST SWAP2 POP POP PUSH2 0x330 JUMP JUMPDEST DUP2 DUP6 DUP3 DUP2 MLOAD DUP2 LT PUSH2 0x3D8 JUMPI PUSH2 0x3D7 PUSH2 0x7FF JUMP JUMPDEST JUMPDEST PUSH1 0x20 MUL PUSH1 0x20 ADD ADD DUP2 DUP2 MSTORE POP POP POP POP DUP1 DUP1 PUSH2 0x3F1 SWAP1 PUSH2 0x8E6 JUMP JUMPDEST SWAP2 POP POP PUSH2 0x304 JUMP JUMPDEST POP DUP2 SWAP1 POP SWAP2 SWAP1 POP JUMP JUMPDEST PUSH0 PUSH1 0x1 DUP3 SUB PUSH2 0x414 JUMPI PUSH1 0x1 SWAP1 POP PUSH2 0x418 JUMP JUMPDEST PUSH0 SWAP1 POP JUMPDEST SWAP2 SWAP1 POP JUMP JUMPDEST PUSH0 DUP1 PUSH0 SWAP1 POP PUSH0 JUMPDEST DUP1 DUP3 PUSH2 0x430 SWAP2 SWAP1 PUSH2 0x88C JUMP JUMPDEST SWAP2 POP DUP1 DUP1 PUSH2 0x43D SWAP1 PUSH2 0x8E6 JUMP JUMPDEST SWAP2 POP POP PUSH1 0xA DUP2 LT PUSH2 0x424 JUMPI DUP2 SWAP3 POP POP POP SWAP1 JUMP JUMPDEST PUSH0 DUP1 PUSH0 SWAP1 POP PUSH0 JUMPDEST PUSH1 0xA DUP2 LT ISZERO PUSH2 0x481 JUMPI DUP1 DUP3 PUSH2 0x46C SWAP2 SWAP1 PUSH2 0x88C JUMP JUMPDEST SWAP2 POP DUP1 DUP1 PUSH2 0x479 SWAP1 PUSH2 0x8E6 JUMP JUMPDEST SWAP2 POP POP PUSH2 0x457 JUMP JUMPDEST POP DUP1 SWAP2 POP POP SWAP1 JUMP JUMPDEST PUSH0 PUSH1 0x40 MLOAD SWAP1 POP SWAP1 JUMP JUMPDEST PUSH0 DUP1 REVERT JUMPDEST PUSH0 DUP1 REVERT JUMPDEST PUSH0 DUP1 REVERT JUMPDEST PUSH0 PUSH1 0x1F NOT PUSH1 0x1F DUP4 ADD AND SWAP1 POP SWAP2 SWAP1 POP JUMP JUMPDEST PUSH32 0x4E487B7100000000000000000000000000000000000000000000000000000000 PUSH0 MSTORE PUSH1 0x41 PUSH1 0x4 MSTORE PUSH1 0x24 PUSH0 REVERT JUMPDEST PUSH2 0x4E4 DUP3 PUSH2 0x49E JUMP JUMPDEST DUP2 ADD DUP2 DUP2 LT PUSH8 0xFFFFFFFFFFFFFFFF DUP3 GT OR ISZERO PUSH2 0x503 JUMPI PUSH2 0x502 PUSH2 0x4AE JUMP JUMPDEST JUMPDEST DUP1 PUSH1 0x40 MSTORE POP POP POP JUMP JUMPDEST PUSH0 PUSH2 0x515 PUSH2 0x489 JUMP JUMPDEST SWAP1 POP PUSH2 0x521 DUP3 DUP3 PUSH2 0x4DB JUMP JUMPDEST SWAP2 SWAP1 POP JUMP JUMPDEST PUSH0 PUSH8 0xFFFFFFFFFFFFFFFF DUP3 GT ISZERO PUSH2 0x540 JUMPI PUSH2 0x53F PUSH2 0x4AE JUMP JUMPDEST JUMPDEST PUSH1 0x20 DUP3 MUL SWAP1 POP PUSH1 0x20 DUP2 ADD SWAP1 POP SWAP2 SWAP1 POP JUMP JUMPDEST PUSH0 DUP1 REVERT JUMPDEST PUSH0 DUP2 SWAP1 POP SWAP2 SWAP1 POP JUMP JUMPDEST PUSH2 0x567 DUP2 PUSH2 0x555 JUMP JUMPDEST DUP2 EQ PUSH2 0x571 JUMPI PUSH0 DUP1 REVERT JUMPDEST POP JUMP JUMPDEST PUSH0 DUP2 CALLDATALOAD SWAP1 POP PUSH2 0x582 DUP2 PUSH2 0x55E JUMP JUMPDEST SWAP3 SWAP2 POP POP JUMP JUMPDEST PUSH0 PUSH2 0x59A PUSH2 0x595 DUP5 PUSH2 0x526 JUMP JUMPDEST PUSH2 0x50C JUMP JUMPDEST SWAP1 POP DUP1 DUP4 DUP3 MSTORE PUSH1 0x20 DUP3 ADD SWAP1 POP PUSH1 0x20 DUP5 MUL DUP4 ADD DUP6 DUP2 GT ISZERO PUSH2 0x5BD JUMPI PUSH2 0x5BC PUSH2 0x551 JUMP JUMPDEST JUMPDEST DUP4 JUMPDEST DUP2 DUP2 LT ISZERO PUSH2 0x5E6 JUMPI DUP1 PUSH2 0x5D2 DUP9 DUP3 PUSH2 0x574 JUMP JUMPDEST DUP5 MSTORE PUSH1 0x20 DUP5 ADD SWAP4 POP POP PUSH1 0x20 DUP2 ADD SWAP1 POP PUSH2 0x5BF JUMP JUMPDEST POP POP POP SWAP4 SWAP3 POP POP POP JUMP JUMPDEST PUSH0 DUP3 PUSH1 0x1F DUP4 ADD SLT PUSH2 0x604 JUMPI PUSH2 0x603 PUSH2 0x49A JUMP JUMPDEST JUMPDEST DUP2 CALLDATALOAD PUSH2 0x614 DUP5 DUP3 PUSH1 0x20 DUP7 ADD PUSH2 0x588 JUMP JUMPDEST SWAP2 POP POP SWAP3 SWAP2 POP POP JUMP JUMPDEST PUSH0 PUSH1 0x20 DUP3 DUP5 SUB SLT ISZERO PUSH2 0x632 JUMPI PUSH2 0x631 PUSH2 0x492 JUMP JUMPDEST JUMPDEST PUSH0 DUP3 ADD CALLDATALOAD PUSH8 0xFFFFFFFFFFFFFFFF DUP2 GT ISZERO PUSH2 0x64F JUMPI PUSH2 0x64E PUSH2 0x496 JUMP JUMPDEST JUMPDEST PUSH2 0x65B DUP5 DUP3 DUP6 ADD PUSH2 0x5F0 JUMP JUMPDEST SWAP2 POP POP SWAP3 SWAP2 POP POP JUMP JUMPDEST PUSH0 DUP2 MLOAD SWAP1 POP SWAP2 SWAP1 POP JUMP JUMPDEST PUSH0 DUP3 DUP3 MSTORE PUSH1 0x20 DUP3 ADD SWAP1 POP SWAP3 SWAP2 POP POP JUMP JUMPDEST PUSH0 DUP2 SWAP1 POP PUSH1 0x20 DUP3 ADD SWAP1 POP SWAP2 SWAP1 POP JUMP JUMPDEST PUSH2 0x696 DUP2 PUSH2 0x555 JUMP JUMPDEST DUP3 MSTORE POP POP JUMP JUMPDEST PUSH0 PUSH2 0x6A7 DUP4 DUP4 PUSH2 0x68D JUMP JUMPDEST PUSH1 0x20 DUP4 ADD SWAP1 POP SWAP3 SWAP2 POP POP JUMP JUMPDEST PUSH0 PUSH1 0x20 DUP3 ADD SWAP1 POP SWAP2 SWAP1 POP JUMP JUMPDEST PUSH0 PUSH2 0x6C9 DUP3 PUSH2 0x664 JUMP JUMPDEST PUSH2 0x6D3 DUP2 DUP6 PUSH2 0x66E JUMP JUMPDEST SWAP4 POP PUSH2 0x6DE DUP4 PUSH2 0x67E JUMP JUMPDEST DUP1 PUSH0 JUMPDEST DUP4 DUP2 LT ISZERO PUSH2 0x70E JUMPI DUP2 MLOAD PUSH2 0x6F5 DUP9 DUP3 PUSH2 0x69C JUMP JUMPDEST SWAP8 POP PUSH2 0x700 DUP4 PUSH2 0x6B3 JUMP JUMPDEST SWAP3 POP POP PUSH1 0x1 DUP2 ADD SWAP1 POP PUSH2 0x6E1 JUMP JUMPDEST POP DUP6 SWAP4 POP POP POP POP SWAP3 SWAP2 POP POP JUMP JUMPDEST PUSH0 PUSH1 0x20 DUP3 ADD SWAP1 POP DUP2 DUP2 SUB PUSH0 DUP4 ADD MSTORE PUSH2 0x733 DUP2 DUP5 PUSH2 0x6BF JUMP JUMPDEST SWAP1 POP SWAP3 SWAP2 POP POP JUMP JUMPDEST PUSH0 DUP1 PUSH1 0x40 DUP4 DUP6 SUB SLT ISZERO PUSH2 0x751 JUMPI PUSH2 0x750 PUSH2 0x492 JUMP JUMPDEST JUMPDEST PUSH0 PUSH2 0x75E DUP6 DUP3 DUP7 ADD PUSH2 0x574 JUMP JUMPDEST SWAP3 POP POP PUSH1 0x20 PUSH2 0x76F DUP6 DUP3 DUP7 ADD PUSH2 0x574 JUMP JUMPDEST SWAP2 POP POP SWAP3 POP SWAP3 SWAP1 POP JUMP JUMPDEST PUSH2 0x782 DUP2 PUSH2 0x555 JUMP JUMPDEST DUP3 MSTORE POP POP JUMP JUMPDEST PUSH0 PUSH1 0x20 DUP3 ADD SWAP1 POP PUSH2 0x79B PUSH0 DUP4 ADD DUP5 PUSH2 0x779 JUMP JUMPDEST SWAP3 SWAP2 POP POP JUMP JUMPDEST PUSH0 PUSH1 0x20 DUP3 DUP5 SUB SLT ISZERO PUSH2 0x7B6 JUMPI PUSH2 0x7B5 PUSH2 0x492 JUMP JUMPDEST JUMPDEST PUSH0 PUSH2 0x7C3 DUP5 DUP3 DUP6 ADD PUSH2 0x574 JUMP JUMPDEST SWAP2 POP POP SWAP3 SWAP2 POP POP JUMP JUMPDEST PUSH0 DUP2 ISZERO ISZERO SWAP1 POP SWAP2 SWAP1 POP JUMP JUMPDEST PUSH2 0x7E0 DUP2 PUSH2 0x7CC JUMP JUMPDEST DUP3 MSTORE POP POP JUMP JUMPDEST PUSH0 PUSH1 0x20 DUP3 ADD SWAP1 POP PUSH2 0x7F9 PUSH0 DUP4 ADD DUP5 PUSH2 0x7D7 JUMP JUMPDEST SWAP3 SWAP2 POP POP JUMP JUMPDEST PUSH32 0x4E487B7100000000000000000000000000000000000000000000000000000000 PUSH0 MSTORE PUSH1 0x32 PUSH1 0x4 MSTORE PUSH1 0x24 PUSH0 REVERT JUMPDEST PUSH32 0x4E487B7100000000000000000000000000000000000000000000000000000000 PUSH0 MSTORE PUSH1 0x11 PUSH1 0x4 MSTORE PUSH1 0x24 PUSH0 REVERT JUMPDEST PUSH0 PUSH2 0x863 DUP3 PUSH2 0x555 JUMP JUMPDEST SWAP2 POP PUSH2 0x86E DUP4 PUSH2 0x555 JUMP JUMPDEST SWAP3 POP DUP3 DUP3 SUB SWAP1 POP DUP2 DUP2 GT ISZERO PUSH2 0x886 JUMPI PUSH2 0x885 PUSH2 0x82C JUMP JUMPDEST JUMPDEST SWAP3 SWAP2 POP POP JUMP JUMPDEST PUSH0 PUSH2 0x896 DUP3 PUSH2 0x555 JUMP JUMPDEST SWAP2 POP PUSH2 0x8A1 DUP4 PUSH2 0x555 JUMP JUMPDEST SWAP3 POP DUP3 DUP3 ADD SWAP1 POP DUP1 DUP3 GT ISZERO PUSH2 0x8B9 JUMPI PUSH2 0x8B8 PUSH2 0x82C JUMP JUMPDEST JUMPDEST SWAP3 SWAP2 POP POP JUMP JUMPDEST PUSH0 PUSH2 0x8C9 DUP3 PUSH2 0x555 JUMP JUMPDEST SWAP2 POP PUSH0 DUP3 SUB PUSH2 0x8DB JUMPI PUSH2 0x8DA PUSH2 0x82C JUMP JUMPDEST JUMPDEST PUSH1 0x1 DUP3 SUB SWAP1 POP SWAP2 SWAP1 POP JUMP JUMPDEST PUSH0 PUSH2 0x8F0 DUP3 PUSH2 0x555 JUMP JUMPDEST SWAP2 POP PUSH32 0xFFFFFFFFFFFFFFFFFFFFFFFFFFFFFFFFFFFFFFFFFFFFFFFFFFFFFFFFFFFFFFFF DUP3 SUB PUSH2 0x922 JUMPI PUSH2 0x921 PUSH2 0x82C JUMP JUMPDEST JUMPDEST PUSH1 0x1 DUP3 ADD SWAP1 POP SWAP2 SWAP1 POP JUMP INVALID LOG2 PUSH5 0x6970667358 0x22 SLT KECCAK256 0x29 NUMBER BALANCE BYTE INVALID 0x4E LOG4 EXTCODEHASH 0xD0 SWAP13 0xAD DUP13 ADD 0xB1 SLT 0xF6 0xAD 0xB7 0x23 SWAP1 0xAB BALANCE 0xB3 0x2F SWAP11 0xC5 0xED 0xB6 SWAP2 0xD9 PUSH21 0x264736F6C63430008150033000000000000000000 "
				},
				"gasEstimates": {
					"creation": {
						"codeDepositCost": "480600",
						"executionCost": "516",
						"totalCost": "481116"
					},
					"external": {
						"InsertionSortWrong(uint256[])": "infinite",
						"doWhileLoopTest()": "infinite",
						"forLoopTest()": "infinite",
						"ifElseTest(uint256)": "655",
						"insertionSort(uint256[])": "infinite",
						"ternaryTest(uint256,uint256)": "infinite",
						"whileLoopTest()": "infinite"
					}
				},
				"methodIdentifiers": {
					"InsertionSortWrong(uint256[])": "034ae524",
					"doWhileLoopTest()": "9ccadc4d",
					"forLoopTest()": "b0cfa9fc",
					"ifElseTest(uint256)": "7141fb00",
					"insertionSort(uint256[])": "6297206f",
					"ternaryTest(uint256,uint256)": "28766320",
					"whileLoopTest()": "53c5ac86"
				}
			},
			"storageLayout": {
				"storage": [],
				"types": null
			},
			"userdoc": {
				"kind": "user",
				"methods": {},
				"version": 1
			}
		}
	}
}