{
	"SolidityProjects/contracts/Study/13-constant(常量).sol": {
		"Constants": {
			"abi": [
				{
					"inputs": [],
					"stateMutability": "nonpayable",
					"type": "constructor"
				},
				{
					"inputs": [],
					"name": "ADDRESS",
					"outputs": [
						{
							"internalType": "address",
							"name": "",
							"type": "address"
						}
					],
					"stateMutability": "view",
					"type": "function"
				},
				{
					"inputs": [],
					"name": "ADDRESS1",
					"outputs": [
						{
							"internalType": "address",
							"name": "",
							"type": "address"
						}
					],
					"stateMutability": "view",
					"type": "function"
				},
				{
					"inputs": [],
					"name": "BLOCK",
					"outputs": [
						{
							"internalType": "uint256",
							"name": "",
							"type": "uint256"
						}
					],
					"stateMutability": "view",
					"type": "function"
				},
				{
					"inputs": [],
					"name": "BYTES",
					"outputs": [
						{
							"internalType": "bytes",
							"name": "",
							"type": "bytes"
						}
					],
					"stateMutability": "view",
					"type": "function"
				},
				{
					"inputs": [],
					"name": "NUM1",
					"outputs": [
						{
							"internalType": "uint256",
							"name": "",
							"type": "uint256"
						}
					],
					"stateMutability": "view",
					"type": "function"
				},
				{
					"inputs": [],
					"name": "NUM2",
					"outputs": [
						{
							"internalType": "uint256",
							"name": "",
							"type": "uint256"
						}
					],
					"stateMutability": "view",
					"type": "function"
				},
				{
					"inputs": [],
					"name": "STRING",
					"outputs": [
						{
							"internalType": "string",
							"name": "",
							"type": "string"
						}
					],
					"stateMutability": "view",
					"type": "function"
				},
				{
					"inputs": [],
					"name": "TEST",
					"outputs": [
						{
							"internalType": "uint256",
							"name": "",
							"type": "uint256"
						}
					],
					"stateMutability": "view",
					"type": "function"
				},
				{
					"inputs": [],
					"name": "num1",
					"outputs": [
						{
							"internalType": "uint256",
							"name": "",
							"type": "uint256"
						}
					],
					"stateMutability": "view",
					"type": "function"
				},
				{
					"inputs": [],
					"name": "test",
					"outputs": [
						{
							"internalType": "uint256",
							"name": "",
							"type": "uint256"
						}
					],
					"stateMutability": "pure",
					"type": "function"
				}
			],
			"devdoc": {
				"kind": "dev",
				"methods": {},
				"version": 1
			},
			"evm": {
				"assembly": "    /* \"SolidityProjects/contracts/Study/13-constant(\\xe5\\xb8\\xb8\\xe9\\x87\\x8f).sol\":61:1786  contract Constants{... */\n  mstore(0x40, 0x0100)\n    /* \"SolidityProjects/contracts/Study/13-constant(\\xe5\\xb8\\xb8\\xe9\\x87\\x8f).sol\":531:533  10 */\n  0x0a\n    /* \"SolidityProjects/contracts/Study/13-constant(\\xe5\\xb8\\xb8\\xe9\\x87\\x8f).sol\":509:533  uint256 public num1 = 10 */\n  0x00\n  sstore\n    /* \"SolidityProjects/contracts/Study/13-constant(\\xe5\\xb8\\xb8\\xe9\\x87\\x8f).sol\":1144:1151  9999999 */\n  0x98967f\n    /* \"SolidityProjects/contracts/Study/13-constant(\\xe5\\xb8\\xb8\\xe9\\x87\\x8f).sol\":1112:1151  uint256 public immutable NUM2 = 9999999 */\n  0x80\n  swap1\n  dup2\n  mstore\n  pop\n    /* \"SolidityProjects/contracts/Study/13-constant(\\xe5\\xb8\\xb8\\xe9\\x87\\x8f).sol\":1557:1658  constructor(){... */\n  callvalue\n  dup1\n  iszero\n  tag_1\n  jumpi\n  0x00\n  dup1\n  revert\ntag_1:\n  pop\n    /* \"SolidityProjects/contracts/Study/13-constant(\\xe5\\xb8\\xb8\\xe9\\x87\\x8f).sol\":1600:1604  this */\n  address\n    /* \"SolidityProjects/contracts/Study/13-constant(\\xe5\\xb8\\xb8\\xe9\\x87\\x8f).sol\":1581:1605  ADDRESS1 = address(this) */\n  0xffffffffffffffffffffffffffffffffffffffff\n  and\n  0xa0\n  dup2\n  0xffffffffffffffffffffffffffffffffffffffff\n  and\n  dup2\n  mstore\n  pop\n  pop\n    /* \"SolidityProjects/contracts/Study/13-constant(\\xe5\\xb8\\xb8\\xe9\\x87\\x8f).sol\":1623:1626  999 */\n  0x03e7\n    /* \"SolidityProjects/contracts/Study/13-constant(\\xe5\\xb8\\xb8\\xe9\\x87\\x8f).sol\":1616:1626  NUM2 = 999 */\n  0x80\n  dup2\n  dup2\n  mstore\n  pop\n  pop\n    /* \"SolidityProjects/contracts/Study/13-constant(\\xe5\\xb8\\xb8\\xe9\\x87\\x8f).sol\":1644:1650  test() */\n  tag_4\n    /* \"SolidityProjects/contracts/Study/13-constant(\\xe5\\xb8\\xb8\\xe9\\x87\\x8f).sol\":1644:1648  test */\n  shl(0x20, tag_5)\n    /* \"SolidityProjects/contracts/Study/13-constant(\\xe5\\xb8\\xb8\\xe9\\x87\\x8f).sol\":1644:1650  test() */\n  0x20\n  shr\n  jump\t// in\ntag_4:\n    /* \"SolidityProjects/contracts/Study/13-constant(\\xe5\\xb8\\xb8\\xe9\\x87\\x8f).sol\":1637:1650  TEST = test() */\n  0xe0\n  dup2\n  dup2\n  mstore\n  pop\n  pop\n    /* \"SolidityProjects/contracts/Study/13-constant(\\xe5\\xb8\\xb8\\xe9\\x87\\x8f).sol\":61:1786  contract Constants{... */\n  jump(tag_6)\n    /* \"SolidityProjects/contracts/Study/13-constant(\\xe5\\xb8\\xb8\\xe9\\x87\\x8f).sol\":1666:1781  function test() public pure returns(uint256) {... */\ntag_5:\n    /* \"SolidityProjects/contracts/Study/13-constant(\\xe5\\xb8\\xb8\\xe9\\x87\\x8f).sol\":1702:1709  uint256 */\n  0x00\n    /* \"SolidityProjects/contracts/Study/13-constant(\\xe5\\xb8\\xb8\\xe9\\x87\\x8f).sol\":1722:1734  uint256 what */\n  dup1\n    /* \"SolidityProjects/contracts/Study/13-constant(\\xe5\\xb8\\xb8\\xe9\\x87\\x8f).sol\":1737:1740  999 */\n  0x03e7\n    /* \"SolidityProjects/contracts/Study/13-constant(\\xe5\\xb8\\xb8\\xe9\\x87\\x8f).sol\":1722:1740  uint256 what = 999 */\n  swap1\n  pop\n    /* \"SolidityProjects/contracts/Study/13-constant(\\xe5\\xb8\\xb8\\xe9\\x87\\x8f).sol\":1758:1762  what */\n  dup1\n    /* \"SolidityProjects/contracts/Study/13-constant(\\xe5\\xb8\\xb8\\xe9\\x87\\x8f).sol\":1751:1763  return(what) */\n  swap2\n  pop\n  pop\n    /* \"SolidityProjects/contracts/Study/13-constant(\\xe5\\xb8\\xb8\\xe9\\x87\\x8f).sol\":1666:1781  function test() public pure returns(uint256) {... */\n  swap1\n  jump\t// out\n    /* \"SolidityProjects/contracts/Study/13-constant(\\xe5\\xb8\\xb8\\xe9\\x87\\x8f).sol\":61:1786  contract Constants{... */\ntag_6:\n  mload(0x80)\n  mload(0xa0)\n  mload(0xc0)\n  mload(0xe0)\n  codecopy(0x00, dataOffset(sub_0), dataSize(sub_0))\n  0x00\n  assignImmutable(\"0x81e080ffc23e8b8d44dd829bc823229e92b893eb1d8f624419d3f5682eb97fc3\")\n  0x00\n  assignImmutable(\"0x1572b593c53d839d80004aa4b8c51211864104f06ace9e22be9c4365b50655ea\")\n  0x00\n  assignImmutable(\"0xf4c2b5de886427473655d4c904c743576dc2d53249b7535d96c06cc97ae7216b\")\n  0x00\n  assignImmutable(\"0x939eb54753ed0cc7e2272bfb34cbe098308c93936ed54d79078f76ade0b2e789\")\n  return(0x00, dataSize(sub_0))\nstop\n\nsub_0: assembly {\n        /* \"SolidityProjects/contracts/Study/13-constant(\\xe5\\xb8\\xb8\\xe9\\x87\\x8f).sol\":61:1786  contract Constants{... */\n      mstore(0x40, 0x80)\n      callvalue\n      dup1\n      iszero\n      tag_1\n      jumpi\n      0x00\n      dup1\n      revert\n    tag_1:\n      pop\n      jumpi(tag_2, lt(calldatasize, 0x04))\n      shr(0xe0, calldataload(0x00))\n      dup1\n      0xb51ce63d\n      gt\n      tag_13\n      jumpi\n      dup1\n      0xb51ce63d\n      eq\n      tag_8\n      jumpi\n      dup1\n      0xdb4542cc\n      eq\n      tag_9\n      jumpi\n      dup1\n      0xdbc5633f\n      eq\n      tag_10\n      jumpi\n      dup1\n      0xe88343e6\n      eq\n      tag_11\n      jumpi\n      dup1\n      0xf8a8fd6d\n      eq\n      tag_12\n      jumpi\n      jump(tag_2)\n    tag_13:\n      dup1\n      0x31c94947\n      eq\n      tag_3\n      jumpi\n      dup1\n      0x3b9eac4b\n      eq\n      tag_4\n      jumpi\n      dup1\n      0x4ff3a989\n      eq\n      tag_5\n      jumpi\n      dup1\n      0x51d977a6\n      eq\n      tag_6\n      jumpi\n      dup1\n      0x7afca97e\n      eq\n      tag_7\n      jumpi\n    tag_2:\n      0x00\n      dup1\n      revert\n        /* \"SolidityProjects/contracts/Study/13-constant(\\xe5\\xb8\\xb8\\xe9\\x87\\x8f).sol\":1158:1191  address public immutable ADDRESS1 */\n    tag_3:\n      tag_14\n      tag_15\n      jump\t// in\n    tag_14:\n      mload(0x40)\n      tag_16\n      swap2\n      swap1\n      tag_17\n      jump\t// in\n    tag_16:\n      mload(0x40)\n      dup1\n      swap2\n      sub\n      swap1\n      return\n        /* \"SolidityProjects/contracts/Study/13-constant(\\xe5\\xb8\\xb8\\xe9\\x87\\x8f).sol\":509:533  uint256 public num1 = 10 */\n    tag_4:\n      tag_18\n      tag_19\n      jump\t// in\n    tag_18:\n      mload(0x40)\n      tag_20\n      swap2\n      swap1\n      tag_21\n      jump\t// in\n    tag_20:\n      mload(0x40)\n      dup1\n      swap2\n      sub\n      swap1\n      return\n        /* \"SolidityProjects/contracts/Study/13-constant(\\xe5\\xb8\\xb8\\xe9\\x87\\x8f).sol\":1198:1228  uint256 public immutable BLOCK */\n    tag_5:\n      tag_22\n      tag_23\n      jump\t// in\n    tag_22:\n      mload(0x40)\n      tag_24\n      swap2\n      swap1\n      tag_21\n      jump\t// in\n    tag_24:\n      mload(0x40)\n      dup1\n      swap2\n      sub\n      swap1\n      return\n        /* \"SolidityProjects/contracts/Study/13-constant(\\xe5\\xb8\\xb8\\xe9\\x87\\x8f).sol\":1235:1264  uint256 public immutable TEST */\n    tag_6:\n      tag_25\n      tag_26\n      jump\t// in\n    tag_25:\n      mload(0x40)\n      tag_27\n      swap2\n      swap1\n      tag_21\n      jump\t// in\n    tag_27:\n      mload(0x40)\n      dup1\n      swap2\n      sub\n      swap1\n      return\n        /* \"SolidityProjects/contracts/Study/13-constant(\\xe5\\xb8\\xb8\\xe9\\x87\\x8f).sol\":540:583  string public constant STRING = 'HelloWeb3' */\n    tag_7:\n      tag_28\n      tag_29\n      jump\t// in\n    tag_28:\n      mload(0x40)\n      tag_30\n      swap2\n      swap1\n      tag_31\n      jump\t// in\n    tag_30:\n      mload(0x40)\n      dup1\n      swap2\n      sub\n      swap1\n      return\n        /* \"SolidityProjects/contracts/Study/13-constant(\\xe5\\xb8\\xb8\\xe9\\x87\\x8f).sol\":632:708  address public constant ADDRESS = 0xF99A2948854F765A6D1343C270f2de8d702B188F */\n    tag_8:\n      tag_32\n      tag_33\n      jump\t// in\n    tag_32:\n      mload(0x40)\n      tag_34\n      swap2\n      swap1\n      tag_17\n      jump\t// in\n    tag_34:\n      mload(0x40)\n      dup1\n      swap2\n      sub\n      swap1\n      return\n        /* \"SolidityProjects/contracts/Study/13-constant(\\xe5\\xb8\\xb8\\xe9\\x87\\x8f).sol\":469:502  uint256 public constant NUM1 = 10 */\n    tag_9:\n      tag_35\n      tag_36\n      jump\t// in\n    tag_35:\n      mload(0x40)\n      tag_37\n      swap2\n      swap1\n      tag_21\n      jump\t// in\n    tag_37:\n      mload(0x40)\n      dup1\n      swap2\n      sub\n      swap1\n      return\n        /* \"SolidityProjects/contracts/Study/13-constant(\\xe5\\xb8\\xb8\\xe9\\x87\\x8f).sol\":1112:1151  uint256 public immutable NUM2 = 9999999 */\n    tag_10:\n      tag_38\n      tag_39\n      jump\t// in\n    tag_38:\n      mload(0x40)\n      tag_40\n      swap2\n      swap1\n      tag_21\n      jump\t// in\n    tag_40:\n      mload(0x40)\n      dup1\n      swap2\n      sub\n      swap1\n      return\n        /* \"SolidityProjects/contracts/Study/13-constant(\\xe5\\xb8\\xb8\\xe9\\x87\\x8f).sol\":590:625  bytes public constant BYTES = 'WTF' */\n    tag_11:\n      tag_41\n      tag_42\n      jump\t// in\n    tag_41:\n      mload(0x40)\n      tag_43\n      swap2\n      swap1\n      tag_44\n      jump\t// in\n    tag_43:\n      mload(0x40)\n      dup1\n      swap2\n      sub\n      swap1\n      return\n        /* \"SolidityProjects/contracts/Study/13-constant(\\xe5\\xb8\\xb8\\xe9\\x87\\x8f).sol\":1666:1781  function test() public pure returns(uint256) {... */\n    tag_12:\n      tag_45\n      tag_46\n      jump\t// in\n    tag_45:\n      mload(0x40)\n      tag_47\n      swap2\n      swap1\n      tag_21\n      jump\t// in\n    tag_47:\n      mload(0x40)\n      dup1\n      swap2\n      sub\n      swap1\n      return\n        /* \"SolidityProjects/contracts/Study/13-constant(\\xe5\\xb8\\xb8\\xe9\\x87\\x8f).sol\":1158:1191  address public immutable ADDRESS1 */\n    tag_15:\n      immutable(\"0xf4c2b5de886427473655d4c904c743576dc2d53249b7535d96c06cc97ae7216b\")\n      dup2\n      jump\t// out\n        /* \"SolidityProjects/contracts/Study/13-constant(\\xe5\\xb8\\xb8\\xe9\\x87\\x8f).sol\":509:533  uint256 public num1 = 10 */\n    tag_19:\n      sload(0x00)\n      dup2\n      jump\t// out\n        /* \"SolidityProjects/contracts/Study/13-constant(\\xe5\\xb8\\xb8\\xe9\\x87\\x8f).sol\":1198:1228  uint256 public immutable BLOCK */\n    tag_23:\n      immutable(\"0x1572b593c53d839d80004aa4b8c51211864104f06ace9e22be9c4365b50655ea\")\n      dup2\n      jump\t// out\n        /* \"SolidityProjects/contracts/Study/13-constant(\\xe5\\xb8\\xb8\\xe9\\x87\\x8f).sol\":1235:1264  uint256 public immutable TEST */\n    tag_26:\n      immutable(\"0x81e080ffc23e8b8d44dd829bc823229e92b893eb1d8f624419d3f5682eb97fc3\")\n      dup2\n      jump\t// out\n        /* \"SolidityProjects/contracts/Study/13-constant(\\xe5\\xb8\\xb8\\xe9\\x87\\x8f).sol\":540:583  string public constant STRING = 'HelloWeb3' */\n    tag_29:\n      mload(0x40)\n      dup1\n      0x40\n      add\n      0x40\n      mstore\n      dup1\n      0x09\n      dup2\n      mstore\n      0x20\n      add\n      0x48656c6c6f576562330000000000000000000000000000000000000000000000\n      dup2\n      mstore\n      pop\n      dup2\n      jump\t// out\n        /* \"SolidityProjects/contracts/Study/13-constant(\\xe5\\xb8\\xb8\\xe9\\x87\\x8f).sol\":632:708  address public constant ADDRESS = 0xF99A2948854F765A6D1343C270f2de8d702B188F */\n    tag_33:\n        /* \"SolidityProjects/contracts/Study/13-constant(\\xe5\\xb8\\xb8\\xe9\\x87\\x8f).sol\":666:708  0xF99A2948854F765A6D1343C270f2de8d702B188F */\n      0xf99a2948854f765a6d1343c270f2de8d702b188f\n        /* \"SolidityProjects/contracts/Study/13-constant(\\xe5\\xb8\\xb8\\xe9\\x87\\x8f).sol\":632:708  address public constant ADDRESS = 0xF99A2948854F765A6D1343C270f2de8d702B188F */\n      dup2\n      jump\t// out\n        /* \"SolidityProjects/contracts/Study/13-constant(\\xe5\\xb8\\xb8\\xe9\\x87\\x8f).sol\":469:502  uint256 public constant NUM1 = 10 */\n    tag_36:\n        /* \"SolidityProjects/contracts/Study/13-constant(\\xe5\\xb8\\xb8\\xe9\\x87\\x8f).sol\":500:502  10 */\n      0x0a\n        /* \"SolidityProjects/contracts/Study/13-constant(\\xe5\\xb8\\xb8\\xe9\\x87\\x8f).sol\":469:502  uint256 public constant NUM1 = 10 */\n      dup2\n      jump\t// out\n        /* \"SolidityProjects/contracts/Study/13-constant(\\xe5\\xb8\\xb8\\xe9\\x87\\x8f).sol\":1112:1151  uint256 public immutable NUM2 = 9999999 */\n    tag_39:\n      immutable(\"0x939eb54753ed0cc7e2272bfb34cbe098308c93936ed54d79078f76ade0b2e789\")\n      dup2\n      jump\t// out\n        /* \"SolidityProjects/contracts/Study/13-constant(\\xe5\\xb8\\xb8\\xe9\\x87\\x8f).sol\":590:625  bytes public constant BYTES = 'WTF' */\n    tag_42:\n      mload(0x40)\n      dup1\n      0x40\n      add\n      0x40\n      mstore\n      dup1\n      0x03\n      dup2\n      mstore\n      0x20\n      add\n      0x5754460000000000000000000000000000000000000000000000000000000000\n      dup2\n      mstore\n      pop\n      dup2\n      jump\t// out\n        /* \"SolidityProjects/contracts/Study/13-constant(\\xe5\\xb8\\xb8\\xe9\\x87\\x8f).sol\":1666:1781  function test() public pure returns(uint256) {... */\n    tag_46:\n        /* \"SolidityProjects/contracts/Study/13-constant(\\xe5\\xb8\\xb8\\xe9\\x87\\x8f).sol\":1702:1709  uint256 */\n      0x00\n        /* \"SolidityProjects/contracts/Study/13-constant(\\xe5\\xb8\\xb8\\xe9\\x87\\x8f).sol\":1722:1734  uint256 what */\n      dup1\n        /* \"SolidityProjects/contracts/Study/13-constant(\\xe5\\xb8\\xb8\\xe9\\x87\\x8f).sol\":1737:1740  999 */\n      0x03e7\n        /* \"SolidityProjects/contracts/Study/13-constant(\\xe5\\xb8\\xb8\\xe9\\x87\\x8f).sol\":1722:1740  uint256 what = 999 */\n      swap1\n      pop\n        /* \"SolidityProjects/contracts/Study/13-constant(\\xe5\\xb8\\xb8\\xe9\\x87\\x8f).sol\":1758:1762  what */\n      dup1\n        /* \"SolidityProjects/contracts/Study/13-constant(\\xe5\\xb8\\xb8\\xe9\\x87\\x8f).sol\":1751:1763  return(what) */\n      swap2\n      pop\n      pop\n        /* \"SolidityProjects/contracts/Study/13-constant(\\xe5\\xb8\\xb8\\xe9\\x87\\x8f).sol\":1666:1781  function test() public pure returns(uint256) {... */\n      swap1\n      jump\t// out\n        /* \"#utility.yul\":7:133   */\n    tag_49:\n        /* \"#utility.yul\":44:51   */\n      0x00\n        /* \"#utility.yul\":84:126   */\n      0xffffffffffffffffffffffffffffffffffffffff\n        /* \"#utility.yul\":77:82   */\n      dup3\n        /* \"#utility.yul\":73:127   */\n      and\n        /* \"#utility.yul\":62:127   */\n      swap1\n      pop\n        /* \"#utility.yul\":7:133   */\n      swap2\n      swap1\n      pop\n      jump\t// out\n        /* \"#utility.yul\":139:235   */\n    tag_50:\n        /* \"#utility.yul\":176:183   */\n      0x00\n        /* \"#utility.yul\":205:229   */\n      tag_65\n        /* \"#utility.yul\":223:228   */\n      dup3\n        /* \"#utility.yul\":205:229   */\n      tag_49\n      jump\t// in\n    tag_65:\n        /* \"#utility.yul\":194:229   */\n      swap1\n      pop\n        /* \"#utility.yul\":139:235   */\n      swap2\n      swap1\n      pop\n      jump\t// out\n        /* \"#utility.yul\":241:359   */\n    tag_51:\n        /* \"#utility.yul\":328:352   */\n      tag_67\n        /* \"#utility.yul\":346:351   */\n      dup2\n        /* \"#utility.yul\":328:352   */\n      tag_50\n      jump\t// in\n    tag_67:\n        /* \"#utility.yul\":323:326   */\n      dup3\n        /* \"#utility.yul\":316:353   */\n      mstore\n        /* \"#utility.yul\":241:359   */\n      pop\n      pop\n      jump\t// out\n        /* \"#utility.yul\":365:587   */\n    tag_17:\n        /* \"#utility.yul\":458:462   */\n      0x00\n        /* \"#utility.yul\":496:498   */\n      0x20\n        /* \"#utility.yul\":485:494   */\n      dup3\n        /* \"#utility.yul\":481:499   */\n      add\n        /* \"#utility.yul\":473:499   */\n      swap1\n      pop\n        /* \"#utility.yul\":509:580   */\n      tag_69\n        /* \"#utility.yul\":577:578   */\n      0x00\n        /* \"#utility.yul\":566:575   */\n      dup4\n        /* \"#utility.yul\":562:579   */\n      add\n        /* \"#utility.yul\":553:559   */\n      dup5\n        /* \"#utility.yul\":509:580   */\n      tag_51\n      jump\t// in\n    tag_69:\n        /* \"#utility.yul\":365:587   */\n      swap3\n      swap2\n      pop\n      pop\n      jump\t// out\n        /* \"#utility.yul\":593:670   */\n    tag_52:\n        /* \"#utility.yul\":630:637   */\n      0x00\n        /* \"#utility.yul\":659:664   */\n      dup2\n        /* \"#utility.yul\":648:664   */\n      swap1\n      pop\n        /* \"#utility.yul\":593:670   */\n      swap2\n      swap1\n      pop\n      jump\t// out\n        /* \"#utility.yul\":676:794   */\n    tag_53:\n        /* \"#utility.yul\":763:787   */\n      tag_72\n        /* \"#utility.yul\":781:786   */\n      dup2\n        /* \"#utility.yul\":763:787   */\n      tag_52\n      jump\t// in\n    tag_72:\n        /* \"#utility.yul\":758:761   */\n      dup3\n        /* \"#utility.yul\":751:788   */\n      mstore\n        /* \"#utility.yul\":676:794   */\n      pop\n      pop\n      jump\t// out\n        /* \"#utility.yul\":800:1022   */\n    tag_21:\n        /* \"#utility.yul\":893:897   */\n      0x00\n        /* \"#utility.yul\":931:933   */\n      0x20\n        /* \"#utility.yul\":920:929   */\n      dup3\n        /* \"#utility.yul\":916:934   */\n      add\n        /* \"#utility.yul\":908:934   */\n      swap1\n      pop\n        /* \"#utility.yul\":944:1015   */\n      tag_74\n        /* \"#utility.yul\":1012:1013   */\n      0x00\n        /* \"#utility.yul\":1001:1010   */\n      dup4\n        /* \"#utility.yul\":997:1014   */\n      add\n        /* \"#utility.yul\":988:994   */\n      dup5\n        /* \"#utility.yul\":944:1015   */\n      tag_53\n      jump\t// in\n    tag_74:\n        /* \"#utility.yul\":800:1022   */\n      swap3\n      swap2\n      pop\n      pop\n      jump\t// out\n        /* \"#utility.yul\":1028:1127   */\n    tag_54:\n        /* \"#utility.yul\":1080:1086   */\n      0x00\n        /* \"#utility.yul\":1114:1119   */\n      dup2\n        /* \"#utility.yul\":1108:1120   */\n      mload\n        /* \"#utility.yul\":1098:1120   */\n      swap1\n      pop\n        /* \"#utility.yul\":1028:1127   */\n      swap2\n      swap1\n      pop\n      jump\t// out\n        /* \"#utility.yul\":1133:1302   */\n    tag_55:\n        /* \"#utility.yul\":1217:1228   */\n      0x00\n        /* \"#utility.yul\":1251:1257   */\n      dup3\n        /* \"#utility.yul\":1246:1249   */\n      dup3\n        /* \"#utility.yul\":1239:1258   */\n      mstore\n        /* \"#utility.yul\":1291:1295   */\n      0x20\n        /* \"#utility.yul\":1286:1289   */\n      dup3\n        /* \"#utility.yul\":1282:1296   */\n      add\n        /* \"#utility.yul\":1267:1296   */\n      swap1\n      pop\n        /* \"#utility.yul\":1133:1302   */\n      swap3\n      swap2\n      pop\n      pop\n      jump\t// out\n        /* \"#utility.yul\":1308:1447   */\n    tag_56:\n        /* \"#utility.yul\":1397:1403   */\n      dup3\n        /* \"#utility.yul\":1392:1395   */\n      dup2\n        /* \"#utility.yul\":1387:1390   */\n      dup4\n        /* \"#utility.yul\":1381:1404   */\n      mcopy\n        /* \"#utility.yul\":1438:1439   */\n      0x00\n        /* \"#utility.yul\":1429:1435   */\n      dup4\n        /* \"#utility.yul\":1424:1427   */\n      dup4\n        /* \"#utility.yul\":1420:1436   */\n      add\n        /* \"#utility.yul\":1413:1440   */\n      mstore\n        /* \"#utility.yul\":1308:1447   */\n      pop\n      pop\n      pop\n      jump\t// out\n        /* \"#utility.yul\":1453:1555   */\n    tag_57:\n        /* \"#utility.yul\":1494:1500   */\n      0x00\n        /* \"#utility.yul\":1545:1547   */\n      0x1f\n        /* \"#utility.yul\":1541:1548   */\n      not\n        /* \"#utility.yul\":1536:1538   */\n      0x1f\n        /* \"#utility.yul\":1529:1534   */\n      dup4\n        /* \"#utility.yul\":1525:1539   */\n      add\n        /* \"#utility.yul\":1521:1549   */\n      and\n        /* \"#utility.yul\":1511:1549   */\n      swap1\n      pop\n        /* \"#utility.yul\":1453:1555   */\n      swap2\n      swap1\n      pop\n      jump\t// out\n        /* \"#utility.yul\":1561:1938   */\n    tag_58:\n        /* \"#utility.yul\":1649:1652   */\n      0x00\n        /* \"#utility.yul\":1677:1716   */\n      tag_80\n        /* \"#utility.yul\":1710:1715   */\n      dup3\n        /* \"#utility.yul\":1677:1716   */\n      tag_54\n      jump\t// in\n    tag_80:\n        /* \"#utility.yul\":1732:1803   */\n      tag_81\n        /* \"#utility.yul\":1796:1802   */\n      dup2\n        /* \"#utility.yul\":1791:1794   */\n      dup6\n        /* \"#utility.yul\":1732:1803   */\n      tag_55\n      jump\t// in\n    tag_81:\n        /* \"#utility.yul\":1725:1803   */\n      swap4\n      pop\n        /* \"#utility.yul\":1812:1877   */\n      tag_82\n        /* \"#utility.yul\":1870:1876   */\n      dup2\n        /* \"#utility.yul\":1865:1868   */\n      dup6\n        /* \"#utility.yul\":1858:1862   */\n      0x20\n        /* \"#utility.yul\":1851:1856   */\n      dup7\n        /* \"#utility.yul\":1847:1863   */\n      add\n        /* \"#utility.yul\":1812:1877   */\n      tag_56\n      jump\t// in\n    tag_82:\n        /* \"#utility.yul\":1902:1931   */\n      tag_83\n        /* \"#utility.yul\":1924:1930   */\n      dup2\n        /* \"#utility.yul\":1902:1931   */\n      tag_57\n      jump\t// in\n    tag_83:\n        /* \"#utility.yul\":1897:1900   */\n      dup5\n        /* \"#utility.yul\":1893:1932   */\n      add\n        /* \"#utility.yul\":1886:1932   */\n      swap2\n      pop\n        /* \"#utility.yul\":1653:1938   */\n      pop\n        /* \"#utility.yul\":1561:1938   */\n      swap3\n      swap2\n      pop\n      pop\n      jump\t// out\n        /* \"#utility.yul\":1944:2257   */\n    tag_31:\n        /* \"#utility.yul\":2057:2061   */\n      0x00\n        /* \"#utility.yul\":2095:2097   */\n      0x20\n        /* \"#utility.yul\":2084:2093   */\n      dup3\n        /* \"#utility.yul\":2080:2098   */\n      add\n        /* \"#utility.yul\":2072:2098   */\n      swap1\n      pop\n        /* \"#utility.yul\":2144:2153   */\n      dup2\n        /* \"#utility.yul\":2138:2142   */\n      dup2\n        /* \"#utility.yul\":2134:2154   */\n      sub\n        /* \"#utility.yul\":2130:2131   */\n      0x00\n        /* \"#utility.yul\":2119:2128   */\n      dup4\n        /* \"#utility.yul\":2115:2132   */\n      add\n        /* \"#utility.yul\":2108:2155   */\n      mstore\n        /* \"#utility.yul\":2172:2250   */\n      tag_85\n        /* \"#utility.yul\":2245:2249   */\n      dup2\n        /* \"#utility.yul\":2236:2242   */\n      dup5\n        /* \"#utility.yul\":2172:2250   */\n      tag_58\n      jump\t// in\n    tag_85:\n        /* \"#utility.yul\":2164:2250   */\n      swap1\n      pop\n        /* \"#utility.yul\":1944:2257   */\n      swap3\n      swap2\n      pop\n      pop\n      jump\t// out\n        /* \"#utility.yul\":2263:2361   */\n    tag_59:\n        /* \"#utility.yul\":2314:2320   */\n      0x00\n        /* \"#utility.yul\":2348:2353   */\n      dup2\n        /* \"#utility.yul\":2342:2354   */\n      mload\n        /* \"#utility.yul\":2332:2354   */\n      swap1\n      pop\n        /* \"#utility.yul\":2263:2361   */\n      swap2\n      swap1\n      pop\n      jump\t// out\n        /* \"#utility.yul\":2367:2535   */\n    tag_60:\n        /* \"#utility.yul\":2450:2461   */\n      0x00\n        /* \"#utility.yul\":2484:2490   */\n      dup3\n        /* \"#utility.yul\":2479:2482   */\n      dup3\n        /* \"#utility.yul\":2472:2491   */\n      mstore\n        /* \"#utility.yul\":2524:2528   */\n      0x20\n        /* \"#utility.yul\":2519:2522   */\n      dup3\n        /* \"#utility.yul\":2515:2529   */\n      add\n        /* \"#utility.yul\":2500:2529   */\n      swap1\n      pop\n        /* \"#utility.yul\":2367:2535   */\n      swap3\n      swap2\n      pop\n      pop\n      jump\t// out\n        /* \"#utility.yul\":2541:2914   */\n    tag_61:\n        /* \"#utility.yul\":2627:2630   */\n      0x00\n        /* \"#utility.yul\":2655:2693   */\n      tag_89\n        /* \"#utility.yul\":2687:2692   */\n      dup3\n        /* \"#utility.yul\":2655:2693   */\n      tag_59\n      jump\t// in\n    tag_89:\n        /* \"#utility.yul\":2709:2779   */\n      tag_90\n        /* \"#utility.yul\":2772:2778   */\n      dup2\n        /* \"#utility.yul\":2767:2770   */\n      dup6\n        /* \"#utility.yul\":2709:2779   */\n      tag_60\n      jump\t// in\n    tag_90:\n        /* \"#utility.yul\":2702:2779   */\n      swap4\n      pop\n        /* \"#utility.yul\":2788:2853   */\n      tag_91\n        /* \"#utility.yul\":2846:2852   */\n      dup2\n        /* \"#utility.yul\":2841:2844   */\n      dup6\n        /* \"#utility.yul\":2834:2838   */\n      0x20\n        /* \"#utility.yul\":2827:2832   */\n      dup7\n        /* \"#utility.yul\":2823:2839   */\n      add\n        /* \"#utility.yul\":2788:2853   */\n      tag_56\n      jump\t// in\n    tag_91:\n        /* \"#utility.yul\":2878:2907   */\n      tag_92\n        /* \"#utility.yul\":2900:2906   */\n      dup2\n        /* \"#utility.yul\":2878:2907   */\n      tag_57\n      jump\t// in\n    tag_92:\n        /* \"#utility.yul\":2873:2876   */\n      dup5\n        /* \"#utility.yul\":2869:2908   */\n      add\n        /* \"#utility.yul\":2862:2908   */\n      swap2\n      pop\n        /* \"#utility.yul\":2631:2914   */\n      pop\n        /* \"#utility.yul\":2541:2914   */\n      swap3\n      swap2\n      pop\n      pop\n      jump\t// out\n        /* \"#utility.yul\":2920:3229   */\n    tag_44:\n        /* \"#utility.yul\":3031:3035   */\n      0x00\n        /* \"#utility.yul\":3069:3071   */\n      0x20\n        /* \"#utility.yul\":3058:3067   */\n      dup3\n        /* \"#utility.yul\":3054:3072   */\n      add\n        /* \"#utility.yul\":3046:3072   */\n      swap1\n      pop\n        /* \"#utility.yul\":3118:3127   */\n      dup2\n        /* \"#utility.yul\":3112:3116   */\n      dup2\n        /* \"#utility.yul\":3108:3128   */\n      sub\n        /* \"#utility.yul\":3104:3105   */\n      0x00\n        /* \"#utility.yul\":3093:3102   */\n      dup4\n        /* \"#utility.yul\":3089:3106   */\n      add\n        /* \"#utility.yul\":3082:3129   */\n      mstore\n        /* \"#utility.yul\":3146:3222   */\n      tag_94\n        /* \"#utility.yul\":3217:3221   */\n      dup2\n        /* \"#utility.yul\":3208:3214   */\n      dup5\n        /* \"#utility.yul\":3146:3222   */\n      tag_61\n      jump\t// in\n    tag_94:\n        /* \"#utility.yul\":3138:3222   */\n      swap1\n      pop\n        /* \"#utility.yul\":2920:3229   */\n      swap3\n      swap2\n      pop\n      pop\n      jump\t// out\n\n    auxdata: 0xa2646970667358221220722c710762574b88f2065105533312a504d6ec9555d8271f0b0e973aca16f49e64736f6c63430008190033\n}\n",
				"bytecode": {
					"linkReferences": {},
					"object": "610100604052600a5f556298967f60809081525034801561001e575f80fd5b503073ffffffffffffffffffffffffffffffffffffffff1660a08173ffffffffffffffffffffffffffffffffffffffff16815250506103e76080818152505061006b61007760201b60201c565b60e08181525050610085565b5f806103e790508091505090565b60805160a05160c05160e0516104bf6100b85f395f61021b01525f6101f701525f6101ce01525f61029501526104bf5ff3fe608060405234801561000f575f80fd5b506004361061009c575f3560e01c8063b51ce63d11610064578063b51ce63d14610136578063db4542cc14610154578063dbc5633f14610172578063e88343e614610190578063f8a8fd6d146101ae5761009c565b806331c94947146100a05780633b9eac4b146100be5780634ff3a989146100dc57806351d977a6146100fa5780637afca97e14610118575b5f80fd5b6100a86101cc565b6040516100b5919061033d565b60405180910390f35b6100c66101f0565b6040516100d3919061036e565b60405180910390f35b6100e46101f5565b6040516100f1919061036e565b60405180910390f35b610102610219565b60405161010f919061036e565b60405180910390f35b61012061023d565b60405161012d91906103f7565b60405180910390f35b61013e610276565b60405161014b919061033d565b60405180910390f35b61015c61028e565b604051610169919061036e565b60405180910390f35b61017a610293565b604051610187919061036e565b60405180910390f35b6101986102b7565b6040516101a59190610469565b60405180910390f35b6101b66102f0565b6040516101c3919061036e565b60405180910390f35b7f000000000000000000000000000000000000000000000000000000000000000081565b5f5481565b7f000000000000000000000000000000000000000000000000000000000000000081565b7f000000000000000000000000000000000000000000000000000000000000000081565b6040518060400160405280600981526020017f48656c6c6f57656233000000000000000000000000000000000000000000000081525081565b73f99a2948854f765a6d1343c270f2de8d702b188f81565b600a81565b7f000000000000000000000000000000000000000000000000000000000000000081565b6040518060400160405280600381526020017f575446000000000000000000000000000000000000000000000000000000000081525081565b5f806103e790508091505090565b5f73ffffffffffffffffffffffffffffffffffffffff82169050919050565b5f610327826102fe565b9050919050565b6103378161031d565b82525050565b5f6020820190506103505f83018461032e565b92915050565b5f819050919050565b61036881610356565b82525050565b5f6020820190506103815f83018461035f565b92915050565b5f81519050919050565b5f82825260208201905092915050565b8281835e5f83830152505050565b5f601f19601f8301169050919050565b5f6103c982610387565b6103d38185610391565b93506103e38185602086016103a1565b6103ec816103af565b840191505092915050565b5f6020820190508181035f83015261040f81846103bf565b905092915050565b5f81519050919050565b5f82825260208201905092915050565b5f61043b82610417565b6104458185610421565b93506104558185602086016103a1565b61045e816103af565b840191505092915050565b5f6020820190508181035f8301526104818184610431565b90509291505056fea2646970667358221220722c710762574b88f2065105533312a504d6ec9555d8271f0b0e973aca16f49e64736f6c63430008190033",
					"opcodes": "PUSH2 0x100 PUSH1 0x40 MSTORE PUSH1 0xA PUSH0 SSTORE PUSH3 0x98967F PUSH1 0x80 SWAP1 DUP2 MSTORE POP CALLVALUE DUP1 ISZERO PUSH2 0x1E JUMPI PUSH0 DUP1 REVERT JUMPDEST POP ADDRESS PUSH20 0xFFFFFFFFFFFFFFFFFFFFFFFFFFFFFFFFFFFFFFFF AND PUSH1 0xA0 DUP2 PUSH20 0xFFFFFFFFFFFFFFFFFFFFFFFFFFFFFFFFFFFFFFFF AND DUP2 MSTORE POP POP PUSH2 0x3E7 PUSH1 0x80 DUP2 DUP2 MSTORE POP POP PUSH2 0x6B PUSH2 0x77 PUSH1 0x20 SHL PUSH1 0x20 SHR JUMP JUMPDEST PUSH1 0xE0 DUP2 DUP2 MSTORE POP POP PUSH2 0x85 JUMP JUMPDEST PUSH0 DUP1 PUSH2 0x3E7 SWAP1 POP DUP1 SWAP2 POP POP SWAP1 JUMP JUMPDEST PUSH1 0x80 MLOAD PUSH1 0xA0 MLOAD PUSH1 0xC0 MLOAD PUSH1 0xE0 MLOAD PUSH2 0x4BF PUSH2 0xB8 PUSH0 CODECOPY PUSH0 PUSH2 0x21B ADD MSTORE PUSH0 PUSH2 0x1F7 ADD MSTORE PUSH0 PUSH2 0x1CE ADD MSTORE PUSH0 PUSH2 0x295 ADD MSTORE PUSH2 0x4BF PUSH0 RETURN INVALID PUSH1 0x80 PUSH1 0x40 MSTORE CALLVALUE DUP1 ISZERO PUSH2 0xF JUMPI PUSH0 DUP1 REVERT JUMPDEST POP PUSH1 0x4 CALLDATASIZE LT PUSH2 0x9C JUMPI PUSH0 CALLDATALOAD PUSH1 0xE0 SHR DUP1 PUSH4 0xB51CE63D GT PUSH2 0x64 JUMPI DUP1 PUSH4 0xB51CE63D EQ PUSH2 0x136 JUMPI DUP1 PUSH4 0xDB4542CC EQ PUSH2 0x154 JUMPI DUP1 PUSH4 0xDBC5633F EQ PUSH2 0x172 JUMPI DUP1 PUSH4 0xE88343E6 EQ PUSH2 0x190 JUMPI DUP1 PUSH4 0xF8A8FD6D EQ PUSH2 0x1AE JUMPI PUSH2 0x9C JUMP JUMPDEST DUP1 PUSH4 0x31C94947 EQ PUSH2 0xA0 JUMPI DUP1 PUSH4 0x3B9EAC4B EQ PUSH2 0xBE JUMPI DUP1 PUSH4 0x4FF3A989 EQ PUSH2 0xDC JUMPI DUP1 PUSH4 0x51D977A6 EQ PUSH2 0xFA JUMPI DUP1 PUSH4 0x7AFCA97E EQ PUSH2 0x118 JUMPI JUMPDEST PUSH0 DUP1 REVERT JUMPDEST PUSH2 0xA8 PUSH2 0x1CC JUMP JUMPDEST PUSH1 0x40 MLOAD PUSH2 0xB5 SWAP2 SWAP1 PUSH2 0x33D JUMP JUMPDEST PUSH1 0x40 MLOAD DUP1 SWAP2 SUB SWAP1 RETURN JUMPDEST PUSH2 0xC6 PUSH2 0x1F0 JUMP JUMPDEST PUSH1 0x40 MLOAD PUSH2 0xD3 SWAP2 SWAP1 PUSH2 0x36E JUMP JUMPDEST PUSH1 0x40 MLOAD DUP1 SWAP2 SUB SWAP1 RETURN JUMPDEST PUSH2 0xE4 PUSH2 0x1F5 JUMP JUMPDEST PUSH1 0x40 MLOAD PUSH2 0xF1 SWAP2 SWAP1 PUSH2 0x36E JUMP JUMPDEST PUSH1 0x40 MLOAD DUP1 SWAP2 SUB SWAP1 RETURN JUMPDEST PUSH2 0x102 PUSH2 0x219 JUMP JUMPDEST PUSH1 0x40 MLOAD PUSH2 0x10F SWAP2 SWAP1 PUSH2 0x36E JUMP JUMPDEST PUSH1 0x40 MLOAD DUP1 SWAP2 SUB SWAP1 RETURN JUMPDEST PUSH2 0x120 PUSH2 0x23D JUMP JUMPDEST PUSH1 0x40 MLOAD PUSH2 0x12D SWAP2 SWAP1 PUSH2 0x3F7 JUMP JUMPDEST PUSH1 0x40 MLOAD DUP1 SWAP2 SUB SWAP1 RETURN JUMPDEST PUSH2 0x13E PUSH2 0x276 JUMP JUMPDEST PUSH1 0x40 MLOAD PUSH2 0x14B SWAP2 SWAP1 PUSH2 0x33D JUMP JUMPDEST PUSH1 0x40 MLOAD DUP1 SWAP2 SUB SWAP1 RETURN JUMPDEST PUSH2 0x15C PUSH2 0x28E JUMP JUMPDEST PUSH1 0x40 MLOAD PUSH2 0x169 SWAP2 SWAP1 PUSH2 0x36E JUMP JUMPDEST PUSH1 0x40 MLOAD DUP1 SWAP2 SUB SWAP1 RETURN JUMPDEST PUSH2 0x17A PUSH2 0x293 JUMP JUMPDEST PUSH1 0x40 MLOAD PUSH2 0x187 SWAP2 SWAP1 PUSH2 0x36E JUMP JUMPDEST PUSH1 0x40 MLOAD DUP1 SWAP2 SUB SWAP1 RETURN JUMPDEST PUSH2 0x198 PUSH2 0x2B7 JUMP JUMPDEST PUSH1 0x40 MLOAD PUSH2 0x1A5 SWAP2 SWAP1 PUSH2 0x469 JUMP JUMPDEST PUSH1 0x40 MLOAD DUP1 SWAP2 SUB SWAP1 RETURN JUMPDEST PUSH2 0x1B6 PUSH2 0x2F0 JUMP JUMPDEST PUSH1 0x40 MLOAD PUSH2 0x1C3 SWAP2 SWAP1 PUSH2 0x36E JUMP JUMPDEST PUSH1 0x40 MLOAD DUP1 SWAP2 SUB SWAP1 RETURN JUMPDEST PUSH32 0x0 DUP2 JUMP JUMPDEST PUSH0 SLOAD DUP2 JUMP JUMPDEST PUSH32 0x0 DUP2 JUMP JUMPDEST PUSH32 0x0 DUP2 JUMP JUMPDEST PUSH1 0x40 MLOAD DUP1 PUSH1 0x40 ADD PUSH1 0x40 MSTORE DUP1 PUSH1 0x9 DUP2 MSTORE PUSH1 0x20 ADD PUSH32 0x48656C6C6F576562330000000000000000000000000000000000000000000000 DUP2 MSTORE POP DUP2 JUMP JUMPDEST PUSH20 0xF99A2948854F765A6D1343C270F2DE8D702B188F DUP2 JUMP JUMPDEST PUSH1 0xA DUP2 JUMP JUMPDEST PUSH32 0x0 DUP2 JUMP JUMPDEST PUSH1 0x40 MLOAD DUP1 PUSH1 0x40 ADD PUSH1 0x40 MSTORE DUP1 PUSH1 0x3 DUP2 MSTORE PUSH1 0x20 ADD PUSH32 0x5754460000000000000000000000000000000000000000000000000000000000 DUP2 MSTORE POP DUP2 JUMP JUMPDEST PUSH0 DUP1 PUSH2 0x3E7 SWAP1 POP DUP1 SWAP2 POP POP SWAP1 JUMP JUMPDEST PUSH0 PUSH20 0xFFFFFFFFFFFFFFFFFFFFFFFFFFFFFFFFFFFFFFFF DUP3 AND SWAP1 POP SWAP2 SWAP1 POP JUMP JUMPDEST PUSH0 PUSH2 0x327 DUP3 PUSH2 0x2FE JUMP JUMPDEST SWAP1 POP SWAP2 SWAP1 POP JUMP JUMPDEST PUSH2 0x337 DUP2 PUSH2 0x31D JUMP JUMPDEST DUP3 MSTORE POP POP JUMP JUMPDEST PUSH0 PUSH1 0x20 DUP3 ADD SWAP1 POP PUSH2 0x350 PUSH0 DUP4 ADD DUP5 PUSH2 0x32E JUMP JUMPDEST SWAP3 SWAP2 POP POP JUMP JUMPDEST PUSH0 DUP2 SWAP1 POP SWAP2 SWAP1 POP JUMP JUMPDEST PUSH2 0x368 DUP2 PUSH2 0x356 JUMP JUMPDEST DUP3 MSTORE POP POP JUMP JUMPDEST PUSH0 PUSH1 0x20 DUP3 ADD SWAP1 POP PUSH2 0x381 PUSH0 DUP4 ADD DUP5 PUSH2 0x35F JUMP JUMPDEST SWAP3 SWAP2 POP POP JUMP JUMPDEST PUSH0 DUP2 MLOAD SWAP1 POP SWAP2 SWAP1 POP JUMP JUMPDEST PUSH0 DUP3 DUP3 MSTORE PUSH1 0x20 DUP3 ADD SWAP1 POP SWAP3 SWAP2 POP POP JUMP JUMPDEST DUP3 DUP2 DUP4 MCOPY PUSH0 DUP4 DUP4 ADD MSTORE POP POP POP JUMP JUMPDEST PUSH0 PUSH1 0x1F NOT PUSH1 0x1F DUP4 ADD AND SWAP1 POP SWAP2 SWAP1 POP JUMP JUMPDEST PUSH0 PUSH2 0x3C9 DUP3 PUSH2 0x387 JUMP JUMPDEST PUSH2 0x3D3 DUP2 DUP6 PUSH2 0x391 JUMP JUMPDEST SWAP4 POP PUSH2 0x3E3 DUP2 DUP6 PUSH1 0x20 DUP7 ADD PUSH2 0x3A1 JUMP JUMPDEST PUSH2 0x3EC DUP2 PUSH2 0x3AF JUMP JUMPDEST DUP5 ADD SWAP2 POP POP SWAP3 SWAP2 POP POP JUMP JUMPDEST PUSH0 PUSH1 0x20 DUP3 ADD SWAP1 POP DUP2 DUP2 SUB PUSH0 DUP4 ADD MSTORE PUSH2 0x40F DUP2 DUP5 PUSH2 0x3BF JUMP JUMPDEST SWAP1 POP SWAP3 SWAP2 POP POP JUMP JUMPDEST PUSH0 DUP2 MLOAD SWAP1 POP SWAP2 SWAP1 POP JUMP JUMPDEST PUSH0 DUP3 DUP3 MSTORE PUSH1 0x20 DUP3 ADD SWAP1 POP SWAP3 SWAP2 POP POP JUMP JUMPDEST PUSH0 PUSH2 0x43B DUP3 PUSH2 0x417 JUMP JUMPDEST PUSH2 0x445 DUP2 DUP6 PUSH2 0x421 JUMP JUMPDEST SWAP4 POP PUSH2 0x455 DUP2 DUP6 PUSH1 0x20 DUP7 ADD PUSH2 0x3A1 JUMP JUMPDEST PUSH2 0x45E DUP2 PUSH2 0x3AF JUMP JUMPDEST DUP5 ADD SWAP2 POP POP SWAP3 SWAP2 POP POP JUMP JUMPDEST PUSH0 PUSH1 0x20 DUP3 ADD SWAP1 POP DUP2 DUP2 SUB PUSH0 DUP4 ADD MSTORE PUSH2 0x481 DUP2 DUP5 PUSH2 0x431 JUMP JUMPDEST SWAP1 POP SWAP3 SWAP2 POP POP JUMP INVALID LOG2 PUSH5 0x6970667358 0x22 SLT KECCAK256 PUSH19 0x2C710762574B88F2065105533312A504D6EC95 SSTORE 0xD8 0x27 0x1F SIGNEXTEND 0xE SWAP8 GASPRICE 0xCA AND DELEGATECALL SWAP15 PUSH5 0x736F6C6343 STOP ADDMOD NOT STOP CALLER "
				},
				"gasEstimates": {
					"creation": {
						"codeDepositCost": "243000",
						"executionCost": "infinite",
						"totalCost": "infinite"
					},
					"external": {
						"ADDRESS()": "373",
						"ADDRESS1()": "infinite",
						"BLOCK()": "infinite",
						"BYTES()": "infinite",
						"NUM1()": "347",
						"NUM2()": "infinite",
						"STRING()": "infinite",
						"TEST()": "infinite",
						"num1()": "2447",
						"test()": "433"
					}
				},
				"methodIdentifiers": {
					"ADDRESS()": "b51ce63d",
					"ADDRESS1()": "31c94947",
					"BLOCK()": "4ff3a989",
					"BYTES()": "e88343e6",
					"NUM1()": "db4542cc",
					"NUM2()": "dbc5633f",
					"STRING()": "7afca97e",
					"TEST()": "51d977a6",
					"num1()": "3b9eac4b",
					"test()": "f8a8fd6d"
				}
			},
			"storageLayout": {
				"storage": [
					{
						"astId": 7,
						"contract": "SolidityProjects/contracts/Study/13-constant(常量).sol:Constants",
						"label": "num1",
						"offset": 0,
						"slot": "0",
						"type": "t_uint256"
					}
				],
				"types": {
					"t_uint256": {
						"encoding": "inplace",
						"label": "uint256",
						"numberOfBytes": "32"
					}
				}
			},
			"userdoc": {
				"kind": "user",
				"methods": {},
				"version": 1
			}
		}
	}
}