{
	"SolidityProjects/contracts/SolidityGrammers/17-inherit(继承).sol": {
		"Erzi": {
			"abi": [
				{
					"anonymous": false,
					"inputs": [
						{
							"indexed": false,
							"internalType": "string",
							"name": "msg",
							"type": "string"
						}
					],
					"name": "log",
					"type": "event"
				},
				{
					"inputs": [],
					"name": "baba",
					"outputs": [],
					"stateMutability": "nonpayable",
					"type": "function"
				},
				{
					"inputs": [],
					"name": "callParent",
					"outputs": [],
					"stateMutability": "nonpayable",
					"type": "function"
				},
				{
					"inputs": [],
					"name": "callParentSuper",
					"outputs": [],
					"stateMutability": "nonpayable",
					"type": "function"
				},
				{
					"inputs": [],
					"name": "hip",
					"outputs": [],
					"stateMutability": "nonpayable",
					"type": "function"
				},
				{
					"inputs": [],
					"name": "pop",
					"outputs": [],
					"stateMutability": "nonpayable",
					"type": "function"
				},
				{
					"inputs": [],
					"name": "yeye",
					"outputs": [],
					"stateMutability": "nonpayable",
					"type": "function"
				}
			],
			"devdoc": {
				"kind": "dev",
				"methods": {},
				"version": 1
			},
			"evm": {
				"assembly": "    /* \"SolidityProjects/contracts/SolidityGrammers/17-inherit(\\xe7\\xbb\\xa7\\xe6\\x89\\xbf).sol\":2501:3487  contract Erzi is Yeye, Baba{... */\n  mstore(0x40, 0x80)\n  callvalue\n  dup1\n  iszero\n  tag_1\n  jumpi\n  0x00\n  dup1\n  revert\ntag_1:\n  pop\n  dataSize(sub_0)\n  dup1\n  dataOffset(sub_0)\n  0x00\n  codecopy\n  0x00\n  return\nstop\n\nsub_0: assembly {\n        /* \"SolidityProjects/contracts/SolidityGrammers/17-inherit(\\xe7\\xbb\\xa7\\xe6\\x89\\xbf).sol\":2501:3487  contract Erzi is Yeye, Baba{... */\n      mstore(0x40, 0x80)\n      callvalue\n      dup1\n      iszero\n      tag_1\n      jumpi\n      0x00\n      dup1\n      revert\n    tag_1:\n      pop\n      jumpi(tag_2, lt(calldatasize, 0x04))\n      shr(0xe0, calldataload(0x00))\n      dup1\n      0x0ca21e9c\n      eq\n      tag_3\n      jumpi\n      dup1\n      0x370ea142\n      eq\n      tag_4\n      jumpi\n      dup1\n      0x572e47ae\n      eq\n      tag_5\n      jumpi\n      dup1\n      0xa4ece52c\n      eq\n      tag_6\n      jumpi\n      dup1\n      0xb92a50e0\n      eq\n      tag_7\n      jumpi\n      dup1\n      0xfa030ef1\n      eq\n      tag_8\n      jumpi\n    tag_2:\n      0x00\n      dup1\n      revert\n        /* \"SolidityProjects/contracts/SolidityGrammers/17-inherit(\\xe7\\xbb\\xa7\\xe6\\x89\\xbf).sol\":1151:1216  function yeye() public virtual{... */\n    tag_3:\n      tag_9\n      tag_10\n      jump\t// in\n    tag_9:\n      stop\n        /* \"SolidityProjects/contracts/SolidityGrammers/17-inherit(\\xe7\\xbb\\xa7\\xe6\\x89\\xbf).sol\":2537:2622  function hip() public virtual override(Yeye, Baba){... */\n    tag_4:\n      tag_11\n      tag_12\n      jump\t// in\n    tag_11:\n      stop\n        /* \"SolidityProjects/contracts/SolidityGrammers/17-inherit(\\xe7\\xbb\\xa7\\xe6\\x89\\xbf).sol\":2994:3051  function callParent() public{... */\n    tag_5:\n      tag_13\n      tag_14\n      jump\t// in\n    tag_13:\n      stop\n        /* \"SolidityProjects/contracts/SolidityGrammers/17-inherit(\\xe7\\xbb\\xa7\\xe6\\x89\\xbf).sol\":2630:2715  function pop() public virtual override(Yeye, Baba){... */\n    tag_6:\n      tag_15\n      tag_16\n      jump\t// in\n    tag_15:\n      stop\n        /* \"SolidityProjects/contracts/SolidityGrammers/17-inherit(\\xe7\\xbb\\xa7\\xe6\\x89\\xbf).sol\":3363:3484  function callParentSuper() public{        ... */\n    tag_7:\n      tag_17\n      tag_18\n      jump\t// in\n    tag_17:\n      stop\n        /* \"SolidityProjects/contracts/SolidityGrammers/17-inherit(\\xe7\\xbb\\xa7\\xe6\\x89\\xbf).sol\":1819:1884  function baba() public virtual{... */\n    tag_8:\n      tag_19\n      tag_20\n      jump\t// in\n    tag_19:\n      stop\n        /* \"SolidityProjects/contracts/SolidityGrammers/17-inherit(\\xe7\\xbb\\xa7\\xe6\\x89\\xbf).sol\":1151:1216  function yeye() public virtual{... */\n    tag_10:\n        /* \"SolidityProjects/contracts/SolidityGrammers/17-inherit(\\xe7\\xbb\\xa7\\xe6\\x89\\xbf).sol\":1197:1208  log(\"Yeye\") */\n      0x41304facd9323d75b11bcdd609cb38effffdb05710f7caf0e9b16c6d9d709f50\n      mload(0x40)\n      tag_22\n      swap1\n      tag_23\n      jump\t// in\n    tag_22:\n      mload(0x40)\n      dup1\n      swap2\n      sub\n      swap1\n      log1\n        /* \"SolidityProjects/contracts/SolidityGrammers/17-inherit(\\xe7\\xbb\\xa7\\xe6\\x89\\xbf).sol\":1151:1216  function yeye() public virtual{... */\n      jump\t// out\n        /* \"SolidityProjects/contracts/SolidityGrammers/17-inherit(\\xe7\\xbb\\xa7\\xe6\\x89\\xbf).sol\":2537:2622  function hip() public virtual override(Yeye, Baba){... */\n    tag_12:\n        /* \"SolidityProjects/contracts/SolidityGrammers/17-inherit(\\xe7\\xbb\\xa7\\xe6\\x89\\xbf).sol\":2603:2614  log(\"Erzi\") */\n      0x41304facd9323d75b11bcdd609cb38effffdb05710f7caf0e9b16c6d9d709f50\n      mload(0x40)\n      tag_25\n      swap1\n      tag_26\n      jump\t// in\n    tag_25:\n      mload(0x40)\n      dup1\n      swap2\n      sub\n      swap1\n      log1\n        /* \"SolidityProjects/contracts/SolidityGrammers/17-inherit(\\xe7\\xbb\\xa7\\xe6\\x89\\xbf).sol\":2537:2622  function hip() public virtual override(Yeye, Baba){... */\n      jump\t// out\n        /* \"SolidityProjects/contracts/SolidityGrammers/17-inherit(\\xe7\\xbb\\xa7\\xe6\\x89\\xbf).sol\":2994:3051  function callParent() public{... */\n    tag_14:\n        /* \"SolidityProjects/contracts/SolidityGrammers/17-inherit(\\xe7\\xbb\\xa7\\xe6\\x89\\xbf).sol\":3033:3043  Yeye.pop() */\n      tag_28\n        /* \"SolidityProjects/contracts/SolidityGrammers/17-inherit(\\xe7\\xbb\\xa7\\xe6\\x89\\xbf).sol\":3033:3041  Yeye.pop */\n      tag_29\n        /* \"SolidityProjects/contracts/SolidityGrammers/17-inherit(\\xe7\\xbb\\xa7\\xe6\\x89\\xbf).sol\":3033:3043  Yeye.pop() */\n      jump\t// in\n    tag_28:\n        /* \"SolidityProjects/contracts/SolidityGrammers/17-inherit(\\xe7\\xbb\\xa7\\xe6\\x89\\xbf).sol\":2994:3051  function callParent() public{... */\n      jump\t// out\n        /* \"SolidityProjects/contracts/SolidityGrammers/17-inherit(\\xe7\\xbb\\xa7\\xe6\\x89\\xbf).sol\":2630:2715  function pop() public virtual override(Yeye, Baba){... */\n    tag_16:\n        /* \"SolidityProjects/contracts/SolidityGrammers/17-inherit(\\xe7\\xbb\\xa7\\xe6\\x89\\xbf).sol\":2696:2707  log(\"Erzi\") */\n      0x41304facd9323d75b11bcdd609cb38effffdb05710f7caf0e9b16c6d9d709f50\n      mload(0x40)\n      tag_31\n      swap1\n      tag_26\n      jump\t// in\n    tag_31:\n      mload(0x40)\n      dup1\n      swap2\n      sub\n      swap1\n      log1\n        /* \"SolidityProjects/contracts/SolidityGrammers/17-inherit(\\xe7\\xbb\\xa7\\xe6\\x89\\xbf).sol\":2630:2715  function pop() public virtual override(Yeye, Baba){... */\n      jump\t// out\n        /* \"SolidityProjects/contracts/SolidityGrammers/17-inherit(\\xe7\\xbb\\xa7\\xe6\\x89\\xbf).sol\":3363:3484  function callParentSuper() public{        ... */\n    tag_18:\n        /* \"SolidityProjects/contracts/SolidityGrammers/17-inherit(\\xe7\\xbb\\xa7\\xe6\\x89\\xbf).sol\":3415:3426  super.pop() */\n      tag_33\n        /* \"SolidityProjects/contracts/SolidityGrammers/17-inherit(\\xe7\\xbb\\xa7\\xe6\\x89\\xbf).sol\":3415:3424  super.pop */\n      tag_34\n        /* \"SolidityProjects/contracts/SolidityGrammers/17-inherit(\\xe7\\xbb\\xa7\\xe6\\x89\\xbf).sol\":3415:3426  super.pop() */\n      jump\t// in\n    tag_33:\n        /* \"SolidityProjects/contracts/SolidityGrammers/17-inherit(\\xe7\\xbb\\xa7\\xe6\\x89\\xbf).sol\":3363:3484  function callParentSuper() public{        ... */\n      jump\t// out\n        /* \"SolidityProjects/contracts/SolidityGrammers/17-inherit(\\xe7\\xbb\\xa7\\xe6\\x89\\xbf).sol\":1819:1884  function baba() public virtual{... */\n    tag_20:\n        /* \"SolidityProjects/contracts/SolidityGrammers/17-inherit(\\xe7\\xbb\\xa7\\xe6\\x89\\xbf).sol\":1865:1876  log(\"Baba\") */\n      0x41304facd9323d75b11bcdd609cb38effffdb05710f7caf0e9b16c6d9d709f50\n      mload(0x40)\n      tag_36\n      swap1\n      tag_37\n      jump\t// in\n    tag_36:\n      mload(0x40)\n      dup1\n      swap2\n      sub\n      swap1\n      log1\n        /* \"SolidityProjects/contracts/SolidityGrammers/17-inherit(\\xe7\\xbb\\xa7\\xe6\\x89\\xbf).sol\":1819:1884  function baba() public virtual{... */\n      jump\t// out\n        /* \"SolidityProjects/contracts/SolidityGrammers/17-inherit(\\xe7\\xbb\\xa7\\xe6\\x89\\xbf).sol\":1079:1143  function pop() public virtual{... */\n    tag_29:\n        /* \"SolidityProjects/contracts/SolidityGrammers/17-inherit(\\xe7\\xbb\\xa7\\xe6\\x89\\xbf).sol\":1124:1135  log(\"Yeye\") */\n      0x41304facd9323d75b11bcdd609cb38effffdb05710f7caf0e9b16c6d9d709f50\n      mload(0x40)\n      tag_39\n      swap1\n      tag_23\n      jump\t// in\n    tag_39:\n      mload(0x40)\n      dup1\n      swap2\n      sub\n      swap1\n      log1\n        /* \"SolidityProjects/contracts/SolidityGrammers/17-inherit(\\xe7\\xbb\\xa7\\xe6\\x89\\xbf).sol\":1079:1143  function pop() public virtual{... */\n      jump\t// out\n        /* \"SolidityProjects/contracts/SolidityGrammers/17-inherit(\\xe7\\xbb\\xa7\\xe6\\x89\\xbf).sol\":1738:1811  function pop() public virtual override{... */\n    tag_34:\n        /* \"SolidityProjects/contracts/SolidityGrammers/17-inherit(\\xe7\\xbb\\xa7\\xe6\\x89\\xbf).sol\":1792:1803  log(\"Baba\") */\n      0x41304facd9323d75b11bcdd609cb38effffdb05710f7caf0e9b16c6d9d709f50\n      mload(0x40)\n      tag_41\n      swap1\n      tag_37\n      jump\t// in\n    tag_41:\n      mload(0x40)\n      dup1\n      swap2\n      sub\n      swap1\n      log1\n        /* \"SolidityProjects/contracts/SolidityGrammers/17-inherit(\\xe7\\xbb\\xa7\\xe6\\x89\\xbf).sol\":1738:1811  function pop() public virtual override{... */\n      jump\t// out\n        /* \"#utility.yul\":7:176   */\n    tag_42:\n        /* \"#utility.yul\":91:102   */\n      0x00\n        /* \"#utility.yul\":125:131   */\n      dup3\n        /* \"#utility.yul\":120:123   */\n      dup3\n        /* \"#utility.yul\":113:132   */\n      mstore\n        /* \"#utility.yul\":165:169   */\n      0x20\n        /* \"#utility.yul\":160:163   */\n      dup3\n        /* \"#utility.yul\":156:170   */\n      add\n        /* \"#utility.yul\":141:170   */\n      swap1\n      pop\n        /* \"#utility.yul\":7:176   */\n      swap3\n      swap2\n      pop\n      pop\n      jump\t// out\n        /* \"#utility.yul\":182:336   */\n    tag_43:\n        /* \"#utility.yul\":322:328   */\n      0x5965796500000000000000000000000000000000000000000000000000000000\n        /* \"#utility.yul\":318:319   */\n      0x00\n        /* \"#utility.yul\":310:316   */\n      dup3\n        /* \"#utility.yul\":306:320   */\n      add\n        /* \"#utility.yul\":299:329   */\n      mstore\n        /* \"#utility.yul\":182:336   */\n      pop\n      jump\t// out\n        /* \"#utility.yul\":342:707   */\n    tag_44:\n        /* \"#utility.yul\":484:487   */\n      0x00\n        /* \"#utility.yul\":505:571   */\n      tag_53\n        /* \"#utility.yul\":569:570   */\n      0x04\n        /* \"#utility.yul\":564:567   */\n      dup4\n        /* \"#utility.yul\":505:571   */\n      tag_42\n      jump\t// in\n    tag_53:\n        /* \"#utility.yul\":498:571   */\n      swap2\n      pop\n        /* \"#utility.yul\":580:673   */\n      tag_54\n        /* \"#utility.yul\":669:672   */\n      dup3\n        /* \"#utility.yul\":580:673   */\n      tag_43\n      jump\t// in\n    tag_54:\n        /* \"#utility.yul\":698:700   */\n      0x20\n        /* \"#utility.yul\":693:696   */\n      dup3\n        /* \"#utility.yul\":689:701   */\n      add\n        /* \"#utility.yul\":682:701   */\n      swap1\n      pop\n        /* \"#utility.yul\":342:707   */\n      swap2\n      swap1\n      pop\n      jump\t// out\n        /* \"#utility.yul\":713:1132   */\n    tag_23:\n        /* \"#utility.yul\":879:883   */\n      0x00\n        /* \"#utility.yul\":917:919   */\n      0x20\n        /* \"#utility.yul\":906:915   */\n      dup3\n        /* \"#utility.yul\":902:920   */\n      add\n        /* \"#utility.yul\":894:920   */\n      swap1\n      pop\n        /* \"#utility.yul\":966:975   */\n      dup2\n        /* \"#utility.yul\":960:964   */\n      dup2\n        /* \"#utility.yul\":956:976   */\n      sub\n        /* \"#utility.yul\":952:953   */\n      0x00\n        /* \"#utility.yul\":941:950   */\n      dup4\n        /* \"#utility.yul\":937:954   */\n      add\n        /* \"#utility.yul\":930:977   */\n      mstore\n        /* \"#utility.yul\":994:1125   */\n      tag_56\n        /* \"#utility.yul\":1120:1124   */\n      dup2\n        /* \"#utility.yul\":994:1125   */\n      tag_44\n      jump\t// in\n    tag_56:\n        /* \"#utility.yul\":986:1125   */\n      swap1\n      pop\n        /* \"#utility.yul\":713:1132   */\n      swap2\n      swap1\n      pop\n      jump\t// out\n        /* \"#utility.yul\":1138:1292   */\n    tag_45:\n        /* \"#utility.yul\":1278:1284   */\n      0x45727a6900000000000000000000000000000000000000000000000000000000\n        /* \"#utility.yul\":1274:1275   */\n      0x00\n        /* \"#utility.yul\":1266:1272   */\n      dup3\n        /* \"#utility.yul\":1262:1276   */\n      add\n        /* \"#utility.yul\":1255:1285   */\n      mstore\n        /* \"#utility.yul\":1138:1292   */\n      pop\n      jump\t// out\n        /* \"#utility.yul\":1298:1663   */\n    tag_46:\n        /* \"#utility.yul\":1440:1443   */\n      0x00\n        /* \"#utility.yul\":1461:1527   */\n      tag_59\n        /* \"#utility.yul\":1525:1526   */\n      0x04\n        /* \"#utility.yul\":1520:1523   */\n      dup4\n        /* \"#utility.yul\":1461:1527   */\n      tag_42\n      jump\t// in\n    tag_59:\n        /* \"#utility.yul\":1454:1527   */\n      swap2\n      pop\n        /* \"#utility.yul\":1536:1629   */\n      tag_60\n        /* \"#utility.yul\":1625:1628   */\n      dup3\n        /* \"#utility.yul\":1536:1629   */\n      tag_45\n      jump\t// in\n    tag_60:\n        /* \"#utility.yul\":1654:1656   */\n      0x20\n        /* \"#utility.yul\":1649:1652   */\n      dup3\n        /* \"#utility.yul\":1645:1657   */\n      add\n        /* \"#utility.yul\":1638:1657   */\n      swap1\n      pop\n        /* \"#utility.yul\":1298:1663   */\n      swap2\n      swap1\n      pop\n      jump\t// out\n        /* \"#utility.yul\":1669:2088   */\n    tag_26:\n        /* \"#utility.yul\":1835:1839   */\n      0x00\n        /* \"#utility.yul\":1873:1875   */\n      0x20\n        /* \"#utility.yul\":1862:1871   */\n      dup3\n        /* \"#utility.yul\":1858:1876   */\n      add\n        /* \"#utility.yul\":1850:1876   */\n      swap1\n      pop\n        /* \"#utility.yul\":1922:1931   */\n      dup2\n        /* \"#utility.yul\":1916:1920   */\n      dup2\n        /* \"#utility.yul\":1912:1932   */\n      sub\n        /* \"#utility.yul\":1908:1909   */\n      0x00\n        /* \"#utility.yul\":1897:1906   */\n      dup4\n        /* \"#utility.yul\":1893:1910   */\n      add\n        /* \"#utility.yul\":1886:1933   */\n      mstore\n        /* \"#utility.yul\":1950:2081   */\n      tag_62\n        /* \"#utility.yul\":2076:2080   */\n      dup2\n        /* \"#utility.yul\":1950:2081   */\n      tag_46\n      jump\t// in\n    tag_62:\n        /* \"#utility.yul\":1942:2081   */\n      swap1\n      pop\n        /* \"#utility.yul\":1669:2088   */\n      swap2\n      swap1\n      pop\n      jump\t// out\n        /* \"#utility.yul\":2094:2248   */\n    tag_47:\n        /* \"#utility.yul\":2234:2240   */\n      0x4261626100000000000000000000000000000000000000000000000000000000\n        /* \"#utility.yul\":2230:2231   */\n      0x00\n        /* \"#utility.yul\":2222:2228   */\n      dup3\n        /* \"#utility.yul\":2218:2232   */\n      add\n        /* \"#utility.yul\":2211:2241   */\n      mstore\n        /* \"#utility.yul\":2094:2248   */\n      pop\n      jump\t// out\n        /* \"#utility.yul\":2254:2619   */\n    tag_48:\n        /* \"#utility.yul\":2396:2399   */\n      0x00\n        /* \"#utility.yul\":2417:2483   */\n      tag_65\n        /* \"#utility.yul\":2481:2482   */\n      0x04\n        /* \"#utility.yul\":2476:2479   */\n      dup4\n        /* \"#utility.yul\":2417:2483   */\n      tag_42\n      jump\t// in\n    tag_65:\n        /* \"#utility.yul\":2410:2483   */\n      swap2\n      pop\n        /* \"#utility.yul\":2492:2585   */\n      tag_66\n        /* \"#utility.yul\":2581:2584   */\n      dup3\n        /* \"#utility.yul\":2492:2585   */\n      tag_47\n      jump\t// in\n    tag_66:\n        /* \"#utility.yul\":2610:2612   */\n      0x20\n        /* \"#utility.yul\":2605:2608   */\n      dup3\n        /* \"#utility.yul\":2601:2613   */\n      add\n        /* \"#utility.yul\":2594:2613   */\n      swap1\n      pop\n        /* \"#utility.yul\":2254:2619   */\n      swap2\n      swap1\n      pop\n      jump\t// out\n        /* \"#utility.yul\":2625:3044   */\n    tag_37:\n        /* \"#utility.yul\":2791:2795   */\n      0x00\n        /* \"#utility.yul\":2829:2831   */\n      0x20\n        /* \"#utility.yul\":2818:2827   */\n      dup3\n        /* \"#utility.yul\":2814:2832   */\n      add\n        /* \"#utility.yul\":2806:2832   */\n      swap1\n      pop\n        /* \"#utility.yul\":2878:2887   */\n      dup2\n        /* \"#utility.yul\":2872:2876   */\n      dup2\n        /* \"#utility.yul\":2868:2888   */\n      sub\n        /* \"#utility.yul\":2864:2865   */\n      0x00\n        /* \"#utility.yul\":2853:2862   */\n      dup4\n        /* \"#utility.yul\":2849:2866   */\n      add\n        /* \"#utility.yul\":2842:2889   */\n      mstore\n        /* \"#utility.yul\":2906:3037   */\n      tag_68\n        /* \"#utility.yul\":3032:3036   */\n      dup2\n        /* \"#utility.yul\":2906:3037   */\n      tag_48\n      jump\t// in\n    tag_68:\n        /* \"#utility.yul\":2898:3037   */\n      swap1\n      pop\n        /* \"#utility.yul\":2625:3044   */\n      swap2\n      swap1\n      pop\n      jump\t// out\n\n    auxdata: 0xa26469706673582212208c1d0ecd3384b707687ddbb955871ac2902c3ac7fb37e0b9cd39fcebca3e1a0464736f6c63430008190033\n}\n",
				"bytecode": {
					"linkReferences": {},
					"object": "6080604052348015600e575f80fd5b5061037c8061001c5f395ff3fe608060405234801561000f575f80fd5b5060043610610060575f3560e01c80630ca21e9c14610064578063370ea1421461006e578063572e47ae14610078578063a4ece52c14610082578063b92a50e01461008c578063fa030ef114610096575b5f80fd5b61006c6100a0565b005b6100766100d7565b005b61008061010e565b005b61008a610118565b005b61009461014f565b005b61009e610159565b005b7f41304facd9323d75b11bcdd609cb38effffdb05710f7caf0e9b16c6d9d709f506040516100cd90610258565b60405180910390a1565b7f41304facd9323d75b11bcdd609cb38effffdb05710f7caf0e9b16c6d9d709f50604051610104906102c0565b60405180910390a1565b610116610190565b565b7f41304facd9323d75b11bcdd609cb38effffdb05710f7caf0e9b16c6d9d709f50604051610145906102c0565b60405180910390a1565b6101576101c7565b565b7f41304facd9323d75b11bcdd609cb38effffdb05710f7caf0e9b16c6d9d709f5060405161018690610328565b60405180910390a1565b7f41304facd9323d75b11bcdd609cb38effffdb05710f7caf0e9b16c6d9d709f506040516101bd90610258565b60405180910390a1565b7f41304facd9323d75b11bcdd609cb38effffdb05710f7caf0e9b16c6d9d709f506040516101f490610328565b60405180910390a1565b5f82825260208201905092915050565b7f59657965000000000000000000000000000000000000000000000000000000005f82015250565b5f6102426004836101fe565b915061024d8261020e565b602082019050919050565b5f6020820190508181035f83015261026f81610236565b9050919050565b7f45727a69000000000000000000000000000000000000000000000000000000005f82015250565b5f6102aa6004836101fe565b91506102b582610276565b602082019050919050565b5f6020820190508181035f8301526102d78161029e565b9050919050565b7f42616261000000000000000000000000000000000000000000000000000000005f82015250565b5f6103126004836101fe565b915061031d826102de565b602082019050919050565b5f6020820190508181035f83015261033f81610306565b905091905056fea26469706673582212208c1d0ecd3384b707687ddbb955871ac2902c3ac7fb37e0b9cd39fcebca3e1a0464736f6c63430008190033",
					"opcodes": "PUSH1 0x80 PUSH1 0x40 MSTORE CALLVALUE DUP1 ISZERO PUSH1 0xE JUMPI PUSH0 DUP1 REVERT JUMPDEST POP PUSH2 0x37C DUP1 PUSH2 0x1C PUSH0 CODECOPY PUSH0 RETURN INVALID PUSH1 0x80 PUSH1 0x40 MSTORE CALLVALUE DUP1 ISZERO PUSH2 0xF JUMPI PUSH0 DUP1 REVERT JUMPDEST POP PUSH1 0x4 CALLDATASIZE LT PUSH2 0x60 JUMPI PUSH0 CALLDATALOAD PUSH1 0xE0 SHR DUP1 PUSH4 0xCA21E9C EQ PUSH2 0x64 JUMPI DUP1 PUSH4 0x370EA142 EQ PUSH2 0x6E JUMPI DUP1 PUSH4 0x572E47AE EQ PUSH2 0x78 JUMPI DUP1 PUSH4 0xA4ECE52C EQ PUSH2 0x82 JUMPI DUP1 PUSH4 0xB92A50E0 EQ PUSH2 0x8C JUMPI DUP1 PUSH4 0xFA030EF1 EQ PUSH2 0x96 JUMPI JUMPDEST PUSH0 DUP1 REVERT JUMPDEST PUSH2 0x6C PUSH2 0xA0 JUMP JUMPDEST STOP JUMPDEST PUSH2 0x76 PUSH2 0xD7 JUMP JUMPDEST STOP JUMPDEST PUSH2 0x80 PUSH2 0x10E JUMP JUMPDEST STOP JUMPDEST PUSH2 0x8A PUSH2 0x118 JUMP JUMPDEST STOP JUMPDEST PUSH2 0x94 PUSH2 0x14F JUMP JUMPDEST STOP JUMPDEST PUSH2 0x9E PUSH2 0x159 JUMP JUMPDEST STOP JUMPDEST PUSH32 0x41304FACD9323D75B11BCDD609CB38EFFFFDB05710F7CAF0E9B16C6D9D709F50 PUSH1 0x40 MLOAD PUSH2 0xCD SWAP1 PUSH2 0x258 JUMP JUMPDEST PUSH1 0x40 MLOAD DUP1 SWAP2 SUB SWAP1 LOG1 JUMP JUMPDEST PUSH32 0x41304FACD9323D75B11BCDD609CB38EFFFFDB05710F7CAF0E9B16C6D9D709F50 PUSH1 0x40 MLOAD PUSH2 0x104 SWAP1 PUSH2 0x2C0 JUMP JUMPDEST PUSH1 0x40 MLOAD DUP1 SWAP2 SUB SWAP1 LOG1 JUMP JUMPDEST PUSH2 0x116 PUSH2 0x190 JUMP JUMPDEST JUMP JUMPDEST PUSH32 0x41304FACD9323D75B11BCDD609CB38EFFFFDB05710F7CAF0E9B16C6D9D709F50 PUSH1 0x40 MLOAD PUSH2 0x145 SWAP1 PUSH2 0x2C0 JUMP JUMPDEST PUSH1 0x40 MLOAD DUP1 SWAP2 SUB SWAP1 LOG1 JUMP JUMPDEST PUSH2 0x157 PUSH2 0x1C7 JUMP JUMPDEST JUMP JUMPDEST PUSH32 0x41304FACD9323D75B11BCDD609CB38EFFFFDB05710F7CAF0E9B16C6D9D709F50 PUSH1 0x40 MLOAD PUSH2 0x186 SWAP1 PUSH2 0x328 JUMP JUMPDEST PUSH1 0x40 MLOAD DUP1 SWAP2 SUB SWAP1 LOG1 JUMP JUMPDEST PUSH32 0x41304FACD9323D75B11BCDD609CB38EFFFFDB05710F7CAF0E9B16C6D9D709F50 PUSH1 0x40 MLOAD PUSH2 0x1BD SWAP1 PUSH2 0x258 JUMP JUMPDEST PUSH1 0x40 MLOAD DUP1 SWAP2 SUB SWAP1 LOG1 JUMP JUMPDEST PUSH32 0x41304FACD9323D75B11BCDD609CB38EFFFFDB05710F7CAF0E9B16C6D9D709F50 PUSH1 0x40 MLOAD PUSH2 0x1F4 SWAP1 PUSH2 0x328 JUMP JUMPDEST PUSH1 0x40 MLOAD DUP1 SWAP2 SUB SWAP1 LOG1 JUMP JUMPDEST PUSH0 DUP3 DUP3 MSTORE PUSH1 0x20 DUP3 ADD SWAP1 POP SWAP3 SWAP2 POP POP JUMP JUMPDEST PUSH32 0x5965796500000000000000000000000000000000000000000000000000000000 PUSH0 DUP3 ADD MSTORE POP JUMP JUMPDEST PUSH0 PUSH2 0x242 PUSH1 0x4 DUP4 PUSH2 0x1FE JUMP JUMPDEST SWAP2 POP PUSH2 0x24D DUP3 PUSH2 0x20E JUMP JUMPDEST PUSH1 0x20 DUP3 ADD SWAP1 POP SWAP2 SWAP1 POP JUMP JUMPDEST PUSH0 PUSH1 0x20 DUP3 ADD SWAP1 POP DUP2 DUP2 SUB PUSH0 DUP4 ADD MSTORE PUSH2 0x26F DUP2 PUSH2 0x236 JUMP JUMPDEST SWAP1 POP SWAP2 SWAP1 POP JUMP JUMPDEST PUSH32 0x45727A6900000000000000000000000000000000000000000000000000000000 PUSH0 DUP3 ADD MSTORE POP JUMP JUMPDEST PUSH0 PUSH2 0x2AA PUSH1 0x4 DUP4 PUSH2 0x1FE JUMP JUMPDEST SWAP2 POP PUSH2 0x2B5 DUP3 PUSH2 0x276 JUMP JUMPDEST PUSH1 0x20 DUP3 ADD SWAP1 POP SWAP2 SWAP1 POP JUMP JUMPDEST PUSH0 PUSH1 0x20 DUP3 ADD SWAP1 POP DUP2 DUP2 SUB PUSH0 DUP4 ADD MSTORE PUSH2 0x2D7 DUP2 PUSH2 0x29E JUMP JUMPDEST SWAP1 POP SWAP2 SWAP1 POP JUMP JUMPDEST PUSH32 0x4261626100000000000000000000000000000000000000000000000000000000 PUSH0 DUP3 ADD MSTORE POP JUMP JUMPDEST PUSH0 PUSH2 0x312 PUSH1 0x4 DUP4 PUSH2 0x1FE JUMP JUMPDEST SWAP2 POP PUSH2 0x31D DUP3 PUSH2 0x2DE JUMP JUMPDEST PUSH1 0x20 DUP3 ADD SWAP1 POP SWAP2 SWAP1 POP JUMP JUMPDEST PUSH0 PUSH1 0x20 DUP3 ADD SWAP1 POP DUP2 DUP2 SUB PUSH0 DUP4 ADD MSTORE PUSH2 0x33F DUP2 PUSH2 0x306 JUMP JUMPDEST SWAP1 POP SWAP2 SWAP1 POP JUMP INVALID LOG2 PUSH5 0x6970667358 0x22 SLT KECCAK256 DUP13 SAR 0xE 0xCD CALLER DUP5 0xB7 SMOD PUSH9 0x7DDBB955871AC2902C GASPRICE 0xC7 0xFB CALLDATACOPY 0xE0 0xB9 0xCD CODECOPY 0xFC 0xEB 0xCA RETURNDATACOPY BYTE DIV PUSH5 0x736F6C6343 STOP ADDMOD NOT STOP CALLER "
				},
				"gasEstimates": {
					"creation": {
						"codeDepositCost": "178400",
						"executionCost": "218",
						"totalCost": "178618"
					},
					"external": {
						"baba()": "2028",
						"callParent()": "1986",
						"callParentSuper()": "2030",
						"hip()": "1940",
						"pop()": "1984",
						"yeye()": "1918"
					}
				},
				"methodIdentifiers": {
					"baba()": "fa030ef1",
					"callParent()": "572e47ae",
					"callParentSuper()": "b92a50e0",
					"hip()": "370ea142",
					"pop()": "a4ece52c",
					"yeye()": "0ca21e9c"
				}
			},
			"storageLayout": {
				"storage": [],
				"types": null
			},
			"userdoc": {
				"kind": "user",
				"methods": {},
				"version": 1
			}
		}
	}
}