{
	"SolidityProjects/contracts/SolidityGrammers/17-inherit(继承).sol": {
		"Identifier": {
			"abi": [
				{
					"inputs": [
						{
							"internalType": "uint256",
							"name": "_dividend",
							"type": "uint256"
						}
					],
					"name": "getExactDivideBy2And3",
					"outputs": [
						{
							"internalType": "uint256",
							"name": "",
							"type": "uint256"
						},
						{
							"internalType": "uint256",
							"name": "",
							"type": "uint256"
						}
					],
					"stateMutability": "pure",
					"type": "function"
				},
				{
					"inputs": [
						{
							"internalType": "uint256",
							"name": "_dividend",
							"type": "uint256"
						}
					],
					"name": "getExactDivideBy2And3WithoutModifier",
					"outputs": [
						{
							"internalType": "uint256",
							"name": "",
							"type": "uint256"
						},
						{
							"internalType": "uint256",
							"name": "",
							"type": "uint256"
						}
					],
					"stateMutability": "pure",
					"type": "function"
				}
			],
			"devdoc": {
				"kind": "dev",
				"methods": {},
				"version": 1
			},
			"evm": {
				"assembly": "    /* \"SolidityProjects/contracts/SolidityGrammers/17-inherit(\\xe7\\xbb\\xa7\\xe6\\x89\\xbf).sol\":3813:4948  contract Identifier is Base1{... */\n  mstore(0x40, 0x80)\n  callvalue\n  dup1\n  iszero\n  tag_1\n  jumpi\n  0x00\n  dup1\n  revert\ntag_1:\n  pop\n  dataSize(sub_0)\n  dup1\n  dataOffset(sub_0)\n  0x00\n  codecopy\n  0x00\n  return\nstop\n\nsub_0: assembly {\n        /* \"SolidityProjects/contracts/SolidityGrammers/17-inherit(\\xe7\\xbb\\xa7\\xe6\\x89\\xbf).sol\":3813:4948  contract Identifier is Base1{... */\n      mstore(0x40, 0x80)\n      callvalue\n      dup1\n      iszero\n      tag_1\n      jumpi\n      0x00\n      dup1\n      revert\n    tag_1:\n      pop\n      jumpi(tag_2, lt(calldatasize, 0x04))\n      shr(0xe0, calldataload(0x00))\n      dup1\n      0xf90a810f\n      eq\n      tag_3\n      jumpi\n      dup1\n      0xfcc0dfb6\n      eq\n      tag_4\n      jumpi\n    tag_2:\n      0x00\n      dup1\n      revert\n        /* \"SolidityProjects/contracts/SolidityGrammers/17-inherit(\\xe7\\xbb\\xa7\\xe6\\x89\\xbf).sol\":4200:4418  function getExactDivideBy2And3WithoutModifier(uint256 _dividend) public pure returns(uint256, uint256){... */\n    tag_3:\n      tag_5\n      0x04\n      dup1\n      calldatasize\n      sub\n      dup2\n      add\n      swap1\n      tag_6\n      swap2\n      swap1\n      tag_7\n      jump\t// in\n    tag_6:\n      tag_8\n      jump\t// in\n    tag_5:\n      mload(0x40)\n      tag_9\n      swap3\n      swap2\n      swap1\n      tag_10\n      jump\t// in\n    tag_9:\n      mload(0x40)\n      dup1\n      swap2\n      sub\n      swap1\n      return\n        /* \"SolidityProjects/contracts/SolidityGrammers/17-inherit(\\xe7\\xbb\\xa7\\xe6\\x89\\xbf).sol\":3948:4138  function getExactDivideBy2And3(uint256 _dividend) public exactDivideBy2And3(_dividend) pure returns(uint256,uint256){... */\n    tag_4:\n      tag_11\n      0x04\n      dup1\n      calldatasize\n      sub\n      dup2\n      add\n      swap1\n      tag_12\n      swap2\n      swap1\n      tag_7\n      jump\t// in\n    tag_12:\n      tag_13\n      jump\t// in\n    tag_11:\n      mload(0x40)\n      tag_14\n      swap3\n      swap2\n      swap1\n      tag_10\n      jump\t// in\n    tag_14:\n      mload(0x40)\n      dup1\n      swap2\n      sub\n      swap1\n      return\n        /* \"SolidityProjects/contracts/SolidityGrammers/17-inherit(\\xe7\\xbb\\xa7\\xe6\\x89\\xbf).sol\":4200:4418  function getExactDivideBy2And3WithoutModifier(uint256 _dividend) public pure returns(uint256, uint256){... */\n    tag_8:\n        /* \"SolidityProjects/contracts/SolidityGrammers/17-inherit(\\xe7\\xbb\\xa7\\xe6\\x89\\xbf).sol\":4285:4292  uint256 */\n      0x00\n        /* \"SolidityProjects/contracts/SolidityGrammers/17-inherit(\\xe7\\xbb\\xa7\\xe6\\x89\\xbf).sol\":4294:4301  uint256 */\n      dup1\n        /* \"SolidityProjects/contracts/SolidityGrammers/17-inherit(\\xe7\\xbb\\xa7\\xe6\\x89\\xbf).sol\":4313:4325  uint256 div2 */\n      0x00\n        /* \"SolidityProjects/contracts/SolidityGrammers/17-inherit(\\xe7\\xbb\\xa7\\xe6\\x89\\xbf).sol\":4340:4341  2 */\n      0x02\n        /* \"SolidityProjects/contracts/SolidityGrammers/17-inherit(\\xe7\\xbb\\xa7\\xe6\\x89\\xbf).sol\":4328:4337  _dividend */\n      dup5\n        /* \"SolidityProjects/contracts/SolidityGrammers/17-inherit(\\xe7\\xbb\\xa7\\xe6\\x89\\xbf).sol\":4328:4341  _dividend / 2 */\n      tag_16\n      swap2\n      swap1\n      tag_17\n      jump\t// in\n    tag_16:\n        /* \"SolidityProjects/contracts/SolidityGrammers/17-inherit(\\xe7\\xbb\\xa7\\xe6\\x89\\xbf).sol\":4313:4341  uint256 div2 = _dividend / 2 */\n      swap1\n      pop\n        /* \"SolidityProjects/contracts/SolidityGrammers/17-inherit(\\xe7\\xbb\\xa7\\xe6\\x89\\xbf).sol\":4352:4364  uint256 div3 */\n      0x00\n        /* \"SolidityProjects/contracts/SolidityGrammers/17-inherit(\\xe7\\xbb\\xa7\\xe6\\x89\\xbf).sol\":4379:4380  3 */\n      0x03\n        /* \"SolidityProjects/contracts/SolidityGrammers/17-inherit(\\xe7\\xbb\\xa7\\xe6\\x89\\xbf).sol\":4367:4376  _dividend */\n      dup6\n        /* \"SolidityProjects/contracts/SolidityGrammers/17-inherit(\\xe7\\xbb\\xa7\\xe6\\x89\\xbf).sol\":4367:4380  _dividend / 3 */\n      tag_18\n      swap2\n      swap1\n      tag_17\n      jump\t// in\n    tag_18:\n        /* \"SolidityProjects/contracts/SolidityGrammers/17-inherit(\\xe7\\xbb\\xa7\\xe6\\x89\\xbf).sol\":4352:4380  uint256 div3 = _dividend / 3 */\n      swap1\n      pop\n        /* \"SolidityProjects/contracts/SolidityGrammers/17-inherit(\\xe7\\xbb\\xa7\\xe6\\x89\\xbf).sol\":4399:4403  div2 */\n      dup2\n        /* \"SolidityProjects/contracts/SolidityGrammers/17-inherit(\\xe7\\xbb\\xa7\\xe6\\x89\\xbf).sol\":4405:4409  div3 */\n      dup2\n        /* \"SolidityProjects/contracts/SolidityGrammers/17-inherit(\\xe7\\xbb\\xa7\\xe6\\x89\\xbf).sol\":4391:4410  return (div2, div3) */\n      swap4\n      pop\n      swap4\n      pop\n      pop\n      pop\n        /* \"SolidityProjects/contracts/SolidityGrammers/17-inherit(\\xe7\\xbb\\xa7\\xe6\\x89\\xbf).sol\":4200:4418  function getExactDivideBy2And3WithoutModifier(uint256 _dividend) public pure returns(uint256, uint256){... */\n      swap2\n      pop\n      swap2\n      jump\t// out\n        /* \"SolidityProjects/contracts/SolidityGrammers/17-inherit(\\xe7\\xbb\\xa7\\xe6\\x89\\xbf).sol\":3948:4138  function getExactDivideBy2And3(uint256 _dividend) public exactDivideBy2And3(_dividend) pure returns(uint256,uint256){... */\n    tag_13:\n        /* \"SolidityProjects/contracts/SolidityGrammers/17-inherit(\\xe7\\xbb\\xa7\\xe6\\x89\\xbf).sol\":4048:4055  uint256 */\n      0x00\n        /* \"SolidityProjects/contracts/SolidityGrammers/17-inherit(\\xe7\\xbb\\xa7\\xe6\\x89\\xbf).sol\":4056:4063  uint256 */\n      dup1\n        /* \"SolidityProjects/contracts/SolidityGrammers/17-inherit(\\xe7\\xbb\\xa7\\xe6\\x89\\xbf).sol\":4024:4033  _dividend */\n      dup3\n        /* \"SolidityProjects/contracts/SolidityGrammers/17-inherit(\\xe7\\xbb\\xa7\\xe6\\x89\\xbf).sol\":4083:4130  getExactDivideBy2And3WithoutModifier(_dividend) */\n      tag_21\n        /* \"SolidityProjects/contracts/SolidityGrammers/17-inherit(\\xe7\\xbb\\xa7\\xe6\\x89\\xbf).sol\":4120:4129  _dividend */\n      dup5\n        /* \"SolidityProjects/contracts/SolidityGrammers/17-inherit(\\xe7\\xbb\\xa7\\xe6\\x89\\xbf).sol\":4083:4119  getExactDivideBy2And3WithoutModifier */\n      tag_8\n        /* \"SolidityProjects/contracts/SolidityGrammers/17-inherit(\\xe7\\xbb\\xa7\\xe6\\x89\\xbf).sol\":4083:4130  getExactDivideBy2And3WithoutModifier(_dividend) */\n      jump\t// in\n    tag_21:\n        /* \"SolidityProjects/contracts/SolidityGrammers/17-inherit(\\xe7\\xbb\\xa7\\xe6\\x89\\xbf).sol\":4075:4130  return  getExactDivideBy2And3WithoutModifier(_dividend) */\n      swap3\n      pop\n      swap3\n      pop\n        /* \"SolidityProjects/contracts/SolidityGrammers/17-inherit(\\xe7\\xbb\\xa7\\xe6\\x89\\xbf).sol\":4916:4917  0 */\n      0x00\n        /* \"SolidityProjects/contracts/SolidityGrammers/17-inherit(\\xe7\\xbb\\xa7\\xe6\\x89\\xbf).sol\":4911:4912  2 */\n      0x02\n        /* \"SolidityProjects/contracts/SolidityGrammers/17-inherit(\\xe7\\xbb\\xa7\\xe6\\x89\\xbf).sol\":4906:4908  _a */\n      dup3\n        /* \"SolidityProjects/contracts/SolidityGrammers/17-inherit(\\xe7\\xbb\\xa7\\xe6\\x89\\xbf).sol\":4906:4912  _a % 2 */\n      tag_22\n      swap2\n      swap1\n      tag_23\n      jump\t// in\n    tag_22:\n        /* \"SolidityProjects/contracts/SolidityGrammers/17-inherit(\\xe7\\xbb\\xa7\\xe6\\x89\\xbf).sol\":4906:4917  _a % 2 == 0 */\n      eq\n        /* \"SolidityProjects/contracts/SolidityGrammers/17-inherit(\\xe7\\xbb\\xa7\\xe6\\x89\\xbf).sol\":4906:4932  _a % 2 == 0 && _a % 3 == 0 */\n      dup1\n      iszero\n      tag_24\n      jumpi\n      pop\n        /* \"SolidityProjects/contracts/SolidityGrammers/17-inherit(\\xe7\\xbb\\xa7\\xe6\\x89\\xbf).sol\":4931:4932  0 */\n      0x00\n        /* \"SolidityProjects/contracts/SolidityGrammers/17-inherit(\\xe7\\xbb\\xa7\\xe6\\x89\\xbf).sol\":4926:4927  3 */\n      0x03\n        /* \"SolidityProjects/contracts/SolidityGrammers/17-inherit(\\xe7\\xbb\\xa7\\xe6\\x89\\xbf).sol\":4921:4923  _a */\n      dup3\n        /* \"SolidityProjects/contracts/SolidityGrammers/17-inherit(\\xe7\\xbb\\xa7\\xe6\\x89\\xbf).sol\":4921:4927  _a % 3 */\n      tag_25\n      swap2\n      swap1\n      tag_23\n      jump\t// in\n    tag_25:\n        /* \"SolidityProjects/contracts/SolidityGrammers/17-inherit(\\xe7\\xbb\\xa7\\xe6\\x89\\xbf).sol\":4921:4932  _a % 3 == 0 */\n      eq\n        /* \"SolidityProjects/contracts/SolidityGrammers/17-inherit(\\xe7\\xbb\\xa7\\xe6\\x89\\xbf).sol\":4906:4932  _a % 2 == 0 && _a % 3 == 0 */\n    tag_24:\n        /* \"SolidityProjects/contracts/SolidityGrammers/17-inherit(\\xe7\\xbb\\xa7\\xe6\\x89\\xbf).sol\":4898:4933  require(_a % 2 == 0 && _a % 3 == 0) */\n      tag_26\n      jumpi\n      0x00\n      dup1\n      revert\n    tag_26:\n        /* \"SolidityProjects/contracts/SolidityGrammers/17-inherit(\\xe7\\xbb\\xa7\\xe6\\x89\\xbf).sol\":3948:4138  function getExactDivideBy2And3(uint256 _dividend) public exactDivideBy2And3(_dividend) pure returns(uint256,uint256){... */\n      pop\n      swap2\n      pop\n      swap2\n      jump\t// out\n        /* \"#utility.yul\":88:205   */\n    tag_28:\n        /* \"#utility.yul\":197:198   */\n      0x00\n        /* \"#utility.yul\":194:195   */\n      dup1\n        /* \"#utility.yul\":187:199   */\n      revert\n        /* \"#utility.yul\":334:411   */\n    tag_30:\n        /* \"#utility.yul\":371:378   */\n      0x00\n        /* \"#utility.yul\":400:405   */\n      dup2\n        /* \"#utility.yul\":389:405   */\n      swap1\n      pop\n        /* \"#utility.yul\":334:411   */\n      swap2\n      swap1\n      pop\n      jump\t// out\n        /* \"#utility.yul\":417:539   */\n    tag_31:\n        /* \"#utility.yul\":490:514   */\n      tag_42\n        /* \"#utility.yul\":508:513   */\n      dup2\n        /* \"#utility.yul\":490:514   */\n      tag_30\n      jump\t// in\n    tag_42:\n        /* \"#utility.yul\":483:488   */\n      dup2\n        /* \"#utility.yul\":480:515   */\n      eq\n        /* \"#utility.yul\":470:533   */\n      tag_43\n      jumpi\n        /* \"#utility.yul\":529:530   */\n      0x00\n        /* \"#utility.yul\":526:527   */\n      dup1\n        /* \"#utility.yul\":519:531   */\n      revert\n        /* \"#utility.yul\":470:533   */\n    tag_43:\n        /* \"#utility.yul\":417:539   */\n      pop\n      jump\t// out\n        /* \"#utility.yul\":545:684   */\n    tag_32:\n        /* \"#utility.yul\":591:596   */\n      0x00\n        /* \"#utility.yul\":629:635   */\n      dup2\n        /* \"#utility.yul\":616:636   */\n      calldataload\n        /* \"#utility.yul\":607:636   */\n      swap1\n      pop\n        /* \"#utility.yul\":645:678   */\n      tag_45\n        /* \"#utility.yul\":672:677   */\n      dup2\n        /* \"#utility.yul\":645:678   */\n      tag_31\n      jump\t// in\n    tag_45:\n        /* \"#utility.yul\":545:684   */\n      swap3\n      swap2\n      pop\n      pop\n      jump\t// out\n        /* \"#utility.yul\":690:1019   */\n    tag_7:\n        /* \"#utility.yul\":749:755   */\n      0x00\n        /* \"#utility.yul\":798:800   */\n      0x20\n        /* \"#utility.yul\":786:795   */\n      dup3\n        /* \"#utility.yul\":777:784   */\n      dup5\n        /* \"#utility.yul\":773:796   */\n      sub\n        /* \"#utility.yul\":769:801   */\n      slt\n        /* \"#utility.yul\":766:885   */\n      iszero\n      tag_47\n      jumpi\n        /* \"#utility.yul\":804:883   */\n      tag_48\n      tag_28\n      jump\t// in\n    tag_48:\n        /* \"#utility.yul\":766:885   */\n    tag_47:\n        /* \"#utility.yul\":924:925   */\n      0x00\n        /* \"#utility.yul\":949:1002   */\n      tag_49\n        /* \"#utility.yul\":994:1001   */\n      dup5\n        /* \"#utility.yul\":985:991   */\n      dup3\n        /* \"#utility.yul\":974:983   */\n      dup6\n        /* \"#utility.yul\":970:992   */\n      add\n        /* \"#utility.yul\":949:1002   */\n      tag_32\n      jump\t// in\n    tag_49:\n        /* \"#utility.yul\":939:1002   */\n      swap2\n      pop\n        /* \"#utility.yul\":895:1012   */\n      pop\n        /* \"#utility.yul\":690:1019   */\n      swap3\n      swap2\n      pop\n      pop\n      jump\t// out\n        /* \"#utility.yul\":1025:1143   */\n    tag_33:\n        /* \"#utility.yul\":1112:1136   */\n      tag_51\n        /* \"#utility.yul\":1130:1135   */\n      dup2\n        /* \"#utility.yul\":1112:1136   */\n      tag_30\n      jump\t// in\n    tag_51:\n        /* \"#utility.yul\":1107:1110   */\n      dup3\n        /* \"#utility.yul\":1100:1137   */\n      mstore\n        /* \"#utility.yul\":1025:1143   */\n      pop\n      pop\n      jump\t// out\n        /* \"#utility.yul\":1149:1481   */\n    tag_10:\n        /* \"#utility.yul\":1270:1274   */\n      0x00\n        /* \"#utility.yul\":1308:1310   */\n      0x40\n        /* \"#utility.yul\":1297:1306   */\n      dup3\n        /* \"#utility.yul\":1293:1311   */\n      add\n        /* \"#utility.yul\":1285:1311   */\n      swap1\n      pop\n        /* \"#utility.yul\":1321:1392   */\n      tag_53\n        /* \"#utility.yul\":1389:1390   */\n      0x00\n        /* \"#utility.yul\":1378:1387   */\n      dup4\n        /* \"#utility.yul\":1374:1391   */\n      add\n        /* \"#utility.yul\":1365:1371   */\n      dup6\n        /* \"#utility.yul\":1321:1392   */\n      tag_33\n      jump\t// in\n    tag_53:\n        /* \"#utility.yul\":1402:1474   */\n      tag_54\n        /* \"#utility.yul\":1470:1472   */\n      0x20\n        /* \"#utility.yul\":1459:1468   */\n      dup4\n        /* \"#utility.yul\":1455:1473   */\n      add\n        /* \"#utility.yul\":1446:1452   */\n      dup5\n        /* \"#utility.yul\":1402:1474   */\n      tag_33\n      jump\t// in\n    tag_54:\n        /* \"#utility.yul\":1149:1481   */\n      swap4\n      swap3\n      pop\n      pop\n      pop\n      jump\t// out\n        /* \"#utility.yul\":1487:1667   */\n    tag_34:\n        /* \"#utility.yul\":1535:1612   */\n      0x4e487b7100000000000000000000000000000000000000000000000000000000\n        /* \"#utility.yul\":1532:1533   */\n      0x00\n        /* \"#utility.yul\":1525:1613   */\n      mstore\n        /* \"#utility.yul\":1632:1636   */\n      0x12\n        /* \"#utility.yul\":1629:1630   */\n      0x04\n        /* \"#utility.yul\":1622:1637   */\n      mstore\n        /* \"#utility.yul\":1656:1660   */\n      0x24\n        /* \"#utility.yul\":1653:1654   */\n      0x00\n        /* \"#utility.yul\":1646:1661   */\n      revert\n        /* \"#utility.yul\":1859:2044   */\n    tag_17:\n        /* \"#utility.yul\":1899:1900   */\n      0x00\n        /* \"#utility.yul\":1916:1936   */\n      tag_58\n        /* \"#utility.yul\":1934:1935   */\n      dup3\n        /* \"#utility.yul\":1916:1936   */\n      tag_30\n      jump\t// in\n    tag_58:\n        /* \"#utility.yul\":1911:1936   */\n      swap2\n      pop\n        /* \"#utility.yul\":1950:1970   */\n      tag_59\n        /* \"#utility.yul\":1968:1969   */\n      dup4\n        /* \"#utility.yul\":1950:1970   */\n      tag_30\n      jump\t// in\n    tag_59:\n        /* \"#utility.yul\":1945:1970   */\n      swap3\n      pop\n        /* \"#utility.yul\":1989:1990   */\n      dup3\n        /* \"#utility.yul\":1979:2014   */\n      tag_60\n      jumpi\n        /* \"#utility.yul\":1994:2012   */\n      tag_61\n      tag_34\n      jump\t// in\n    tag_61:\n        /* \"#utility.yul\":1979:2014   */\n    tag_60:\n        /* \"#utility.yul\":2036:2037   */\n      dup3\n        /* \"#utility.yul\":2033:2034   */\n      dup3\n        /* \"#utility.yul\":2029:2038   */\n      div\n        /* \"#utility.yul\":2024:2038   */\n      swap1\n      pop\n        /* \"#utility.yul\":1859:2044   */\n      swap3\n      swap2\n      pop\n      pop\n      jump\t// out\n        /* \"#utility.yul\":2050:2226   */\n    tag_23:\n        /* \"#utility.yul\":2082:2083   */\n      0x00\n        /* \"#utility.yul\":2099:2119   */\n      tag_63\n        /* \"#utility.yul\":2117:2118   */\n      dup3\n        /* \"#utility.yul\":2099:2119   */\n      tag_30\n      jump\t// in\n    tag_63:\n        /* \"#utility.yul\":2094:2119   */\n      swap2\n      pop\n        /* \"#utility.yul\":2133:2153   */\n      tag_64\n        /* \"#utility.yul\":2151:2152   */\n      dup4\n        /* \"#utility.yul\":2133:2153   */\n      tag_30\n      jump\t// in\n    tag_64:\n        /* \"#utility.yul\":2128:2153   */\n      swap3\n      pop\n        /* \"#utility.yul\":2172:2173   */\n      dup3\n        /* \"#utility.yul\":2162:2197   */\n      tag_65\n      jumpi\n        /* \"#utility.yul\":2177:2195   */\n      tag_66\n      tag_34\n      jump\t// in\n    tag_66:\n        /* \"#utility.yul\":2162:2197   */\n    tag_65:\n        /* \"#utility.yul\":2218:2219   */\n      dup3\n        /* \"#utility.yul\":2215:2216   */\n      dup3\n        /* \"#utility.yul\":2211:2220   */\n      mod\n        /* \"#utility.yul\":2206:2220   */\n      swap1\n      pop\n        /* \"#utility.yul\":2050:2226   */\n      swap3\n      swap2\n      pop\n      pop\n      jump\t// out\n\n    auxdata: 0xa26469706673582212205544610271f9864b501de864eae1cdacc8d701017abb5e3ff781eafaa8fba87064736f6c63430008190033\n}\n",
				"bytecode": {
					"linkReferences": {},
					"object": "6080604052348015600e575f80fd5b506102688061001c5f395ff3fe608060405234801561000f575f80fd5b5060043610610034575f3560e01c8063f90a810f14610038578063fcc0dfb614610069575b5f80fd5b610052600480360381019061004d9190610144565b61009a565b60405161006092919061017e565b60405180910390f35b610083600480360381019061007e9190610144565b6100c9565b60405161009192919061017e565b60405180910390f35b5f805f6002846100aa91906101d2565b90505f6003856100ba91906101d2565b90508181935093505050915091565b5f80826100d58461009a565b925092505f6002826100e79190610202565b1480156100ff57505f6003826100fd9190610202565b145b610107575f80fd5b50915091565b5f80fd5b5f819050919050565b61012381610111565b811461012d575f80fd5b50565b5f8135905061013e8161011a565b92915050565b5f602082840312156101595761015861010d565b5b5f61016684828501610130565b91505092915050565b61017881610111565b82525050565b5f6040820190506101915f83018561016f565b61019e602083018461016f565b9392505050565b7f4e487b71000000000000000000000000000000000000000000000000000000005f52601260045260245ffd5b5f6101dc82610111565b91506101e783610111565b9250826101f7576101f66101a5565b5b828204905092915050565b5f61020c82610111565b915061021783610111565b925082610227576102266101a5565b5b82820690509291505056fea26469706673582212205544610271f9864b501de864eae1cdacc8d701017abb5e3ff781eafaa8fba87064736f6c63430008190033",
					"opcodes": "PUSH1 0x80 PUSH1 0x40 MSTORE CALLVALUE DUP1 ISZERO PUSH1 0xE JUMPI PUSH0 DUP1 REVERT JUMPDEST POP PUSH2 0x268 DUP1 PUSH2 0x1C PUSH0 CODECOPY PUSH0 RETURN INVALID PUSH1 0x80 PUSH1 0x40 MSTORE CALLVALUE DUP1 ISZERO PUSH2 0xF JUMPI PUSH0 DUP1 REVERT JUMPDEST POP PUSH1 0x4 CALLDATASIZE LT PUSH2 0x34 JUMPI PUSH0 CALLDATALOAD PUSH1 0xE0 SHR DUP1 PUSH4 0xF90A810F EQ PUSH2 0x38 JUMPI DUP1 PUSH4 0xFCC0DFB6 EQ PUSH2 0x69 JUMPI JUMPDEST PUSH0 DUP1 REVERT JUMPDEST PUSH2 0x52 PUSH1 0x4 DUP1 CALLDATASIZE SUB DUP2 ADD SWAP1 PUSH2 0x4D SWAP2 SWAP1 PUSH2 0x144 JUMP JUMPDEST PUSH2 0x9A JUMP JUMPDEST PUSH1 0x40 MLOAD PUSH2 0x60 SWAP3 SWAP2 SWAP1 PUSH2 0x17E JUMP JUMPDEST PUSH1 0x40 MLOAD DUP1 SWAP2 SUB SWAP1 RETURN JUMPDEST PUSH2 0x83 PUSH1 0x4 DUP1 CALLDATASIZE SUB DUP2 ADD SWAP1 PUSH2 0x7E SWAP2 SWAP1 PUSH2 0x144 JUMP JUMPDEST PUSH2 0xC9 JUMP JUMPDEST PUSH1 0x40 MLOAD PUSH2 0x91 SWAP3 SWAP2 SWAP1 PUSH2 0x17E JUMP JUMPDEST PUSH1 0x40 MLOAD DUP1 SWAP2 SUB SWAP1 RETURN JUMPDEST PUSH0 DUP1 PUSH0 PUSH1 0x2 DUP5 PUSH2 0xAA SWAP2 SWAP1 PUSH2 0x1D2 JUMP JUMPDEST SWAP1 POP PUSH0 PUSH1 0x3 DUP6 PUSH2 0xBA SWAP2 SWAP1 PUSH2 0x1D2 JUMP JUMPDEST SWAP1 POP DUP2 DUP2 SWAP4 POP SWAP4 POP POP POP SWAP2 POP SWAP2 JUMP JUMPDEST PUSH0 DUP1 DUP3 PUSH2 0xD5 DUP5 PUSH2 0x9A JUMP JUMPDEST SWAP3 POP SWAP3 POP PUSH0 PUSH1 0x2 DUP3 PUSH2 0xE7 SWAP2 SWAP1 PUSH2 0x202 JUMP JUMPDEST EQ DUP1 ISZERO PUSH2 0xFF JUMPI POP PUSH0 PUSH1 0x3 DUP3 PUSH2 0xFD SWAP2 SWAP1 PUSH2 0x202 JUMP JUMPDEST EQ JUMPDEST PUSH2 0x107 JUMPI PUSH0 DUP1 REVERT JUMPDEST POP SWAP2 POP SWAP2 JUMP JUMPDEST PUSH0 DUP1 REVERT JUMPDEST PUSH0 DUP2 SWAP1 POP SWAP2 SWAP1 POP JUMP JUMPDEST PUSH2 0x123 DUP2 PUSH2 0x111 JUMP JUMPDEST DUP2 EQ PUSH2 0x12D JUMPI PUSH0 DUP1 REVERT JUMPDEST POP JUMP JUMPDEST PUSH0 DUP2 CALLDATALOAD SWAP1 POP PUSH2 0x13E DUP2 PUSH2 0x11A JUMP JUMPDEST SWAP3 SWAP2 POP POP JUMP JUMPDEST PUSH0 PUSH1 0x20 DUP3 DUP5 SUB SLT ISZERO PUSH2 0x159 JUMPI PUSH2 0x158 PUSH2 0x10D JUMP JUMPDEST JUMPDEST PUSH0 PUSH2 0x166 DUP5 DUP3 DUP6 ADD PUSH2 0x130 JUMP JUMPDEST SWAP2 POP POP SWAP3 SWAP2 POP POP JUMP JUMPDEST PUSH2 0x178 DUP2 PUSH2 0x111 JUMP JUMPDEST DUP3 MSTORE POP POP JUMP JUMPDEST PUSH0 PUSH1 0x40 DUP3 ADD SWAP1 POP PUSH2 0x191 PUSH0 DUP4 ADD DUP6 PUSH2 0x16F JUMP JUMPDEST PUSH2 0x19E PUSH1 0x20 DUP4 ADD DUP5 PUSH2 0x16F JUMP JUMPDEST SWAP4 SWAP3 POP POP POP JUMP JUMPDEST PUSH32 0x4E487B7100000000000000000000000000000000000000000000000000000000 PUSH0 MSTORE PUSH1 0x12 PUSH1 0x4 MSTORE PUSH1 0x24 PUSH0 REVERT JUMPDEST PUSH0 PUSH2 0x1DC DUP3 PUSH2 0x111 JUMP JUMPDEST SWAP2 POP PUSH2 0x1E7 DUP4 PUSH2 0x111 JUMP JUMPDEST SWAP3 POP DUP3 PUSH2 0x1F7 JUMPI PUSH2 0x1F6 PUSH2 0x1A5 JUMP JUMPDEST JUMPDEST DUP3 DUP3 DIV SWAP1 POP SWAP3 SWAP2 POP POP JUMP JUMPDEST PUSH0 PUSH2 0x20C DUP3 PUSH2 0x111 JUMP JUMPDEST SWAP2 POP PUSH2 0x217 DUP4 PUSH2 0x111 JUMP JUMPDEST SWAP3 POP DUP3 PUSH2 0x227 JUMPI PUSH2 0x226 PUSH2 0x1A5 JUMP JUMPDEST JUMPDEST DUP3 DUP3 MOD SWAP1 POP SWAP3 SWAP2 POP POP JUMP INVALID LOG2 PUSH5 0x6970667358 0x22 SLT KECCAK256 SSTORE PREVRANDAO PUSH2 0x271 0xF9 DUP7 0x4B POP SAR 0xE8 PUSH5 0xEAE1CDACC8 0xD7 ADD ADD PUSH27 0xBB5E3FF781EAFAA8FBA87064736F6C634300081900330000000000 "
				},
				"gasEstimates": {
					"creation": {
						"codeDepositCost": "123200",
						"executionCost": "169",
						"totalCost": "123369"
					},
					"external": {
						"getExactDivideBy2And3(uint256)": "infinite",
						"getExactDivideBy2And3WithoutModifier(uint256)": "infinite"
					}
				},
				"methodIdentifiers": {
					"getExactDivideBy2And3(uint256)": "fcc0dfb6",
					"getExactDivideBy2And3WithoutModifier(uint256)": "f90a810f"
				}
			},
			"storageLayout": {
				"storage": [],
				"types": null
			},
			"userdoc": {
				"kind": "user",
				"methods": {},
				"version": 1
			}
		}
	}
}