{
	"SolidityProjects/contracts/SolidityGrammers/5-VariableDataStorage(变量数据存储).sol": {
		"DataStorage": {
			"abi": [
				{
					"inputs": [
						{
							"internalType": "uint256[]",
							"name": "_x",
							"type": "uint256[]"
						}
					],
					"name": "fCalldata",
					"outputs": [
						{
							"internalType": "uint256[]",
							"name": "",
							"type": "uint256[]"
						}
					],
					"stateMutability": "pure",
					"type": "function"
				},
				{
					"inputs": [],
					"name": "fMemory",
					"outputs": [],
					"stateMutability": "view",
					"type": "function"
				},
				{
					"inputs": [],
					"name": "fStorage",
					"outputs": [],
					"stateMutability": "nonpayable",
					"type": "function"
				}
			],
			"devdoc": {
				"kind": "dev",
				"methods": {},
				"version": 1
			},
			"evm": {
				"assembly": "    /* \"SolidityProjects/contracts/SolidityGrammers/5-VariableDataStorage(\\xe5\\x8f\\x98\\xe9\\x87\\x8f\\xe6\\x95\\xb0\\xe6\\x8d\\xae\\xe5\\xad\\x98\\xe5\\x82\\xa8).sol\":94:4211  contract DataStorage {... */\n  mstore(0x40, 0x80)\n    /* \"SolidityProjects/contracts/SolidityGrammers/5-VariableDataStorage(\\xe5\\x8f\\x98\\xe9\\x87\\x8f\\xe6\\x95\\xb0\\xe6\\x8d\\xae\\xe5\\xad\\x98\\xe5\\x82\\xa8).sol\":942:960  uint[] x = [1,2,3] */\n  mload(0x40)\n  dup1\n  0x60\n  add\n  0x40\n  mstore\n  dup1\n    /* \"SolidityProjects/contracts/SolidityGrammers/5-VariableDataStorage(\\xe5\\x8f\\x98\\xe9\\x87\\x8f\\xe6\\x95\\xb0\\xe6\\x8d\\xae\\xe5\\xad\\x98\\xe5\\x82\\xa8).sol\":954:955  1 */\n  0x01\n    /* \"SolidityProjects/contracts/SolidityGrammers/5-VariableDataStorage(\\xe5\\x8f\\x98\\xe9\\x87\\x8f\\xe6\\x95\\xb0\\xe6\\x8d\\xae\\xe5\\xad\\x98\\xe5\\x82\\xa8).sol\":942:960  uint[] x = [1,2,3] */\n  0xff\n  and\n  dup2\n  mstore\n  0x20\n  add\n    /* \"SolidityProjects/contracts/SolidityGrammers/5-VariableDataStorage(\\xe5\\x8f\\x98\\xe9\\x87\\x8f\\xe6\\x95\\xb0\\xe6\\x8d\\xae\\xe5\\xad\\x98\\xe5\\x82\\xa8).sol\":956:957  2 */\n  0x02\n    /* \"SolidityProjects/contracts/SolidityGrammers/5-VariableDataStorage(\\xe5\\x8f\\x98\\xe9\\x87\\x8f\\xe6\\x95\\xb0\\xe6\\x8d\\xae\\xe5\\xad\\x98\\xe5\\x82\\xa8).sol\":942:960  uint[] x = [1,2,3] */\n  0xff\n  and\n  dup2\n  mstore\n  0x20\n  add\n    /* \"SolidityProjects/contracts/SolidityGrammers/5-VariableDataStorage(\\xe5\\x8f\\x98\\xe9\\x87\\x8f\\xe6\\x95\\xb0\\xe6\\x8d\\xae\\xe5\\xad\\x98\\xe5\\x82\\xa8).sol\":958:959  3 */\n  0x03\n    /* \"SolidityProjects/contracts/SolidityGrammers/5-VariableDataStorage(\\xe5\\x8f\\x98\\xe9\\x87\\x8f\\xe6\\x95\\xb0\\xe6\\x8d\\xae\\xe5\\xad\\x98\\xe5\\x82\\xa8).sol\":942:960  uint[] x = [1,2,3] */\n  0xff\n  and\n  dup2\n  mstore\n  pop\n  0x00\n  swap1\n  0x03\n  tag_1\n  swap3\n  swap2\n  swap1\n  tag_2\n  jump\t// in\ntag_1:\n  pop\n    /* \"SolidityProjects/contracts/SolidityGrammers/5-VariableDataStorage(\\xe5\\x8f\\x98\\xe9\\x87\\x8f\\xe6\\x95\\xb0\\xe6\\x8d\\xae\\xe5\\xad\\x98\\xe5\\x82\\xa8).sol\":94:4211  contract DataStorage {... */\n  callvalue\n  dup1\n  iszero\n  tag_3\n  jumpi\n  0x00\n  dup1\n  revert\ntag_3:\n  pop\n  jump(tag_4)\ntag_2:\n  dup3\n  dup1\n  sload\n  dup3\n  dup3\n  sstore\n  swap1\n  0x00\n  mstore\n  keccak256(0x00, 0x20)\n  swap1\n  dup2\n  add\n  swap3\n  dup3\n  iszero\n  tag_5\n  jumpi\n  swap2\n  0x20\n  mul\n  dup3\n  add\ntag_6:\n  dup3\n  dup2\n  gt\n  iszero\n  tag_7\n  jumpi\n  dup3\n  mload\n  dup3\n  swap1\n  0xff\n  and\n  swap1\n  sstore\n  swap2\n  0x20\n  add\n  swap2\n  swap1\n  0x01\n  add\n  swap1\n  jump(tag_6)\ntag_7:\ntag_5:\n  pop\n  swap1\n  pop\n  tag_8\n  swap2\n  swap1\n  tag_9\n  jump\t// in\ntag_8:\n  pop\n  swap1\n  jump\t// out\ntag_9:\ntag_10:\n  dup1\n  dup3\n  gt\n  iszero\n  tag_11\n  jumpi\n  0x00\n  dup2\n  0x00\n  swap1\n  sstore\n  pop\n  0x01\n  add\n  jump(tag_10)\ntag_11:\n  pop\n  swap1\n  jump\t// out\ntag_4:\n  dataSize(sub_0)\n  dup1\n  dataOffset(sub_0)\n  0x00\n  codecopy\n  0x00\n  return\nstop\n\nsub_0: assembly {\n        /* \"SolidityProjects/contracts/SolidityGrammers/5-VariableDataStorage(\\xe5\\x8f\\x98\\xe9\\x87\\x8f\\xe6\\x95\\xb0\\xe6\\x8d\\xae\\xe5\\xad\\x98\\xe5\\x82\\xa8).sol\":94:4211  contract DataStorage {... */\n      mstore(0x40, 0x80)\n      callvalue\n      dup1\n      iszero\n      tag_1\n      jumpi\n      0x00\n      dup1\n      revert\n    tag_1:\n      pop\n      jumpi(tag_2, lt(calldatasize, 0x04))\n      shr(0xe0, calldataload(0x00))\n      dup1\n      0x20028990\n      eq\n      tag_3\n      jumpi\n      dup1\n      0x6a8d1e08\n      eq\n      tag_4\n      jumpi\n      dup1\n      0x9b1a379c\n      eq\n      tag_5\n      jumpi\n    tag_2:\n      0x00\n      dup1\n      revert\n        /* \"SolidityProjects/contracts/SolidityGrammers/5-VariableDataStorage(\\xe5\\x8f\\x98\\xe9\\x87\\x8f\\xe6\\x95\\xb0\\xe6\\x8d\\xae\\xe5\\xad\\x98\\xe5\\x82\\xa8).sol\":3418:3790  function fMemory() public view{... */\n    tag_3:\n      tag_6\n      tag_7\n      jump\t// in\n    tag_6:\n      stop\n        /* \"SolidityProjects/contracts/SolidityGrammers/5-VariableDataStorage(\\xe5\\x8f\\x98\\xe9\\x87\\x8f\\xe6\\x95\\xb0\\xe6\\x8d\\xae\\xe5\\xad\\x98\\xe5\\x82\\xa8).sol\":3053:3266  function fStorage() public{... */\n    tag_4:\n      tag_8\n      tag_9\n      jump\t// in\n    tag_8:\n      stop\n        /* \"SolidityProjects/contracts/SolidityGrammers/5-VariableDataStorage(\\xe5\\x8f\\x98\\xe9\\x87\\x8f\\xe6\\x95\\xb0\\xe6\\x8d\\xae\\xe5\\xad\\x98\\xe5\\x82\\xa8).sol\":3999:4208  function fCalldata(uint[] calldata _x) external pure returns (uint[] calldata) {... */\n    tag_5:\n      tag_10\n      0x04\n      dup1\n      calldatasize\n      sub\n      dup2\n      add\n      swap1\n      tag_11\n      swap2\n      swap1\n      tag_12\n      jump\t// in\n    tag_11:\n      tag_13\n      jump\t// in\n    tag_10:\n      mload(0x40)\n      tag_14\n      swap3\n      swap2\n      swap1\n      tag_15\n      jump\t// in\n    tag_14:\n      mload(0x40)\n      dup1\n      swap2\n      sub\n      swap1\n      return\n        /* \"SolidityProjects/contracts/SolidityGrammers/5-VariableDataStorage(\\xe5\\x8f\\x98\\xe9\\x87\\x8f\\xe6\\x95\\xb0\\xe6\\x8d\\xae\\xe5\\xad\\x98\\xe5\\x82\\xa8).sol\":3418:3790  function fMemory() public view{... */\n    tag_7:\n        /* \"SolidityProjects/contracts/SolidityGrammers/5-VariableDataStorage(\\xe5\\x8f\\x98\\xe9\\x87\\x8f\\xe6\\x95\\xb0\\xe6\\x8d\\xae\\xe5\\xad\\x98\\xe5\\x82\\xa8).sol\":3546:3567  uint[] memory xMemory */\n      0x00\n        /* \"SolidityProjects/contracts/SolidityGrammers/5-VariableDataStorage(\\xe5\\x8f\\x98\\xe9\\x87\\x8f\\xe6\\x95\\xb0\\xe6\\x8d\\xae\\xe5\\xad\\x98\\xe5\\x82\\xa8).sol\":3570:3571  x */\n      dup1\n        /* \"SolidityProjects/contracts/SolidityGrammers/5-VariableDataStorage(\\xe5\\x8f\\x98\\xe9\\x87\\x8f\\xe6\\x95\\xb0\\xe6\\x8d\\xae\\xe5\\xad\\x98\\xe5\\x82\\xa8).sol\":3546:3571  uint[] memory xMemory = x */\n      dup1\n      sload\n      dup1\n      0x20\n      mul\n      0x20\n      add\n      mload(0x40)\n      swap1\n      dup2\n      add\n      0x40\n      mstore\n      dup1\n      swap3\n      swap2\n      swap1\n      dup2\n      dup2\n      mstore\n      0x20\n      add\n      dup3\n      dup1\n      sload\n      dup1\n      iszero\n      tag_17\n      jumpi\n      0x20\n      mul\n      dup3\n      add\n      swap2\n      swap1\n      0x00\n      mstore\n      keccak256(0x00, 0x20)\n      swap1\n    tag_18:\n      dup2\n      sload\n      dup2\n      mstore\n      0x20\n      add\n      swap1\n      0x01\n      add\n      swap1\n      dup1\n      dup4\n      gt\n      tag_18\n      jumpi\n    tag_17:\n      pop\n      pop\n      pop\n      pop\n      pop\n      swap1\n      pop\n        /* \"SolidityProjects/contracts/SolidityGrammers/5-VariableDataStorage(\\xe5\\x8f\\x98\\xe9\\x87\\x8f\\xe6\\x95\\xb0\\xe6\\x8d\\xae\\xe5\\xad\\x98\\xe5\\x82\\xa8).sol\":3595:3598  200 */\n      0xc8\n        /* \"SolidityProjects/contracts/SolidityGrammers/5-VariableDataStorage(\\xe5\\x8f\\x98\\xe9\\x87\\x8f\\xe6\\x95\\xb0\\xe6\\x8d\\xae\\xe5\\xad\\x98\\xe5\\x82\\xa8).sol\":3582:3589  xMemory */\n      dup2\n        /* \"SolidityProjects/contracts/SolidityGrammers/5-VariableDataStorage(\\xe5\\x8f\\x98\\xe9\\x87\\x8f\\xe6\\x95\\xb0\\xe6\\x8d\\xae\\xe5\\xad\\x98\\xe5\\x82\\xa8).sol\":3590:3591  0 */\n      0x00\n        /* \"SolidityProjects/contracts/SolidityGrammers/5-VariableDataStorage(\\xe5\\x8f\\x98\\xe9\\x87\\x8f\\xe6\\x95\\xb0\\xe6\\x8d\\xae\\xe5\\xad\\x98\\xe5\\x82\\xa8).sol\":3582:3592  xMemory[0] */\n      dup2\n      mload\n      dup2\n      lt\n      tag_19\n      jumpi\n      tag_20\n      tag_21\n      jump\t// in\n    tag_20:\n    tag_19:\n      0x20\n      mul\n      0x20\n      add\n      add\n        /* \"SolidityProjects/contracts/SolidityGrammers/5-VariableDataStorage(\\xe5\\x8f\\x98\\xe9\\x87\\x8f\\xe6\\x95\\xb0\\xe6\\x8d\\xae\\xe5\\xad\\x98\\xe5\\x82\\xa8).sol\":3582:3598  xMemory[0] = 200 */\n      dup2\n      dup2\n      mstore\n      pop\n      pop\n        /* \"SolidityProjects/contracts/SolidityGrammers/5-VariableDataStorage(\\xe5\\x8f\\x98\\xe9\\x87\\x8f\\xe6\\x95\\xb0\\xe6\\x8d\\xae\\xe5\\xad\\x98\\xe5\\x82\\xa8).sol\":3651:3654  201 */\n      0xc9\n        /* \"SolidityProjects/contracts/SolidityGrammers/5-VariableDataStorage(\\xe5\\x8f\\x98\\xe9\\x87\\x8f\\xe6\\x95\\xb0\\xe6\\x8d\\xae\\xe5\\xad\\x98\\xe5\\x82\\xa8).sol\":3638:3645  xMemory */\n      dup2\n        /* \"SolidityProjects/contracts/SolidityGrammers/5-VariableDataStorage(\\xe5\\x8f\\x98\\xe9\\x87\\x8f\\xe6\\x95\\xb0\\xe6\\x8d\\xae\\xe5\\xad\\x98\\xe5\\x82\\xa8).sol\":3646:3647  1 */\n      0x01\n        /* \"SolidityProjects/contracts/SolidityGrammers/5-VariableDataStorage(\\xe5\\x8f\\x98\\xe9\\x87\\x8f\\xe6\\x95\\xb0\\xe6\\x8d\\xae\\xe5\\xad\\x98\\xe5\\x82\\xa8).sol\":3638:3648  xMemory[1] */\n      dup2\n      mload\n      dup2\n      lt\n      tag_22\n      jumpi\n      tag_23\n      tag_21\n      jump\t// in\n    tag_23:\n    tag_22:\n      0x20\n      mul\n      0x20\n      add\n      add\n        /* \"SolidityProjects/contracts/SolidityGrammers/5-VariableDataStorage(\\xe5\\x8f\\x98\\xe9\\x87\\x8f\\xe6\\x95\\xb0\\xe6\\x8d\\xae\\xe5\\xad\\x98\\xe5\\x82\\xa8).sol\":3638:3654  xMemory[1] = 201 */\n      dup2\n      dup2\n      mstore\n      pop\n      pop\n        /* \"SolidityProjects/contracts/SolidityGrammers/5-VariableDataStorage(\\xe5\\x8f\\x98\\xe9\\x87\\x8f\\xe6\\x95\\xb0\\xe6\\x8d\\xae\\xe5\\xad\\x98\\xe5\\x82\\xa8).sol\":3666:3688  uint[] memory xMemory2 */\n      0x00\n        /* \"SolidityProjects/contracts/SolidityGrammers/5-VariableDataStorage(\\xe5\\x8f\\x98\\xe9\\x87\\x8f\\xe6\\x95\\xb0\\xe6\\x8d\\xae\\xe5\\xad\\x98\\xe5\\x82\\xa8).sol\":3691:3692  x */\n      dup1\n        /* \"SolidityProjects/contracts/SolidityGrammers/5-VariableDataStorage(\\xe5\\x8f\\x98\\xe9\\x87\\x8f\\xe6\\x95\\xb0\\xe6\\x8d\\xae\\xe5\\xad\\x98\\xe5\\x82\\xa8).sol\":3666:3692  uint[] memory xMemory2 = x */\n      dup1\n      sload\n      dup1\n      0x20\n      mul\n      0x20\n      add\n      mload(0x40)\n      swap1\n      dup2\n      add\n      0x40\n      mstore\n      dup1\n      swap3\n      swap2\n      swap1\n      dup2\n      dup2\n      mstore\n      0x20\n      add\n      dup3\n      dup1\n      sload\n      dup1\n      iszero\n      tag_24\n      jumpi\n      0x20\n      mul\n      dup3\n      add\n      swap2\n      swap1\n      0x00\n      mstore\n      keccak256(0x00, 0x20)\n      swap1\n    tag_25:\n      dup2\n      sload\n      dup2\n      mstore\n      0x20\n      add\n      swap1\n      0x01\n      add\n      swap1\n      dup1\n      dup4\n      gt\n      tag_25\n      jumpi\n    tag_24:\n      pop\n      pop\n      pop\n      pop\n      pop\n      swap1\n      pop\n        /* \"SolidityProjects/contracts/SolidityGrammers/5-VariableDataStorage(\\xe5\\x8f\\x98\\xe9\\x87\\x8f\\xe6\\x95\\xb0\\xe6\\x8d\\xae\\xe5\\xad\\x98\\xe5\\x82\\xa8).sol\":3749:3752  303 */\n      0x012f\n        /* \"SolidityProjects/contracts/SolidityGrammers/5-VariableDataStorage(\\xe5\\x8f\\x98\\xe9\\x87\\x8f\\xe6\\x95\\xb0\\xe6\\x8d\\xae\\xe5\\xad\\x98\\xe5\\x82\\xa8).sol\":3735:3743  xMemory2 */\n      dup2\n        /* \"SolidityProjects/contracts/SolidityGrammers/5-VariableDataStorage(\\xe5\\x8f\\x98\\xe9\\x87\\x8f\\xe6\\x95\\xb0\\xe6\\x8d\\xae\\xe5\\xad\\x98\\xe5\\x82\\xa8).sol\":3744:3745  0 */\n      0x00\n        /* \"SolidityProjects/contracts/SolidityGrammers/5-VariableDataStorage(\\xe5\\x8f\\x98\\xe9\\x87\\x8f\\xe6\\x95\\xb0\\xe6\\x8d\\xae\\xe5\\xad\\x98\\xe5\\x82\\xa8).sol\":3735:3746  xMemory2[0] */\n      dup2\n      mload\n      dup2\n      lt\n      tag_26\n      jumpi\n      tag_27\n      tag_21\n      jump\t// in\n    tag_27:\n    tag_26:\n      0x20\n      mul\n      0x20\n      add\n      add\n        /* \"SolidityProjects/contracts/SolidityGrammers/5-VariableDataStorage(\\xe5\\x8f\\x98\\xe9\\x87\\x8f\\xe6\\x95\\xb0\\xe6\\x8d\\xae\\xe5\\xad\\x98\\xe5\\x82\\xa8).sol\":3735:3752  xMemory2[0] = 303 */\n      dup2\n      dup2\n      mstore\n      pop\n      pop\n        /* \"SolidityProjects/contracts/SolidityGrammers/5-VariableDataStorage(\\xe5\\x8f\\x98\\xe9\\x87\\x8f\\xe6\\x95\\xb0\\xe6\\x8d\\xae\\xe5\\xad\\x98\\xe5\\x82\\xa8).sol\":3448:3790  {... */\n      pop\n      pop\n        /* \"SolidityProjects/contracts/SolidityGrammers/5-VariableDataStorage(\\xe5\\x8f\\x98\\xe9\\x87\\x8f\\xe6\\x95\\xb0\\xe6\\x8d\\xae\\xe5\\xad\\x98\\xe5\\x82\\xa8).sol\":3418:3790  function fMemory() public view{... */\n      jump\t// out\n        /* \"SolidityProjects/contracts/SolidityGrammers/5-VariableDataStorage(\\xe5\\x8f\\x98\\xe9\\x87\\x8f\\xe6\\x95\\xb0\\xe6\\x8d\\xae\\xe5\\xad\\x98\\xe5\\x82\\xa8).sol\":3053:3266  function fStorage() public{... */\n    tag_9:\n        /* \"SolidityProjects/contracts/SolidityGrammers/5-VariableDataStorage(\\xe5\\x8f\\x98\\xe9\\x87\\x8f\\xe6\\x95\\xb0\\xe6\\x8d\\xae\\xe5\\xad\\x98\\xe5\\x82\\xa8).sol\":3180:3203  uint[] storage xStorage */\n      0x00\n        /* \"SolidityProjects/contracts/SolidityGrammers/5-VariableDataStorage(\\xe5\\x8f\\x98\\xe9\\x87\\x8f\\xe6\\x95\\xb0\\xe6\\x8d\\xae\\xe5\\xad\\x98\\xe5\\x82\\xa8).sol\":3232:3235  100 */\n      0x64\n        /* \"SolidityProjects/contracts/SolidityGrammers/5-VariableDataStorage(\\xe5\\x8f\\x98\\xe9\\x87\\x8f\\xe6\\x95\\xb0\\xe6\\x8d\\xae\\xe5\\xad\\x98\\xe5\\x82\\xa8).sol\":3218:3226  xStorage */\n      dup2\n        /* \"SolidityProjects/contracts/SolidityGrammers/5-VariableDataStorage(\\xe5\\x8f\\x98\\xe9\\x87\\x8f\\xe6\\x95\\xb0\\xe6\\x8d\\xae\\xe5\\xad\\x98\\xe5\\x82\\xa8).sol\":3227:3228  0 */\n      0x00\n        /* \"SolidityProjects/contracts/SolidityGrammers/5-VariableDataStorage(\\xe5\\x8f\\x98\\xe9\\x87\\x8f\\xe6\\x95\\xb0\\xe6\\x8d\\xae\\xe5\\xad\\x98\\xe5\\x82\\xa8).sol\":3218:3229  xStorage[0] */\n      dup2\n      sload\n      dup2\n      lt\n      tag_29\n      jumpi\n      tag_30\n      tag_21\n      jump\t// in\n    tag_30:\n    tag_29:\n      swap1\n      0x00\n      mstore\n      keccak256(0x00, 0x20)\n      add\n        /* \"SolidityProjects/contracts/SolidityGrammers/5-VariableDataStorage(\\xe5\\x8f\\x98\\xe9\\x87\\x8f\\xe6\\x95\\xb0\\xe6\\x8d\\xae\\xe5\\xad\\x98\\xe5\\x82\\xa8).sol\":3218:3235  xStorage[0] = 100 */\n      dup2\n      swap1\n      sstore\n      pop\n        /* \"SolidityProjects/contracts/SolidityGrammers/5-VariableDataStorage(\\xe5\\x8f\\x98\\xe9\\x87\\x8f\\xe6\\x95\\xb0\\xe6\\x8d\\xae\\xe5\\xad\\x98\\xe5\\x82\\xa8).sol\":3079:3266  {... */\n      pop\n        /* \"SolidityProjects/contracts/SolidityGrammers/5-VariableDataStorage(\\xe5\\x8f\\x98\\xe9\\x87\\x8f\\xe6\\x95\\xb0\\xe6\\x8d\\xae\\xe5\\xad\\x98\\xe5\\x82\\xa8).sol\":3053:3266  function fStorage() public{... */\n      jump\t// out\n        /* \"SolidityProjects/contracts/SolidityGrammers/5-VariableDataStorage(\\xe5\\x8f\\x98\\xe9\\x87\\x8f\\xe6\\x95\\xb0\\xe6\\x8d\\xae\\xe5\\xad\\x98\\xe5\\x82\\xa8).sol\":3999:4208  function fCalldata(uint[] calldata _x) external pure returns (uint[] calldata) {... */\n    tag_13:\n        /* \"SolidityProjects/contracts/SolidityGrammers/5-VariableDataStorage(\\xe5\\x8f\\x98\\xe9\\x87\\x8f\\xe6\\x95\\xb0\\xe6\\x8d\\xae\\xe5\\xad\\x98\\xe5\\x82\\xa8).sol\":4061:4076  uint[] calldata */\n      calldatasize\n      0x00\n        /* \"SolidityProjects/contracts/SolidityGrammers/5-VariableDataStorage(\\xe5\\x8f\\x98\\xe9\\x87\\x8f\\xe6\\x95\\xb0\\xe6\\x8d\\xae\\xe5\\xad\\x98\\xe5\\x82\\xa8).sol\":4197:4199  _x */\n      dup4\n      dup4\n        /* \"SolidityProjects/contracts/SolidityGrammers/5-VariableDataStorage(\\xe5\\x8f\\x98\\xe9\\x87\\x8f\\xe6\\x95\\xb0\\xe6\\x8d\\xae\\xe5\\xad\\x98\\xe5\\x82\\xa8).sol\":4189:4200  return (_x) */\n      swap2\n      pop\n      swap2\n      pop\n        /* \"SolidityProjects/contracts/SolidityGrammers/5-VariableDataStorage(\\xe5\\x8f\\x98\\xe9\\x87\\x8f\\xe6\\x95\\xb0\\xe6\\x8d\\xae\\xe5\\xad\\x98\\xe5\\x82\\xa8).sol\":3999:4208  function fCalldata(uint[] calldata _x) external pure returns (uint[] calldata) {... */\n      swap3\n      pop\n      swap3\n      swap1\n      pop\n      jump\t// out\n        /* \"#utility.yul\":88:205   */\n    tag_34:\n        /* \"#utility.yul\":197:198   */\n      0x00\n        /* \"#utility.yul\":194:195   */\n      dup1\n        /* \"#utility.yul\":187:199   */\n      revert\n        /* \"#utility.yul\":211:328   */\n    tag_35:\n        /* \"#utility.yul\":320:321   */\n      0x00\n        /* \"#utility.yul\":317:318   */\n      dup1\n        /* \"#utility.yul\":310:322   */\n      revert\n        /* \"#utility.yul\":334:451   */\n    tag_36:\n        /* \"#utility.yul\":443:444   */\n      0x00\n        /* \"#utility.yul\":440:441   */\n      dup1\n        /* \"#utility.yul\":433:445   */\n      revert\n        /* \"#utility.yul\":457:574   */\n    tag_37:\n        /* \"#utility.yul\":566:567   */\n      0x00\n        /* \"#utility.yul\":563:564   */\n      dup1\n        /* \"#utility.yul\":556:568   */\n      revert\n        /* \"#utility.yul\":580:697   */\n    tag_38:\n        /* \"#utility.yul\":689:690   */\n      0x00\n        /* \"#utility.yul\":686:687   */\n      dup1\n        /* \"#utility.yul\":679:691   */\n      revert\n        /* \"#utility.yul\":720:1288   */\n    tag_39:\n        /* \"#utility.yul\":793:801   */\n      0x00\n        /* \"#utility.yul\":803:809   */\n      dup1\n        /* \"#utility.yul\":853:856   */\n      dup4\n        /* \"#utility.yul\":846:850   */\n      0x1f\n        /* \"#utility.yul\":838:844   */\n      dup5\n        /* \"#utility.yul\":834:851   */\n      add\n        /* \"#utility.yul\":830:857   */\n      slt\n        /* \"#utility.yul\":820:942   */\n      tag_52\n      jumpi\n        /* \"#utility.yul\":861:940   */\n      tag_53\n      tag_36\n      jump\t// in\n    tag_53:\n        /* \"#utility.yul\":820:942   */\n    tag_52:\n        /* \"#utility.yul\":974:980   */\n      dup3\n        /* \"#utility.yul\":961:981   */\n      calldataload\n        /* \"#utility.yul\":951:981   */\n      swap1\n      pop\n        /* \"#utility.yul\":1004:1022   */\n      0xffffffffffffffff\n        /* \"#utility.yul\":996:1002   */\n      dup2\n        /* \"#utility.yul\":993:1023   */\n      gt\n        /* \"#utility.yul\":990:1107   */\n      iszero\n      tag_54\n      jumpi\n        /* \"#utility.yul\":1026:1105   */\n      tag_55\n      tag_37\n      jump\t// in\n    tag_55:\n        /* \"#utility.yul\":990:1107   */\n    tag_54:\n        /* \"#utility.yul\":1140:1144   */\n      0x20\n        /* \"#utility.yul\":1132:1138   */\n      dup4\n        /* \"#utility.yul\":1128:1145   */\n      add\n        /* \"#utility.yul\":1116:1145   */\n      swap2\n      pop\n        /* \"#utility.yul\":1194:1197   */\n      dup4\n        /* \"#utility.yul\":1186:1190   */\n      0x20\n        /* \"#utility.yul\":1178:1184   */\n      dup3\n        /* \"#utility.yul\":1174:1191   */\n      mul\n        /* \"#utility.yul\":1164:1172   */\n      dup4\n        /* \"#utility.yul\":1160:1192   */\n      add\n        /* \"#utility.yul\":1157:1198   */\n      gt\n        /* \"#utility.yul\":1154:1282   */\n      iszero\n      tag_56\n      jumpi\n        /* \"#utility.yul\":1201:1280   */\n      tag_57\n      tag_38\n      jump\t// in\n    tag_57:\n        /* \"#utility.yul\":1154:1282   */\n    tag_56:\n        /* \"#utility.yul\":720:1288   */\n      swap3\n      pop\n      swap3\n      swap1\n      pop\n      jump\t// out\n        /* \"#utility.yul\":1294:1853   */\n    tag_12:\n        /* \"#utility.yul\":1380:1386   */\n      0x00\n        /* \"#utility.yul\":1388:1394   */\n      dup1\n        /* \"#utility.yul\":1437:1439   */\n      0x20\n        /* \"#utility.yul\":1425:1434   */\n      dup4\n        /* \"#utility.yul\":1416:1423   */\n      dup6\n        /* \"#utility.yul\":1412:1435   */\n      sub\n        /* \"#utility.yul\":1408:1440   */\n      slt\n        /* \"#utility.yul\":1405:1524   */\n      iszero\n      tag_59\n      jumpi\n        /* \"#utility.yul\":1443:1522   */\n      tag_60\n      tag_34\n      jump\t// in\n    tag_60:\n        /* \"#utility.yul\":1405:1524   */\n    tag_59:\n        /* \"#utility.yul\":1591:1592   */\n      0x00\n        /* \"#utility.yul\":1580:1589   */\n      dup4\n        /* \"#utility.yul\":1576:1593   */\n      add\n        /* \"#utility.yul\":1563:1594   */\n      calldataload\n        /* \"#utility.yul\":1621:1639   */\n      0xffffffffffffffff\n        /* \"#utility.yul\":1613:1619   */\n      dup2\n        /* \"#utility.yul\":1610:1640   */\n      gt\n        /* \"#utility.yul\":1607:1724   */\n      iszero\n      tag_61\n      jumpi\n        /* \"#utility.yul\":1643:1722   */\n      tag_62\n      tag_35\n      jump\t// in\n    tag_62:\n        /* \"#utility.yul\":1607:1724   */\n    tag_61:\n        /* \"#utility.yul\":1756:1836   */\n      tag_63\n        /* \"#utility.yul\":1828:1835   */\n      dup6\n        /* \"#utility.yul\":1819:1825   */\n      dup3\n        /* \"#utility.yul\":1808:1817   */\n      dup7\n        /* \"#utility.yul\":1804:1826   */\n      add\n        /* \"#utility.yul\":1756:1836   */\n      tag_39\n      jump\t// in\n    tag_63:\n        /* \"#utility.yul\":1738:1836   */\n      swap3\n      pop\n      swap3\n      pop\n        /* \"#utility.yul\":1534:1846   */\n      pop\n        /* \"#utility.yul\":1294:1853   */\n      swap3\n      pop\n      swap3\n      swap1\n      pop\n      jump\t// out\n        /* \"#utility.yul\":1859:2043   */\n    tag_40:\n        /* \"#utility.yul\":1958:1969   */\n      0x00\n        /* \"#utility.yul\":1992:1998   */\n      dup3\n        /* \"#utility.yul\":1987:1990   */\n      dup3\n        /* \"#utility.yul\":1980:1999   */\n      mstore\n        /* \"#utility.yul\":2032:2036   */\n      0x20\n        /* \"#utility.yul\":2027:2030   */\n      dup3\n        /* \"#utility.yul\":2023:2037   */\n      add\n        /* \"#utility.yul\":2008:2037   */\n      swap1\n      pop\n        /* \"#utility.yul\":1859:2043   */\n      swap3\n      swap2\n      pop\n      pop\n      jump\t// out\n        /* \"#utility.yul\":2049:2166   */\n    tag_41:\n        /* \"#utility.yul\":2158:2159   */\n      0x00\n        /* \"#utility.yul\":2155:2156   */\n      dup1\n        /* \"#utility.yul\":2148:2160   */\n      revert\n        /* \"#utility.yul\":2172:2271   */\n    tag_42:\n        /* \"#utility.yul\":2257:2263   */\n      dup3\n        /* \"#utility.yul\":2252:2255   */\n      dup2\n        /* \"#utility.yul\":2247:2250   */\n      dup4\n        /* \"#utility.yul\":2234:2264   */\n      calldatacopy\n        /* \"#utility.yul\":2172:2271   */\n      pop\n      pop\n      pop\n      jump\t// out\n        /* \"#utility.yul\":2307:2844   */\n    tag_43:\n        /* \"#utility.yul\":2435:2438   */\n      0x00\n        /* \"#utility.yul\":2456:2542   */\n      tag_68\n        /* \"#utility.yul\":2535:2541   */\n      dup4\n        /* \"#utility.yul\":2530:2533   */\n      dup6\n        /* \"#utility.yul\":2456:2542   */\n      tag_40\n      jump\t// in\n    tag_68:\n        /* \"#utility.yul\":2449:2542   */\n      swap4\n      pop\n        /* \"#utility.yul\":2566:2632   */\n      0x07ffffffffffffffffffffffffffffffffffffffffffffffffffffffffffffff\n        /* \"#utility.yul\":2558:2564   */\n      dup4\n        /* \"#utility.yul\":2555:2633   */\n      gt\n        /* \"#utility.yul\":2552:2717   */\n      iszero\n      tag_69\n      jumpi\n        /* \"#utility.yul\":2636:2715   */\n      tag_70\n      tag_41\n      jump\t// in\n    tag_70:\n        /* \"#utility.yul\":2552:2717   */\n    tag_69:\n        /* \"#utility.yul\":2748:2752   */\n      0x20\n        /* \"#utility.yul\":2740:2746   */\n      dup4\n        /* \"#utility.yul\":2736:2753   */\n      mul\n        /* \"#utility.yul\":2726:2753   */\n      swap3\n      pop\n        /* \"#utility.yul\":2763:2806   */\n      tag_71\n        /* \"#utility.yul\":2799:2805   */\n      dup4\n        /* \"#utility.yul\":2794:2797   */\n      dup6\n        /* \"#utility.yul\":2787:2792   */\n      dup5\n        /* \"#utility.yul\":2763:2806   */\n      tag_42\n      jump\t// in\n    tag_71:\n        /* \"#utility.yul\":2831:2837   */\n      dup3\n        /* \"#utility.yul\":2826:2829   */\n      dup5\n        /* \"#utility.yul\":2822:2838   */\n      add\n        /* \"#utility.yul\":2815:2838   */\n      swap1\n      pop\n        /* \"#utility.yul\":2307:2844   */\n      swap4\n      swap3\n      pop\n      pop\n      pop\n      jump\t// out\n        /* \"#utility.yul\":2850:3243   */\n    tag_15:\n        /* \"#utility.yul\":3003:3007   */\n      0x00\n        /* \"#utility.yul\":3041:3043   */\n      0x20\n        /* \"#utility.yul\":3030:3039   */\n      dup3\n        /* \"#utility.yul\":3026:3044   */\n      add\n        /* \"#utility.yul\":3018:3044   */\n      swap1\n      pop\n        /* \"#utility.yul\":3090:3099   */\n      dup2\n        /* \"#utility.yul\":3084:3088   */\n      dup2\n        /* \"#utility.yul\":3080:3100   */\n      sub\n        /* \"#utility.yul\":3076:3077   */\n      0x00\n        /* \"#utility.yul\":3065:3074   */\n      dup4\n        /* \"#utility.yul\":3061:3078   */\n      add\n        /* \"#utility.yul\":3054:3101   */\n      mstore\n        /* \"#utility.yul\":3118:3236   */\n      tag_73\n        /* \"#utility.yul\":3231:3235   */\n      dup2\n        /* \"#utility.yul\":3222:3228   */\n      dup5\n        /* \"#utility.yul\":3214:3220   */\n      dup7\n        /* \"#utility.yul\":3118:3236   */\n      tag_43\n      jump\t// in\n    tag_73:\n        /* \"#utility.yul\":3110:3236   */\n      swap1\n      pop\n        /* \"#utility.yul\":2850:3243   */\n      swap4\n      swap3\n      pop\n      pop\n      pop\n      jump\t// out\n        /* \"#utility.yul\":3249:3429   */\n    tag_21:\n        /* \"#utility.yul\":3297:3374   */\n      0x4e487b7100000000000000000000000000000000000000000000000000000000\n        /* \"#utility.yul\":3294:3295   */\n      0x00\n        /* \"#utility.yul\":3287:3375   */\n      mstore\n        /* \"#utility.yul\":3394:3398   */\n      0x32\n        /* \"#utility.yul\":3391:3392   */\n      0x04\n        /* \"#utility.yul\":3384:3399   */\n      mstore\n        /* \"#utility.yul\":3418:3422   */\n      0x24\n        /* \"#utility.yul\":3415:3416   */\n      0x00\n        /* \"#utility.yul\":3408:3423   */\n      revert\n\n    auxdata: 0xa2646970667358221220e67af07f9885e182098da6a8acf3b169142dd51108b8612d33731e115b969a5f64736f6c63430008190033\n}\n",
				"bytecode": {
					"linkReferences": {},
					"object": "60806040526040518060600160405280600160ff168152602001600260ff168152602001600360ff168152505f90600360389291906048565b503480156043575f80fd5b5060ac565b828054828255905f5260205f209081019282156084579160200282015b828111156083578251829060ff169055916020019190600101906065565b5b509050608f91906093565b5090565b5b8082111560a8575f815f9055506001016094565b5090565b610378806100b95f395ff3fe608060405234801561000f575f80fd5b506004361061003f575f3560e01c806320028990146100435780636a8d1e081461004d5780639b1a379c14610057575b5f80fd5b61004b610088565b005b610055610193565b005b610071600480360381019061006c9190610230565b6101b8565b60405161007f9291906102f3565b60405180910390f35b5f808054806020026020016040519081016040528092919081815260200182805480156100d257602002820191905f5260205f20905b8154815260200190600101908083116100be575b5050505050905060c8815f815181106100ee576100ed610315565b5b60200260200101818152505060c9816001815181106101105761010f610315565b5b6020026020010181815250505f8080548060200260200160405190810160405280929190818152602001828054801561016657602002820191905f5260205f20905b815481526020019060010190808311610152575b5050505050905061012f815f8151811061018357610182610315565b5b6020026020010181815250505050565b5f6064815f815481106101a9576101a8610315565b5b905f5260205f20018190555050565b365f8383915091509250929050565b5f80fd5b5f80fd5b5f80fd5b5f80fd5b5f80fd5b5f8083601f8401126101f0576101ef6101cf565b5b8235905067ffffffffffffffff81111561020d5761020c6101d3565b5b602083019150836020820283011115610229576102286101d7565b5b9250929050565b5f8060208385031215610246576102456101c7565b5b5f83013567ffffffffffffffff811115610263576102626101cb565b5b61026f858286016101db565b92509250509250929050565b5f82825260208201905092915050565b5f80fd5b82818337505050565b5f6102a3838561027b565b93507f07ffffffffffffffffffffffffffffffffffffffffffffffffffffffffffffff8311156102d6576102d561028b565b5b6020830292506102e783858461028f565b82840190509392505050565b5f6020820190508181035f83015261030c818486610298565b90509392505050565b7f4e487b71000000000000000000000000000000000000000000000000000000005f52603260045260245ffdfea2646970667358221220e67af07f9885e182098da6a8acf3b169142dd51108b8612d33731e115b969a5f64736f6c63430008190033",
					"opcodes": "PUSH1 0x80 PUSH1 0x40 MSTORE PUSH1 0x40 MLOAD DUP1 PUSH1 0x60 ADD PUSH1 0x40 MSTORE DUP1 PUSH1 0x1 PUSH1 0xFF AND DUP2 MSTORE PUSH1 0x20 ADD PUSH1 0x2 PUSH1 0xFF AND DUP2 MSTORE PUSH1 0x20 ADD PUSH1 0x3 PUSH1 0xFF AND DUP2 MSTORE POP PUSH0 SWAP1 PUSH1 0x3 PUSH1 0x38 SWAP3 SWAP2 SWAP1 PUSH1 0x48 JUMP JUMPDEST POP CALLVALUE DUP1 ISZERO PUSH1 0x43 JUMPI PUSH0 DUP1 REVERT JUMPDEST POP PUSH1 0xAC JUMP JUMPDEST DUP3 DUP1 SLOAD DUP3 DUP3 SSTORE SWAP1 PUSH0 MSTORE PUSH1 0x20 PUSH0 KECCAK256 SWAP1 DUP2 ADD SWAP3 DUP3 ISZERO PUSH1 0x84 JUMPI SWAP2 PUSH1 0x20 MUL DUP3 ADD JUMPDEST DUP3 DUP2 GT ISZERO PUSH1 0x83 JUMPI DUP3 MLOAD DUP3 SWAP1 PUSH1 0xFF AND SWAP1 SSTORE SWAP2 PUSH1 0x20 ADD SWAP2 SWAP1 PUSH1 0x1 ADD SWAP1 PUSH1 0x65 JUMP JUMPDEST JUMPDEST POP SWAP1 POP PUSH1 0x8F SWAP2 SWAP1 PUSH1 0x93 JUMP JUMPDEST POP SWAP1 JUMP JUMPDEST JUMPDEST DUP1 DUP3 GT ISZERO PUSH1 0xA8 JUMPI PUSH0 DUP2 PUSH0 SWAP1 SSTORE POP PUSH1 0x1 ADD PUSH1 0x94 JUMP JUMPDEST POP SWAP1 JUMP JUMPDEST PUSH2 0x378 DUP1 PUSH2 0xB9 PUSH0 CODECOPY PUSH0 RETURN INVALID PUSH1 0x80 PUSH1 0x40 MSTORE CALLVALUE DUP1 ISZERO PUSH2 0xF JUMPI PUSH0 DUP1 REVERT JUMPDEST POP PUSH1 0x4 CALLDATASIZE LT PUSH2 0x3F JUMPI PUSH0 CALLDATALOAD PUSH1 0xE0 SHR DUP1 PUSH4 0x20028990 EQ PUSH2 0x43 JUMPI DUP1 PUSH4 0x6A8D1E08 EQ PUSH2 0x4D JUMPI DUP1 PUSH4 0x9B1A379C EQ PUSH2 0x57 JUMPI JUMPDEST PUSH0 DUP1 REVERT JUMPDEST PUSH2 0x4B PUSH2 0x88 JUMP JUMPDEST STOP JUMPDEST PUSH2 0x55 PUSH2 0x193 JUMP JUMPDEST STOP JUMPDEST PUSH2 0x71 PUSH1 0x4 DUP1 CALLDATASIZE SUB DUP2 ADD SWAP1 PUSH2 0x6C SWAP2 SWAP1 PUSH2 0x230 JUMP JUMPDEST PUSH2 0x1B8 JUMP JUMPDEST PUSH1 0x40 MLOAD PUSH2 0x7F SWAP3 SWAP2 SWAP1 PUSH2 0x2F3 JUMP JUMPDEST PUSH1 0x40 MLOAD DUP1 SWAP2 SUB SWAP1 RETURN JUMPDEST PUSH0 DUP1 DUP1 SLOAD DUP1 PUSH1 0x20 MUL PUSH1 0x20 ADD PUSH1 0x40 MLOAD SWAP1 DUP2 ADD PUSH1 0x40 MSTORE DUP1 SWAP3 SWAP2 SWAP1 DUP2 DUP2 MSTORE PUSH1 0x20 ADD DUP3 DUP1 SLOAD DUP1 ISZERO PUSH2 0xD2 JUMPI PUSH1 0x20 MUL DUP3 ADD SWAP2 SWAP1 PUSH0 MSTORE PUSH1 0x20 PUSH0 KECCAK256 SWAP1 JUMPDEST DUP2 SLOAD DUP2 MSTORE PUSH1 0x20 ADD SWAP1 PUSH1 0x1 ADD SWAP1 DUP1 DUP4 GT PUSH2 0xBE JUMPI JUMPDEST POP POP POP POP POP SWAP1 POP PUSH1 0xC8 DUP2 PUSH0 DUP2 MLOAD DUP2 LT PUSH2 0xEE JUMPI PUSH2 0xED PUSH2 0x315 JUMP JUMPDEST JUMPDEST PUSH1 0x20 MUL PUSH1 0x20 ADD ADD DUP2 DUP2 MSTORE POP POP PUSH1 0xC9 DUP2 PUSH1 0x1 DUP2 MLOAD DUP2 LT PUSH2 0x110 JUMPI PUSH2 0x10F PUSH2 0x315 JUMP JUMPDEST JUMPDEST PUSH1 0x20 MUL PUSH1 0x20 ADD ADD DUP2 DUP2 MSTORE POP POP PUSH0 DUP1 DUP1 SLOAD DUP1 PUSH1 0x20 MUL PUSH1 0x20 ADD PUSH1 0x40 MLOAD SWAP1 DUP2 ADD PUSH1 0x40 MSTORE DUP1 SWAP3 SWAP2 SWAP1 DUP2 DUP2 MSTORE PUSH1 0x20 ADD DUP3 DUP1 SLOAD DUP1 ISZERO PUSH2 0x166 JUMPI PUSH1 0x20 MUL DUP3 ADD SWAP2 SWAP1 PUSH0 MSTORE PUSH1 0x20 PUSH0 KECCAK256 SWAP1 JUMPDEST DUP2 SLOAD DUP2 MSTORE PUSH1 0x20 ADD SWAP1 PUSH1 0x1 ADD SWAP1 DUP1 DUP4 GT PUSH2 0x152 JUMPI JUMPDEST POP POP POP POP POP SWAP1 POP PUSH2 0x12F DUP2 PUSH0 DUP2 MLOAD DUP2 LT PUSH2 0x183 JUMPI PUSH2 0x182 PUSH2 0x315 JUMP JUMPDEST JUMPDEST PUSH1 0x20 MUL PUSH1 0x20 ADD ADD DUP2 DUP2 MSTORE POP POP POP POP JUMP JUMPDEST PUSH0 PUSH1 0x64 DUP2 PUSH0 DUP2 SLOAD DUP2 LT PUSH2 0x1A9 JUMPI PUSH2 0x1A8 PUSH2 0x315 JUMP JUMPDEST JUMPDEST SWAP1 PUSH0 MSTORE PUSH1 0x20 PUSH0 KECCAK256 ADD DUP2 SWAP1 SSTORE POP POP JUMP JUMPDEST CALLDATASIZE PUSH0 DUP4 DUP4 SWAP2 POP SWAP2 POP SWAP3 POP SWAP3 SWAP1 POP JUMP JUMPDEST PUSH0 DUP1 REVERT JUMPDEST PUSH0 DUP1 REVERT JUMPDEST PUSH0 DUP1 REVERT JUMPDEST PUSH0 DUP1 REVERT JUMPDEST PUSH0 DUP1 REVERT JUMPDEST PUSH0 DUP1 DUP4 PUSH1 0x1F DUP5 ADD SLT PUSH2 0x1F0 JUMPI PUSH2 0x1EF PUSH2 0x1CF JUMP JUMPDEST JUMPDEST DUP3 CALLDATALOAD SWAP1 POP PUSH8 0xFFFFFFFFFFFFFFFF DUP2 GT ISZERO PUSH2 0x20D JUMPI PUSH2 0x20C PUSH2 0x1D3 JUMP JUMPDEST JUMPDEST PUSH1 0x20 DUP4 ADD SWAP2 POP DUP4 PUSH1 0x20 DUP3 MUL DUP4 ADD GT ISZERO PUSH2 0x229 JUMPI PUSH2 0x228 PUSH2 0x1D7 JUMP JUMPDEST JUMPDEST SWAP3 POP SWAP3 SWAP1 POP JUMP JUMPDEST PUSH0 DUP1 PUSH1 0x20 DUP4 DUP6 SUB SLT ISZERO PUSH2 0x246 JUMPI PUSH2 0x245 PUSH2 0x1C7 JUMP JUMPDEST JUMPDEST PUSH0 DUP4 ADD CALLDATALOAD PUSH8 0xFFFFFFFFFFFFFFFF DUP2 GT ISZERO PUSH2 0x263 JUMPI PUSH2 0x262 PUSH2 0x1CB JUMP JUMPDEST JUMPDEST PUSH2 0x26F DUP6 DUP3 DUP7 ADD PUSH2 0x1DB JUMP JUMPDEST SWAP3 POP SWAP3 POP POP SWAP3 POP SWAP3 SWAP1 POP JUMP JUMPDEST PUSH0 DUP3 DUP3 MSTORE PUSH1 0x20 DUP3 ADD SWAP1 POP SWAP3 SWAP2 POP POP JUMP JUMPDEST PUSH0 DUP1 REVERT JUMPDEST DUP3 DUP2 DUP4 CALLDATACOPY POP POP POP JUMP JUMPDEST PUSH0 PUSH2 0x2A3 DUP4 DUP6 PUSH2 0x27B JUMP JUMPDEST SWAP4 POP PUSH32 0x7FFFFFFFFFFFFFFFFFFFFFFFFFFFFFFFFFFFFFFFFFFFFFFFFFFFFFFFFFFFFFF DUP4 GT ISZERO PUSH2 0x2D6 JUMPI PUSH2 0x2D5 PUSH2 0x28B JUMP JUMPDEST JUMPDEST PUSH1 0x20 DUP4 MUL SWAP3 POP PUSH2 0x2E7 DUP4 DUP6 DUP5 PUSH2 0x28F JUMP JUMPDEST DUP3 DUP5 ADD SWAP1 POP SWAP4 SWAP3 POP POP POP JUMP JUMPDEST PUSH0 PUSH1 0x20 DUP3 ADD SWAP1 POP DUP2 DUP2 SUB PUSH0 DUP4 ADD MSTORE PUSH2 0x30C DUP2 DUP5 DUP7 PUSH2 0x298 JUMP JUMPDEST SWAP1 POP SWAP4 SWAP3 POP POP POP JUMP JUMPDEST PUSH32 0x4E487B7100000000000000000000000000000000000000000000000000000000 PUSH0 MSTORE PUSH1 0x32 PUSH1 0x4 MSTORE PUSH1 0x24 PUSH0 REVERT INVALID LOG2 PUSH5 0x6970667358 0x22 SLT KECCAK256 0xE6 PUSH27 0xF07F9885E182098DA6A8ACF3B169142DD51108B8612D33731E115B SWAP7 SWAP11 PUSH0 PUSH5 0x736F6C6343 STOP ADDMOD NOT STOP CALLER "
				},
				"gasEstimates": {
					"creation": {
						"codeDepositCost": "177600",
						"executionCost": "infinite",
						"totalCost": "infinite"
					},
					"external": {
						"fCalldata(uint256[])": "infinite",
						"fMemory()": "infinite",
						"fStorage()": "24438"
					}
				},
				"methodIdentifiers": {
					"fCalldata(uint256[])": "9b1a379c",
					"fMemory()": "20028990",
					"fStorage()": "6a8d1e08"
				}
			},
			"storageLayout": {
				"storage": [
					{
						"astId": 8,
						"contract": "SolidityProjects/contracts/SolidityGrammers/5-VariableDataStorage(变量数据存储).sol:DataStorage",
						"label": "x",
						"offset": 0,
						"slot": "0",
						"type": "t_array(t_uint256)dyn_storage"
					}
				],
				"types": {
					"t_array(t_uint256)dyn_storage": {
						"base": "t_uint256",
						"encoding": "dynamic_array",
						"label": "uint256[]",
						"numberOfBytes": "32"
					},
					"t_uint256": {
						"encoding": "inplace",
						"label": "uint256",
						"numberOfBytes": "32"
					}
				}
			},
			"userdoc": {
				"kind": "user",
				"methods": {},
				"version": 1
			}
		}
	}
}