{
	"SolidityProjects/contracts/Study/6-VariableScope.sol": {
		"Variables": {
			"abi": [
				{
					"inputs": [],
					"name": "bar",
					"outputs": [
						{
							"internalType": "uint256",
							"name": "",
							"type": "uint256"
						}
					],
					"stateMutability": "pure",
					"type": "function"
				},
				{
					"inputs": [],
					"name": "foo",
					"outputs": [],
					"stateMutability": "nonpayable",
					"type": "function"
				},
				{
					"inputs": [],
					"name": "global",
					"outputs": [
						{
							"internalType": "address",
							"name": "",
							"type": "address"
						},
						{
							"internalType": "uint256",
							"name": "",
							"type": "uint256"
						},
						{
							"internalType": "uint256",
							"name": "",
							"type": "uint256"
						},
						{
							"internalType": "bytes",
							"name": "",
							"type": "bytes"
						}
					],
					"stateMutability": "view",
					"type": "function"
				},
				{
					"inputs": [],
					"name": "x",
					"outputs": [
						{
							"internalType": "uint256",
							"name": "",
							"type": "uint256"
						}
					],
					"stateMutability": "view",
					"type": "function"
				},
				{
					"inputs": [],
					"name": "y",
					"outputs": [
						{
							"internalType": "uint256",
							"name": "",
							"type": "uint256"
						}
					],
					"stateMutability": "view",
					"type": "function"
				},
				{
					"inputs": [],
					"name": "z",
					"outputs": [
						{
							"internalType": "string",
							"name": "",
							"type": "string"
						}
					],
					"stateMutability": "view",
					"type": "function"
				}
			],
			"devdoc": {
				"kind": "dev",
				"methods": {},
				"version": 1
			},
			"evm": {
				"assembly": "    /* \"SolidityProjects/contracts/Study/6-VariableScope.sol\":224:1480  contract Variables {... */\n  mstore(0x40, 0x80)\n    /* \"SolidityProjects/contracts/Study/6-VariableScope.sol\":450:451  1 */\n  0x01\n    /* \"SolidityProjects/contracts/Study/6-VariableScope.sol\":434:451  uint public x = 1 */\n  0x00\n  sstore\n    /* \"SolidityProjects/contracts/Study/6-VariableScope.sol\":224:1480  contract Variables {... */\n  callvalue\n  dup1\n  iszero\n  tag_1\n  jumpi\n  0x00\n  dup1\n  revert\ntag_1:\n  pop\n  dataSize(sub_0)\n  dup1\n  dataOffset(sub_0)\n  0x00\n  codecopy\n  0x00\n  return\nstop\n\nsub_0: assembly {\n        /* \"SolidityProjects/contracts/Study/6-VariableScope.sol\":224:1480  contract Variables {... */\n      mstore(0x40, 0x80)\n      callvalue\n      dup1\n      iszero\n      tag_1\n      jumpi\n      0x00\n      dup1\n      revert\n    tag_1:\n      pop\n      jumpi(tag_2, lt(calldatasize, 0x04))\n      shr(0xe0, calldataload(0x00))\n      dup1\n      0x0c55699c\n      eq\n      tag_3\n      jumpi\n      dup1\n      0xa05f9906\n      eq\n      tag_4\n      jumpi\n      dup1\n      0xa56dfe4a\n      eq\n      tag_5\n      jumpi\n      dup1\n      0xc2985578\n      eq\n      tag_6\n      jumpi\n      dup1\n      0xc5d7802e\n      eq\n      tag_7\n      jumpi\n      dup1\n      0xfebb0f7e\n      eq\n      tag_8\n      jumpi\n    tag_2:\n      0x00\n      dup1\n      revert\n        /* \"SolidityProjects/contracts/Study/6-VariableScope.sol\":434:451  uint public x = 1 */\n    tag_3:\n      tag_9\n      tag_10\n      jump\t// in\n    tag_9:\n      mload(0x40)\n      tag_11\n      swap2\n      swap1\n      tag_12\n      jump\t// in\n    tag_11:\n      mload(0x40)\n      dup1\n      swap2\n      sub\n      swap1\n      return\n        /* \"SolidityProjects/contracts/Study/6-VariableScope.sol\":1181:1475  function global() external view returns(address,uint,uint,bytes memory){... */\n    tag_4:\n      tag_13\n      tag_14\n      jump\t// in\n    tag_13:\n      mload(0x40)\n      tag_15\n      swap5\n      swap4\n      swap3\n      swap2\n      swap1\n      tag_16\n      jump\t// in\n    tag_15:\n      mload(0x40)\n      dup1\n      swap2\n      sub\n      swap1\n      return\n        /* \"SolidityProjects/contracts/Study/6-VariableScope.sol\":458:471  uint public y */\n    tag_5:\n      tag_17\n      tag_18\n      jump\t// in\n    tag_17:\n      mload(0x40)\n      tag_19\n      swap2\n      swap1\n      tag_12\n      jump\t// in\n    tag_19:\n      mload(0x40)\n      dup1\n      swap2\n      sub\n      swap1\n      return\n        /* \"SolidityProjects/contracts/Study/6-VariableScope.sol\":502:643  function foo() external {... */\n    tag_6:\n      tag_20\n      tag_21\n      jump\t// in\n    tag_20:\n      stop\n        /* \"SolidityProjects/contracts/Study/6-VariableScope.sol\":478:493  string public z */\n    tag_7:\n      tag_22\n      tag_23\n      jump\t// in\n    tag_22:\n      mload(0x40)\n      tag_24\n      swap2\n      swap1\n      tag_25\n      jump\t// in\n    tag_24:\n      mload(0x40)\n      dup1\n      swap2\n      sub\n      swap1\n      return\n        /* \"SolidityProjects/contracts/Study/6-VariableScope.sol\":874:1013  function bar() external pure returns(uint) {... */\n    tag_8:\n      tag_26\n      tag_27\n      jump\t// in\n    tag_26:\n      mload(0x40)\n      tag_28\n      swap2\n      swap1\n      tag_12\n      jump\t// in\n    tag_28:\n      mload(0x40)\n      dup1\n      swap2\n      sub\n      swap1\n      return\n        /* \"SolidityProjects/contracts/Study/6-VariableScope.sol\":434:451  uint public x = 1 */\n    tag_10:\n      sload(0x00)\n      dup2\n      jump\t// out\n        /* \"SolidityProjects/contracts/Study/6-VariableScope.sol\":1181:1475  function global() external view returns(address,uint,uint,bytes memory){... */\n    tag_14:\n        /* \"SolidityProjects/contracts/Study/6-VariableScope.sol\":1221:1228  address */\n      0x00\n        /* \"SolidityProjects/contracts/Study/6-VariableScope.sol\":1229:1233  uint */\n      dup1\n        /* \"SolidityProjects/contracts/Study/6-VariableScope.sol\":1234:1238  uint */\n      0x00\n        /* \"SolidityProjects/contracts/Study/6-VariableScope.sol\":1239:1251  bytes memory */\n      0x60\n        /* \"SolidityProjects/contracts/Study/6-VariableScope.sol\":1263:1277  address sender */\n      0x00\n        /* \"SolidityProjects/contracts/Study/6-VariableScope.sol\":1280:1290  msg.sender */\n      caller\n        /* \"SolidityProjects/contracts/Study/6-VariableScope.sol\":1263:1290  address sender = msg.sender */\n      swap1\n      pop\n        /* \"SolidityProjects/contracts/Study/6-VariableScope.sol\":1301:1317  uint blockNumber */\n      0x00\n        /* \"SolidityProjects/contracts/Study/6-VariableScope.sol\":1320:1332  block.number */\n      number\n        /* \"SolidityProjects/contracts/Study/6-VariableScope.sol\":1301:1332  uint blockNumber = block.number */\n      swap1\n      pop\n        /* \"SolidityProjects/contracts/Study/6-VariableScope.sol\":1343:1357  uint timestamp */\n      0x00\n        /* \"SolidityProjects/contracts/Study/6-VariableScope.sol\":1360:1375  block.timestamp */\n      timestamp\n        /* \"SolidityProjects/contracts/Study/6-VariableScope.sol\":1343:1375  uint timestamp = block.timestamp */\n      swap1\n      pop\n        /* \"SolidityProjects/contracts/Study/6-VariableScope.sol\":1386:1403  bytes memory data */\n      0x00\n        /* \"SolidityProjects/contracts/Study/6-VariableScope.sol\":1406:1414  msg.data */\n      dup1\n      calldatasize\n        /* \"SolidityProjects/contracts/Study/6-VariableScope.sol\":1386:1414  bytes memory data = msg.data */\n      dup1\n      dup1\n      0x1f\n      add\n      0x20\n      dup1\n      swap2\n      div\n      mul\n      0x20\n      add\n      mload(0x40)\n      swap1\n      dup2\n      add\n      0x40\n      mstore\n      dup1\n      swap4\n      swap3\n      swap2\n      swap1\n      dup2\n      dup2\n      mstore\n      0x20\n      add\n      dup4\n      dup4\n      dup1\n      dup3\n      dup5\n      calldatacopy\n      0x00\n      dup2\n      dup5\n      add\n      mstore\n      not(0x1f)\n      0x1f\n      dup3\n      add\n      and\n      swap1\n      pop\n      dup1\n      dup4\n      add\n      swap3\n      pop\n      pop\n      pop\n      pop\n      pop\n      pop\n      pop\n      swap1\n      pop\n        /* \"SolidityProjects/contracts/Study/6-VariableScope.sol\":1433:1439  sender */\n      dup4\n        /* \"SolidityProjects/contracts/Study/6-VariableScope.sol\":1440:1451  blockNumber */\n      dup4\n        /* \"SolidityProjects/contracts/Study/6-VariableScope.sol\":1452:1461  timestamp */\n      dup4\n        /* \"SolidityProjects/contracts/Study/6-VariableScope.sol\":1462:1466  data */\n      dup4\n        /* \"SolidityProjects/contracts/Study/6-VariableScope.sol\":1425:1467  return (sender,blockNumber,timestamp,data) */\n      swap8\n      pop\n      swap8\n      pop\n      swap8\n      pop\n      swap8\n      pop\n      pop\n      pop\n      pop\n      pop\n        /* \"SolidityProjects/contracts/Study/6-VariableScope.sol\":1181:1475  function global() external view returns(address,uint,uint,bytes memory){... */\n      swap1\n      swap2\n      swap3\n      swap4\n      jump\t// out\n        /* \"SolidityProjects/contracts/Study/6-VariableScope.sol\":458:471  uint public y */\n    tag_18:\n      sload(0x01)\n      dup2\n      jump\t// out\n        /* \"SolidityProjects/contracts/Study/6-VariableScope.sol\":502:643  function foo() external {... */\n    tag_21:\n        /* \"SolidityProjects/contracts/Study/6-VariableScope.sol\":596:597  2 */\n      0x02\n        /* \"SolidityProjects/contracts/Study/6-VariableScope.sol\":592:593  x */\n      0x00\n        /* \"SolidityProjects/contracts/Study/6-VariableScope.sol\":592:597  x = 2 */\n      dup2\n      swap1\n      sstore\n      pop\n        /* \"SolidityProjects/contracts/Study/6-VariableScope.sol\":612:613  3 */\n      0x03\n        /* \"SolidityProjects/contracts/Study/6-VariableScope.sol\":608:609  y */\n      0x01\n        /* \"SolidityProjects/contracts/Study/6-VariableScope.sol\":608:613  y = 3 */\n      dup2\n      swap1\n      sstore\n      pop\n        /* \"SolidityProjects/contracts/Study/6-VariableScope.sol\":624:635  z = \"hello\" */\n      mload(0x40)\n      dup1\n      0x40\n      add\n      0x40\n      mstore\n      dup1\n      0x05\n      dup2\n      mstore\n      0x20\n      add\n      0x68656c6c6f000000000000000000000000000000000000000000000000000000\n      dup2\n      mstore\n      pop\n        /* \"SolidityProjects/contracts/Study/6-VariableScope.sol\":624:625  z */\n      0x02\n        /* \"SolidityProjects/contracts/Study/6-VariableScope.sol\":624:635  z = \"hello\" */\n      swap1\n      dup2\n      tag_31\n      swap2\n      swap1\n      tag_32\n      jump\t// in\n    tag_31:\n      pop\n        /* \"SolidityProjects/contracts/Study/6-VariableScope.sol\":502:643  function foo() external {... */\n      jump\t// out\n        /* \"SolidityProjects/contracts/Study/6-VariableScope.sol\":478:493  string public z */\n    tag_23:\n      0x02\n      dup1\n      sload\n      tag_33\n      swap1\n      tag_34\n      jump\t// in\n    tag_33:\n      dup1\n      0x1f\n      add\n      0x20\n      dup1\n      swap2\n      div\n      mul\n      0x20\n      add\n      mload(0x40)\n      swap1\n      dup2\n      add\n      0x40\n      mstore\n      dup1\n      swap3\n      swap2\n      swap1\n      dup2\n      dup2\n      mstore\n      0x20\n      add\n      dup3\n      dup1\n      sload\n      tag_35\n      swap1\n      tag_34\n      jump\t// in\n    tag_35:\n      dup1\n      iszero\n      tag_36\n      jumpi\n      dup1\n      0x1f\n      lt\n      tag_37\n      jumpi\n      0x0100\n      dup1\n      dup4\n      sload\n      div\n      mul\n      dup4\n      mstore\n      swap2\n      0x20\n      add\n      swap2\n      jump(tag_36)\n    tag_37:\n      dup3\n      add\n      swap2\n      swap1\n      0x00\n      mstore\n      keccak256(0x00, 0x20)\n      swap1\n    tag_38:\n      dup2\n      sload\n      dup2\n      mstore\n      swap1\n      0x01\n      add\n      swap1\n      0x20\n      add\n      dup1\n      dup4\n      gt\n      tag_38\n      jumpi\n      dup3\n      swap1\n      sub\n      0x1f\n      and\n      dup3\n      add\n      swap2\n    tag_36:\n      pop\n      pop\n      pop\n      pop\n      pop\n      dup2\n      jump\t// out\n        /* \"SolidityProjects/contracts/Study/6-VariableScope.sol\":874:1013  function bar() external pure returns(uint) {... */\n    tag_27:\n        /* \"SolidityProjects/contracts/Study/6-VariableScope.sol\":911:915  uint */\n      0x00\n        /* \"SolidityProjects/contracts/Study/6-VariableScope.sol\":928:934  uint a */\n      dup1\n        /* \"SolidityProjects/contracts/Study/6-VariableScope.sol\":937:938  1 */\n      0x01\n        /* \"SolidityProjects/contracts/Study/6-VariableScope.sol\":928:938  uint a = 1 */\n      swap1\n      pop\n        /* \"SolidityProjects/contracts/Study/6-VariableScope.sol\":949:955  uint b */\n      0x00\n        /* \"SolidityProjects/contracts/Study/6-VariableScope.sol\":958:959  2 */\n      0x02\n        /* \"SolidityProjects/contracts/Study/6-VariableScope.sol\":949:959  uint b = 2 */\n      swap1\n      pop\n        /* \"SolidityProjects/contracts/Study/6-VariableScope.sol\":970:976  uint c */\n      0x00\n        /* \"SolidityProjects/contracts/Study/6-VariableScope.sol\":983:984  b */\n      dup2\n        /* \"SolidityProjects/contracts/Study/6-VariableScope.sol\":979:980  a */\n      dup4\n        /* \"SolidityProjects/contracts/Study/6-VariableScope.sol\":979:984  a + b */\n      tag_40\n      swap2\n      swap1\n      tag_41\n      jump\t// in\n    tag_40:\n        /* \"SolidityProjects/contracts/Study/6-VariableScope.sol\":970:984  uint c = a + b */\n      swap1\n      pop\n        /* \"SolidityProjects/contracts/Study/6-VariableScope.sol\":1003:1004  c */\n      dup1\n        /* \"SolidityProjects/contracts/Study/6-VariableScope.sol\":995:1005  return (c) */\n      swap4\n      pop\n      pop\n      pop\n      pop\n        /* \"SolidityProjects/contracts/Study/6-VariableScope.sol\":874:1013  function bar() external pure returns(uint) {... */\n      swap1\n      jump\t// out\n        /* \"#utility.yul\":7:84   */\n    tag_42:\n        /* \"#utility.yul\":44:51   */\n      0x00\n        /* \"#utility.yul\":73:78   */\n      dup2\n        /* \"#utility.yul\":62:78   */\n      swap1\n      pop\n        /* \"#utility.yul\":7:84   */\n      swap2\n      swap1\n      pop\n      jump\t// out\n        /* \"#utility.yul\":90:208   */\n    tag_43:\n        /* \"#utility.yul\":177:201   */\n      tag_76\n        /* \"#utility.yul\":195:200   */\n      dup2\n        /* \"#utility.yul\":177:201   */\n      tag_42\n      jump\t// in\n    tag_76:\n        /* \"#utility.yul\":172:175   */\n      dup3\n        /* \"#utility.yul\":165:202   */\n      mstore\n        /* \"#utility.yul\":90:208   */\n      pop\n      pop\n      jump\t// out\n        /* \"#utility.yul\":214:436   */\n    tag_12:\n        /* \"#utility.yul\":307:311   */\n      0x00\n        /* \"#utility.yul\":345:347   */\n      0x20\n        /* \"#utility.yul\":334:343   */\n      dup3\n        /* \"#utility.yul\":330:348   */\n      add\n        /* \"#utility.yul\":322:348   */\n      swap1\n      pop\n        /* \"#utility.yul\":358:429   */\n      tag_78\n        /* \"#utility.yul\":426:427   */\n      0x00\n        /* \"#utility.yul\":415:424   */\n      dup4\n        /* \"#utility.yul\":411:428   */\n      add\n        /* \"#utility.yul\":402:408   */\n      dup5\n        /* \"#utility.yul\":358:429   */\n      tag_43\n      jump\t// in\n    tag_78:\n        /* \"#utility.yul\":214:436   */\n      swap3\n      swap2\n      pop\n      pop\n      jump\t// out\n        /* \"#utility.yul\":442:568   */\n    tag_44:\n        /* \"#utility.yul\":479:486   */\n      0x00\n        /* \"#utility.yul\":519:561   */\n      0xffffffffffffffffffffffffffffffffffffffff\n        /* \"#utility.yul\":512:517   */\n      dup3\n        /* \"#utility.yul\":508:562   */\n      and\n        /* \"#utility.yul\":497:562   */\n      swap1\n      pop\n        /* \"#utility.yul\":442:568   */\n      swap2\n      swap1\n      pop\n      jump\t// out\n        /* \"#utility.yul\":574:670   */\n    tag_45:\n        /* \"#utility.yul\":611:618   */\n      0x00\n        /* \"#utility.yul\":640:664   */\n      tag_81\n        /* \"#utility.yul\":658:663   */\n      dup3\n        /* \"#utility.yul\":640:664   */\n      tag_44\n      jump\t// in\n    tag_81:\n        /* \"#utility.yul\":629:664   */\n      swap1\n      pop\n        /* \"#utility.yul\":574:670   */\n      swap2\n      swap1\n      pop\n      jump\t// out\n        /* \"#utility.yul\":676:794   */\n    tag_46:\n        /* \"#utility.yul\":763:787   */\n      tag_83\n        /* \"#utility.yul\":781:786   */\n      dup2\n        /* \"#utility.yul\":763:787   */\n      tag_45\n      jump\t// in\n    tag_83:\n        /* \"#utility.yul\":758:761   */\n      dup3\n        /* \"#utility.yul\":751:788   */\n      mstore\n        /* \"#utility.yul\":676:794   */\n      pop\n      pop\n      jump\t// out\n        /* \"#utility.yul\":800:898   */\n    tag_47:\n        /* \"#utility.yul\":851:857   */\n      0x00\n        /* \"#utility.yul\":885:890   */\n      dup2\n        /* \"#utility.yul\":879:891   */\n      mload\n        /* \"#utility.yul\":869:891   */\n      swap1\n      pop\n        /* \"#utility.yul\":800:898   */\n      swap2\n      swap1\n      pop\n      jump\t// out\n        /* \"#utility.yul\":904:1072   */\n    tag_48:\n        /* \"#utility.yul\":987:998   */\n      0x00\n        /* \"#utility.yul\":1021:1027   */\n      dup3\n        /* \"#utility.yul\":1016:1019   */\n      dup3\n        /* \"#utility.yul\":1009:1028   */\n      mstore\n        /* \"#utility.yul\":1061:1065   */\n      0x20\n        /* \"#utility.yul\":1056:1059   */\n      dup3\n        /* \"#utility.yul\":1052:1066   */\n      add\n        /* \"#utility.yul\":1037:1066   */\n      swap1\n      pop\n        /* \"#utility.yul\":904:1072   */\n      swap3\n      swap2\n      pop\n      pop\n      jump\t// out\n        /* \"#utility.yul\":1078:1217   */\n    tag_49:\n        /* \"#utility.yul\":1167:1173   */\n      dup3\n        /* \"#utility.yul\":1162:1165   */\n      dup2\n        /* \"#utility.yul\":1157:1160   */\n      dup4\n        /* \"#utility.yul\":1151:1174   */\n      mcopy\n        /* \"#utility.yul\":1208:1209   */\n      0x00\n        /* \"#utility.yul\":1199:1205   */\n      dup4\n        /* \"#utility.yul\":1194:1197   */\n      dup4\n        /* \"#utility.yul\":1190:1206   */\n      add\n        /* \"#utility.yul\":1183:1210   */\n      mstore\n        /* \"#utility.yul\":1078:1217   */\n      pop\n      pop\n      pop\n      jump\t// out\n        /* \"#utility.yul\":1223:1325   */\n    tag_50:\n        /* \"#utility.yul\":1264:1270   */\n      0x00\n        /* \"#utility.yul\":1315:1317   */\n      0x1f\n        /* \"#utility.yul\":1311:1318   */\n      not\n        /* \"#utility.yul\":1306:1308   */\n      0x1f\n        /* \"#utility.yul\":1299:1304   */\n      dup4\n        /* \"#utility.yul\":1295:1309   */\n      add\n        /* \"#utility.yul\":1291:1319   */\n      and\n        /* \"#utility.yul\":1281:1319   */\n      swap1\n      pop\n        /* \"#utility.yul\":1223:1325   */\n      swap2\n      swap1\n      pop\n      jump\t// out\n        /* \"#utility.yul\":1331:1704   */\n    tag_51:\n        /* \"#utility.yul\":1417:1420   */\n      0x00\n        /* \"#utility.yul\":1445:1483   */\n      tag_89\n        /* \"#utility.yul\":1477:1482   */\n      dup3\n        /* \"#utility.yul\":1445:1483   */\n      tag_47\n      jump\t// in\n    tag_89:\n        /* \"#utility.yul\":1499:1569   */\n      tag_90\n        /* \"#utility.yul\":1562:1568   */\n      dup2\n        /* \"#utility.yul\":1557:1560   */\n      dup6\n        /* \"#utility.yul\":1499:1569   */\n      tag_48\n      jump\t// in\n    tag_90:\n        /* \"#utility.yul\":1492:1569   */\n      swap4\n      pop\n        /* \"#utility.yul\":1578:1643   */\n      tag_91\n        /* \"#utility.yul\":1636:1642   */\n      dup2\n        /* \"#utility.yul\":1631:1634   */\n      dup6\n        /* \"#utility.yul\":1624:1628   */\n      0x20\n        /* \"#utility.yul\":1617:1622   */\n      dup7\n        /* \"#utility.yul\":1613:1629   */\n      add\n        /* \"#utility.yul\":1578:1643   */\n      tag_49\n      jump\t// in\n    tag_91:\n        /* \"#utility.yul\":1668:1697   */\n      tag_92\n        /* \"#utility.yul\":1690:1696   */\n      dup2\n        /* \"#utility.yul\":1668:1697   */\n      tag_50\n      jump\t// in\n    tag_92:\n        /* \"#utility.yul\":1663:1666   */\n      dup5\n        /* \"#utility.yul\":1659:1698   */\n      add\n        /* \"#utility.yul\":1652:1698   */\n      swap2\n      pop\n        /* \"#utility.yul\":1421:1704   */\n      pop\n        /* \"#utility.yul\":1331:1704   */\n      swap3\n      swap2\n      pop\n      pop\n      jump\t// out\n        /* \"#utility.yul\":1710:2350   */\n    tag_16:\n        /* \"#utility.yul\":1905:1909   */\n      0x00\n        /* \"#utility.yul\":1943:1946   */\n      0x80\n        /* \"#utility.yul\":1932:1941   */\n      dup3\n        /* \"#utility.yul\":1928:1947   */\n      add\n        /* \"#utility.yul\":1920:1947   */\n      swap1\n      pop\n        /* \"#utility.yul\":1957:2028   */\n      tag_94\n        /* \"#utility.yul\":2025:2026   */\n      0x00\n        /* \"#utility.yul\":2014:2023   */\n      dup4\n        /* \"#utility.yul\":2010:2027   */\n      add\n        /* \"#utility.yul\":2001:2007   */\n      dup8\n        /* \"#utility.yul\":1957:2028   */\n      tag_46\n      jump\t// in\n    tag_94:\n        /* \"#utility.yul\":2038:2110   */\n      tag_95\n        /* \"#utility.yul\":2106:2108   */\n      0x20\n        /* \"#utility.yul\":2095:2104   */\n      dup4\n        /* \"#utility.yul\":2091:2109   */\n      add\n        /* \"#utility.yul\":2082:2088   */\n      dup7\n        /* \"#utility.yul\":2038:2110   */\n      tag_43\n      jump\t// in\n    tag_95:\n        /* \"#utility.yul\":2120:2192   */\n      tag_96\n        /* \"#utility.yul\":2188:2190   */\n      0x40\n        /* \"#utility.yul\":2177:2186   */\n      dup4\n        /* \"#utility.yul\":2173:2191   */\n      add\n        /* \"#utility.yul\":2164:2170   */\n      dup6\n        /* \"#utility.yul\":2120:2192   */\n      tag_43\n      jump\t// in\n    tag_96:\n        /* \"#utility.yul\":2239:2248   */\n      dup2\n        /* \"#utility.yul\":2233:2237   */\n      dup2\n        /* \"#utility.yul\":2229:2249   */\n      sub\n        /* \"#utility.yul\":2224:2226   */\n      0x60\n        /* \"#utility.yul\":2213:2222   */\n      dup4\n        /* \"#utility.yul\":2209:2227   */\n      add\n        /* \"#utility.yul\":2202:2250   */\n      mstore\n        /* \"#utility.yul\":2267:2343   */\n      tag_97\n        /* \"#utility.yul\":2338:2342   */\n      dup2\n        /* \"#utility.yul\":2329:2335   */\n      dup5\n        /* \"#utility.yul\":2267:2343   */\n      tag_51\n      jump\t// in\n    tag_97:\n        /* \"#utility.yul\":2259:2343   */\n      swap1\n      pop\n        /* \"#utility.yul\":1710:2350   */\n      swap6\n      swap5\n      pop\n      pop\n      pop\n      pop\n      pop\n      jump\t// out\n        /* \"#utility.yul\":2356:2455   */\n    tag_52:\n        /* \"#utility.yul\":2408:2414   */\n      0x00\n        /* \"#utility.yul\":2442:2447   */\n      dup2\n        /* \"#utility.yul\":2436:2448   */\n      mload\n        /* \"#utility.yul\":2426:2448   */\n      swap1\n      pop\n        /* \"#utility.yul\":2356:2455   */\n      swap2\n      swap1\n      pop\n      jump\t// out\n        /* \"#utility.yul\":2461:2630   */\n    tag_53:\n        /* \"#utility.yul\":2545:2556   */\n      0x00\n        /* \"#utility.yul\":2579:2585   */\n      dup3\n        /* \"#utility.yul\":2574:2577   */\n      dup3\n        /* \"#utility.yul\":2567:2586   */\n      mstore\n        /* \"#utility.yul\":2619:2623   */\n      0x20\n        /* \"#utility.yul\":2614:2617   */\n      dup3\n        /* \"#utility.yul\":2610:2624   */\n      add\n        /* \"#utility.yul\":2595:2624   */\n      swap1\n      pop\n        /* \"#utility.yul\":2461:2630   */\n      swap3\n      swap2\n      pop\n      pop\n      jump\t// out\n        /* \"#utility.yul\":2636:3013   */\n    tag_54:\n        /* \"#utility.yul\":2724:2727   */\n      0x00\n        /* \"#utility.yul\":2752:2791   */\n      tag_101\n        /* \"#utility.yul\":2785:2790   */\n      dup3\n        /* \"#utility.yul\":2752:2791   */\n      tag_52\n      jump\t// in\n    tag_101:\n        /* \"#utility.yul\":2807:2878   */\n      tag_102\n        /* \"#utility.yul\":2871:2877   */\n      dup2\n        /* \"#utility.yul\":2866:2869   */\n      dup6\n        /* \"#utility.yul\":2807:2878   */\n      tag_53\n      jump\t// in\n    tag_102:\n        /* \"#utility.yul\":2800:2878   */\n      swap4\n      pop\n        /* \"#utility.yul\":2887:2952   */\n      tag_103\n        /* \"#utility.yul\":2945:2951   */\n      dup2\n        /* \"#utility.yul\":2940:2943   */\n      dup6\n        /* \"#utility.yul\":2933:2937   */\n      0x20\n        /* \"#utility.yul\":2926:2931   */\n      dup7\n        /* \"#utility.yul\":2922:2938   */\n      add\n        /* \"#utility.yul\":2887:2952   */\n      tag_49\n      jump\t// in\n    tag_103:\n        /* \"#utility.yul\":2977:3006   */\n      tag_104\n        /* \"#utility.yul\":2999:3005   */\n      dup2\n        /* \"#utility.yul\":2977:3006   */\n      tag_50\n      jump\t// in\n    tag_104:\n        /* \"#utility.yul\":2972:2975   */\n      dup5\n        /* \"#utility.yul\":2968:3007   */\n      add\n        /* \"#utility.yul\":2961:3007   */\n      swap2\n      pop\n        /* \"#utility.yul\":2728:3013   */\n      pop\n        /* \"#utility.yul\":2636:3013   */\n      swap3\n      swap2\n      pop\n      pop\n      jump\t// out\n        /* \"#utility.yul\":3019:3332   */\n    tag_25:\n        /* \"#utility.yul\":3132:3136   */\n      0x00\n        /* \"#utility.yul\":3170:3172   */\n      0x20\n        /* \"#utility.yul\":3159:3168   */\n      dup3\n        /* \"#utility.yul\":3155:3173   */\n      add\n        /* \"#utility.yul\":3147:3173   */\n      swap1\n      pop\n        /* \"#utility.yul\":3219:3228   */\n      dup2\n        /* \"#utility.yul\":3213:3217   */\n      dup2\n        /* \"#utility.yul\":3209:3229   */\n      sub\n        /* \"#utility.yul\":3205:3206   */\n      0x00\n        /* \"#utility.yul\":3194:3203   */\n      dup4\n        /* \"#utility.yul\":3190:3207   */\n      add\n        /* \"#utility.yul\":3183:3230   */\n      mstore\n        /* \"#utility.yul\":3247:3325   */\n      tag_106\n        /* \"#utility.yul\":3320:3324   */\n      dup2\n        /* \"#utility.yul\":3311:3317   */\n      dup5\n        /* \"#utility.yul\":3247:3325   */\n      tag_54\n      jump\t// in\n    tag_106:\n        /* \"#utility.yul\":3239:3325   */\n      swap1\n      pop\n        /* \"#utility.yul\":3019:3332   */\n      swap3\n      swap2\n      pop\n      pop\n      jump\t// out\n        /* \"#utility.yul\":3338:3518   */\n    tag_55:\n        /* \"#utility.yul\":3386:3463   */\n      0x4e487b7100000000000000000000000000000000000000000000000000000000\n        /* \"#utility.yul\":3383:3384   */\n      0x00\n        /* \"#utility.yul\":3376:3464   */\n      mstore\n        /* \"#utility.yul\":3483:3487   */\n      0x41\n        /* \"#utility.yul\":3480:3481   */\n      0x04\n        /* \"#utility.yul\":3473:3488   */\n      mstore\n        /* \"#utility.yul\":3507:3511   */\n      0x24\n        /* \"#utility.yul\":3504:3505   */\n      0x00\n        /* \"#utility.yul\":3497:3512   */\n      revert\n        /* \"#utility.yul\":3524:3704   */\n    tag_56:\n        /* \"#utility.yul\":3572:3649   */\n      0x4e487b7100000000000000000000000000000000000000000000000000000000\n        /* \"#utility.yul\":3569:3570   */\n      0x00\n        /* \"#utility.yul\":3562:3650   */\n      mstore\n        /* \"#utility.yul\":3669:3673   */\n      0x22\n        /* \"#utility.yul\":3666:3667   */\n      0x04\n        /* \"#utility.yul\":3659:3674   */\n      mstore\n        /* \"#utility.yul\":3693:3697   */\n      0x24\n        /* \"#utility.yul\":3690:3691   */\n      0x00\n        /* \"#utility.yul\":3683:3698   */\n      revert\n        /* \"#utility.yul\":3710:4030   */\n    tag_34:\n        /* \"#utility.yul\":3754:3760   */\n      0x00\n        /* \"#utility.yul\":3791:3792   */\n      0x02\n        /* \"#utility.yul\":3785:3789   */\n      dup3\n        /* \"#utility.yul\":3781:3793   */\n      div\n        /* \"#utility.yul\":3771:3793   */\n      swap1\n      pop\n        /* \"#utility.yul\":3838:3839   */\n      0x01\n        /* \"#utility.yul\":3832:3836   */\n      dup3\n        /* \"#utility.yul\":3828:3840   */\n      and\n        /* \"#utility.yul\":3859:3877   */\n      dup1\n        /* \"#utility.yul\":3849:3930   */\n      tag_110\n      jumpi\n        /* \"#utility.yul\":3915:3919   */\n      0x7f\n        /* \"#utility.yul\":3907:3913   */\n      dup3\n        /* \"#utility.yul\":3903:3920   */\n      and\n        /* \"#utility.yul\":3893:3920   */\n      swap2\n      pop\n        /* \"#utility.yul\":3849:3930   */\n    tag_110:\n        /* \"#utility.yul\":3977:3979   */\n      0x20\n        /* \"#utility.yul\":3969:3975   */\n      dup3\n        /* \"#utility.yul\":3966:3980   */\n      lt\n        /* \"#utility.yul\":3946:3964   */\n      dup2\n        /* \"#utility.yul\":3943:3981   */\n      sub\n        /* \"#utility.yul\":3940:4024   */\n      tag_111\n      jumpi\n        /* \"#utility.yul\":3996:4014   */\n      tag_112\n      tag_56\n      jump\t// in\n    tag_112:\n        /* \"#utility.yul\":3940:4024   */\n    tag_111:\n        /* \"#utility.yul\":3761:4030   */\n      pop\n        /* \"#utility.yul\":3710:4030   */\n      swap2\n      swap1\n      pop\n      jump\t// out\n        /* \"#utility.yul\":4036:4177   */\n    tag_57:\n        /* \"#utility.yul\":4085:4089   */\n      0x00\n        /* \"#utility.yul\":4108:4111   */\n      dup2\n        /* \"#utility.yul\":4100:4111   */\n      swap1\n      pop\n        /* \"#utility.yul\":4131:4134   */\n      dup2\n        /* \"#utility.yul\":4128:4129   */\n      0x00\n        /* \"#utility.yul\":4121:4135   */\n      mstore\n        /* \"#utility.yul\":4165:4169   */\n      0x20\n        /* \"#utility.yul\":4162:4163   */\n      0x00\n        /* \"#utility.yul\":4152:4170   */\n      keccak256\n        /* \"#utility.yul\":4144:4170   */\n      swap1\n      pop\n        /* \"#utility.yul\":4036:4177   */\n      swap2\n      swap1\n      pop\n      jump\t// out\n        /* \"#utility.yul\":4183:4276   */\n    tag_58:\n        /* \"#utility.yul\":4220:4226   */\n      0x00\n        /* \"#utility.yul\":4267:4269   */\n      0x20\n        /* \"#utility.yul\":4262:4264   */\n      0x1f\n        /* \"#utility.yul\":4255:4260   */\n      dup4\n        /* \"#utility.yul\":4251:4265   */\n      add\n        /* \"#utility.yul\":4247:4270   */\n      div\n        /* \"#utility.yul\":4237:4270   */\n      swap1\n      pop\n        /* \"#utility.yul\":4183:4276   */\n      swap2\n      swap1\n      pop\n      jump\t// out\n        /* \"#utility.yul\":4282:4389   */\n    tag_59:\n        /* \"#utility.yul\":4326:4334   */\n      0x00\n        /* \"#utility.yul\":4376:4381   */\n      dup3\n        /* \"#utility.yul\":4370:4374   */\n      dup3\n        /* \"#utility.yul\":4366:4382   */\n      shl\n        /* \"#utility.yul\":4345:4382   */\n      swap1\n      pop\n        /* \"#utility.yul\":4282:4389   */\n      swap3\n      swap2\n      pop\n      pop\n      jump\t// out\n        /* \"#utility.yul\":4395:4788   */\n    tag_60:\n        /* \"#utility.yul\":4464:4470   */\n      0x00\n        /* \"#utility.yul\":4514:4515   */\n      0x08\n        /* \"#utility.yul\":4502:4512   */\n      dup4\n        /* \"#utility.yul\":4498:4516   */\n      mul\n        /* \"#utility.yul\":4537:4634   */\n      tag_117\n        /* \"#utility.yul\":4567:4633   */\n      0xffffffffffffffffffffffffffffffffffffffffffffffffffffffffffffffff\n        /* \"#utility.yul\":4556:4565   */\n      dup3\n        /* \"#utility.yul\":4537:4634   */\n      tag_59\n      jump\t// in\n    tag_117:\n        /* \"#utility.yul\":4655:4694   */\n      tag_118\n        /* \"#utility.yul\":4685:4693   */\n      dup7\n        /* \"#utility.yul\":4674:4683   */\n      dup4\n        /* \"#utility.yul\":4655:4694   */\n      tag_59\n      jump\t// in\n    tag_118:\n        /* \"#utility.yul\":4643:4694   */\n      swap6\n      pop\n        /* \"#utility.yul\":4727:4731   */\n      dup1\n        /* \"#utility.yul\":4723:4732   */\n      not\n        /* \"#utility.yul\":4716:4721   */\n      dup5\n        /* \"#utility.yul\":4712:4733   */\n      and\n        /* \"#utility.yul\":4703:4733   */\n      swap4\n      pop\n        /* \"#utility.yul\":4776:4780   */\n      dup1\n        /* \"#utility.yul\":4766:4774   */\n      dup7\n        /* \"#utility.yul\":4762:4781   */\n      and\n        /* \"#utility.yul\":4755:4760   */\n      dup5\n        /* \"#utility.yul\":4752:4782   */\n      or\n        /* \"#utility.yul\":4742:4782   */\n      swap3\n      pop\n        /* \"#utility.yul\":4471:4788   */\n      pop\n      pop\n        /* \"#utility.yul\":4395:4788   */\n      swap4\n      swap3\n      pop\n      pop\n      pop\n      jump\t// out\n        /* \"#utility.yul\":4794:4854   */\n    tag_61:\n        /* \"#utility.yul\":4822:4825   */\n      0x00\n        /* \"#utility.yul\":4843:4848   */\n      dup2\n        /* \"#utility.yul\":4836:4848   */\n      swap1\n      pop\n        /* \"#utility.yul\":4794:4854   */\n      swap2\n      swap1\n      pop\n      jump\t// out\n        /* \"#utility.yul\":4860:5002   */\n    tag_62:\n        /* \"#utility.yul\":4910:4919   */\n      0x00\n        /* \"#utility.yul\":4943:4996   */\n      tag_121\n        /* \"#utility.yul\":4961:4995   */\n      tag_122\n        /* \"#utility.yul\":4970:4994   */\n      tag_123\n        /* \"#utility.yul\":4988:4993   */\n      dup5\n        /* \"#utility.yul\":4970:4994   */\n      tag_42\n      jump\t// in\n    tag_123:\n        /* \"#utility.yul\":4961:4995   */\n      tag_61\n      jump\t// in\n    tag_122:\n        /* \"#utility.yul\":4943:4996   */\n      tag_42\n      jump\t// in\n    tag_121:\n        /* \"#utility.yul\":4930:4996   */\n      swap1\n      pop\n        /* \"#utility.yul\":4860:5002   */\n      swap2\n      swap1\n      pop\n      jump\t// out\n        /* \"#utility.yul\":5008:5083   */\n    tag_63:\n        /* \"#utility.yul\":5051:5054   */\n      0x00\n        /* \"#utility.yul\":5072:5077   */\n      dup2\n        /* \"#utility.yul\":5065:5077   */\n      swap1\n      pop\n        /* \"#utility.yul\":5008:5083   */\n      swap2\n      swap1\n      pop\n      jump\t// out\n        /* \"#utility.yul\":5089:5358   */\n    tag_64:\n        /* \"#utility.yul\":5199:5238   */\n      tag_126\n        /* \"#utility.yul\":5230:5237   */\n      dup4\n        /* \"#utility.yul\":5199:5238   */\n      tag_62\n      jump\t// in\n    tag_126:\n        /* \"#utility.yul\":5260:5351   */\n      tag_127\n        /* \"#utility.yul\":5309:5350   */\n      tag_128\n        /* \"#utility.yul\":5333:5349   */\n      dup3\n        /* \"#utility.yul\":5309:5350   */\n      tag_63\n      jump\t// in\n    tag_128:\n        /* \"#utility.yul\":5301:5307   */\n      dup5\n        /* \"#utility.yul\":5294:5298   */\n      dup5\n        /* \"#utility.yul\":5288:5299   */\n      sload\n        /* \"#utility.yul\":5260:5351   */\n      tag_60\n      jump\t// in\n    tag_127:\n        /* \"#utility.yul\":5254:5258   */\n      dup3\n        /* \"#utility.yul\":5247:5352   */\n      sstore\n        /* \"#utility.yul\":5165:5358   */\n      pop\n        /* \"#utility.yul\":5089:5358   */\n      pop\n      pop\n      pop\n      jump\t// out\n        /* \"#utility.yul\":5364:5437   */\n    tag_65:\n        /* \"#utility.yul\":5409:5412   */\n      0x00\n        /* \"#utility.yul\":5364:5437   */\n      swap1\n      jump\t// out\n        /* \"#utility.yul\":5443:5632   */\n    tag_66:\n        /* \"#utility.yul\":5520:5552   */\n      tag_131\n      tag_65\n      jump\t// in\n    tag_131:\n        /* \"#utility.yul\":5561:5626   */\n      tag_132\n        /* \"#utility.yul\":5619:5625   */\n      dup2\n        /* \"#utility.yul\":5611:5617   */\n      dup5\n        /* \"#utility.yul\":5605:5609   */\n      dup5\n        /* \"#utility.yul\":5561:5626   */\n      tag_64\n      jump\t// in\n    tag_132:\n        /* \"#utility.yul\":5496:5632   */\n      pop\n        /* \"#utility.yul\":5443:5632   */\n      pop\n      pop\n      jump\t// out\n        /* \"#utility.yul\":5638:5824   */\n    tag_67:\n        /* \"#utility.yul\":5698:5818   */\n    tag_134:\n        /* \"#utility.yul\":5715:5718   */\n      dup2\n        /* \"#utility.yul\":5708:5713   */\n      dup2\n        /* \"#utility.yul\":5705:5719   */\n      lt\n        /* \"#utility.yul\":5698:5818   */\n      iszero\n      tag_136\n      jumpi\n        /* \"#utility.yul\":5769:5808   */\n      tag_137\n        /* \"#utility.yul\":5806:5807   */\n      0x00\n        /* \"#utility.yul\":5799:5804   */\n      dup3\n        /* \"#utility.yul\":5769:5808   */\n      tag_66\n      jump\t// in\n    tag_137:\n        /* \"#utility.yul\":5742:5743   */\n      0x01\n        /* \"#utility.yul\":5735:5740   */\n      dup2\n        /* \"#utility.yul\":5731:5744   */\n      add\n        /* \"#utility.yul\":5722:5744   */\n      swap1\n      pop\n        /* \"#utility.yul\":5698:5818   */\n      jump(tag_134)\n    tag_136:\n        /* \"#utility.yul\":5638:5824   */\n      pop\n      pop\n      jump\t// out\n        /* \"#utility.yul\":5830:6373   */\n    tag_68:\n        /* \"#utility.yul\":5931:5933   */\n      0x1f\n        /* \"#utility.yul\":5926:5929   */\n      dup3\n        /* \"#utility.yul\":5923:5934   */\n      gt\n        /* \"#utility.yul\":5920:6366   */\n      iszero\n      tag_139\n      jumpi\n        /* \"#utility.yul\":5965:6003   */\n      tag_140\n        /* \"#utility.yul\":5997:6002   */\n      dup2\n        /* \"#utility.yul\":5965:6003   */\n      tag_57\n      jump\t// in\n    tag_140:\n        /* \"#utility.yul\":6049:6078   */\n      tag_141\n        /* \"#utility.yul\":6067:6077   */\n      dup5\n        /* \"#utility.yul\":6049:6078   */\n      tag_58\n      jump\t// in\n    tag_141:\n        /* \"#utility.yul\":6039:6047   */\n      dup2\n        /* \"#utility.yul\":6035:6079   */\n      add\n        /* \"#utility.yul\":6232:6234   */\n      0x20\n        /* \"#utility.yul\":6220:6230   */\n      dup6\n        /* \"#utility.yul\":6217:6235   */\n      lt\n        /* \"#utility.yul\":6214:6263   */\n      iszero\n      tag_142\n      jumpi\n        /* \"#utility.yul\":6253:6261   */\n      dup2\n        /* \"#utility.yul\":6238:6261   */\n      swap1\n      pop\n        /* \"#utility.yul\":6214:6263   */\n    tag_142:\n        /* \"#utility.yul\":6276:6356   */\n      tag_143\n        /* \"#utility.yul\":6332:6354   */\n      tag_144\n        /* \"#utility.yul\":6350:6353   */\n      dup6\n        /* \"#utility.yul\":6332:6354   */\n      tag_58\n      jump\t// in\n    tag_144:\n        /* \"#utility.yul\":6322:6330   */\n      dup4\n        /* \"#utility.yul\":6318:6355   */\n      add\n        /* \"#utility.yul\":6305:6316   */\n      dup3\n        /* \"#utility.yul\":6276:6356   */\n      tag_67\n      jump\t// in\n    tag_143:\n        /* \"#utility.yul\":5935:6366   */\n      pop\n      pop\n        /* \"#utility.yul\":5920:6366   */\n    tag_139:\n        /* \"#utility.yul\":5830:6373   */\n      pop\n      pop\n      pop\n      jump\t// out\n        /* \"#utility.yul\":6379:6496   */\n    tag_69:\n        /* \"#utility.yul\":6433:6441   */\n      0x00\n        /* \"#utility.yul\":6483:6488   */\n      dup3\n        /* \"#utility.yul\":6477:6481   */\n      dup3\n        /* \"#utility.yul\":6473:6489   */\n      shr\n        /* \"#utility.yul\":6452:6489   */\n      swap1\n      pop\n        /* \"#utility.yul\":6379:6496   */\n      swap3\n      swap2\n      pop\n      pop\n      jump\t// out\n        /* \"#utility.yul\":6502:6671   */\n    tag_70:\n        /* \"#utility.yul\":6546:6552   */\n      0x00\n        /* \"#utility.yul\":6579:6630   */\n      tag_147\n        /* \"#utility.yul\":6627:6628   */\n      0x00\n        /* \"#utility.yul\":6623:6629   */\n      not\n        /* \"#utility.yul\":6615:6620   */\n      dup5\n        /* \"#utility.yul\":6612:6613   */\n      0x08\n        /* \"#utility.yul\":6608:6621   */\n      mul\n        /* \"#utility.yul\":6579:6630   */\n      tag_69\n      jump\t// in\n    tag_147:\n        /* \"#utility.yul\":6575:6631   */\n      not\n        /* \"#utility.yul\":6660:6664   */\n      dup1\n        /* \"#utility.yul\":6654:6658   */\n      dup4\n        /* \"#utility.yul\":6650:6665   */\n      and\n        /* \"#utility.yul\":6640:6665   */\n      swap2\n      pop\n        /* \"#utility.yul\":6553:6671   */\n      pop\n        /* \"#utility.yul\":6502:6671   */\n      swap3\n      swap2\n      pop\n      pop\n      jump\t// out\n        /* \"#utility.yul\":6676:6971   */\n    tag_71:\n        /* \"#utility.yul\":6752:6756   */\n      0x00\n        /* \"#utility.yul\":6898:6927   */\n      tag_149\n        /* \"#utility.yul\":6923:6926   */\n      dup4\n        /* \"#utility.yul\":6917:6921   */\n      dup4\n        /* \"#utility.yul\":6898:6927   */\n      tag_70\n      jump\t// in\n    tag_149:\n        /* \"#utility.yul\":6890:6927   */\n      swap2\n      pop\n        /* \"#utility.yul\":6960:6963   */\n      dup3\n        /* \"#utility.yul\":6957:6958   */\n      0x02\n        /* \"#utility.yul\":6953:6964   */\n      mul\n        /* \"#utility.yul\":6947:6951   */\n      dup3\n        /* \"#utility.yul\":6944:6965   */\n      or\n        /* \"#utility.yul\":6936:6965   */\n      swap1\n      pop\n        /* \"#utility.yul\":6676:6971   */\n      swap3\n      swap2\n      pop\n      pop\n      jump\t// out\n        /* \"#utility.yul\":6976:8371   */\n    tag_32:\n        /* \"#utility.yul\":7093:7130   */\n      tag_151\n        /* \"#utility.yul\":7126:7129   */\n      dup3\n        /* \"#utility.yul\":7093:7130   */\n      tag_52\n      jump\t// in\n    tag_151:\n        /* \"#utility.yul\":7195:7213   */\n      0xffffffffffffffff\n        /* \"#utility.yul\":7187:7193   */\n      dup2\n        /* \"#utility.yul\":7184:7214   */\n      gt\n        /* \"#utility.yul\":7181:7237   */\n      iszero\n      tag_152\n      jumpi\n        /* \"#utility.yul\":7217:7235   */\n      tag_153\n      tag_55\n      jump\t// in\n    tag_153:\n        /* \"#utility.yul\":7181:7237   */\n    tag_152:\n        /* \"#utility.yul\":7261:7299   */\n      tag_154\n        /* \"#utility.yul\":7293:7297   */\n      dup3\n        /* \"#utility.yul\":7287:7298   */\n      sload\n        /* \"#utility.yul\":7261:7299   */\n      tag_34\n      jump\t// in\n    tag_154:\n        /* \"#utility.yul\":7346:7413   */\n      tag_155\n        /* \"#utility.yul\":7406:7412   */\n      dup3\n        /* \"#utility.yul\":7398:7404   */\n      dup3\n        /* \"#utility.yul\":7392:7396   */\n      dup6\n        /* \"#utility.yul\":7346:7413   */\n      tag_68\n      jump\t// in\n    tag_155:\n        /* \"#utility.yul\":7440:7441   */\n      0x00\n        /* \"#utility.yul\":7464:7468   */\n      0x20\n        /* \"#utility.yul\":7451:7468   */\n      swap1\n      pop\n        /* \"#utility.yul\":7496:7498   */\n      0x1f\n        /* \"#utility.yul\":7488:7494   */\n      dup4\n        /* \"#utility.yul\":7485:7499   */\n      gt\n        /* \"#utility.yul\":7513:7514   */\n      0x01\n        /* \"#utility.yul\":7508:8126   */\n      dup2\n      eq\n      tag_157\n      jumpi\n        /* \"#utility.yul\":8170:8171   */\n      0x00\n        /* \"#utility.yul\":8187:8193   */\n      dup5\n        /* \"#utility.yul\":8184:8261   */\n      iszero\n      tag_158\n      jumpi\n        /* \"#utility.yul\":8236:8245   */\n      dup3\n        /* \"#utility.yul\":8231:8234   */\n      dup8\n        /* \"#utility.yul\":8227:8246   */\n      add\n        /* \"#utility.yul\":8221:8247   */\n      mload\n        /* \"#utility.yul\":8212:8247   */\n      swap1\n      pop\n        /* \"#utility.yul\":8184:8261   */\n    tag_158:\n        /* \"#utility.yul\":8287:8354   */\n      tag_159\n        /* \"#utility.yul\":8347:8353   */\n      dup6\n        /* \"#utility.yul\":8340:8345   */\n      dup3\n        /* \"#utility.yul\":8287:8354   */\n      tag_71\n      jump\t// in\n    tag_159:\n        /* \"#utility.yul\":8281:8285   */\n      dup7\n        /* \"#utility.yul\":8274:8355   */\n      sstore\n        /* \"#utility.yul\":8143:8365   */\n      pop\n        /* \"#utility.yul\":7478:8365   */\n      jump(tag_156)\n        /* \"#utility.yul\":7508:8126   */\n    tag_157:\n        /* \"#utility.yul\":7560:7564   */\n      0x1f\n        /* \"#utility.yul\":7556:7565   */\n      not\n        /* \"#utility.yul\":7548:7554   */\n      dup5\n        /* \"#utility.yul\":7544:7566   */\n      and\n        /* \"#utility.yul\":7594:7631   */\n      tag_160\n        /* \"#utility.yul\":7626:7630   */\n      dup7\n        /* \"#utility.yul\":7594:7631   */\n      tag_57\n      jump\t// in\n    tag_160:\n        /* \"#utility.yul\":7653:7654   */\n      0x00\n        /* \"#utility.yul\":7667:7875   */\n    tag_161:\n        /* \"#utility.yul\":7681:7688   */\n      dup3\n        /* \"#utility.yul\":7678:7679   */\n      dup2\n        /* \"#utility.yul\":7675:7689   */\n      lt\n        /* \"#utility.yul\":7667:7875   */\n      iszero\n      tag_163\n      jumpi\n        /* \"#utility.yul\":7760:7769   */\n      dup5\n        /* \"#utility.yul\":7755:7758   */\n      dup10\n        /* \"#utility.yul\":7751:7770   */\n      add\n        /* \"#utility.yul\":7745:7771   */\n      mload\n        /* \"#utility.yul\":7737:7743   */\n      dup3\n        /* \"#utility.yul\":7730:7772   */\n      sstore\n        /* \"#utility.yul\":7811:7812   */\n      0x01\n        /* \"#utility.yul\":7803:7809   */\n      dup3\n        /* \"#utility.yul\":7799:7813   */\n      add\n        /* \"#utility.yul\":7789:7813   */\n      swap2\n      pop\n        /* \"#utility.yul\":7858:7860   */\n      0x20\n        /* \"#utility.yul\":7847:7856   */\n      dup6\n        /* \"#utility.yul\":7843:7861   */\n      add\n        /* \"#utility.yul\":7830:7861   */\n      swap5\n      pop\n        /* \"#utility.yul\":7704:7708   */\n      0x20\n        /* \"#utility.yul\":7701:7702   */\n      dup2\n        /* \"#utility.yul\":7697:7709   */\n      add\n        /* \"#utility.yul\":7692:7709   */\n      swap1\n      pop\n        /* \"#utility.yul\":7667:7875   */\n      jump(tag_161)\n    tag_163:\n        /* \"#utility.yul\":7903:7909   */\n      dup7\n        /* \"#utility.yul\":7894:7901   */\n      dup4\n        /* \"#utility.yul\":7891:7910   */\n      lt\n        /* \"#utility.yul\":7888:8067   */\n      iszero\n      tag_164\n      jumpi\n        /* \"#utility.yul\":7961:7970   */\n      dup5\n        /* \"#utility.yul\":7956:7959   */\n      dup10\n        /* \"#utility.yul\":7952:7971   */\n      add\n        /* \"#utility.yul\":7946:7972   */\n      mload\n        /* \"#utility.yul\":8004:8052   */\n      tag_165\n        /* \"#utility.yul\":8046:8050   */\n      0x1f\n        /* \"#utility.yul\":8038:8044   */\n      dup10\n        /* \"#utility.yul\":8034:8051   */\n      and\n        /* \"#utility.yul\":8023:8032   */\n      dup3\n        /* \"#utility.yul\":8004:8052   */\n      tag_70\n      jump\t// in\n    tag_165:\n        /* \"#utility.yul\":7996:8002   */\n      dup4\n        /* \"#utility.yul\":7989:8053   */\n      sstore\n        /* \"#utility.yul\":7911:8067   */\n      pop\n        /* \"#utility.yul\":7888:8067   */\n    tag_164:\n        /* \"#utility.yul\":8113:8114   */\n      0x01\n        /* \"#utility.yul\":8109:8110   */\n      0x02\n        /* \"#utility.yul\":8101:8107   */\n      dup9\n        /* \"#utility.yul\":8097:8111   */\n      mul\n        /* \"#utility.yul\":8093:8115   */\n      add\n        /* \"#utility.yul\":8087:8091   */\n      dup9\n        /* \"#utility.yul\":8080:8116   */\n      sstore\n        /* \"#utility.yul\":7515:8126   */\n      pop\n      pop\n      pop\n        /* \"#utility.yul\":7478:8365   */\n    tag_156:\n      pop\n        /* \"#utility.yul\":7068:8371   */\n      pop\n      pop\n      pop\n        /* \"#utility.yul\":6976:8371   */\n      pop\n      pop\n      jump\t// out\n        /* \"#utility.yul\":8377:8557   */\n    tag_72:\n        /* \"#utility.yul\":8425:8502   */\n      0x4e487b7100000000000000000000000000000000000000000000000000000000\n        /* \"#utility.yul\":8422:8423   */\n      0x00\n        /* \"#utility.yul\":8415:8503   */\n      mstore\n        /* \"#utility.yul\":8522:8526   */\n      0x11\n        /* \"#utility.yul\":8519:8520   */\n      0x04\n        /* \"#utility.yul\":8512:8527   */\n      mstore\n        /* \"#utility.yul\":8546:8550   */\n      0x24\n        /* \"#utility.yul\":8543:8544   */\n      0x00\n        /* \"#utility.yul\":8536:8551   */\n      revert\n        /* \"#utility.yul\":8563:8754   */\n    tag_41:\n        /* \"#utility.yul\":8603:8606   */\n      0x00\n        /* \"#utility.yul\":8622:8642   */\n      tag_168\n        /* \"#utility.yul\":8640:8641   */\n      dup3\n        /* \"#utility.yul\":8622:8642   */\n      tag_42\n      jump\t// in\n    tag_168:\n        /* \"#utility.yul\":8617:8642   */\n      swap2\n      pop\n        /* \"#utility.yul\":8656:8676   */\n      tag_169\n        /* \"#utility.yul\":8674:8675   */\n      dup4\n        /* \"#utility.yul\":8656:8676   */\n      tag_42\n      jump\t// in\n    tag_169:\n        /* \"#utility.yul\":8651:8676   */\n      swap3\n      pop\n        /* \"#utility.yul\":8699:8700   */\n      dup3\n        /* \"#utility.yul\":8696:8697   */\n      dup3\n        /* \"#utility.yul\":8692:8701   */\n      add\n        /* \"#utility.yul\":8685:8701   */\n      swap1\n      pop\n        /* \"#utility.yul\":8720:8723   */\n      dup1\n        /* \"#utility.yul\":8717:8718   */\n      dup3\n        /* \"#utility.yul\":8714:8724   */\n      gt\n        /* \"#utility.yul\":8711:8747   */\n      iszero\n      tag_170\n      jumpi\n        /* \"#utility.yul\":8727:8745   */\n      tag_171\n      tag_72\n      jump\t// in\n    tag_171:\n        /* \"#utility.yul\":8711:8747   */\n    tag_170:\n        /* \"#utility.yul\":8563:8754   */\n      swap3\n      swap2\n      pop\n      pop\n      jump\t// out\n\n    auxdata: 0xa264697066735822122089f1b5c5cbf15f75fc92f6329739b1cec03773b1f6393fbebb4bf67e2044062a64736f6c63430008190033\n}\n",
				"bytecode": {
					"linkReferences": {},
					"object": "608060405260015f553480156012575f80fd5b506107ad806100205f395ff3fe608060405234801561000f575f80fd5b5060043610610060575f3560e01c80630c55699c14610064578063a05f990614610082578063a56dfe4a146100a3578063c2985578146100c1578063c5d7802e146100cb578063febb0f7e146100e9575b5f80fd5b61006c610107565b604051610079919061029d565b60405180910390f35b61008a61010c565b60405161009a9493929190610365565b60405180910390f35b6100ab61017a565b6040516100b8919061029d565b60405180910390f35b6100c9610180565b005b6100d36101d6565b6040516100e09190610401565b60405180910390f35b6100f1610262565b6040516100fe919061029d565b60405180910390f35b5f5481565b5f805f60605f3390505f4390505f4290505f80368080601f0160208091040260200160405190810160405280939291908181526020018383808284375f81840152601f19601f8201169050808301925050505050505090508383838397509750975097505050505090919293565b60015481565b60025f8190555060036001819055506040518060400160405280600581526020017f68656c6c6f000000000000000000000000000000000000000000000000000000815250600290816101d39190610648565b50565b600280546101e39061047b565b80601f016020809104026020016040519081016040528092919081815260200182805461020f9061047b565b801561025a5780601f106102315761010080835404028352916020019161025a565b820191905f5260205f20905b81548152906001019060200180831161023d57829003601f168201915b505050505081565b5f80600190505f600290505f818361027a9190610744565b905080935050505090565b5f819050919050565b61029781610285565b82525050565b5f6020820190506102b05f83018461028e565b92915050565b5f73ffffffffffffffffffffffffffffffffffffffff82169050919050565b5f6102df826102b6565b9050919050565b6102ef816102d5565b82525050565b5f81519050919050565b5f82825260208201905092915050565b8281835e5f83830152505050565b5f601f19601f8301169050919050565b5f610337826102f5565b61034181856102ff565b935061035181856020860161030f565b61035a8161031d565b840191505092915050565b5f6080820190506103785f8301876102e6565b610385602083018661028e565b610392604083018561028e565b81810360608301526103a4818461032d565b905095945050505050565b5f81519050919050565b5f82825260208201905092915050565b5f6103d3826103af565b6103dd81856103b9565b93506103ed81856020860161030f565b6103f68161031d565b840191505092915050565b5f6020820190508181035f83015261041981846103c9565b905092915050565b7f4e487b71000000000000000000000000000000000000000000000000000000005f52604160045260245ffd5b7f4e487b71000000000000000000000000000000000000000000000000000000005f52602260045260245ffd5b5f600282049050600182168061049257607f821691505b6020821081036104a5576104a461044e565b5b50919050565b5f819050815f5260205f209050919050565b5f6020601f8301049050919050565b5f82821b905092915050565b5f600883026105077fffffffffffffffffffffffffffffffffffffffffffffffffffffffffffffffff826104cc565b61051186836104cc565b95508019841693508086168417925050509392505050565b5f819050919050565b5f61054c61054761054284610285565b610529565b610285565b9050919050565b5f819050919050565b61056583610532565b61057961057182610553565b8484546104d8565b825550505050565b5f90565b61058d610581565b61059881848461055c565b505050565b5b818110156105bb576105b05f82610585565b60018101905061059e565b5050565b601f821115610600576105d1816104ab565b6105da846104bd565b810160208510156105e9578190505b6105fd6105f5856104bd565b83018261059d565b50505b505050565b5f82821c905092915050565b5f6106205f1984600802610605565b1980831691505092915050565b5f6106388383610611565b9150826002028217905092915050565b610651826103af565b67ffffffffffffffff81111561066a57610669610421565b5b610674825461047b565b61067f8282856105bf565b5f60209050601f8311600181146106b0575f841561069e578287015190505b6106a8858261062d565b86555061070f565b601f1984166106be866104ab565b5f5b828110156106e5578489015182556001820191506020850194506020810190506106c0565b8683101561070257848901516106fe601f891682610611565b8355505b6001600288020188555050505b505050505050565b7f4e487b71000000000000000000000000000000000000000000000000000000005f52601160045260245ffd5b5f61074e82610285565b915061075983610285565b925082820190508082111561077157610770610717565b5b9291505056fea264697066735822122089f1b5c5cbf15f75fc92f6329739b1cec03773b1f6393fbebb4bf67e2044062a64736f6c63430008190033",
					"opcodes": "PUSH1 0x80 PUSH1 0x40 MSTORE PUSH1 0x1 PUSH0 SSTORE CALLVALUE DUP1 ISZERO PUSH1 0x12 JUMPI PUSH0 DUP1 REVERT JUMPDEST POP PUSH2 0x7AD DUP1 PUSH2 0x20 PUSH0 CODECOPY PUSH0 RETURN INVALID PUSH1 0x80 PUSH1 0x40 MSTORE CALLVALUE DUP1 ISZERO PUSH2 0xF JUMPI PUSH0 DUP1 REVERT JUMPDEST POP PUSH1 0x4 CALLDATASIZE LT PUSH2 0x60 JUMPI PUSH0 CALLDATALOAD PUSH1 0xE0 SHR DUP1 PUSH4 0xC55699C EQ PUSH2 0x64 JUMPI DUP1 PUSH4 0xA05F9906 EQ PUSH2 0x82 JUMPI DUP1 PUSH4 0xA56DFE4A EQ PUSH2 0xA3 JUMPI DUP1 PUSH4 0xC2985578 EQ PUSH2 0xC1 JUMPI DUP1 PUSH4 0xC5D7802E EQ PUSH2 0xCB JUMPI DUP1 PUSH4 0xFEBB0F7E EQ PUSH2 0xE9 JUMPI JUMPDEST PUSH0 DUP1 REVERT JUMPDEST PUSH2 0x6C PUSH2 0x107 JUMP JUMPDEST PUSH1 0x40 MLOAD PUSH2 0x79 SWAP2 SWAP1 PUSH2 0x29D JUMP JUMPDEST PUSH1 0x40 MLOAD DUP1 SWAP2 SUB SWAP1 RETURN JUMPDEST PUSH2 0x8A PUSH2 0x10C JUMP JUMPDEST PUSH1 0x40 MLOAD PUSH2 0x9A SWAP5 SWAP4 SWAP3 SWAP2 SWAP1 PUSH2 0x365 JUMP JUMPDEST PUSH1 0x40 MLOAD DUP1 SWAP2 SUB SWAP1 RETURN JUMPDEST PUSH2 0xAB PUSH2 0x17A JUMP JUMPDEST PUSH1 0x40 MLOAD PUSH2 0xB8 SWAP2 SWAP1 PUSH2 0x29D JUMP JUMPDEST PUSH1 0x40 MLOAD DUP1 SWAP2 SUB SWAP1 RETURN JUMPDEST PUSH2 0xC9 PUSH2 0x180 JUMP JUMPDEST STOP JUMPDEST PUSH2 0xD3 PUSH2 0x1D6 JUMP JUMPDEST PUSH1 0x40 MLOAD PUSH2 0xE0 SWAP2 SWAP1 PUSH2 0x401 JUMP JUMPDEST PUSH1 0x40 MLOAD DUP1 SWAP2 SUB SWAP1 RETURN JUMPDEST PUSH2 0xF1 PUSH2 0x262 JUMP JUMPDEST PUSH1 0x40 MLOAD PUSH2 0xFE SWAP2 SWAP1 PUSH2 0x29D JUMP JUMPDEST PUSH1 0x40 MLOAD DUP1 SWAP2 SUB SWAP1 RETURN JUMPDEST PUSH0 SLOAD DUP2 JUMP JUMPDEST PUSH0 DUP1 PUSH0 PUSH1 0x60 PUSH0 CALLER SWAP1 POP PUSH0 NUMBER SWAP1 POP PUSH0 TIMESTAMP SWAP1 POP PUSH0 DUP1 CALLDATASIZE DUP1 DUP1 PUSH1 0x1F ADD PUSH1 0x20 DUP1 SWAP2 DIV MUL PUSH1 0x20 ADD PUSH1 0x40 MLOAD SWAP1 DUP2 ADD PUSH1 0x40 MSTORE DUP1 SWAP4 SWAP3 SWAP2 SWAP1 DUP2 DUP2 MSTORE PUSH1 0x20 ADD DUP4 DUP4 DUP1 DUP3 DUP5 CALLDATACOPY PUSH0 DUP2 DUP5 ADD MSTORE PUSH1 0x1F NOT PUSH1 0x1F DUP3 ADD AND SWAP1 POP DUP1 DUP4 ADD SWAP3 POP POP POP POP POP POP POP SWAP1 POP DUP4 DUP4 DUP4 DUP4 SWAP8 POP SWAP8 POP SWAP8 POP SWAP8 POP POP POP POP POP SWAP1 SWAP2 SWAP3 SWAP4 JUMP JUMPDEST PUSH1 0x1 SLOAD DUP2 JUMP JUMPDEST PUSH1 0x2 PUSH0 DUP2 SWAP1 SSTORE POP PUSH1 0x3 PUSH1 0x1 DUP2 SWAP1 SSTORE POP PUSH1 0x40 MLOAD DUP1 PUSH1 0x40 ADD PUSH1 0x40 MSTORE DUP1 PUSH1 0x5 DUP2 MSTORE PUSH1 0x20 ADD PUSH32 0x68656C6C6F000000000000000000000000000000000000000000000000000000 DUP2 MSTORE POP PUSH1 0x2 SWAP1 DUP2 PUSH2 0x1D3 SWAP2 SWAP1 PUSH2 0x648 JUMP JUMPDEST POP JUMP JUMPDEST PUSH1 0x2 DUP1 SLOAD PUSH2 0x1E3 SWAP1 PUSH2 0x47B JUMP JUMPDEST DUP1 PUSH1 0x1F ADD PUSH1 0x20 DUP1 SWAP2 DIV MUL PUSH1 0x20 ADD PUSH1 0x40 MLOAD SWAP1 DUP2 ADD PUSH1 0x40 MSTORE DUP1 SWAP3 SWAP2 SWAP1 DUP2 DUP2 MSTORE PUSH1 0x20 ADD DUP3 DUP1 SLOAD PUSH2 0x20F SWAP1 PUSH2 0x47B JUMP JUMPDEST DUP1 ISZERO PUSH2 0x25A JUMPI DUP1 PUSH1 0x1F LT PUSH2 0x231 JUMPI PUSH2 0x100 DUP1 DUP4 SLOAD DIV MUL DUP4 MSTORE SWAP2 PUSH1 0x20 ADD SWAP2 PUSH2 0x25A JUMP JUMPDEST DUP3 ADD SWAP2 SWAP1 PUSH0 MSTORE PUSH1 0x20 PUSH0 KECCAK256 SWAP1 JUMPDEST DUP2 SLOAD DUP2 MSTORE SWAP1 PUSH1 0x1 ADD SWAP1 PUSH1 0x20 ADD DUP1 DUP4 GT PUSH2 0x23D JUMPI DUP3 SWAP1 SUB PUSH1 0x1F AND DUP3 ADD SWAP2 JUMPDEST POP POP POP POP POP DUP2 JUMP JUMPDEST PUSH0 DUP1 PUSH1 0x1 SWAP1 POP PUSH0 PUSH1 0x2 SWAP1 POP PUSH0 DUP2 DUP4 PUSH2 0x27A SWAP2 SWAP1 PUSH2 0x744 JUMP JUMPDEST SWAP1 POP DUP1 SWAP4 POP POP POP POP SWAP1 JUMP JUMPDEST PUSH0 DUP2 SWAP1 POP SWAP2 SWAP1 POP JUMP JUMPDEST PUSH2 0x297 DUP2 PUSH2 0x285 JUMP JUMPDEST DUP3 MSTORE POP POP JUMP JUMPDEST PUSH0 PUSH1 0x20 DUP3 ADD SWAP1 POP PUSH2 0x2B0 PUSH0 DUP4 ADD DUP5 PUSH2 0x28E JUMP JUMPDEST SWAP3 SWAP2 POP POP JUMP JUMPDEST PUSH0 PUSH20 0xFFFFFFFFFFFFFFFFFFFFFFFFFFFFFFFFFFFFFFFF DUP3 AND SWAP1 POP SWAP2 SWAP1 POP JUMP JUMPDEST PUSH0 PUSH2 0x2DF DUP3 PUSH2 0x2B6 JUMP JUMPDEST SWAP1 POP SWAP2 SWAP1 POP JUMP JUMPDEST PUSH2 0x2EF DUP2 PUSH2 0x2D5 JUMP JUMPDEST DUP3 MSTORE POP POP JUMP JUMPDEST PUSH0 DUP2 MLOAD SWAP1 POP SWAP2 SWAP1 POP JUMP JUMPDEST PUSH0 DUP3 DUP3 MSTORE PUSH1 0x20 DUP3 ADD SWAP1 POP SWAP3 SWAP2 POP POP JUMP JUMPDEST DUP3 DUP2 DUP4 MCOPY PUSH0 DUP4 DUP4 ADD MSTORE POP POP POP JUMP JUMPDEST PUSH0 PUSH1 0x1F NOT PUSH1 0x1F DUP4 ADD AND SWAP1 POP SWAP2 SWAP1 POP JUMP JUMPDEST PUSH0 PUSH2 0x337 DUP3 PUSH2 0x2F5 JUMP JUMPDEST PUSH2 0x341 DUP2 DUP6 PUSH2 0x2FF JUMP JUMPDEST SWAP4 POP PUSH2 0x351 DUP2 DUP6 PUSH1 0x20 DUP7 ADD PUSH2 0x30F JUMP JUMPDEST PUSH2 0x35A DUP2 PUSH2 0x31D JUMP JUMPDEST DUP5 ADD SWAP2 POP POP SWAP3 SWAP2 POP POP JUMP JUMPDEST PUSH0 PUSH1 0x80 DUP3 ADD SWAP1 POP PUSH2 0x378 PUSH0 DUP4 ADD DUP8 PUSH2 0x2E6 JUMP JUMPDEST PUSH2 0x385 PUSH1 0x20 DUP4 ADD DUP7 PUSH2 0x28E JUMP JUMPDEST PUSH2 0x392 PUSH1 0x40 DUP4 ADD DUP6 PUSH2 0x28E JUMP JUMPDEST DUP2 DUP2 SUB PUSH1 0x60 DUP4 ADD MSTORE PUSH2 0x3A4 DUP2 DUP5 PUSH2 0x32D JUMP JUMPDEST SWAP1 POP SWAP6 SWAP5 POP POP POP POP POP JUMP JUMPDEST PUSH0 DUP2 MLOAD SWAP1 POP SWAP2 SWAP1 POP JUMP JUMPDEST PUSH0 DUP3 DUP3 MSTORE PUSH1 0x20 DUP3 ADD SWAP1 POP SWAP3 SWAP2 POP POP JUMP JUMPDEST PUSH0 PUSH2 0x3D3 DUP3 PUSH2 0x3AF JUMP JUMPDEST PUSH2 0x3DD DUP2 DUP6 PUSH2 0x3B9 JUMP JUMPDEST SWAP4 POP PUSH2 0x3ED DUP2 DUP6 PUSH1 0x20 DUP7 ADD PUSH2 0x30F JUMP JUMPDEST PUSH2 0x3F6 DUP2 PUSH2 0x31D JUMP JUMPDEST DUP5 ADD SWAP2 POP POP SWAP3 SWAP2 POP POP JUMP JUMPDEST PUSH0 PUSH1 0x20 DUP3 ADD SWAP1 POP DUP2 DUP2 SUB PUSH0 DUP4 ADD MSTORE PUSH2 0x419 DUP2 DUP5 PUSH2 0x3C9 JUMP JUMPDEST SWAP1 POP SWAP3 SWAP2 POP POP JUMP JUMPDEST PUSH32 0x4E487B7100000000000000000000000000000000000000000000000000000000 PUSH0 MSTORE PUSH1 0x41 PUSH1 0x4 MSTORE PUSH1 0x24 PUSH0 REVERT JUMPDEST PUSH32 0x4E487B7100000000000000000000000000000000000000000000000000000000 PUSH0 MSTORE PUSH1 0x22 PUSH1 0x4 MSTORE PUSH1 0x24 PUSH0 REVERT JUMPDEST PUSH0 PUSH1 0x2 DUP3 DIV SWAP1 POP PUSH1 0x1 DUP3 AND DUP1 PUSH2 0x492 JUMPI PUSH1 0x7F DUP3 AND SWAP2 POP JUMPDEST PUSH1 0x20 DUP3 LT DUP2 SUB PUSH2 0x4A5 JUMPI PUSH2 0x4A4 PUSH2 0x44E JUMP JUMPDEST JUMPDEST POP SWAP2 SWAP1 POP JUMP JUMPDEST PUSH0 DUP2 SWAP1 POP DUP2 PUSH0 MSTORE PUSH1 0x20 PUSH0 KECCAK256 SWAP1 POP SWAP2 SWAP1 POP JUMP JUMPDEST PUSH0 PUSH1 0x20 PUSH1 0x1F DUP4 ADD DIV SWAP1 POP SWAP2 SWAP1 POP JUMP JUMPDEST PUSH0 DUP3 DUP3 SHL SWAP1 POP SWAP3 SWAP2 POP POP JUMP JUMPDEST PUSH0 PUSH1 0x8 DUP4 MUL PUSH2 0x507 PUSH32 0xFFFFFFFFFFFFFFFFFFFFFFFFFFFFFFFFFFFFFFFFFFFFFFFFFFFFFFFFFFFFFFFF DUP3 PUSH2 0x4CC JUMP JUMPDEST PUSH2 0x511 DUP7 DUP4 PUSH2 0x4CC JUMP JUMPDEST SWAP6 POP DUP1 NOT DUP5 AND SWAP4 POP DUP1 DUP7 AND DUP5 OR SWAP3 POP POP POP SWAP4 SWAP3 POP POP POP JUMP JUMPDEST PUSH0 DUP2 SWAP1 POP SWAP2 SWAP1 POP JUMP JUMPDEST PUSH0 PUSH2 0x54C PUSH2 0x547 PUSH2 0x542 DUP5 PUSH2 0x285 JUMP JUMPDEST PUSH2 0x529 JUMP JUMPDEST PUSH2 0x285 JUMP JUMPDEST SWAP1 POP SWAP2 SWAP1 POP JUMP JUMPDEST PUSH0 DUP2 SWAP1 POP SWAP2 SWAP1 POP JUMP JUMPDEST PUSH2 0x565 DUP4 PUSH2 0x532 JUMP JUMPDEST PUSH2 0x579 PUSH2 0x571 DUP3 PUSH2 0x553 JUMP JUMPDEST DUP5 DUP5 SLOAD PUSH2 0x4D8 JUMP JUMPDEST DUP3 SSTORE POP POP POP POP JUMP JUMPDEST PUSH0 SWAP1 JUMP JUMPDEST PUSH2 0x58D PUSH2 0x581 JUMP JUMPDEST PUSH2 0x598 DUP2 DUP5 DUP5 PUSH2 0x55C JUMP JUMPDEST POP POP POP JUMP JUMPDEST JUMPDEST DUP2 DUP2 LT ISZERO PUSH2 0x5BB JUMPI PUSH2 0x5B0 PUSH0 DUP3 PUSH2 0x585 JUMP JUMPDEST PUSH1 0x1 DUP2 ADD SWAP1 POP PUSH2 0x59E JUMP JUMPDEST POP POP JUMP JUMPDEST PUSH1 0x1F DUP3 GT ISZERO PUSH2 0x600 JUMPI PUSH2 0x5D1 DUP2 PUSH2 0x4AB JUMP JUMPDEST PUSH2 0x5DA DUP5 PUSH2 0x4BD JUMP JUMPDEST DUP2 ADD PUSH1 0x20 DUP6 LT ISZERO PUSH2 0x5E9 JUMPI DUP2 SWAP1 POP JUMPDEST PUSH2 0x5FD PUSH2 0x5F5 DUP6 PUSH2 0x4BD JUMP JUMPDEST DUP4 ADD DUP3 PUSH2 0x59D JUMP JUMPDEST POP POP JUMPDEST POP POP POP JUMP JUMPDEST PUSH0 DUP3 DUP3 SHR SWAP1 POP SWAP3 SWAP2 POP POP JUMP JUMPDEST PUSH0 PUSH2 0x620 PUSH0 NOT DUP5 PUSH1 0x8 MUL PUSH2 0x605 JUMP JUMPDEST NOT DUP1 DUP4 AND SWAP2 POP POP SWAP3 SWAP2 POP POP JUMP JUMPDEST PUSH0 PUSH2 0x638 DUP4 DUP4 PUSH2 0x611 JUMP JUMPDEST SWAP2 POP DUP3 PUSH1 0x2 MUL DUP3 OR SWAP1 POP SWAP3 SWAP2 POP POP JUMP JUMPDEST PUSH2 0x651 DUP3 PUSH2 0x3AF JUMP JUMPDEST PUSH8 0xFFFFFFFFFFFFFFFF DUP2 GT ISZERO PUSH2 0x66A JUMPI PUSH2 0x669 PUSH2 0x421 JUMP JUMPDEST JUMPDEST PUSH2 0x674 DUP3 SLOAD PUSH2 0x47B JUMP JUMPDEST PUSH2 0x67F DUP3 DUP3 DUP6 PUSH2 0x5BF JUMP JUMPDEST PUSH0 PUSH1 0x20 SWAP1 POP PUSH1 0x1F DUP4 GT PUSH1 0x1 DUP2 EQ PUSH2 0x6B0 JUMPI PUSH0 DUP5 ISZERO PUSH2 0x69E JUMPI DUP3 DUP8 ADD MLOAD SWAP1 POP JUMPDEST PUSH2 0x6A8 DUP6 DUP3 PUSH2 0x62D JUMP JUMPDEST DUP7 SSTORE POP PUSH2 0x70F JUMP JUMPDEST PUSH1 0x1F NOT DUP5 AND PUSH2 0x6BE DUP7 PUSH2 0x4AB JUMP JUMPDEST PUSH0 JUMPDEST DUP3 DUP2 LT ISZERO PUSH2 0x6E5 JUMPI DUP5 DUP10 ADD MLOAD DUP3 SSTORE PUSH1 0x1 DUP3 ADD SWAP2 POP PUSH1 0x20 DUP6 ADD SWAP5 POP PUSH1 0x20 DUP2 ADD SWAP1 POP PUSH2 0x6C0 JUMP JUMPDEST DUP7 DUP4 LT ISZERO PUSH2 0x702 JUMPI DUP5 DUP10 ADD MLOAD PUSH2 0x6FE PUSH1 0x1F DUP10 AND DUP3 PUSH2 0x611 JUMP JUMPDEST DUP4 SSTORE POP JUMPDEST PUSH1 0x1 PUSH1 0x2 DUP9 MUL ADD DUP9 SSTORE POP POP POP JUMPDEST POP POP POP POP POP POP JUMP JUMPDEST PUSH32 0x4E487B7100000000000000000000000000000000000000000000000000000000 PUSH0 MSTORE PUSH1 0x11 PUSH1 0x4 MSTORE PUSH1 0x24 PUSH0 REVERT JUMPDEST PUSH0 PUSH2 0x74E DUP3 PUSH2 0x285 JUMP JUMPDEST SWAP2 POP PUSH2 0x759 DUP4 PUSH2 0x285 JUMP JUMPDEST SWAP3 POP DUP3 DUP3 ADD SWAP1 POP DUP1 DUP3 GT ISZERO PUSH2 0x771 JUMPI PUSH2 0x770 PUSH2 0x717 JUMP JUMPDEST JUMPDEST SWAP3 SWAP2 POP POP JUMP INVALID LOG2 PUSH5 0x6970667358 0x22 SLT KECCAK256 DUP10 CALL 0xB5 0xC5 0xCB CALL PUSH0 PUSH22 0xFC92F6329739B1CEC03773B1F6393FBEBB4BF67E2044 MOD 0x2A PUSH5 0x736F6C6343 STOP ADDMOD NOT STOP CALLER "
				},
				"gasEstimates": {
					"creation": {
						"codeDepositCost": "393000",
						"executionCost": "22533",
						"totalCost": "415533"
					},
					"external": {
						"bar()": "infinite",
						"foo()": "infinite",
						"global()": "infinite",
						"x()": "2402",
						"y()": "2447",
						"z()": "infinite"
					}
				},
				"methodIdentifiers": {
					"bar()": "febb0f7e",
					"foo()": "c2985578",
					"global()": "a05f9906",
					"x()": "0c55699c",
					"y()": "a56dfe4a",
					"z()": "c5d7802e"
				}
			},
			"storageLayout": {
				"storage": [
					{
						"astId": 4,
						"contract": "SolidityProjects/contracts/Study/6-VariableScope.sol:Variables",
						"label": "x",
						"offset": 0,
						"slot": "0",
						"type": "t_uint256"
					},
					{
						"astId": 6,
						"contract": "SolidityProjects/contracts/Study/6-VariableScope.sol:Variables",
						"label": "y",
						"offset": 0,
						"slot": "1",
						"type": "t_uint256"
					},
					{
						"astId": 8,
						"contract": "SolidityProjects/contracts/Study/6-VariableScope.sol:Variables",
						"label": "z",
						"offset": 0,
						"slot": "2",
						"type": "t_string_storage"
					}
				],
				"types": {
					"t_string_storage": {
						"encoding": "bytes",
						"label": "string",
						"numberOfBytes": "32"
					},
					"t_uint256": {
						"encoding": "inplace",
						"label": "uint256",
						"numberOfBytes": "32"
					}
				}
			},
			"userdoc": {
				"kind": "user",
				"methods": {},
				"version": 1
			}
		}
	}
}