{
	"SolidityProjects/contracts/Study/12-DefaultValues.sol": {
		"DefaultValues": {
			"abi": [
				{
					"inputs": [],
					"name": "_address",
					"outputs": [
						{
							"internalType": "address",
							"name": "",
							"type": "address"
						}
					],
					"stateMutability": "view",
					"type": "function"
				},
				{
					"inputs": [],
					"name": "_bool",
					"outputs": [
						{
							"internalType": "bool",
							"name": "",
							"type": "bool"
						}
					],
					"stateMutability": "view",
					"type": "function"
				},
				{
					"inputs": [
						{
							"internalType": "uint256",
							"name": "",
							"type": "uint256"
						}
					],
					"name": "_dynamicArray",
					"outputs": [
						{
							"internalType": "uint256",
							"name": "",
							"type": "uint256"
						}
					],
					"stateMutability": "view",
					"type": "function"
				},
				{
					"inputs": [],
					"name": "_enum",
					"outputs": [
						{
							"internalType": "enum DefaultValues.ActionSet",
							"name": "",
							"type": "uint8"
						}
					],
					"stateMutability": "view",
					"type": "function"
				},
				{
					"inputs": [
						{
							"internalType": "uint256",
							"name": "",
							"type": "uint256"
						}
					],
					"name": "_mapping",
					"outputs": [
						{
							"internalType": "address",
							"name": "",
							"type": "address"
						}
					],
					"stateMutability": "view",
					"type": "function"
				},
				{
					"inputs": [
						{
							"internalType": "uint256",
							"name": "",
							"type": "uint256"
						}
					],
					"name": "_staticArray",
					"outputs": [
						{
							"internalType": "uint256",
							"name": "",
							"type": "uint256"
						}
					],
					"stateMutability": "view",
					"type": "function"
				},
				{
					"inputs": [],
					"name": "b",
					"outputs": [
						{
							"internalType": "bool",
							"name": "",
							"type": "bool"
						}
					],
					"stateMutability": "view",
					"type": "function"
				},
				{
					"inputs": [],
					"name": "b32",
					"outputs": [
						{
							"internalType": "bytes32",
							"name": "",
							"type": "bytes32"
						}
					],
					"stateMutability": "view",
					"type": "function"
				},
				{
					"inputs": [],
					"name": "d",
					"outputs": [],
					"stateMutability": "nonpayable",
					"type": "function"
				},
				{
					"inputs": [],
					"name": "fe",
					"outputs": [],
					"stateMutability": "nonpayable",
					"type": "function"
				},
				{
					"inputs": [],
					"name": "i",
					"outputs": [
						{
							"internalType": "int256",
							"name": "",
							"type": "int256"
						}
					],
					"stateMutability": "view",
					"type": "function"
				},
				{
					"inputs": [],
					"name": "my_struct",
					"outputs": [
						{
							"internalType": "uint256",
							"name": "id",
							"type": "uint256"
						},
						{
							"internalType": "uint256",
							"name": "scores",
							"type": "uint256"
						}
					],
					"stateMutability": "view",
					"type": "function"
				},
				{
					"inputs": [],
					"name": "str",
					"outputs": [
						{
							"internalType": "string",
							"name": "",
							"type": "string"
						}
					],
					"stateMutability": "view",
					"type": "function"
				},
				{
					"inputs": [],
					"name": "u",
					"outputs": [
						{
							"internalType": "uint256",
							"name": "",
							"type": "uint256"
						}
					],
					"stateMutability": "view",
					"type": "function"
				}
			],
			"devdoc": {
				"kind": "dev",
				"methods": {},
				"version": 1
			},
			"evm": {
				"assembly": "    /* \"SolidityProjects/contracts/Study/12-DefaultValues.sol\":667:1572  contract DefaultValues {... */\n  mstore(0x40, 0x80)\n    /* \"SolidityProjects/contracts/Study/12-DefaultValues.sol\":1504:1508  true */\n  0x01\n    /* \"SolidityProjects/contracts/Study/12-DefaultValues.sol\":1484:1508  bool public _bool = true */\n  0x13\n  exp(0x0100, 0x00)\n  dup2\n  sload\n  dup2\n  0xff\n  mul\n  not\n  and\n  swap1\n  dup4\n  iszero\n  iszero\n  mul\n  or\n  swap1\n  sstore\n  pop\n    /* \"SolidityProjects/contracts/Study/12-DefaultValues.sol\":667:1572  contract DefaultValues {... */\n  callvalue\n  dup1\n  iszero\n  tag_1\n  jumpi\n  0x00\n  dup1\n  revert\ntag_1:\n  pop\n  dataSize(sub_0)\n  dup1\n  dataOffset(sub_0)\n  0x00\n  codecopy\n  0x00\n  return\nstop\n\nsub_0: assembly {\n        /* \"SolidityProjects/contracts/Study/12-DefaultValues.sol\":667:1572  contract DefaultValues {... */\n      mstore(0x40, 0x80)\n      callvalue\n      dup1\n      iszero\n      tag_1\n      jumpi\n      0x00\n      dup1\n      revert\n    tag_1:\n      pop\n      jumpi(tag_2, lt(calldatasize, 0x04))\n      shr(0xe0, calldataload(0x00))\n      dup1\n      0x9e6ba9c2\n      gt\n      tag_17\n      jumpi\n      dup1\n      0xc6a898c5\n      gt\n      tag_18\n      jumpi\n      dup1\n      0xc6a898c5\n      eq\n      tag_13\n      jumpi\n      dup1\n      0xe5aa3d58\n      eq\n      tag_14\n      jumpi\n      dup1\n      0xea8e4fd1\n      eq\n      tag_15\n      jumpi\n      dup1\n      0xf8aab238\n      eq\n      tag_16\n      jumpi\n      jump(tag_2)\n    tag_18:\n      dup1\n      0x9e6ba9c2\n      eq\n      tag_10\n      jumpi\n      dup1\n      0xa2ba3ee4\n      eq\n      tag_11\n      jumpi\n      dup1\n      0xc15bae84\n      eq\n      tag_12\n      jumpi\n      jump(tag_2)\n    tag_17:\n      dup1\n      0x4df7e3d0\n      gt\n      tag_19\n      jumpi\n      dup1\n      0x4df7e3d0\n      eq\n      tag_6\n      jumpi\n      dup1\n      0x68909d83\n      eq\n      tag_7\n      jumpi\n      dup1\n      0x86ed6eac\n      eq\n      tag_8\n      jumpi\n      dup1\n      0x8a054ac2\n      eq\n      tag_9\n      jumpi\n      jump(tag_2)\n    tag_19:\n      dup1\n      0x12b7b142\n      eq\n      tag_3\n      jumpi\n      dup1\n      0x18bad217\n      eq\n      tag_4\n      jumpi\n      dup1\n      0x30c0826f\n      eq\n      tag_5\n      jumpi\n    tag_2:\n      0x00\n      dup1\n      revert\n        /* \"SolidityProjects/contracts/Study/12-DefaultValues.sol\":1157:1184  uint[8] public _staticArray */\n    tag_3:\n      tag_20\n      0x04\n      dup1\n      calldatasize\n      sub\n      dup2\n      add\n      swap1\n      tag_21\n      swap2\n      swap1\n      tag_22\n      jump\t// in\n    tag_21:\n      tag_23\n      jump\t// in\n    tag_20:\n      mload(0x40)\n      tag_24\n      swap2\n      swap1\n      tag_25\n      jump\t// in\n    tag_24:\n      mload(0x40)\n      dup1\n      swap2\n      sub\n      swap1\n      return\n        /* \"SolidityProjects/contracts/Study/12-DefaultValues.sol\":834:857  address public _address */\n    tag_4:\n      tag_26\n      tag_27\n      jump\t// in\n    tag_26:\n      mload(0x40)\n      tag_28\n      swap2\n      swap1\n      tag_29\n      jump\t// in\n    tag_28:\n      mload(0x40)\n      dup1\n      swap2\n      sub\n      swap1\n      return\n        /* \"SolidityProjects/contracts/Study/12-DefaultValues.sol\":1034:1056  ActionSet public _enum */\n    tag_5:\n      tag_30\n      tag_31\n      jump\t// in\n    tag_30:\n      mload(0x40)\n      tag_32\n      swap2\n      swap1\n      tag_33\n      jump\t// in\n    tag_32:\n      mload(0x40)\n      dup1\n      swap2\n      sub\n      swap1\n      return\n        /* \"SolidityProjects/contracts/Study/12-DefaultValues.sol\":726:739  bool public b */\n    tag_6:\n      tag_34\n      tag_35\n      jump\t// in\n    tag_34:\n      mload(0x40)\n      tag_36\n      swap2\n      swap1\n      tag_37\n      jump\t// in\n    tag_36:\n      mload(0x40)\n      dup1\n      swap2\n      sub\n      swap1\n      return\n        /* \"SolidityProjects/contracts/Study/12-DefaultValues.sol\":1368:1394  My_Struct public my_struct */\n    tag_7:\n      tag_38\n      tag_39\n      jump\t// in\n    tag_38:\n      mload(0x40)\n      tag_40\n      swap3\n      swap2\n      swap1\n      tag_41\n      jump\t// in\n    tag_40:\n      mload(0x40)\n      dup1\n      swap2\n      sub\n      swap1\n      return\n        /* \"SolidityProjects/contracts/Study/12-DefaultValues.sol\":1095:1119  function fe() external{} */\n    tag_8:\n      tag_42\n      tag_43\n      jump\t// in\n    tag_42:\n      stop\n        /* \"SolidityProjects/contracts/Study/12-DefaultValues.sol\":1515:1567  function d() external{... */\n    tag_9:\n      tag_44\n      tag_45\n      jump\t// in\n    tag_44:\n      stop\n        /* \"SolidityProjects/contracts/Study/12-DefaultValues.sol\":1484:1508  bool public _bool = true */\n    tag_10:\n      tag_46\n      tag_47\n      jump\t// in\n    tag_46:\n      mload(0x40)\n      tag_48\n      swap2\n      swap1\n      tag_37\n      jump\t// in\n    tag_48:\n      mload(0x40)\n      dup1\n      swap2\n      sub\n      swap1\n      return\n        /* \"SolidityProjects/contracts/Study/12-DefaultValues.sol\":1233:1273  mapping(uint => address) public _mapping */\n    tag_11:\n      tag_49\n      0x04\n      dup1\n      calldatasize\n      sub\n      dup2\n      add\n      swap1\n      tag_50\n      swap2\n      swap1\n      tag_22\n      jump\t// in\n    tag_50:\n      tag_51\n      jump\t// in\n    tag_49:\n      mload(0x40)\n      tag_52\n      swap2\n      swap1\n      tag_29\n      jump\t// in\n    tag_52:\n      mload(0x40)\n      dup1\n      swap2\n      sub\n      swap1\n      return\n        /* \"SolidityProjects/contracts/Study/12-DefaultValues.sol\":804:821  string public str */\n    tag_12:\n      tag_53\n      tag_54\n      jump\t// in\n    tag_53:\n      mload(0x40)\n      tag_55\n      swap2\n      swap1\n      tag_56\n      jump\t// in\n    tag_55:\n      mload(0x40)\n      dup1\n      swap2\n      sub\n      swap1\n      return\n        /* \"SolidityProjects/contracts/Study/12-DefaultValues.sol\":755:768  uint public u */\n    tag_13:\n      tag_57\n      tag_58\n      jump\t// in\n    tag_57:\n      mload(0x40)\n      tag_59\n      swap2\n      swap1\n      tag_25\n      jump\t// in\n    tag_59:\n      mload(0x40)\n      dup1\n      swap2\n      sub\n      swap1\n      return\n        /* \"SolidityProjects/contracts/Study/12-DefaultValues.sol\":780:792  int public i */\n    tag_14:\n      tag_60\n      tag_61\n      jump\t// in\n    tag_60:\n      mload(0x40)\n      tag_62\n      swap2\n      swap1\n      tag_63\n      jump\t// in\n    tag_62:\n      mload(0x40)\n      dup1\n      swap2\n      sub\n      swap1\n      return\n        /* \"SolidityProjects/contracts/Study/12-DefaultValues.sol\":1195:1222  uint[] public _dynamicArray */\n    tag_15:\n      tag_64\n      0x04\n      dup1\n      calldatasize\n      sub\n      dup2\n      add\n      swap1\n      tag_65\n      swap2\n      swap1\n      tag_22\n      jump\t// in\n    tag_65:\n      tag_66\n      jump\t// in\n    tag_64:\n      mload(0x40)\n      tag_67\n      swap2\n      swap1\n      tag_25\n      jump\t// in\n    tag_67:\n      mload(0x40)\n      dup1\n      swap2\n      sub\n      swap1\n      return\n        /* \"SolidityProjects/contracts/Study/12-DefaultValues.sol\":902:920  bytes32 public b32 */\n    tag_16:\n      tag_68\n      tag_69\n      jump\t// in\n    tag_68:\n      mload(0x40)\n      tag_70\n      swap2\n      swap1\n      tag_71\n      jump\t// in\n    tag_70:\n      mload(0x40)\n      dup1\n      swap2\n      sub\n      swap1\n      return\n        /* \"SolidityProjects/contracts/Study/12-DefaultValues.sol\":1157:1184  uint[8] public _staticArray */\n    tag_23:\n      0x07\n      dup2\n      0x08\n      dup2\n      lt\n      tag_72\n      jumpi\n      0x00\n      dup1\n      revert\n    tag_72:\n      add\n      0x00\n      swap2\n      pop\n      swap1\n      pop\n      sload\n      dup2\n      jump\t// out\n        /* \"SolidityProjects/contracts/Study/12-DefaultValues.sol\":834:857  address public _address */\n    tag_27:\n      0x04\n      0x00\n      swap1\n      sload\n      swap1\n      0x0100\n      exp\n      swap1\n      div\n      0xffffffffffffffffffffffffffffffffffffffff\n      and\n      dup2\n      jump\t// out\n        /* \"SolidityProjects/contracts/Study/12-DefaultValues.sol\":1034:1056  ActionSet public _enum */\n    tag_31:\n      0x06\n      0x00\n      swap1\n      sload\n      swap1\n      0x0100\n      exp\n      swap1\n      div\n      0xff\n      and\n      dup2\n      jump\t// out\n        /* \"SolidityProjects/contracts/Study/12-DefaultValues.sol\":726:739  bool public b */\n    tag_35:\n      0x00\n      dup1\n      sload\n      swap1\n      0x0100\n      exp\n      swap1\n      div\n      0xff\n      and\n      dup2\n      jump\t// out\n        /* \"SolidityProjects/contracts/Study/12-DefaultValues.sol\":1368:1394  My_Struct public my_struct */\n    tag_39:\n      0x11\n      dup1\n      0x00\n      add\n      sload\n      swap1\n      dup1\n      0x01\n      add\n      sload\n      swap1\n      pop\n      dup3\n      jump\t// out\n        /* \"SolidityProjects/contracts/Study/12-DefaultValues.sol\":1095:1119  function fe() external{} */\n    tag_43:\n      jump\t// out\n        /* \"SolidityProjects/contracts/Study/12-DefaultValues.sol\":1515:1567  function d() external{... */\n    tag_45:\n        /* \"SolidityProjects/contracts/Study/12-DefaultValues.sol\":1554:1559  _bool */\n      0x13\n      0x00\n        /* \"SolidityProjects/contracts/Study/12-DefaultValues.sol\":1547:1559  delete _bool */\n      0x0100\n      exp\n      dup2\n      sload\n      swap1\n      0xff\n      mul\n      not\n      and\n      swap1\n      sstore\n        /* \"SolidityProjects/contracts/Study/12-DefaultValues.sol\":1515:1567  function d() external{... */\n      jump\t// out\n        /* \"SolidityProjects/contracts/Study/12-DefaultValues.sol\":1484:1508  bool public _bool = true */\n    tag_47:\n      0x13\n      0x00\n      swap1\n      sload\n      swap1\n      0x0100\n      exp\n      swap1\n      div\n      0xff\n      and\n      dup2\n      jump\t// out\n        /* \"SolidityProjects/contracts/Study/12-DefaultValues.sol\":1233:1273  mapping(uint => address) public _mapping */\n    tag_51:\n      mstore(0x20, 0x10)\n      dup1\n      0x00\n      mstore\n      keccak256(0x00, 0x40)\n      0x00\n      swap2\n      pop\n      sload\n      swap1\n      0x0100\n      exp\n      swap1\n      div\n      0xffffffffffffffffffffffffffffffffffffffff\n      and\n      dup2\n      jump\t// out\n        /* \"SolidityProjects/contracts/Study/12-DefaultValues.sol\":804:821  string public str */\n    tag_54:\n      0x03\n      dup1\n      sload\n      tag_76\n      swap1\n      tag_77\n      jump\t// in\n    tag_76:\n      dup1\n      0x1f\n      add\n      0x20\n      dup1\n      swap2\n      div\n      mul\n      0x20\n      add\n      mload(0x40)\n      swap1\n      dup2\n      add\n      0x40\n      mstore\n      dup1\n      swap3\n      swap2\n      swap1\n      dup2\n      dup2\n      mstore\n      0x20\n      add\n      dup3\n      dup1\n      sload\n      tag_78\n      swap1\n      tag_77\n      jump\t// in\n    tag_78:\n      dup1\n      iszero\n      tag_79\n      jumpi\n      dup1\n      0x1f\n      lt\n      tag_80\n      jumpi\n      0x0100\n      dup1\n      dup4\n      sload\n      div\n      mul\n      dup4\n      mstore\n      swap2\n      0x20\n      add\n      swap2\n      jump(tag_79)\n    tag_80:\n      dup3\n      add\n      swap2\n      swap1\n      0x00\n      mstore\n      keccak256(0x00, 0x20)\n      swap1\n    tag_81:\n      dup2\n      sload\n      dup2\n      mstore\n      swap1\n      0x01\n      add\n      swap1\n      0x20\n      add\n      dup1\n      dup4\n      gt\n      tag_81\n      jumpi\n      dup3\n      swap1\n      sub\n      0x1f\n      and\n      dup3\n      add\n      swap2\n    tag_79:\n      pop\n      pop\n      pop\n      pop\n      pop\n      dup2\n      jump\t// out\n        /* \"SolidityProjects/contracts/Study/12-DefaultValues.sol\":755:768  uint public u */\n    tag_58:\n      sload(0x01)\n      dup2\n      jump\t// out\n        /* \"SolidityProjects/contracts/Study/12-DefaultValues.sol\":780:792  int public i */\n    tag_61:\n      sload(0x02)\n      dup2\n      jump\t// out\n        /* \"SolidityProjects/contracts/Study/12-DefaultValues.sol\":1195:1222  uint[] public _dynamicArray */\n    tag_66:\n      0x0f\n      dup2\n      dup2\n      sload\n      dup2\n      lt\n      tag_82\n      jumpi\n      0x00\n      dup1\n      revert\n    tag_82:\n      swap1\n      0x00\n      mstore\n      keccak256(0x00, 0x20)\n      add\n      0x00\n      swap2\n      pop\n      swap1\n      pop\n      sload\n      dup2\n      jump\t// out\n        /* \"SolidityProjects/contracts/Study/12-DefaultValues.sol\":902:920  bytes32 public b32 */\n    tag_69:\n      sload(0x05)\n      dup2\n      jump\t// out\n        /* \"#utility.yul\":88:205   */\n    tag_85:\n        /* \"#utility.yul\":197:198   */\n      0x00\n        /* \"#utility.yul\":194:195   */\n      dup1\n        /* \"#utility.yul\":187:199   */\n      revert\n        /* \"#utility.yul\":334:411   */\n    tag_87:\n        /* \"#utility.yul\":371:378   */\n      0x00\n        /* \"#utility.yul\":400:405   */\n      dup2\n        /* \"#utility.yul\":389:405   */\n      swap1\n      pop\n        /* \"#utility.yul\":334:411   */\n      swap2\n      swap1\n      pop\n      jump\t// out\n        /* \"#utility.yul\":417:539   */\n    tag_88:\n        /* \"#utility.yul\":490:514   */\n      tag_117\n        /* \"#utility.yul\":508:513   */\n      dup2\n        /* \"#utility.yul\":490:514   */\n      tag_87\n      jump\t// in\n    tag_117:\n        /* \"#utility.yul\":483:488   */\n      dup2\n        /* \"#utility.yul\":480:515   */\n      eq\n        /* \"#utility.yul\":470:533   */\n      tag_118\n      jumpi\n        /* \"#utility.yul\":529:530   */\n      0x00\n        /* \"#utility.yul\":526:527   */\n      dup1\n        /* \"#utility.yul\":519:531   */\n      revert\n        /* \"#utility.yul\":470:533   */\n    tag_118:\n        /* \"#utility.yul\":417:539   */\n      pop\n      jump\t// out\n        /* \"#utility.yul\":545:684   */\n    tag_89:\n        /* \"#utility.yul\":591:596   */\n      0x00\n        /* \"#utility.yul\":629:635   */\n      dup2\n        /* \"#utility.yul\":616:636   */\n      calldataload\n        /* \"#utility.yul\":607:636   */\n      swap1\n      pop\n        /* \"#utility.yul\":645:678   */\n      tag_120\n        /* \"#utility.yul\":672:677   */\n      dup2\n        /* \"#utility.yul\":645:678   */\n      tag_88\n      jump\t// in\n    tag_120:\n        /* \"#utility.yul\":545:684   */\n      swap3\n      swap2\n      pop\n      pop\n      jump\t// out\n        /* \"#utility.yul\":690:1019   */\n    tag_22:\n        /* \"#utility.yul\":749:755   */\n      0x00\n        /* \"#utility.yul\":798:800   */\n      0x20\n        /* \"#utility.yul\":786:795   */\n      dup3\n        /* \"#utility.yul\":777:784   */\n      dup5\n        /* \"#utility.yul\":773:796   */\n      sub\n        /* \"#utility.yul\":769:801   */\n      slt\n        /* \"#utility.yul\":766:885   */\n      iszero\n      tag_122\n      jumpi\n        /* \"#utility.yul\":804:883   */\n      tag_123\n      tag_85\n      jump\t// in\n    tag_123:\n        /* \"#utility.yul\":766:885   */\n    tag_122:\n        /* \"#utility.yul\":924:925   */\n      0x00\n        /* \"#utility.yul\":949:1002   */\n      tag_124\n        /* \"#utility.yul\":994:1001   */\n      dup5\n        /* \"#utility.yul\":985:991   */\n      dup3\n        /* \"#utility.yul\":974:983   */\n      dup6\n        /* \"#utility.yul\":970:992   */\n      add\n        /* \"#utility.yul\":949:1002   */\n      tag_89\n      jump\t// in\n    tag_124:\n        /* \"#utility.yul\":939:1002   */\n      swap2\n      pop\n        /* \"#utility.yul\":895:1012   */\n      pop\n        /* \"#utility.yul\":690:1019   */\n      swap3\n      swap2\n      pop\n      pop\n      jump\t// out\n        /* \"#utility.yul\":1025:1143   */\n    tag_90:\n        /* \"#utility.yul\":1112:1136   */\n      tag_126\n        /* \"#utility.yul\":1130:1135   */\n      dup2\n        /* \"#utility.yul\":1112:1136   */\n      tag_87\n      jump\t// in\n    tag_126:\n        /* \"#utility.yul\":1107:1110   */\n      dup3\n        /* \"#utility.yul\":1100:1137   */\n      mstore\n        /* \"#utility.yul\":1025:1143   */\n      pop\n      pop\n      jump\t// out\n        /* \"#utility.yul\":1149:1371   */\n    tag_25:\n        /* \"#utility.yul\":1242:1246   */\n      0x00\n        /* \"#utility.yul\":1280:1282   */\n      0x20\n        /* \"#utility.yul\":1269:1278   */\n      dup3\n        /* \"#utility.yul\":1265:1283   */\n      add\n        /* \"#utility.yul\":1257:1283   */\n      swap1\n      pop\n        /* \"#utility.yul\":1293:1364   */\n      tag_128\n        /* \"#utility.yul\":1361:1362   */\n      0x00\n        /* \"#utility.yul\":1350:1359   */\n      dup4\n        /* \"#utility.yul\":1346:1363   */\n      add\n        /* \"#utility.yul\":1337:1343   */\n      dup5\n        /* \"#utility.yul\":1293:1364   */\n      tag_90\n      jump\t// in\n    tag_128:\n        /* \"#utility.yul\":1149:1371   */\n      swap3\n      swap2\n      pop\n      pop\n      jump\t// out\n        /* \"#utility.yul\":1377:1503   */\n    tag_91:\n        /* \"#utility.yul\":1414:1421   */\n      0x00\n        /* \"#utility.yul\":1454:1496   */\n      0xffffffffffffffffffffffffffffffffffffffff\n        /* \"#utility.yul\":1447:1452   */\n      dup3\n        /* \"#utility.yul\":1443:1497   */\n      and\n        /* \"#utility.yul\":1432:1497   */\n      swap1\n      pop\n        /* \"#utility.yul\":1377:1503   */\n      swap2\n      swap1\n      pop\n      jump\t// out\n        /* \"#utility.yul\":1509:1605   */\n    tag_92:\n        /* \"#utility.yul\":1546:1553   */\n      0x00\n        /* \"#utility.yul\":1575:1599   */\n      tag_131\n        /* \"#utility.yul\":1593:1598   */\n      dup3\n        /* \"#utility.yul\":1575:1599   */\n      tag_91\n      jump\t// in\n    tag_131:\n        /* \"#utility.yul\":1564:1599   */\n      swap1\n      pop\n        /* \"#utility.yul\":1509:1605   */\n      swap2\n      swap1\n      pop\n      jump\t// out\n        /* \"#utility.yul\":1611:1729   */\n    tag_93:\n        /* \"#utility.yul\":1698:1722   */\n      tag_133\n        /* \"#utility.yul\":1716:1721   */\n      dup2\n        /* \"#utility.yul\":1698:1722   */\n      tag_92\n      jump\t// in\n    tag_133:\n        /* \"#utility.yul\":1693:1696   */\n      dup3\n        /* \"#utility.yul\":1686:1723   */\n      mstore\n        /* \"#utility.yul\":1611:1729   */\n      pop\n      pop\n      jump\t// out\n        /* \"#utility.yul\":1735:1957   */\n    tag_29:\n        /* \"#utility.yul\":1828:1832   */\n      0x00\n        /* \"#utility.yul\":1866:1868   */\n      0x20\n        /* \"#utility.yul\":1855:1864   */\n      dup3\n        /* \"#utility.yul\":1851:1869   */\n      add\n        /* \"#utility.yul\":1843:1869   */\n      swap1\n      pop\n        /* \"#utility.yul\":1879:1950   */\n      tag_135\n        /* \"#utility.yul\":1947:1948   */\n      0x00\n        /* \"#utility.yul\":1936:1945   */\n      dup4\n        /* \"#utility.yul\":1932:1949   */\n      add\n        /* \"#utility.yul\":1923:1929   */\n      dup5\n        /* \"#utility.yul\":1879:1950   */\n      tag_93\n      jump\t// in\n    tag_135:\n        /* \"#utility.yul\":1735:1957   */\n      swap3\n      swap2\n      pop\n      pop\n      jump\t// out\n        /* \"#utility.yul\":1963:2143   */\n    tag_94:\n        /* \"#utility.yul\":2011:2088   */\n      0x4e487b7100000000000000000000000000000000000000000000000000000000\n        /* \"#utility.yul\":2008:2009   */\n      0x00\n        /* \"#utility.yul\":2001:2089   */\n      mstore\n        /* \"#utility.yul\":2108:2112   */\n      0x21\n        /* \"#utility.yul\":2105:2106   */\n      0x04\n        /* \"#utility.yul\":2098:2113   */\n      mstore\n        /* \"#utility.yul\":2132:2136   */\n      0x24\n        /* \"#utility.yul\":2129:2130   */\n      0x00\n        /* \"#utility.yul\":2122:2137   */\n      revert\n        /* \"#utility.yul\":2149:2266   */\n    tag_95:\n        /* \"#utility.yul\":2234:2235   */\n      0x03\n        /* \"#utility.yul\":2227:2232   */\n      dup2\n        /* \"#utility.yul\":2224:2236   */\n      lt\n        /* \"#utility.yul\":2214:2260   */\n      tag_138\n      jumpi\n        /* \"#utility.yul\":2240:2258   */\n      tag_139\n      tag_94\n      jump\t// in\n    tag_139:\n        /* \"#utility.yul\":2214:2260   */\n    tag_138:\n        /* \"#utility.yul\":2149:2266   */\n      pop\n      jump\t// out\n        /* \"#utility.yul\":2272:2407   */\n    tag_96:\n        /* \"#utility.yul\":2321:2328   */\n      0x00\n        /* \"#utility.yul\":2350:2355   */\n      dup2\n        /* \"#utility.yul\":2339:2355   */\n      swap1\n      pop\n        /* \"#utility.yul\":2356:2401   */\n      tag_141\n        /* \"#utility.yul\":2395:2400   */\n      dup3\n        /* \"#utility.yul\":2356:2401   */\n      tag_95\n      jump\t// in\n    tag_141:\n        /* \"#utility.yul\":2272:2407   */\n      swap2\n      swap1\n      pop\n      jump\t// out\n        /* \"#utility.yul\":2413:2548   */\n    tag_97:\n        /* \"#utility.yul\":2473:2482   */\n      0x00\n        /* \"#utility.yul\":2506:2542   */\n      tag_143\n        /* \"#utility.yul\":2536:2541   */\n      dup3\n        /* \"#utility.yul\":2506:2542   */\n      tag_96\n      jump\t// in\n    tag_143:\n        /* \"#utility.yul\":2493:2542   */\n      swap1\n      pop\n        /* \"#utility.yul\":2413:2548   */\n      swap2\n      swap1\n      pop\n      jump\t// out\n        /* \"#utility.yul\":2554:2705   */\n    tag_98:\n        /* \"#utility.yul\":2651:2698   */\n      tag_145\n        /* \"#utility.yul\":2692:2697   */\n      dup2\n        /* \"#utility.yul\":2651:2698   */\n      tag_97\n      jump\t// in\n    tag_145:\n        /* \"#utility.yul\":2646:2649   */\n      dup3\n        /* \"#utility.yul\":2639:2699   */\n      mstore\n        /* \"#utility.yul\":2554:2705   */\n      pop\n      pop\n      jump\t// out\n        /* \"#utility.yul\":2711:2953   */\n    tag_33:\n        /* \"#utility.yul\":2814:2818   */\n      0x00\n        /* \"#utility.yul\":2852:2854   */\n      0x20\n        /* \"#utility.yul\":2841:2850   */\n      dup3\n        /* \"#utility.yul\":2837:2855   */\n      add\n        /* \"#utility.yul\":2829:2855   */\n      swap1\n      pop\n        /* \"#utility.yul\":2865:2946   */\n      tag_147\n        /* \"#utility.yul\":2943:2944   */\n      0x00\n        /* \"#utility.yul\":2932:2941   */\n      dup4\n        /* \"#utility.yul\":2928:2945   */\n      add\n        /* \"#utility.yul\":2919:2925   */\n      dup5\n        /* \"#utility.yul\":2865:2946   */\n      tag_98\n      jump\t// in\n    tag_147:\n        /* \"#utility.yul\":2711:2953   */\n      swap3\n      swap2\n      pop\n      pop\n      jump\t// out\n        /* \"#utility.yul\":2959:3049   */\n    tag_99:\n        /* \"#utility.yul\":2993:3000   */\n      0x00\n        /* \"#utility.yul\":3036:3041   */\n      dup2\n        /* \"#utility.yul\":3029:3042   */\n      iszero\n        /* \"#utility.yul\":3022:3043   */\n      iszero\n        /* \"#utility.yul\":3011:3043   */\n      swap1\n      pop\n        /* \"#utility.yul\":2959:3049   */\n      swap2\n      swap1\n      pop\n      jump\t// out\n        /* \"#utility.yul\":3055:3164   */\n    tag_100:\n        /* \"#utility.yul\":3136:3157   */\n      tag_150\n        /* \"#utility.yul\":3151:3156   */\n      dup2\n        /* \"#utility.yul\":3136:3157   */\n      tag_99\n      jump\t// in\n    tag_150:\n        /* \"#utility.yul\":3131:3134   */\n      dup3\n        /* \"#utility.yul\":3124:3158   */\n      mstore\n        /* \"#utility.yul\":3055:3164   */\n      pop\n      pop\n      jump\t// out\n        /* \"#utility.yul\":3170:3380   */\n    tag_37:\n        /* \"#utility.yul\":3257:3261   */\n      0x00\n        /* \"#utility.yul\":3295:3297   */\n      0x20\n        /* \"#utility.yul\":3284:3293   */\n      dup3\n        /* \"#utility.yul\":3280:3298   */\n      add\n        /* \"#utility.yul\":3272:3298   */\n      swap1\n      pop\n        /* \"#utility.yul\":3308:3373   */\n      tag_152\n        /* \"#utility.yul\":3370:3371   */\n      0x00\n        /* \"#utility.yul\":3359:3368   */\n      dup4\n        /* \"#utility.yul\":3355:3372   */\n      add\n        /* \"#utility.yul\":3346:3352   */\n      dup5\n        /* \"#utility.yul\":3308:3373   */\n      tag_100\n      jump\t// in\n    tag_152:\n        /* \"#utility.yul\":3170:3380   */\n      swap3\n      swap2\n      pop\n      pop\n      jump\t// out\n        /* \"#utility.yul\":3386:3718   */\n    tag_41:\n        /* \"#utility.yul\":3507:3511   */\n      0x00\n        /* \"#utility.yul\":3545:3547   */\n      0x40\n        /* \"#utility.yul\":3534:3543   */\n      dup3\n        /* \"#utility.yul\":3530:3548   */\n      add\n        /* \"#utility.yul\":3522:3548   */\n      swap1\n      pop\n        /* \"#utility.yul\":3558:3629   */\n      tag_154\n        /* \"#utility.yul\":3626:3627   */\n      0x00\n        /* \"#utility.yul\":3615:3624   */\n      dup4\n        /* \"#utility.yul\":3611:3628   */\n      add\n        /* \"#utility.yul\":3602:3608   */\n      dup6\n        /* \"#utility.yul\":3558:3629   */\n      tag_90\n      jump\t// in\n    tag_154:\n        /* \"#utility.yul\":3639:3711   */\n      tag_155\n        /* \"#utility.yul\":3707:3709   */\n      0x20\n        /* \"#utility.yul\":3696:3705   */\n      dup4\n        /* \"#utility.yul\":3692:3710   */\n      add\n        /* \"#utility.yul\":3683:3689   */\n      dup5\n        /* \"#utility.yul\":3639:3711   */\n      tag_90\n      jump\t// in\n    tag_155:\n        /* \"#utility.yul\":3386:3718   */\n      swap4\n      swap3\n      pop\n      pop\n      pop\n      jump\t// out\n        /* \"#utility.yul\":3724:3823   */\n    tag_101:\n        /* \"#utility.yul\":3776:3782   */\n      0x00\n        /* \"#utility.yul\":3810:3815   */\n      dup2\n        /* \"#utility.yul\":3804:3816   */\n      mload\n        /* \"#utility.yul\":3794:3816   */\n      swap1\n      pop\n        /* \"#utility.yul\":3724:3823   */\n      swap2\n      swap1\n      pop\n      jump\t// out\n        /* \"#utility.yul\":3829:3998   */\n    tag_102:\n        /* \"#utility.yul\":3913:3924   */\n      0x00\n        /* \"#utility.yul\":3947:3953   */\n      dup3\n        /* \"#utility.yul\":3942:3945   */\n      dup3\n        /* \"#utility.yul\":3935:3954   */\n      mstore\n        /* \"#utility.yul\":3987:3991   */\n      0x20\n        /* \"#utility.yul\":3982:3985   */\n      dup3\n        /* \"#utility.yul\":3978:3992   */\n      add\n        /* \"#utility.yul\":3963:3992   */\n      swap1\n      pop\n        /* \"#utility.yul\":3829:3998   */\n      swap3\n      swap2\n      pop\n      pop\n      jump\t// out\n        /* \"#utility.yul\":4004:4143   */\n    tag_103:\n        /* \"#utility.yul\":4093:4099   */\n      dup3\n        /* \"#utility.yul\":4088:4091   */\n      dup2\n        /* \"#utility.yul\":4083:4086   */\n      dup4\n        /* \"#utility.yul\":4077:4100   */\n      mcopy\n        /* \"#utility.yul\":4134:4135   */\n      0x00\n        /* \"#utility.yul\":4125:4131   */\n      dup4\n        /* \"#utility.yul\":4120:4123   */\n      dup4\n        /* \"#utility.yul\":4116:4132   */\n      add\n        /* \"#utility.yul\":4109:4136   */\n      mstore\n        /* \"#utility.yul\":4004:4143   */\n      pop\n      pop\n      pop\n      jump\t// out\n        /* \"#utility.yul\":4149:4251   */\n    tag_104:\n        /* \"#utility.yul\":4190:4196   */\n      0x00\n        /* \"#utility.yul\":4241:4243   */\n      0x1f\n        /* \"#utility.yul\":4237:4244   */\n      not\n        /* \"#utility.yul\":4232:4234   */\n      0x1f\n        /* \"#utility.yul\":4225:4230   */\n      dup4\n        /* \"#utility.yul\":4221:4235   */\n      add\n        /* \"#utility.yul\":4217:4245   */\n      and\n        /* \"#utility.yul\":4207:4245   */\n      swap1\n      pop\n        /* \"#utility.yul\":4149:4251   */\n      swap2\n      swap1\n      pop\n      jump\t// out\n        /* \"#utility.yul\":4257:4634   */\n    tag_105:\n        /* \"#utility.yul\":4345:4348   */\n      0x00\n        /* \"#utility.yul\":4373:4412   */\n      tag_161\n        /* \"#utility.yul\":4406:4411   */\n      dup3\n        /* \"#utility.yul\":4373:4412   */\n      tag_101\n      jump\t// in\n    tag_161:\n        /* \"#utility.yul\":4428:4499   */\n      tag_162\n        /* \"#utility.yul\":4492:4498   */\n      dup2\n        /* \"#utility.yul\":4487:4490   */\n      dup6\n        /* \"#utility.yul\":4428:4499   */\n      tag_102\n      jump\t// in\n    tag_162:\n        /* \"#utility.yul\":4421:4499   */\n      swap4\n      pop\n        /* \"#utility.yul\":4508:4573   */\n      tag_163\n        /* \"#utility.yul\":4566:4572   */\n      dup2\n        /* \"#utility.yul\":4561:4564   */\n      dup6\n        /* \"#utility.yul\":4554:4558   */\n      0x20\n        /* \"#utility.yul\":4547:4552   */\n      dup7\n        /* \"#utility.yul\":4543:4559   */\n      add\n        /* \"#utility.yul\":4508:4573   */\n      tag_103\n      jump\t// in\n    tag_163:\n        /* \"#utility.yul\":4598:4627   */\n      tag_164\n        /* \"#utility.yul\":4620:4626   */\n      dup2\n        /* \"#utility.yul\":4598:4627   */\n      tag_104\n      jump\t// in\n    tag_164:\n        /* \"#utility.yul\":4593:4596   */\n      dup5\n        /* \"#utility.yul\":4589:4628   */\n      add\n        /* \"#utility.yul\":4582:4628   */\n      swap2\n      pop\n        /* \"#utility.yul\":4349:4634   */\n      pop\n        /* \"#utility.yul\":4257:4634   */\n      swap3\n      swap2\n      pop\n      pop\n      jump\t// out\n        /* \"#utility.yul\":4640:4953   */\n    tag_56:\n        /* \"#utility.yul\":4753:4757   */\n      0x00\n        /* \"#utility.yul\":4791:4793   */\n      0x20\n        /* \"#utility.yul\":4780:4789   */\n      dup3\n        /* \"#utility.yul\":4776:4794   */\n      add\n        /* \"#utility.yul\":4768:4794   */\n      swap1\n      pop\n        /* \"#utility.yul\":4840:4849   */\n      dup2\n        /* \"#utility.yul\":4834:4838   */\n      dup2\n        /* \"#utility.yul\":4830:4850   */\n      sub\n        /* \"#utility.yul\":4826:4827   */\n      0x00\n        /* \"#utility.yul\":4815:4824   */\n      dup4\n        /* \"#utility.yul\":4811:4828   */\n      add\n        /* \"#utility.yul\":4804:4851   */\n      mstore\n        /* \"#utility.yul\":4868:4946   */\n      tag_166\n        /* \"#utility.yul\":4941:4945   */\n      dup2\n        /* \"#utility.yul\":4932:4938   */\n      dup5\n        /* \"#utility.yul\":4868:4946   */\n      tag_105\n      jump\t// in\n    tag_166:\n        /* \"#utility.yul\":4860:4946   */\n      swap1\n      pop\n        /* \"#utility.yul\":4640:4953   */\n      swap3\n      swap2\n      pop\n      pop\n      jump\t// out\n        /* \"#utility.yul\":4959:5035   */\n    tag_106:\n        /* \"#utility.yul\":4995:5002   */\n      0x00\n        /* \"#utility.yul\":5024:5029   */\n      dup2\n        /* \"#utility.yul\":5013:5029   */\n      swap1\n      pop\n        /* \"#utility.yul\":4959:5035   */\n      swap2\n      swap1\n      pop\n      jump\t// out\n        /* \"#utility.yul\":5041:5156   */\n    tag_107:\n        /* \"#utility.yul\":5126:5149   */\n      tag_169\n        /* \"#utility.yul\":5143:5148   */\n      dup2\n        /* \"#utility.yul\":5126:5149   */\n      tag_106\n      jump\t// in\n    tag_169:\n        /* \"#utility.yul\":5121:5124   */\n      dup3\n        /* \"#utility.yul\":5114:5150   */\n      mstore\n        /* \"#utility.yul\":5041:5156   */\n      pop\n      pop\n      jump\t// out\n        /* \"#utility.yul\":5162:5380   */\n    tag_63:\n        /* \"#utility.yul\":5253:5257   */\n      0x00\n        /* \"#utility.yul\":5291:5293   */\n      0x20\n        /* \"#utility.yul\":5280:5289   */\n      dup3\n        /* \"#utility.yul\":5276:5294   */\n      add\n        /* \"#utility.yul\":5268:5294   */\n      swap1\n      pop\n        /* \"#utility.yul\":5304:5373   */\n      tag_171\n        /* \"#utility.yul\":5370:5371   */\n      0x00\n        /* \"#utility.yul\":5359:5368   */\n      dup4\n        /* \"#utility.yul\":5355:5372   */\n      add\n        /* \"#utility.yul\":5346:5352   */\n      dup5\n        /* \"#utility.yul\":5304:5373   */\n      tag_107\n      jump\t// in\n    tag_171:\n        /* \"#utility.yul\":5162:5380   */\n      swap3\n      swap2\n      pop\n      pop\n      jump\t// out\n        /* \"#utility.yul\":5386:5463   */\n    tag_108:\n        /* \"#utility.yul\":5423:5430   */\n      0x00\n        /* \"#utility.yul\":5452:5457   */\n      dup2\n        /* \"#utility.yul\":5441:5457   */\n      swap1\n      pop\n        /* \"#utility.yul\":5386:5463   */\n      swap2\n      swap1\n      pop\n      jump\t// out\n        /* \"#utility.yul\":5469:5587   */\n    tag_109:\n        /* \"#utility.yul\":5556:5580   */\n      tag_174\n        /* \"#utility.yul\":5574:5579   */\n      dup2\n        /* \"#utility.yul\":5556:5580   */\n      tag_108\n      jump\t// in\n    tag_174:\n        /* \"#utility.yul\":5551:5554   */\n      dup3\n        /* \"#utility.yul\":5544:5581   */\n      mstore\n        /* \"#utility.yul\":5469:5587   */\n      pop\n      pop\n      jump\t// out\n        /* \"#utility.yul\":5593:5815   */\n    tag_71:\n        /* \"#utility.yul\":5686:5690   */\n      0x00\n        /* \"#utility.yul\":5724:5726   */\n      0x20\n        /* \"#utility.yul\":5713:5722   */\n      dup3\n        /* \"#utility.yul\":5709:5727   */\n      add\n        /* \"#utility.yul\":5701:5727   */\n      swap1\n      pop\n        /* \"#utility.yul\":5737:5808   */\n      tag_176\n        /* \"#utility.yul\":5805:5806   */\n      0x00\n        /* \"#utility.yul\":5794:5803   */\n      dup4\n        /* \"#utility.yul\":5790:5807   */\n      add\n        /* \"#utility.yul\":5781:5787   */\n      dup5\n        /* \"#utility.yul\":5737:5808   */\n      tag_109\n      jump\t// in\n    tag_176:\n        /* \"#utility.yul\":5593:5815   */\n      swap3\n      swap2\n      pop\n      pop\n      jump\t// out\n        /* \"#utility.yul\":5821:6001   */\n    tag_110:\n        /* \"#utility.yul\":5869:5946   */\n      0x4e487b7100000000000000000000000000000000000000000000000000000000\n        /* \"#utility.yul\":5866:5867   */\n      0x00\n        /* \"#utility.yul\":5859:5947   */\n      mstore\n        /* \"#utility.yul\":5966:5970   */\n      0x22\n        /* \"#utility.yul\":5963:5964   */\n      0x04\n        /* \"#utility.yul\":5956:5971   */\n      mstore\n        /* \"#utility.yul\":5990:5994   */\n      0x24\n        /* \"#utility.yul\":5987:5988   */\n      0x00\n        /* \"#utility.yul\":5980:5995   */\n      revert\n        /* \"#utility.yul\":6007:6327   */\n    tag_77:\n        /* \"#utility.yul\":6051:6057   */\n      0x00\n        /* \"#utility.yul\":6088:6089   */\n      0x02\n        /* \"#utility.yul\":6082:6086   */\n      dup3\n        /* \"#utility.yul\":6078:6090   */\n      div\n        /* \"#utility.yul\":6068:6090   */\n      swap1\n      pop\n        /* \"#utility.yul\":6135:6136   */\n      0x01\n        /* \"#utility.yul\":6129:6133   */\n      dup3\n        /* \"#utility.yul\":6125:6137   */\n      and\n        /* \"#utility.yul\":6156:6174   */\n      dup1\n        /* \"#utility.yul\":6146:6227   */\n      tag_179\n      jumpi\n        /* \"#utility.yul\":6212:6216   */\n      0x7f\n        /* \"#utility.yul\":6204:6210   */\n      dup3\n        /* \"#utility.yul\":6200:6217   */\n      and\n        /* \"#utility.yul\":6190:6217   */\n      swap2\n      pop\n        /* \"#utility.yul\":6146:6227   */\n    tag_179:\n        /* \"#utility.yul\":6274:6276   */\n      0x20\n        /* \"#utility.yul\":6266:6272   */\n      dup3\n        /* \"#utility.yul\":6263:6277   */\n      lt\n        /* \"#utility.yul\":6243:6261   */\n      dup2\n        /* \"#utility.yul\":6240:6278   */\n      sub\n        /* \"#utility.yul\":6237:6321   */\n      tag_180\n      jumpi\n        /* \"#utility.yul\":6293:6311   */\n      tag_181\n      tag_110\n      jump\t// in\n    tag_181:\n        /* \"#utility.yul\":6237:6321   */\n    tag_180:\n        /* \"#utility.yul\":6058:6327   */\n      pop\n        /* \"#utility.yul\":6007:6327   */\n      swap2\n      swap1\n      pop\n      jump\t// out\n\n    auxdata: 0xa2646970667358221220444b799589a2fcde1d23d7d0892125cceaac9eaeab622a7046c206c5425ef72d64736f6c63430008190033\n}\n",
				"bytecode": {
					"linkReferences": {},
					"object": "6080604052600160135f6101000a81548160ff0219169083151502179055503480156028575f80fd5b50610772806100365f395ff3fe608060405234801561000f575f80fd5b50600436106100e8575f3560e01c80639e6ba9c21161008a578063c6a898c511610064578063c6a898c514610215578063e5aa3d5814610233578063ea8e4fd114610251578063f8aab23814610281576100e8565b80639e6ba9c2146101a9578063a2ba3ee4146101c7578063c15bae84146101f7576100e8565b80634df7e3d0116100c65780634df7e3d01461015857806368909d831461017657806386ed6eac146101955780638a054ac21461019f576100e8565b806312b7b142146100ec57806318bad2171461011c57806330c0826f1461013a575b5f80fd5b6101066004803603810190610101919061045c565b61029f565b6040516101139190610496565b60405180910390f35b6101246102b8565b60405161013191906104ee565b60405180910390f35b6101426102dd565b60405161014f919061057a565b60405180910390f35b6101606102ef565b60405161016d91906105ad565b60405180910390f35b61017e6102ff565b60405161018c9291906105c6565b60405180910390f35b61019d610310565b005b6101a7610312565b005b6101b1610325565b6040516101be91906105ad565b60405180910390f35b6101e160048036038101906101dc919061045c565b610337565b6040516101ee91906104ee565b60405180910390f35b6101ff610367565b60405161020c919061065d565b60405180910390f35b61021d6103f3565b60405161022a9190610496565b60405180910390f35b61023b6103f9565b6040516102489190610695565b60405180910390f35b61026b6004803603810190610266919061045c565b6103ff565b6040516102789190610496565b60405180910390f35b61028961041f565b60405161029691906106c6565b60405180910390f35b600781600881106102ae575f80fd5b015f915090505481565b60045f9054906101000a900473ffffffffffffffffffffffffffffffffffffffff1681565b60065f9054906101000a900460ff1681565b5f8054906101000a900460ff1681565b6011805f0154908060010154905082565b565b60135f6101000a81549060ff0219169055565b60135f9054906101000a900460ff1681565b6010602052805f5260405f205f915054906101000a900473ffffffffffffffffffffffffffffffffffffffff1681565b600380546103749061070c565b80601f01602080910402602001604051908101604052809291908181526020018280546103a09061070c565b80156103eb5780601f106103c2576101008083540402835291602001916103eb565b820191905f5260205f20905b8154815290600101906020018083116103ce57829003601f168201915b505050505081565b60015481565b60025481565b600f818154811061040e575f80fd5b905f5260205f20015f915090505481565b60055481565b5f80fd5b5f819050919050565b61043b81610429565b8114610445575f80fd5b50565b5f8135905061045681610432565b92915050565b5f6020828403121561047157610470610425565b5b5f61047e84828501610448565b91505092915050565b61049081610429565b82525050565b5f6020820190506104a95f830184610487565b92915050565b5f73ffffffffffffffffffffffffffffffffffffffff82169050919050565b5f6104d8826104af565b9050919050565b6104e8816104ce565b82525050565b5f6020820190506105015f8301846104df565b92915050565b7f4e487b71000000000000000000000000000000000000000000000000000000005f52602160045260245ffd5b6003811061054557610544610507565b5b50565b5f81905061055582610534565b919050565b5f61056482610548565b9050919050565b6105748161055a565b82525050565b5f60208201905061058d5f83018461056b565b92915050565b5f8115159050919050565b6105a781610593565b82525050565b5f6020820190506105c05f83018461059e565b92915050565b5f6040820190506105d95f830185610487565b6105e66020830184610487565b9392505050565b5f81519050919050565b5f82825260208201905092915050565b8281835e5f83830152505050565b5f601f19601f8301169050919050565b5f61062f826105ed565b61063981856105f7565b9350610649818560208601610607565b61065281610615565b840191505092915050565b5f6020820190508181035f8301526106758184610625565b905092915050565b5f819050919050565b61068f8161067d565b82525050565b5f6020820190506106a85f830184610686565b92915050565b5f819050919050565b6106c0816106ae565b82525050565b5f6020820190506106d95f8301846106b7565b92915050565b7f4e487b71000000000000000000000000000000000000000000000000000000005f52602260045260245ffd5b5f600282049050600182168061072357607f821691505b602082108103610736576107356106df565b5b5091905056fea2646970667358221220444b799589a2fcde1d23d7d0892125cceaac9eaeab622a7046c206c5425ef72d64736f6c63430008190033",
					"opcodes": "PUSH1 0x80 PUSH1 0x40 MSTORE PUSH1 0x1 PUSH1 0x13 PUSH0 PUSH2 0x100 EXP DUP2 SLOAD DUP2 PUSH1 0xFF MUL NOT AND SWAP1 DUP4 ISZERO ISZERO MUL OR SWAP1 SSTORE POP CALLVALUE DUP1 ISZERO PUSH1 0x28 JUMPI PUSH0 DUP1 REVERT JUMPDEST POP PUSH2 0x772 DUP1 PUSH2 0x36 PUSH0 CODECOPY PUSH0 RETURN INVALID PUSH1 0x80 PUSH1 0x40 MSTORE CALLVALUE DUP1 ISZERO PUSH2 0xF JUMPI PUSH0 DUP1 REVERT JUMPDEST POP PUSH1 0x4 CALLDATASIZE LT PUSH2 0xE8 JUMPI PUSH0 CALLDATALOAD PUSH1 0xE0 SHR DUP1 PUSH4 0x9E6BA9C2 GT PUSH2 0x8A JUMPI DUP1 PUSH4 0xC6A898C5 GT PUSH2 0x64 JUMPI DUP1 PUSH4 0xC6A898C5 EQ PUSH2 0x215 JUMPI DUP1 PUSH4 0xE5AA3D58 EQ PUSH2 0x233 JUMPI DUP1 PUSH4 0xEA8E4FD1 EQ PUSH2 0x251 JUMPI DUP1 PUSH4 0xF8AAB238 EQ PUSH2 0x281 JUMPI PUSH2 0xE8 JUMP JUMPDEST DUP1 PUSH4 0x9E6BA9C2 EQ PUSH2 0x1A9 JUMPI DUP1 PUSH4 0xA2BA3EE4 EQ PUSH2 0x1C7 JUMPI DUP1 PUSH4 0xC15BAE84 EQ PUSH2 0x1F7 JUMPI PUSH2 0xE8 JUMP JUMPDEST DUP1 PUSH4 0x4DF7E3D0 GT PUSH2 0xC6 JUMPI DUP1 PUSH4 0x4DF7E3D0 EQ PUSH2 0x158 JUMPI DUP1 PUSH4 0x68909D83 EQ PUSH2 0x176 JUMPI DUP1 PUSH4 0x86ED6EAC EQ PUSH2 0x195 JUMPI DUP1 PUSH4 0x8A054AC2 EQ PUSH2 0x19F JUMPI PUSH2 0xE8 JUMP JUMPDEST DUP1 PUSH4 0x12B7B142 EQ PUSH2 0xEC JUMPI DUP1 PUSH4 0x18BAD217 EQ PUSH2 0x11C JUMPI DUP1 PUSH4 0x30C0826F EQ PUSH2 0x13A JUMPI JUMPDEST PUSH0 DUP1 REVERT JUMPDEST PUSH2 0x106 PUSH1 0x4 DUP1 CALLDATASIZE SUB DUP2 ADD SWAP1 PUSH2 0x101 SWAP2 SWAP1 PUSH2 0x45C JUMP JUMPDEST PUSH2 0x29F JUMP JUMPDEST PUSH1 0x40 MLOAD PUSH2 0x113 SWAP2 SWAP1 PUSH2 0x496 JUMP JUMPDEST PUSH1 0x40 MLOAD DUP1 SWAP2 SUB SWAP1 RETURN JUMPDEST PUSH2 0x124 PUSH2 0x2B8 JUMP JUMPDEST PUSH1 0x40 MLOAD PUSH2 0x131 SWAP2 SWAP1 PUSH2 0x4EE JUMP JUMPDEST PUSH1 0x40 MLOAD DUP1 SWAP2 SUB SWAP1 RETURN JUMPDEST PUSH2 0x142 PUSH2 0x2DD JUMP JUMPDEST PUSH1 0x40 MLOAD PUSH2 0x14F SWAP2 SWAP1 PUSH2 0x57A JUMP JUMPDEST PUSH1 0x40 MLOAD DUP1 SWAP2 SUB SWAP1 RETURN JUMPDEST PUSH2 0x160 PUSH2 0x2EF JUMP JUMPDEST PUSH1 0x40 MLOAD PUSH2 0x16D SWAP2 SWAP1 PUSH2 0x5AD JUMP JUMPDEST PUSH1 0x40 MLOAD DUP1 SWAP2 SUB SWAP1 RETURN JUMPDEST PUSH2 0x17E PUSH2 0x2FF JUMP JUMPDEST PUSH1 0x40 MLOAD PUSH2 0x18C SWAP3 SWAP2 SWAP1 PUSH2 0x5C6 JUMP JUMPDEST PUSH1 0x40 MLOAD DUP1 SWAP2 SUB SWAP1 RETURN JUMPDEST PUSH2 0x19D PUSH2 0x310 JUMP JUMPDEST STOP JUMPDEST PUSH2 0x1A7 PUSH2 0x312 JUMP JUMPDEST STOP JUMPDEST PUSH2 0x1B1 PUSH2 0x325 JUMP JUMPDEST PUSH1 0x40 MLOAD PUSH2 0x1BE SWAP2 SWAP1 PUSH2 0x5AD JUMP JUMPDEST PUSH1 0x40 MLOAD DUP1 SWAP2 SUB SWAP1 RETURN JUMPDEST PUSH2 0x1E1 PUSH1 0x4 DUP1 CALLDATASIZE SUB DUP2 ADD SWAP1 PUSH2 0x1DC SWAP2 SWAP1 PUSH2 0x45C JUMP JUMPDEST PUSH2 0x337 JUMP JUMPDEST PUSH1 0x40 MLOAD PUSH2 0x1EE SWAP2 SWAP1 PUSH2 0x4EE JUMP JUMPDEST PUSH1 0x40 MLOAD DUP1 SWAP2 SUB SWAP1 RETURN JUMPDEST PUSH2 0x1FF PUSH2 0x367 JUMP JUMPDEST PUSH1 0x40 MLOAD PUSH2 0x20C SWAP2 SWAP1 PUSH2 0x65D JUMP JUMPDEST PUSH1 0x40 MLOAD DUP1 SWAP2 SUB SWAP1 RETURN JUMPDEST PUSH2 0x21D PUSH2 0x3F3 JUMP JUMPDEST PUSH1 0x40 MLOAD PUSH2 0x22A SWAP2 SWAP1 PUSH2 0x496 JUMP JUMPDEST PUSH1 0x40 MLOAD DUP1 SWAP2 SUB SWAP1 RETURN JUMPDEST PUSH2 0x23B PUSH2 0x3F9 JUMP JUMPDEST PUSH1 0x40 MLOAD PUSH2 0x248 SWAP2 SWAP1 PUSH2 0x695 JUMP JUMPDEST PUSH1 0x40 MLOAD DUP1 SWAP2 SUB SWAP1 RETURN JUMPDEST PUSH2 0x26B PUSH1 0x4 DUP1 CALLDATASIZE SUB DUP2 ADD SWAP1 PUSH2 0x266 SWAP2 SWAP1 PUSH2 0x45C JUMP JUMPDEST PUSH2 0x3FF JUMP JUMPDEST PUSH1 0x40 MLOAD PUSH2 0x278 SWAP2 SWAP1 PUSH2 0x496 JUMP JUMPDEST PUSH1 0x40 MLOAD DUP1 SWAP2 SUB SWAP1 RETURN JUMPDEST PUSH2 0x289 PUSH2 0x41F JUMP JUMPDEST PUSH1 0x40 MLOAD PUSH2 0x296 SWAP2 SWAP1 PUSH2 0x6C6 JUMP JUMPDEST PUSH1 0x40 MLOAD DUP1 SWAP2 SUB SWAP1 RETURN JUMPDEST PUSH1 0x7 DUP2 PUSH1 0x8 DUP2 LT PUSH2 0x2AE JUMPI PUSH0 DUP1 REVERT JUMPDEST ADD PUSH0 SWAP2 POP SWAP1 POP SLOAD DUP2 JUMP JUMPDEST PUSH1 0x4 PUSH0 SWAP1 SLOAD SWAP1 PUSH2 0x100 EXP SWAP1 DIV PUSH20 0xFFFFFFFFFFFFFFFFFFFFFFFFFFFFFFFFFFFFFFFF AND DUP2 JUMP JUMPDEST PUSH1 0x6 PUSH0 SWAP1 SLOAD SWAP1 PUSH2 0x100 EXP SWAP1 DIV PUSH1 0xFF AND DUP2 JUMP JUMPDEST PUSH0 DUP1 SLOAD SWAP1 PUSH2 0x100 EXP SWAP1 DIV PUSH1 0xFF AND DUP2 JUMP JUMPDEST PUSH1 0x11 DUP1 PUSH0 ADD SLOAD SWAP1 DUP1 PUSH1 0x1 ADD SLOAD SWAP1 POP DUP3 JUMP JUMPDEST JUMP JUMPDEST PUSH1 0x13 PUSH0 PUSH2 0x100 EXP DUP2 SLOAD SWAP1 PUSH1 0xFF MUL NOT AND SWAP1 SSTORE JUMP JUMPDEST PUSH1 0x13 PUSH0 SWAP1 SLOAD SWAP1 PUSH2 0x100 EXP SWAP1 DIV PUSH1 0xFF AND DUP2 JUMP JUMPDEST PUSH1 0x10 PUSH1 0x20 MSTORE DUP1 PUSH0 MSTORE PUSH1 0x40 PUSH0 KECCAK256 PUSH0 SWAP2 POP SLOAD SWAP1 PUSH2 0x100 EXP SWAP1 DIV PUSH20 0xFFFFFFFFFFFFFFFFFFFFFFFFFFFFFFFFFFFFFFFF AND DUP2 JUMP JUMPDEST PUSH1 0x3 DUP1 SLOAD PUSH2 0x374 SWAP1 PUSH2 0x70C JUMP JUMPDEST DUP1 PUSH1 0x1F ADD PUSH1 0x20 DUP1 SWAP2 DIV MUL PUSH1 0x20 ADD PUSH1 0x40 MLOAD SWAP1 DUP2 ADD PUSH1 0x40 MSTORE DUP1 SWAP3 SWAP2 SWAP1 DUP2 DUP2 MSTORE PUSH1 0x20 ADD DUP3 DUP1 SLOAD PUSH2 0x3A0 SWAP1 PUSH2 0x70C JUMP JUMPDEST DUP1 ISZERO PUSH2 0x3EB JUMPI DUP1 PUSH1 0x1F LT PUSH2 0x3C2 JUMPI PUSH2 0x100 DUP1 DUP4 SLOAD DIV MUL DUP4 MSTORE SWAP2 PUSH1 0x20 ADD SWAP2 PUSH2 0x3EB JUMP JUMPDEST DUP3 ADD SWAP2 SWAP1 PUSH0 MSTORE PUSH1 0x20 PUSH0 KECCAK256 SWAP1 JUMPDEST DUP2 SLOAD DUP2 MSTORE SWAP1 PUSH1 0x1 ADD SWAP1 PUSH1 0x20 ADD DUP1 DUP4 GT PUSH2 0x3CE JUMPI DUP3 SWAP1 SUB PUSH1 0x1F AND DUP3 ADD SWAP2 JUMPDEST POP POP POP POP POP DUP2 JUMP JUMPDEST PUSH1 0x1 SLOAD DUP2 JUMP JUMPDEST PUSH1 0x2 SLOAD DUP2 JUMP JUMPDEST PUSH1 0xF DUP2 DUP2 SLOAD DUP2 LT PUSH2 0x40E JUMPI PUSH0 DUP1 REVERT JUMPDEST SWAP1 PUSH0 MSTORE PUSH1 0x20 PUSH0 KECCAK256 ADD PUSH0 SWAP2 POP SWAP1 POP SLOAD DUP2 JUMP JUMPDEST PUSH1 0x5 SLOAD DUP2 JUMP JUMPDEST PUSH0 DUP1 REVERT JUMPDEST PUSH0 DUP2 SWAP1 POP SWAP2 SWAP1 POP JUMP JUMPDEST PUSH2 0x43B DUP2 PUSH2 0x429 JUMP JUMPDEST DUP2 EQ PUSH2 0x445 JUMPI PUSH0 DUP1 REVERT JUMPDEST POP JUMP JUMPDEST PUSH0 DUP2 CALLDATALOAD SWAP1 POP PUSH2 0x456 DUP2 PUSH2 0x432 JUMP JUMPDEST SWAP3 SWAP2 POP POP JUMP JUMPDEST PUSH0 PUSH1 0x20 DUP3 DUP5 SUB SLT ISZERO PUSH2 0x471 JUMPI PUSH2 0x470 PUSH2 0x425 JUMP JUMPDEST JUMPDEST PUSH0 PUSH2 0x47E DUP5 DUP3 DUP6 ADD PUSH2 0x448 JUMP JUMPDEST SWAP2 POP POP SWAP3 SWAP2 POP POP JUMP JUMPDEST PUSH2 0x490 DUP2 PUSH2 0x429 JUMP JUMPDEST DUP3 MSTORE POP POP JUMP JUMPDEST PUSH0 PUSH1 0x20 DUP3 ADD SWAP1 POP PUSH2 0x4A9 PUSH0 DUP4 ADD DUP5 PUSH2 0x487 JUMP JUMPDEST SWAP3 SWAP2 POP POP JUMP JUMPDEST PUSH0 PUSH20 0xFFFFFFFFFFFFFFFFFFFFFFFFFFFFFFFFFFFFFFFF DUP3 AND SWAP1 POP SWAP2 SWAP1 POP JUMP JUMPDEST PUSH0 PUSH2 0x4D8 DUP3 PUSH2 0x4AF JUMP JUMPDEST SWAP1 POP SWAP2 SWAP1 POP JUMP JUMPDEST PUSH2 0x4E8 DUP2 PUSH2 0x4CE JUMP JUMPDEST DUP3 MSTORE POP POP JUMP JUMPDEST PUSH0 PUSH1 0x20 DUP3 ADD SWAP1 POP PUSH2 0x501 PUSH0 DUP4 ADD DUP5 PUSH2 0x4DF JUMP JUMPDEST SWAP3 SWAP2 POP POP JUMP JUMPDEST PUSH32 0x4E487B7100000000000000000000000000000000000000000000000000000000 PUSH0 MSTORE PUSH1 0x21 PUSH1 0x4 MSTORE PUSH1 0x24 PUSH0 REVERT JUMPDEST PUSH1 0x3 DUP2 LT PUSH2 0x545 JUMPI PUSH2 0x544 PUSH2 0x507 JUMP JUMPDEST JUMPDEST POP JUMP JUMPDEST PUSH0 DUP2 SWAP1 POP PUSH2 0x555 DUP3 PUSH2 0x534 JUMP JUMPDEST SWAP2 SWAP1 POP JUMP JUMPDEST PUSH0 PUSH2 0x564 DUP3 PUSH2 0x548 JUMP JUMPDEST SWAP1 POP SWAP2 SWAP1 POP JUMP JUMPDEST PUSH2 0x574 DUP2 PUSH2 0x55A JUMP JUMPDEST DUP3 MSTORE POP POP JUMP JUMPDEST PUSH0 PUSH1 0x20 DUP3 ADD SWAP1 POP PUSH2 0x58D PUSH0 DUP4 ADD DUP5 PUSH2 0x56B JUMP JUMPDEST SWAP3 SWAP2 POP POP JUMP JUMPDEST PUSH0 DUP2 ISZERO ISZERO SWAP1 POP SWAP2 SWAP1 POP JUMP JUMPDEST PUSH2 0x5A7 DUP2 PUSH2 0x593 JUMP JUMPDEST DUP3 MSTORE POP POP JUMP JUMPDEST PUSH0 PUSH1 0x20 DUP3 ADD SWAP1 POP PUSH2 0x5C0 PUSH0 DUP4 ADD DUP5 PUSH2 0x59E JUMP JUMPDEST SWAP3 SWAP2 POP POP JUMP JUMPDEST PUSH0 PUSH1 0x40 DUP3 ADD SWAP1 POP PUSH2 0x5D9 PUSH0 DUP4 ADD DUP6 PUSH2 0x487 JUMP JUMPDEST PUSH2 0x5E6 PUSH1 0x20 DUP4 ADD DUP5 PUSH2 0x487 JUMP JUMPDEST SWAP4 SWAP3 POP POP POP JUMP JUMPDEST PUSH0 DUP2 MLOAD SWAP1 POP SWAP2 SWAP1 POP JUMP JUMPDEST PUSH0 DUP3 DUP3 MSTORE PUSH1 0x20 DUP3 ADD SWAP1 POP SWAP3 SWAP2 POP POP JUMP JUMPDEST DUP3 DUP2 DUP4 MCOPY PUSH0 DUP4 DUP4 ADD MSTORE POP POP POP JUMP JUMPDEST PUSH0 PUSH1 0x1F NOT PUSH1 0x1F DUP4 ADD AND SWAP1 POP SWAP2 SWAP1 POP JUMP JUMPDEST PUSH0 PUSH2 0x62F DUP3 PUSH2 0x5ED JUMP JUMPDEST PUSH2 0x639 DUP2 DUP6 PUSH2 0x5F7 JUMP JUMPDEST SWAP4 POP PUSH2 0x649 DUP2 DUP6 PUSH1 0x20 DUP7 ADD PUSH2 0x607 JUMP JUMPDEST PUSH2 0x652 DUP2 PUSH2 0x615 JUMP JUMPDEST DUP5 ADD SWAP2 POP POP SWAP3 SWAP2 POP POP JUMP JUMPDEST PUSH0 PUSH1 0x20 DUP3 ADD SWAP1 POP DUP2 DUP2 SUB PUSH0 DUP4 ADD MSTORE PUSH2 0x675 DUP2 DUP5 PUSH2 0x625 JUMP JUMPDEST SWAP1 POP SWAP3 SWAP2 POP POP JUMP JUMPDEST PUSH0 DUP2 SWAP1 POP SWAP2 SWAP1 POP JUMP JUMPDEST PUSH2 0x68F DUP2 PUSH2 0x67D JUMP JUMPDEST DUP3 MSTORE POP POP JUMP JUMPDEST PUSH0 PUSH1 0x20 DUP3 ADD SWAP1 POP PUSH2 0x6A8 PUSH0 DUP4 ADD DUP5 PUSH2 0x686 JUMP JUMPDEST SWAP3 SWAP2 POP POP JUMP JUMPDEST PUSH0 DUP2 SWAP1 POP SWAP2 SWAP1 POP JUMP JUMPDEST PUSH2 0x6C0 DUP2 PUSH2 0x6AE JUMP JUMPDEST DUP3 MSTORE POP POP JUMP JUMPDEST PUSH0 PUSH1 0x20 DUP3 ADD SWAP1 POP PUSH2 0x6D9 PUSH0 DUP4 ADD DUP5 PUSH2 0x6B7 JUMP JUMPDEST SWAP3 SWAP2 POP POP JUMP JUMPDEST PUSH32 0x4E487B7100000000000000000000000000000000000000000000000000000000 PUSH0 MSTORE PUSH1 0x22 PUSH1 0x4 MSTORE PUSH1 0x24 PUSH0 REVERT JUMPDEST PUSH0 PUSH1 0x2 DUP3 DIV SWAP1 POP PUSH1 0x1 DUP3 AND DUP1 PUSH2 0x723 JUMPI PUSH1 0x7F DUP3 AND SWAP2 POP JUMPDEST PUSH1 0x20 DUP3 LT DUP2 SUB PUSH2 0x736 JUMPI PUSH2 0x735 PUSH2 0x6DF JUMP JUMPDEST JUMPDEST POP SWAP2 SWAP1 POP JUMP INVALID LOG2 PUSH5 0x6970667358 0x22 SLT KECCAK256 PREVRANDAO 0x4B PUSH26 0x9589A2FCDE1D23D7D0892125CCEAAC9EAEAB622A7046C206C542 MCOPY 0xF7 0x2D PUSH5 0x736F6C6343 STOP ADDMOD NOT STOP CALLER "
				},
				"gasEstimates": {
					"creation": {
						"codeDepositCost": "381200",
						"executionCost": "24682",
						"totalCost": "405882"
					},
					"external": {
						"_address()": "2554",
						"_bool()": "2489",
						"_dynamicArray(uint256)": "infinite",
						"_enum()": "2622",
						"_mapping(uint256)": "2872",
						"_staticArray(uint256)": "infinite",
						"b()": "2486",
						"b32()": "2513",
						"d()": "24473",
						"fe()": "210",
						"i()": "2469",
						"my_struct()": "infinite",
						"str()": "infinite",
						"u()": "2447"
					},
					"internal": {
						"fi()": "infinite"
					}
				},
				"methodIdentifiers": {
					"_address()": "18bad217",
					"_bool()": "9e6ba9c2",
					"_dynamicArray(uint256)": "ea8e4fd1",
					"_enum()": "30c0826f",
					"_mapping(uint256)": "a2ba3ee4",
					"_staticArray(uint256)": "12b7b142",
					"b()": "4df7e3d0",
					"b32()": "f8aab238",
					"d()": "8a054ac2",
					"fe()": "86ed6eac",
					"i()": "e5aa3d58",
					"my_struct()": "68909d83",
					"str()": "c15bae84",
					"u()": "c6a898c5"
				}
			},
			"storageLayout": {
				"storage": [
					{
						"astId": 3,
						"contract": "SolidityProjects/contracts/Study/12-DefaultValues.sol:DefaultValues",
						"label": "b",
						"offset": 0,
						"slot": "0",
						"type": "t_bool"
					},
					{
						"astId": 5,
						"contract": "SolidityProjects/contracts/Study/12-DefaultValues.sol:DefaultValues",
						"label": "u",
						"offset": 0,
						"slot": "1",
						"type": "t_uint256"
					},
					{
						"astId": 7,
						"contract": "SolidityProjects/contracts/Study/12-DefaultValues.sol:DefaultValues",
						"label": "i",
						"offset": 0,
						"slot": "2",
						"type": "t_int256"
					},
					{
						"astId": 9,
						"contract": "SolidityProjects/contracts/Study/12-DefaultValues.sol:DefaultValues",
						"label": "str",
						"offset": 0,
						"slot": "3",
						"type": "t_string_storage"
					},
					{
						"astId": 11,
						"contract": "SolidityProjects/contracts/Study/12-DefaultValues.sol:DefaultValues",
						"label": "_address",
						"offset": 0,
						"slot": "4",
						"type": "t_address"
					},
					{
						"astId": 13,
						"contract": "SolidityProjects/contracts/Study/12-DefaultValues.sol:DefaultValues",
						"label": "b32",
						"offset": 0,
						"slot": "5",
						"type": "t_bytes32"
					},
					{
						"astId": 20,
						"contract": "SolidityProjects/contracts/Study/12-DefaultValues.sol:DefaultValues",
						"label": "_enum",
						"offset": 0,
						"slot": "6",
						"type": "t_enum(ActionSet)17"
					},
					{
						"astId": 32,
						"contract": "SolidityProjects/contracts/Study/12-DefaultValues.sol:DefaultValues",
						"label": "_staticArray",
						"offset": 0,
						"slot": "7",
						"type": "t_array(t_uint256)8_storage"
					},
					{
						"astId": 35,
						"contract": "SolidityProjects/contracts/Study/12-DefaultValues.sol:DefaultValues",
						"label": "_dynamicArray",
						"offset": 0,
						"slot": "15",
						"type": "t_array(t_uint256)dyn_storage"
					},
					{
						"astId": 39,
						"contract": "SolidityProjects/contracts/Study/12-DefaultValues.sol:DefaultValues",
						"label": "_mapping",
						"offset": 0,
						"slot": "16",
						"type": "t_mapping(t_uint256,t_address)"
					},
					{
						"astId": 47,
						"contract": "SolidityProjects/contracts/Study/12-DefaultValues.sol:DefaultValues",
						"label": "my_struct",
						"offset": 0,
						"slot": "17",
						"type": "t_struct(My_Struct)44_storage"
					},
					{
						"astId": 50,
						"contract": "SolidityProjects/contracts/Study/12-DefaultValues.sol:DefaultValues",
						"label": "_bool",
						"offset": 0,
						"slot": "19",
						"type": "t_bool"
					}
				],
				"types": {
					"t_address": {
						"encoding": "inplace",
						"label": "address",
						"numberOfBytes": "20"
					},
					"t_array(t_uint256)8_storage": {
						"base": "t_uint256",
						"encoding": "inplace",
						"label": "uint256[8]",
						"numberOfBytes": "256"
					},
					"t_array(t_uint256)dyn_storage": {
						"base": "t_uint256",
						"encoding": "dynamic_array",
						"label": "uint256[]",
						"numberOfBytes": "32"
					},
					"t_bool": {
						"encoding": "inplace",
						"label": "bool",
						"numberOfBytes": "1"
					},
					"t_bytes32": {
						"encoding": "inplace",
						"label": "bytes32",
						"numberOfBytes": "32"
					},
					"t_enum(ActionSet)17": {
						"encoding": "inplace",
						"label": "enum DefaultValues.ActionSet",
						"numberOfBytes": "1"
					},
					"t_int256": {
						"encoding": "inplace",
						"label": "int256",
						"numberOfBytes": "32"
					},
					"t_mapping(t_uint256,t_address)": {
						"encoding": "mapping",
						"key": "t_uint256",
						"label": "mapping(uint256 => address)",
						"numberOfBytes": "32",
						"value": "t_address"
					},
					"t_string_storage": {
						"encoding": "bytes",
						"label": "string",
						"numberOfBytes": "32"
					},
					"t_struct(My_Struct)44_storage": {
						"encoding": "inplace",
						"label": "struct DefaultValues.My_Struct",
						"members": [
							{
								"astId": 41,
								"contract": "SolidityProjects/contracts/Study/12-DefaultValues.sol:DefaultValues",
								"label": "id",
								"offset": 0,
								"slot": "0",
								"type": "t_uint256"
							},
							{
								"astId": 43,
								"contract": "SolidityProjects/contracts/Study/12-DefaultValues.sol:DefaultValues",
								"label": "scores",
								"offset": 0,
								"slot": "1",
								"type": "t_uint256"
							}
						],
						"numberOfBytes": "64"
					},
					"t_uint256": {
						"encoding": "inplace",
						"label": "uint256",
						"numberOfBytes": "32"
					}
				}
			},
			"userdoc": {
				"kind": "user",
				"methods": {},
				"version": 1
			}
		}
	}
}