{
	"SolidityProjects/contracts/Study/8-ReferenceTypes.sol": {
		"ReferenceTypes": {
			"abi": [
				{
					"inputs": [],
					"name": "arrayPop",
					"outputs": [
						{
							"internalType": "uint256[]",
							"name": "",
							"type": "uint256[]"
						}
					],
					"stateMutability": "nonpayable",
					"type": "function"
				},
				{
					"inputs": [],
					"name": "arrayPush",
					"outputs": [
						{
							"internalType": "uint256[]",
							"name": "",
							"type": "uint256[]"
						}
					],
					"stateMutability": "nonpayable",
					"type": "function"
				},
				{
					"inputs": [],
					"name": "initStudent",
					"outputs": [],
					"stateMutability": "nonpayable",
					"type": "function"
				},
				{
					"inputs": [],
					"name": "initStudent2",
					"outputs": [],
					"stateMutability": "nonpayable",
					"type": "function"
				},
				{
					"inputs": [],
					"name": "initStudent3",
					"outputs": [],
					"stateMutability": "nonpayable",
					"type": "function"
				},
				{
					"inputs": [],
					"name": "initStudent4",
					"outputs": [],
					"stateMutability": "nonpayable",
					"type": "function"
				},
				{
					"inputs": [],
					"name": "initStudent5",
					"outputs": [],
					"stateMutability": "nonpayable",
					"type": "function"
				}
			],
			"devdoc": {
				"kind": "dev",
				"methods": {},
				"version": 1
			},
			"evm": {
				"assembly": "    /* \"SolidityProjects/contracts/Study/8-ReferenceTypes.sol\":60:3300  contract ReferenceTypes{... */\n  mstore(0x40, 0x80)\n  callvalue\n  dup1\n  iszero\n  tag_1\n  jumpi\n  0x00\n  dup1\n  revert\ntag_1:\n  pop\n  dataSize(sub_0)\n  dup1\n  dataOffset(sub_0)\n  0x00\n  codecopy\n  0x00\n  return\nstop\n\nsub_0: assembly {\n        /* \"SolidityProjects/contracts/Study/8-ReferenceTypes.sol\":60:3300  contract ReferenceTypes{... */\n      mstore(0x40, 0x80)\n      callvalue\n      dup1\n      iszero\n      tag_1\n      jumpi\n      0x00\n      dup1\n      revert\n    tag_1:\n      pop\n      jumpi(tag_2, lt(calldatasize, 0x04))\n      shr(0xe0, calldataload(0x00))\n      dup1\n      0x903fda95\n      gt\n      tag_10\n      jumpi\n      dup1\n      0x903fda95\n      eq\n      tag_6\n      jumpi\n      dup1\n      0x9ebb8d20\n      eq\n      tag_7\n      jumpi\n      dup1\n      0xd661981d\n      eq\n      tag_8\n      jumpi\n      dup1\n      0xdd49702c\n      eq\n      tag_9\n      jumpi\n      jump(tag_2)\n    tag_10:\n      dup1\n      0x1a8d7dc3\n      eq\n      tag_3\n      jumpi\n      dup1\n      0x47f6ac11\n      eq\n      tag_4\n      jumpi\n      dup1\n      0x5a4236b1\n      eq\n      tag_5\n      jumpi\n    tag_2:\n      0x00\n      dup1\n      revert\n        /* \"SolidityProjects/contracts/Study/8-ReferenceTypes.sol\":2772:2866  function initStudent2() external{... */\n    tag_3:\n      tag_11\n      tag_12\n      jump\t// in\n    tag_11:\n      stop\n        /* \"SolidityProjects/contracts/Study/8-ReferenceTypes.sol\":1733:1902  function arrayPush() public returns(uint[] memory){... */\n    tag_4:\n      tag_13\n      tag_14\n      jump\t// in\n    tag_13:\n      mload(0x40)\n      tag_15\n      swap2\n      swap1\n      tag_16\n      jump\t// in\n    tag_15:\n      mload(0x40)\n      dup1\n      swap2\n      sub\n      swap1\n      return\n        /* \"SolidityProjects/contracts/Study/8-ReferenceTypes.sol\":2900:2975  function initStudent3() external{... */\n    tag_5:\n      tag_17\n      tag_18\n      jump\t// in\n    tag_17:\n      stop\n        /* \"SolidityProjects/contracts/Study/8-ReferenceTypes.sol\":3096:3297  function initStudent5() external{... */\n    tag_6:\n      tag_19\n      tag_20\n      jump\t// in\n    tag_19:\n      stop\n        /* \"SolidityProjects/contracts/Study/8-ReferenceTypes.sol\":3003:3088  function initStudent4() external{... */\n    tag_7:\n      tag_21\n      tag_22\n      jump\t// in\n    tag_21:\n      stop\n        /* \"SolidityProjects/contracts/Study/8-ReferenceTypes.sol\":1910:2101  function arrayPop() public returns(uint[] memory){... */\n    tag_8:\n      tag_23\n      tag_24\n      jump\t// in\n    tag_23:\n      mload(0x40)\n      tag_25\n      swap2\n      swap1\n      tag_16\n      jump\t// in\n    tag_25:\n      mload(0x40)\n      dup1\n      swap2\n      sub\n      swap1\n      return\n        /* \"SolidityProjects/contracts/Study/8-ReferenceTypes.sol\":2579:2720  function initStudent() external{... */\n    tag_9:\n      tag_26\n      tag_27\n      jump\t// in\n    tag_26:\n      stop\n        /* \"SolidityProjects/contracts/Study/8-ReferenceTypes.sol\":2772:2866  function initStudent2() external{... */\n    tag_12:\n        /* \"SolidityProjects/contracts/Study/8-ReferenceTypes.sol\":2828:2829  1 */\n      0x01\n        /* \"SolidityProjects/contracts/Study/8-ReferenceTypes.sol\":2815:2822  student */\n      dup1\n        /* \"SolidityProjects/contracts/Study/8-ReferenceTypes.sol\":2815:2825  student.id */\n      0x00\n      add\n        /* \"SolidityProjects/contracts/Study/8-ReferenceTypes.sol\":2815:2829  student.id = 1 */\n      dup2\n      swap1\n      sstore\n      pop\n        /* \"SolidityProjects/contracts/Study/8-ReferenceTypes.sol\":2856:2858  80 */\n      0x50\n        /* \"SolidityProjects/contracts/Study/8-ReferenceTypes.sol\":2840:2847  student */\n      0x01\n        /* \"SolidityProjects/contracts/Study/8-ReferenceTypes.sol\":2840:2853  student.score */\n      dup1\n      add\n        /* \"SolidityProjects/contracts/Study/8-ReferenceTypes.sol\":2840:2858  student.score = 80 */\n      dup2\n      swap1\n      sstore\n      pop\n        /* \"SolidityProjects/contracts/Study/8-ReferenceTypes.sol\":2772:2866  function initStudent2() external{... */\n      jump\t// out\n        /* \"SolidityProjects/contracts/Study/8-ReferenceTypes.sol\":1733:1902  function arrayPush() public returns(uint[] memory){... */\n    tag_14:\n        /* \"SolidityProjects/contracts/Study/8-ReferenceTypes.sol\":1769:1782  uint[] memory */\n      0x60\n        /* \"SolidityProjects/contracts/Study/8-ReferenceTypes.sol\":1794:1810  uint[2] memory a */\n      0x00\n        /* \"SolidityProjects/contracts/Study/8-ReferenceTypes.sol\":1794:1824  uint[2] memory a = [uint(1),2] */\n      mload(0x40)\n      dup1\n      0x40\n      add\n      0x40\n      mstore\n      dup1\n        /* \"SolidityProjects/contracts/Study/8-ReferenceTypes.sol\":1819:1820  1 */\n      0x01\n        /* \"SolidityProjects/contracts/Study/8-ReferenceTypes.sol\":1794:1824  uint[2] memory a = [uint(1),2] */\n      dup2\n      mstore\n      0x20\n      add\n        /* \"SolidityProjects/contracts/Study/8-ReferenceTypes.sol\":1822:1823  2 */\n      0x02\n        /* \"SolidityProjects/contracts/Study/8-ReferenceTypes.sol\":1794:1824  uint[2] memory a = [uint(1),2] */\n      dup2\n      mstore\n      pop\n      swap1\n      pop\n        /* \"SolidityProjects/contracts/Study/8-ReferenceTypes.sol\":1844:1845  a */\n      dup1\n        /* \"SolidityProjects/contracts/Study/8-ReferenceTypes.sol\":1835:1841  array4 */\n      0x00\n        /* \"SolidityProjects/contracts/Study/8-ReferenceTypes.sol\":1835:1845  array4 = a */\n      swap1\n      0x02\n      tag_30\n      swap3\n      swap2\n      swap1\n      tag_31\n      jump\t// in\n    tag_30:\n      pop\n        /* \"SolidityProjects/contracts/Study/8-ReferenceTypes.sol\":1856:1862  array4 */\n      0x00\n        /* \"SolidityProjects/contracts/Study/8-ReferenceTypes.sol\":1868:1869  3 */\n      0x03\n        /* \"SolidityProjects/contracts/Study/8-ReferenceTypes.sol\":1856:1870  array4.push(3) */\n      swap1\n      dup1\n      0x01\n      dup2\n      sload\n      add\n      dup1\n      dup3\n      sstore\n      dup1\n      swap2\n      pop\n      pop\n      0x01\n      swap1\n      sub\n      swap1\n      0x00\n      mstore\n      keccak256(0x00, 0x20)\n      add\n      0x00\n      swap1\n      swap2\n      swap1\n      swap2\n      swap1\n      swap2\n      pop\n      sstore\n        /* \"SolidityProjects/contracts/Study/8-ReferenceTypes.sol\":1888:1894  array4 */\n      0x00\n        /* \"SolidityProjects/contracts/Study/8-ReferenceTypes.sol\":1881:1894  return array4 */\n      dup1\n      sload\n      dup1\n      0x20\n      mul\n      0x20\n      add\n      mload(0x40)\n      swap1\n      dup2\n      add\n      0x40\n      mstore\n      dup1\n      swap3\n      swap2\n      swap1\n      dup2\n      dup2\n      mstore\n      0x20\n      add\n      dup3\n      dup1\n      sload\n      dup1\n      iszero\n      tag_33\n      jumpi\n      0x20\n      mul\n      dup3\n      add\n      swap2\n      swap1\n      0x00\n      mstore\n      keccak256(0x00, 0x20)\n      swap1\n    tag_34:\n      dup2\n      sload\n      dup2\n      mstore\n      0x20\n      add\n      swap1\n      0x01\n      add\n      swap1\n      dup1\n      dup4\n      gt\n      tag_34\n      jumpi\n    tag_33:\n      pop\n      pop\n      pop\n      pop\n      pop\n      swap2\n      pop\n      pop\n        /* \"SolidityProjects/contracts/Study/8-ReferenceTypes.sol\":1733:1902  function arrayPush() public returns(uint[] memory){... */\n      swap1\n      jump\t// out\n        /* \"SolidityProjects/contracts/Study/8-ReferenceTypes.sol\":2900:2975  function initStudent3() external{... */\n    tag_18:\n        /* \"SolidityProjects/contracts/Study/8-ReferenceTypes.sol\":2953:2967  Student(3, 90) */\n      mload(0x40)\n      dup1\n      0x40\n      add\n      0x40\n      mstore\n      dup1\n        /* \"SolidityProjects/contracts/Study/8-ReferenceTypes.sol\":2961:2962  3 */\n      0x03\n        /* \"SolidityProjects/contracts/Study/8-ReferenceTypes.sol\":2953:2967  Student(3, 90) */\n      dup2\n      mstore\n      0x20\n      add\n        /* \"SolidityProjects/contracts/Study/8-ReferenceTypes.sol\":2964:2966  90 */\n      0x5a\n        /* \"SolidityProjects/contracts/Study/8-ReferenceTypes.sol\":2953:2967  Student(3, 90) */\n      dup2\n      mstore\n      pop\n        /* \"SolidityProjects/contracts/Study/8-ReferenceTypes.sol\":2943:2950  student */\n      0x01\n        /* \"SolidityProjects/contracts/Study/8-ReferenceTypes.sol\":2943:2967  student = Student(3, 90) */\n      0x00\n      dup3\n      add\n      mload\n      dup2\n      0x00\n      add\n      sstore\n      0x20\n      dup3\n      add\n      mload\n      dup2\n      0x01\n      add\n      sstore\n      swap1\n      pop\n      pop\n        /* \"SolidityProjects/contracts/Study/8-ReferenceTypes.sol\":2900:2975  function initStudent3() external{... */\n      jump\t// out\n        /* \"SolidityProjects/contracts/Study/8-ReferenceTypes.sol\":3096:3297  function initStudent5() external{... */\n    tag_20:\n        /* \"SolidityProjects/contracts/Study/8-ReferenceTypes.sol\":3152:3155  100 */\n      0x64\n        /* \"SolidityProjects/contracts/Study/8-ReferenceTypes.sol\":3139:3146  student */\n      0x01\n        /* \"SolidityProjects/contracts/Study/8-ReferenceTypes.sol\":3139:3149  student.id */\n      0x00\n      add\n        /* \"SolidityProjects/contracts/Study/8-ReferenceTypes.sol\":3139:3155  student.id = 100 */\n      dup2\n      swap1\n      sstore\n      pop\n        /* \"SolidityProjects/contracts/Study/8-ReferenceTypes.sol\":3182:3185  200 */\n      0xc8\n        /* \"SolidityProjects/contracts/Study/8-ReferenceTypes.sol\":3166:3173  student */\n      0x01\n        /* \"SolidityProjects/contracts/Study/8-ReferenceTypes.sol\":3166:3179  student.score */\n      dup1\n      add\n        /* \"SolidityProjects/contracts/Study/8-ReferenceTypes.sol\":3166:3185  student.score = 200 */\n      dup2\n      swap1\n      sstore\n      pop\n        /* \"SolidityProjects/contracts/Study/8-ReferenceTypes.sol\":3196:3220  Student storage _student */\n      0x00\n        /* \"SolidityProjects/contracts/Study/8-ReferenceTypes.sol\":3223:3230  student */\n      0x01\n        /* \"SolidityProjects/contracts/Study/8-ReferenceTypes.sol\":3196:3230  Student storage _student = student */\n      swap1\n      pop\n        /* \"SolidityProjects/contracts/Study/8-ReferenceTypes.sol\":3255:3258  300 */\n      0x012c\n        /* \"SolidityProjects/contracts/Study/8-ReferenceTypes.sol\":3241:3249  _student */\n      dup2\n        /* \"SolidityProjects/contracts/Study/8-ReferenceTypes.sol\":3241:3252  _student.id */\n      0x00\n      add\n        /* \"SolidityProjects/contracts/Study/8-ReferenceTypes.sol\":3241:3258  _student.id = 300 */\n      dup2\n      swap1\n      sstore\n      pop\n        /* \"SolidityProjects/contracts/Study/8-ReferenceTypes.sol\":3286:3289  400 */\n      0x0190\n        /* \"SolidityProjects/contracts/Study/8-ReferenceTypes.sol\":3269:3277  _student */\n      dup2\n        /* \"SolidityProjects/contracts/Study/8-ReferenceTypes.sol\":3269:3283  _student.score */\n      0x01\n      add\n        /* \"SolidityProjects/contracts/Study/8-ReferenceTypes.sol\":3269:3289  _student.score = 400 */\n      dup2\n      swap1\n      sstore\n      pop\n        /* \"SolidityProjects/contracts/Study/8-ReferenceTypes.sol\":3128:3297  {... */\n      pop\n        /* \"SolidityProjects/contracts/Study/8-ReferenceTypes.sol\":3096:3297  function initStudent5() external{... */\n      jump\t// out\n        /* \"SolidityProjects/contracts/Study/8-ReferenceTypes.sol\":3003:3088  function initStudent4() external{... */\n    tag_22:\n        /* \"SolidityProjects/contracts/Study/8-ReferenceTypes.sol\":3056:3080  Student({id:7,score:90}) */\n      mload(0x40)\n      dup1\n      0x40\n      add\n      0x40\n      mstore\n      dup1\n        /* \"SolidityProjects/contracts/Study/8-ReferenceTypes.sol\":3068:3069  7 */\n      0x07\n        /* \"SolidityProjects/contracts/Study/8-ReferenceTypes.sol\":3056:3080  Student({id:7,score:90}) */\n      dup2\n      mstore\n      0x20\n      add\n        /* \"SolidityProjects/contracts/Study/8-ReferenceTypes.sol\":3076:3078  90 */\n      0x5a\n        /* \"SolidityProjects/contracts/Study/8-ReferenceTypes.sol\":3056:3080  Student({id:7,score:90}) */\n      dup2\n      mstore\n      pop\n        /* \"SolidityProjects/contracts/Study/8-ReferenceTypes.sol\":3046:3053  student */\n      0x01\n        /* \"SolidityProjects/contracts/Study/8-ReferenceTypes.sol\":3046:3080  student = Student({id:7,score:90}) */\n      0x00\n      dup3\n      add\n      mload\n      dup2\n      0x00\n      add\n      sstore\n      0x20\n      dup3\n      add\n      mload\n      dup2\n      0x01\n      add\n      sstore\n      swap1\n      pop\n      pop\n        /* \"SolidityProjects/contracts/Study/8-ReferenceTypes.sol\":3003:3088  function initStudent4() external{... */\n      jump\t// out\n        /* \"SolidityProjects/contracts/Study/8-ReferenceTypes.sol\":1910:2101  function arrayPop() public returns(uint[] memory){... */\n    tag_24:\n        /* \"SolidityProjects/contracts/Study/8-ReferenceTypes.sol\":1945:1958  uint[] memory */\n      0x60\n        /* \"SolidityProjects/contracts/Study/8-ReferenceTypes.sol\":1970:1986  uint[2] memory a */\n      0x00\n        /* \"SolidityProjects/contracts/Study/8-ReferenceTypes.sol\":1970:2000  uint[2] memory a = [uint(1),2] */\n      mload(0x40)\n      dup1\n      0x40\n      add\n      0x40\n      mstore\n      dup1\n        /* \"SolidityProjects/contracts/Study/8-ReferenceTypes.sol\":1995:1996  1 */\n      0x01\n        /* \"SolidityProjects/contracts/Study/8-ReferenceTypes.sol\":1970:2000  uint[2] memory a = [uint(1),2] */\n      dup2\n      mstore\n      0x20\n      add\n        /* \"SolidityProjects/contracts/Study/8-ReferenceTypes.sol\":1998:1999  2 */\n      0x02\n        /* \"SolidityProjects/contracts/Study/8-ReferenceTypes.sol\":1970:2000  uint[2] memory a = [uint(1),2] */\n      dup2\n      mstore\n      pop\n      swap1\n      pop\n        /* \"SolidityProjects/contracts/Study/8-ReferenceTypes.sol\":2020:2021  a */\n      dup1\n        /* \"SolidityProjects/contracts/Study/8-ReferenceTypes.sol\":2011:2017  array4 */\n      0x00\n        /* \"SolidityProjects/contracts/Study/8-ReferenceTypes.sol\":2011:2021  array4 = a */\n      swap1\n      0x02\n      tag_39\n      swap3\n      swap2\n      swap1\n      tag_31\n      jump\t// in\n    tag_39:\n      pop\n        /* \"SolidityProjects/contracts/Study/8-ReferenceTypes.sol\":2032:2038  array4 */\n      0x00\n        /* \"SolidityProjects/contracts/Study/8-ReferenceTypes.sol\":2044:2045  3 */\n      0x03\n        /* \"SolidityProjects/contracts/Study/8-ReferenceTypes.sol\":2032:2046  array4.push(3) */\n      swap1\n      dup1\n      0x01\n      dup2\n      sload\n      add\n      dup1\n      dup3\n      sstore\n      dup1\n      swap2\n      pop\n      pop\n      0x01\n      swap1\n      sub\n      swap1\n      0x00\n      mstore\n      keccak256(0x00, 0x20)\n      add\n      0x00\n      swap1\n      swap2\n      swap1\n      swap2\n      swap1\n      swap2\n      pop\n      sstore\n        /* \"SolidityProjects/contracts/Study/8-ReferenceTypes.sol\":2057:2063  array4 */\n      0x00\n        /* \"SolidityProjects/contracts/Study/8-ReferenceTypes.sol\":2057:2069  array4.pop() */\n      dup1\n      sload\n      dup1\n      tag_41\n      jumpi\n      tag_42\n      tag_43\n      jump\t// in\n    tag_42:\n    tag_41:\n      0x01\n      swap1\n      sub\n      dup2\n      dup2\n      swap1\n      0x00\n      mstore\n      keccak256(0x00, 0x20)\n      add\n      0x00\n      swap1\n      sstore\n      swap1\n      sstore\n        /* \"SolidityProjects/contracts/Study/8-ReferenceTypes.sol\":2087:2093  array4 */\n      0x00\n        /* \"SolidityProjects/contracts/Study/8-ReferenceTypes.sol\":2080:2093  return array4 */\n      dup1\n      sload\n      dup1\n      0x20\n      mul\n      0x20\n      add\n      mload(0x40)\n      swap1\n      dup2\n      add\n      0x40\n      mstore\n      dup1\n      swap3\n      swap2\n      swap1\n      dup2\n      dup2\n      mstore\n      0x20\n      add\n      dup3\n      dup1\n      sload\n      dup1\n      iszero\n      tag_45\n      jumpi\n      0x20\n      mul\n      dup3\n      add\n      swap2\n      swap1\n      0x00\n      mstore\n      keccak256(0x00, 0x20)\n      swap1\n    tag_46:\n      dup2\n      sload\n      dup2\n      mstore\n      0x20\n      add\n      swap1\n      0x01\n      add\n      swap1\n      dup1\n      dup4\n      gt\n      tag_46\n      jumpi\n    tag_45:\n      pop\n      pop\n      pop\n      pop\n      pop\n      swap2\n      pop\n      pop\n        /* \"SolidityProjects/contracts/Study/8-ReferenceTypes.sol\":1910:2101  function arrayPop() public returns(uint[] memory){... */\n      swap1\n      jump\t// out\n        /* \"SolidityProjects/contracts/Study/8-ReferenceTypes.sol\":2579:2720  function initStudent() external{... */\n    tag_27:\n        /* \"SolidityProjects/contracts/Study/8-ReferenceTypes.sol\":2621:2645  Student storage _student */\n      0x00\n        /* \"SolidityProjects/contracts/Study/8-ReferenceTypes.sol\":2648:2655  student */\n      0x01\n        /* \"SolidityProjects/contracts/Study/8-ReferenceTypes.sol\":2621:2655  Student storage _student = student */\n      swap1\n      pop\n        /* \"SolidityProjects/contracts/Study/8-ReferenceTypes.sol\":2680:2681  1 */\n      0x01\n        /* \"SolidityProjects/contracts/Study/8-ReferenceTypes.sol\":2666:2674  _student */\n      dup2\n        /* \"SolidityProjects/contracts/Study/8-ReferenceTypes.sol\":2666:2677  _student.id */\n      0x00\n      add\n        /* \"SolidityProjects/contracts/Study/8-ReferenceTypes.sol\":2666:2681  _student.id = 1 */\n      dup2\n      swap1\n      sstore\n      pop\n        /* \"SolidityProjects/contracts/Study/8-ReferenceTypes.sol\":2709:2712  100 */\n      0x64\n        /* \"SolidityProjects/contracts/Study/8-ReferenceTypes.sol\":2692:2700  _student */\n      dup2\n        /* \"SolidityProjects/contracts/Study/8-ReferenceTypes.sol\":2692:2706  _student.score */\n      0x01\n      add\n        /* \"SolidityProjects/contracts/Study/8-ReferenceTypes.sol\":2692:2712  _student.score = 100 */\n      dup2\n      swap1\n      sstore\n      pop\n        /* \"SolidityProjects/contracts/Study/8-ReferenceTypes.sol\":2610:2720  {... */\n      pop\n        /* \"SolidityProjects/contracts/Study/8-ReferenceTypes.sol\":2579:2720  function initStudent() external{... */\n      jump\t// out\n    tag_31:\n      dup3\n      dup1\n      sload\n      dup3\n      dup3\n      sstore\n      swap1\n      0x00\n      mstore\n      keccak256(0x00, 0x20)\n      swap1\n      dup2\n      add\n      swap3\n      dup3\n      iszero\n      tag_48\n      jumpi\n      swap2\n      0x20\n      mul\n      dup3\n      add\n    tag_49:\n      dup3\n      dup2\n      gt\n      iszero\n      tag_50\n      jumpi\n      dup3\n      mload\n      dup3\n      sstore\n      swap2\n      0x20\n      add\n      swap2\n      swap1\n      0x01\n      add\n      swap1\n      jump(tag_49)\n    tag_50:\n    tag_48:\n      pop\n      swap1\n      pop\n      tag_51\n      swap2\n      swap1\n      tag_52\n      jump\t// in\n    tag_51:\n      pop\n      swap1\n      jump\t// out\n    tag_52:\n    tag_53:\n      dup1\n      dup3\n      gt\n      iszero\n      tag_54\n      jumpi\n      0x00\n      dup2\n      0x00\n      swap1\n      sstore\n      pop\n      0x01\n      add\n      jump(tag_53)\n    tag_54:\n      pop\n      swap1\n      jump\t// out\n        /* \"#utility.yul\":7:121   */\n    tag_55:\n        /* \"#utility.yul\":74:80   */\n      0x00\n        /* \"#utility.yul\":108:113   */\n      dup2\n        /* \"#utility.yul\":102:114   */\n      mload\n        /* \"#utility.yul\":92:114   */\n      swap1\n      pop\n        /* \"#utility.yul\":7:121   */\n      swap2\n      swap1\n      pop\n      jump\t// out\n        /* \"#utility.yul\":127:311   */\n    tag_56:\n        /* \"#utility.yul\":226:237   */\n      0x00\n        /* \"#utility.yul\":260:266   */\n      dup3\n        /* \"#utility.yul\":255:258   */\n      dup3\n        /* \"#utility.yul\":248:267   */\n      mstore\n        /* \"#utility.yul\":300:304   */\n      0x20\n        /* \"#utility.yul\":295:298   */\n      dup3\n        /* \"#utility.yul\":291:305   */\n      add\n        /* \"#utility.yul\":276:305   */\n      swap1\n      pop\n        /* \"#utility.yul\":127:311   */\n      swap3\n      swap2\n      pop\n      pop\n      jump\t// out\n        /* \"#utility.yul\":317:449   */\n    tag_57:\n        /* \"#utility.yul\":384:388   */\n      0x00\n        /* \"#utility.yul\":407:410   */\n      dup2\n        /* \"#utility.yul\":399:410   */\n      swap1\n      pop\n        /* \"#utility.yul\":437:441   */\n      0x20\n        /* \"#utility.yul\":432:435   */\n      dup3\n        /* \"#utility.yul\":428:442   */\n      add\n        /* \"#utility.yul\":420:442   */\n      swap1\n      pop\n        /* \"#utility.yul\":317:449   */\n      swap2\n      swap1\n      pop\n      jump\t// out\n        /* \"#utility.yul\":455:532   */\n    tag_58:\n        /* \"#utility.yul\":492:499   */\n      0x00\n        /* \"#utility.yul\":521:526   */\n      dup2\n        /* \"#utility.yul\":510:526   */\n      swap1\n      pop\n        /* \"#utility.yul\":455:532   */\n      swap2\n      swap1\n      pop\n      jump\t// out\n        /* \"#utility.yul\":538:646   */\n    tag_59:\n        /* \"#utility.yul\":615:639   */\n      tag_69\n        /* \"#utility.yul\":633:638   */\n      dup2\n        /* \"#utility.yul\":615:639   */\n      tag_58\n      jump\t// in\n    tag_69:\n        /* \"#utility.yul\":610:613   */\n      dup3\n        /* \"#utility.yul\":603:640   */\n      mstore\n        /* \"#utility.yul\":538:646   */\n      pop\n      pop\n      jump\t// out\n        /* \"#utility.yul\":652:831   */\n    tag_60:\n        /* \"#utility.yul\":721:731   */\n      0x00\n        /* \"#utility.yul\":742:788   */\n      tag_71\n        /* \"#utility.yul\":784:787   */\n      dup4\n        /* \"#utility.yul\":776:782   */\n      dup4\n        /* \"#utility.yul\":742:788   */\n      tag_59\n      jump\t// in\n    tag_71:\n        /* \"#utility.yul\":820:824   */\n      0x20\n        /* \"#utility.yul\":815:818   */\n      dup4\n        /* \"#utility.yul\":811:825   */\n      add\n        /* \"#utility.yul\":797:825   */\n      swap1\n      pop\n        /* \"#utility.yul\":652:831   */\n      swap3\n      swap2\n      pop\n      pop\n      jump\t// out\n        /* \"#utility.yul\":837:950   */\n    tag_61:\n        /* \"#utility.yul\":907:911   */\n      0x00\n        /* \"#utility.yul\":939:943   */\n      0x20\n        /* \"#utility.yul\":934:937   */\n      dup3\n        /* \"#utility.yul\":930:944   */\n      add\n        /* \"#utility.yul\":922:944   */\n      swap1\n      pop\n        /* \"#utility.yul\":837:950   */\n      swap2\n      swap1\n      pop\n      jump\t// out\n        /* \"#utility.yul\":986:1718   */\n    tag_62:\n        /* \"#utility.yul\":1105:1108   */\n      0x00\n        /* \"#utility.yul\":1134:1188   */\n      tag_74\n        /* \"#utility.yul\":1182:1187   */\n      dup3\n        /* \"#utility.yul\":1134:1188   */\n      tag_55\n      jump\t// in\n    tag_74:\n        /* \"#utility.yul\":1204:1290   */\n      tag_75\n        /* \"#utility.yul\":1283:1289   */\n      dup2\n        /* \"#utility.yul\":1278:1281   */\n      dup6\n        /* \"#utility.yul\":1204:1290   */\n      tag_56\n      jump\t// in\n    tag_75:\n        /* \"#utility.yul\":1197:1290   */\n      swap4\n      pop\n        /* \"#utility.yul\":1314:1370   */\n      tag_76\n        /* \"#utility.yul\":1364:1369   */\n      dup4\n        /* \"#utility.yul\":1314:1370   */\n      tag_57\n      jump\t// in\n    tag_76:\n        /* \"#utility.yul\":1393:1400   */\n      dup1\n        /* \"#utility.yul\":1424:1425   */\n      0x00\n        /* \"#utility.yul\":1409:1693   */\n    tag_77:\n        /* \"#utility.yul\":1434:1440   */\n      dup4\n        /* \"#utility.yul\":1431:1432   */\n      dup2\n        /* \"#utility.yul\":1428:1441   */\n      lt\n        /* \"#utility.yul\":1409:1693   */\n      iszero\n      tag_79\n      jumpi\n        /* \"#utility.yul\":1510:1516   */\n      dup2\n        /* \"#utility.yul\":1504:1517   */\n      mload\n        /* \"#utility.yul\":1537:1600   */\n      tag_80\n        /* \"#utility.yul\":1596:1599   */\n      dup9\n        /* \"#utility.yul\":1581:1594   */\n      dup3\n        /* \"#utility.yul\":1537:1600   */\n      tag_60\n      jump\t// in\n    tag_80:\n        /* \"#utility.yul\":1530:1600   */\n      swap8\n      pop\n        /* \"#utility.yul\":1623:1683   */\n      tag_81\n        /* \"#utility.yul\":1676:1682   */\n      dup4\n        /* \"#utility.yul\":1623:1683   */\n      tag_61\n      jump\t// in\n    tag_81:\n        /* \"#utility.yul\":1613:1683   */\n      swap3\n      pop\n        /* \"#utility.yul\":1469:1693   */\n      pop\n        /* \"#utility.yul\":1456:1457   */\n      0x01\n        /* \"#utility.yul\":1453:1454   */\n      dup2\n        /* \"#utility.yul\":1449:1458   */\n      add\n        /* \"#utility.yul\":1444:1458   */\n      swap1\n      pop\n        /* \"#utility.yul\":1409:1693   */\n      jump(tag_77)\n    tag_79:\n        /* \"#utility.yul\":1413:1427   */\n      pop\n        /* \"#utility.yul\":1709:1712   */\n      dup6\n        /* \"#utility.yul\":1702:1712   */\n      swap4\n      pop\n        /* \"#utility.yul\":1110:1718   */\n      pop\n      pop\n      pop\n        /* \"#utility.yul\":986:1718   */\n      swap3\n      swap2\n      pop\n      pop\n      jump\t// out\n        /* \"#utility.yul\":1724:2097   */\n    tag_16:\n        /* \"#utility.yul\":1867:1871   */\n      0x00\n        /* \"#utility.yul\":1905:1907   */\n      0x20\n        /* \"#utility.yul\":1894:1903   */\n      dup3\n        /* \"#utility.yul\":1890:1908   */\n      add\n        /* \"#utility.yul\":1882:1908   */\n      swap1\n      pop\n        /* \"#utility.yul\":1954:1963   */\n      dup2\n        /* \"#utility.yul\":1948:1952   */\n      dup2\n        /* \"#utility.yul\":1944:1964   */\n      sub\n        /* \"#utility.yul\":1940:1941   */\n      0x00\n        /* \"#utility.yul\":1929:1938   */\n      dup4\n        /* \"#utility.yul\":1925:1942   */\n      add\n        /* \"#utility.yul\":1918:1965   */\n      mstore\n        /* \"#utility.yul\":1982:2090   */\n      tag_83\n        /* \"#utility.yul\":2085:2089   */\n      dup2\n        /* \"#utility.yul\":2076:2082   */\n      dup5\n        /* \"#utility.yul\":1982:2090   */\n      tag_62\n      jump\t// in\n    tag_83:\n        /* \"#utility.yul\":1974:2090   */\n      swap1\n      pop\n        /* \"#utility.yul\":1724:2097   */\n      swap3\n      swap2\n      pop\n      pop\n      jump\t// out\n        /* \"#utility.yul\":2103:2283   */\n    tag_43:\n        /* \"#utility.yul\":2151:2228   */\n      0x4e487b7100000000000000000000000000000000000000000000000000000000\n        /* \"#utility.yul\":2148:2149   */\n      0x00\n        /* \"#utility.yul\":2141:2229   */\n      mstore\n        /* \"#utility.yul\":2248:2252   */\n      0x31\n        /* \"#utility.yul\":2245:2246   */\n      0x04\n        /* \"#utility.yul\":2238:2253   */\n      mstore\n        /* \"#utility.yul\":2272:2276   */\n      0x24\n        /* \"#utility.yul\":2269:2270   */\n      0x00\n        /* \"#utility.yul\":2262:2277   */\n      revert\n\n    auxdata: 0xa26469706673582212201a239234dfa77b78a18104c665ca0f8fd09715d1dd07cb1fc101b7a289f19b0064736f6c63430008190033\n}\n",
				"bytecode": {
					"linkReferences": {},
					"object": "6080604052348015600e575f80fd5b506104c98061001c5f395ff3fe608060405234801561000f575f80fd5b506004361061007b575f3560e01c8063903fda9511610059578063903fda95146100b15780639ebb8d20146100bb578063d661981d146100c5578063dd49702c146100e35761007b565b80631a8d7dc31461007f57806347f6ac11146100895780635a4236b1146100a7575b5f80fd5b6100876100ed565b005b610091610102565b60405161009e9190610446565b60405180910390f35b6100af6101a9565b005b6100b96101d9565b005b6100c361020a565b005b6100cd61023a565b6040516100da9190610446565b60405180910390f35b6100eb610305565b005b6001805f018190555060506001800181905550565b60605f60405180604001604052806001815260200160028152509050805f90600261012e929190610320565b505f6003908060018154018082558091505060019003905f5260205f20015f90919091909150555f80548060200260200160405190810160405280929190818152602001828054801561019e57602002820191905f5260205f20905b81548152602001906001019080831161018a575b505050505091505090565b604051806040016040528060038152602001605a81525060015f820151815f015560208201518160010155905050565b606460015f018190555060c860018001819055505f6001905061012c815f0181905550610190816001018190555050565b604051806040016040528060078152602001605a81525060015f820151815f015560208201518160010155905050565b60605f60405180604001604052806001815260200160028152509050805f906002610266929190610320565b505f6003908060018154018082558091505060019003905f5260205f20015f90919091909150555f80548061029e5761029d610466565b5b600190038181905f5260205f20015f905590555f8054806020026020016040519081016040528092919081815260200182805480156102fa57602002820191905f5260205f20905b8154815260200190600101908083116102e6575b505050505091505090565b5f600190506001815f01819055506064816001018190555050565b828054828255905f5260205f2090810192821561035a579160200282015b8281111561035957825182559160200191906001019061033e565b5b509050610367919061036b565b5090565b5b80821115610382575f815f90555060010161036c565b5090565b5f81519050919050565b5f82825260208201905092915050565b5f819050602082019050919050565b5f819050919050565b6103c1816103af565b82525050565b5f6103d283836103b8565b60208301905092915050565b5f602082019050919050565b5f6103f482610386565b6103fe8185610390565b9350610409836103a0565b805f5b8381101561043957815161042088826103c7565b975061042b836103de565b92505060018101905061040c565b5085935050505092915050565b5f6020820190508181035f83015261045e81846103ea565b905092915050565b7f4e487b71000000000000000000000000000000000000000000000000000000005f52603160045260245ffdfea26469706673582212201a239234dfa77b78a18104c665ca0f8fd09715d1dd07cb1fc101b7a289f19b0064736f6c63430008190033",
					"opcodes": "PUSH1 0x80 PUSH1 0x40 MSTORE CALLVALUE DUP1 ISZERO PUSH1 0xE JUMPI PUSH0 DUP1 REVERT JUMPDEST POP PUSH2 0x4C9 DUP1 PUSH2 0x1C PUSH0 CODECOPY PUSH0 RETURN INVALID PUSH1 0x80 PUSH1 0x40 MSTORE CALLVALUE DUP1 ISZERO PUSH2 0xF JUMPI PUSH0 DUP1 REVERT JUMPDEST POP PUSH1 0x4 CALLDATASIZE LT PUSH2 0x7B JUMPI PUSH0 CALLDATALOAD PUSH1 0xE0 SHR DUP1 PUSH4 0x903FDA95 GT PUSH2 0x59 JUMPI DUP1 PUSH4 0x903FDA95 EQ PUSH2 0xB1 JUMPI DUP1 PUSH4 0x9EBB8D20 EQ PUSH2 0xBB JUMPI DUP1 PUSH4 0xD661981D EQ PUSH2 0xC5 JUMPI DUP1 PUSH4 0xDD49702C EQ PUSH2 0xE3 JUMPI PUSH2 0x7B JUMP JUMPDEST DUP1 PUSH4 0x1A8D7DC3 EQ PUSH2 0x7F JUMPI DUP1 PUSH4 0x47F6AC11 EQ PUSH2 0x89 JUMPI DUP1 PUSH4 0x5A4236B1 EQ PUSH2 0xA7 JUMPI JUMPDEST PUSH0 DUP1 REVERT JUMPDEST PUSH2 0x87 PUSH2 0xED JUMP JUMPDEST STOP JUMPDEST PUSH2 0x91 PUSH2 0x102 JUMP JUMPDEST PUSH1 0x40 MLOAD PUSH2 0x9E SWAP2 SWAP1 PUSH2 0x446 JUMP JUMPDEST PUSH1 0x40 MLOAD DUP1 SWAP2 SUB SWAP1 RETURN JUMPDEST PUSH2 0xAF PUSH2 0x1A9 JUMP JUMPDEST STOP JUMPDEST PUSH2 0xB9 PUSH2 0x1D9 JUMP JUMPDEST STOP JUMPDEST PUSH2 0xC3 PUSH2 0x20A JUMP JUMPDEST STOP JUMPDEST PUSH2 0xCD PUSH2 0x23A JUMP JUMPDEST PUSH1 0x40 MLOAD PUSH2 0xDA SWAP2 SWAP1 PUSH2 0x446 JUMP JUMPDEST PUSH1 0x40 MLOAD DUP1 SWAP2 SUB SWAP1 RETURN JUMPDEST PUSH2 0xEB PUSH2 0x305 JUMP JUMPDEST STOP JUMPDEST PUSH1 0x1 DUP1 PUSH0 ADD DUP2 SWAP1 SSTORE POP PUSH1 0x50 PUSH1 0x1 DUP1 ADD DUP2 SWAP1 SSTORE POP JUMP JUMPDEST PUSH1 0x60 PUSH0 PUSH1 0x40 MLOAD DUP1 PUSH1 0x40 ADD PUSH1 0x40 MSTORE DUP1 PUSH1 0x1 DUP2 MSTORE PUSH1 0x20 ADD PUSH1 0x2 DUP2 MSTORE POP SWAP1 POP DUP1 PUSH0 SWAP1 PUSH1 0x2 PUSH2 0x12E SWAP3 SWAP2 SWAP1 PUSH2 0x320 JUMP JUMPDEST POP PUSH0 PUSH1 0x3 SWAP1 DUP1 PUSH1 0x1 DUP2 SLOAD ADD DUP1 DUP3 SSTORE DUP1 SWAP2 POP POP PUSH1 0x1 SWAP1 SUB SWAP1 PUSH0 MSTORE PUSH1 0x20 PUSH0 KECCAK256 ADD PUSH0 SWAP1 SWAP2 SWAP1 SWAP2 SWAP1 SWAP2 POP SSTORE PUSH0 DUP1 SLOAD DUP1 PUSH1 0x20 MUL PUSH1 0x20 ADD PUSH1 0x40 MLOAD SWAP1 DUP2 ADD PUSH1 0x40 MSTORE DUP1 SWAP3 SWAP2 SWAP1 DUP2 DUP2 MSTORE PUSH1 0x20 ADD DUP3 DUP1 SLOAD DUP1 ISZERO PUSH2 0x19E JUMPI PUSH1 0x20 MUL DUP3 ADD SWAP2 SWAP1 PUSH0 MSTORE PUSH1 0x20 PUSH0 KECCAK256 SWAP1 JUMPDEST DUP2 SLOAD DUP2 MSTORE PUSH1 0x20 ADD SWAP1 PUSH1 0x1 ADD SWAP1 DUP1 DUP4 GT PUSH2 0x18A JUMPI JUMPDEST POP POP POP POP POP SWAP2 POP POP SWAP1 JUMP JUMPDEST PUSH1 0x40 MLOAD DUP1 PUSH1 0x40 ADD PUSH1 0x40 MSTORE DUP1 PUSH1 0x3 DUP2 MSTORE PUSH1 0x20 ADD PUSH1 0x5A DUP2 MSTORE POP PUSH1 0x1 PUSH0 DUP3 ADD MLOAD DUP2 PUSH0 ADD SSTORE PUSH1 0x20 DUP3 ADD MLOAD DUP2 PUSH1 0x1 ADD SSTORE SWAP1 POP POP JUMP JUMPDEST PUSH1 0x64 PUSH1 0x1 PUSH0 ADD DUP2 SWAP1 SSTORE POP PUSH1 0xC8 PUSH1 0x1 DUP1 ADD DUP2 SWAP1 SSTORE POP PUSH0 PUSH1 0x1 SWAP1 POP PUSH2 0x12C DUP2 PUSH0 ADD DUP2 SWAP1 SSTORE POP PUSH2 0x190 DUP2 PUSH1 0x1 ADD DUP2 SWAP1 SSTORE POP POP JUMP JUMPDEST PUSH1 0x40 MLOAD DUP1 PUSH1 0x40 ADD PUSH1 0x40 MSTORE DUP1 PUSH1 0x7 DUP2 MSTORE PUSH1 0x20 ADD PUSH1 0x5A DUP2 MSTORE POP PUSH1 0x1 PUSH0 DUP3 ADD MLOAD DUP2 PUSH0 ADD SSTORE PUSH1 0x20 DUP3 ADD MLOAD DUP2 PUSH1 0x1 ADD SSTORE SWAP1 POP POP JUMP JUMPDEST PUSH1 0x60 PUSH0 PUSH1 0x40 MLOAD DUP1 PUSH1 0x40 ADD PUSH1 0x40 MSTORE DUP1 PUSH1 0x1 DUP2 MSTORE PUSH1 0x20 ADD PUSH1 0x2 DUP2 MSTORE POP SWAP1 POP DUP1 PUSH0 SWAP1 PUSH1 0x2 PUSH2 0x266 SWAP3 SWAP2 SWAP1 PUSH2 0x320 JUMP JUMPDEST POP PUSH0 PUSH1 0x3 SWAP1 DUP1 PUSH1 0x1 DUP2 SLOAD ADD DUP1 DUP3 SSTORE DUP1 SWAP2 POP POP PUSH1 0x1 SWAP1 SUB SWAP1 PUSH0 MSTORE PUSH1 0x20 PUSH0 KECCAK256 ADD PUSH0 SWAP1 SWAP2 SWAP1 SWAP2 SWAP1 SWAP2 POP SSTORE PUSH0 DUP1 SLOAD DUP1 PUSH2 0x29E JUMPI PUSH2 0x29D PUSH2 0x466 JUMP JUMPDEST JUMPDEST PUSH1 0x1 SWAP1 SUB DUP2 DUP2 SWAP1 PUSH0 MSTORE PUSH1 0x20 PUSH0 KECCAK256 ADD PUSH0 SWAP1 SSTORE SWAP1 SSTORE PUSH0 DUP1 SLOAD DUP1 PUSH1 0x20 MUL PUSH1 0x20 ADD PUSH1 0x40 MLOAD SWAP1 DUP2 ADD PUSH1 0x40 MSTORE DUP1 SWAP3 SWAP2 SWAP1 DUP2 DUP2 MSTORE PUSH1 0x20 ADD DUP3 DUP1 SLOAD DUP1 ISZERO PUSH2 0x2FA JUMPI PUSH1 0x20 MUL DUP3 ADD SWAP2 SWAP1 PUSH0 MSTORE PUSH1 0x20 PUSH0 KECCAK256 SWAP1 JUMPDEST DUP2 SLOAD DUP2 MSTORE PUSH1 0x20 ADD SWAP1 PUSH1 0x1 ADD SWAP1 DUP1 DUP4 GT PUSH2 0x2E6 JUMPI JUMPDEST POP POP POP POP POP SWAP2 POP POP SWAP1 JUMP JUMPDEST PUSH0 PUSH1 0x1 SWAP1 POP PUSH1 0x1 DUP2 PUSH0 ADD DUP2 SWAP1 SSTORE POP PUSH1 0x64 DUP2 PUSH1 0x1 ADD DUP2 SWAP1 SSTORE POP POP JUMP JUMPDEST DUP3 DUP1 SLOAD DUP3 DUP3 SSTORE SWAP1 PUSH0 MSTORE PUSH1 0x20 PUSH0 KECCAK256 SWAP1 DUP2 ADD SWAP3 DUP3 ISZERO PUSH2 0x35A JUMPI SWAP2 PUSH1 0x20 MUL DUP3 ADD JUMPDEST DUP3 DUP2 GT ISZERO PUSH2 0x359 JUMPI DUP3 MLOAD DUP3 SSTORE SWAP2 PUSH1 0x20 ADD SWAP2 SWAP1 PUSH1 0x1 ADD SWAP1 PUSH2 0x33E JUMP JUMPDEST JUMPDEST POP SWAP1 POP PUSH2 0x367 SWAP2 SWAP1 PUSH2 0x36B JUMP JUMPDEST POP SWAP1 JUMP JUMPDEST JUMPDEST DUP1 DUP3 GT ISZERO PUSH2 0x382 JUMPI PUSH0 DUP2 PUSH0 SWAP1 SSTORE POP PUSH1 0x1 ADD PUSH2 0x36C JUMP JUMPDEST POP SWAP1 JUMP JUMPDEST PUSH0 DUP2 MLOAD SWAP1 POP SWAP2 SWAP1 POP JUMP JUMPDEST PUSH0 DUP3 DUP3 MSTORE PUSH1 0x20 DUP3 ADD SWAP1 POP SWAP3 SWAP2 POP POP JUMP JUMPDEST PUSH0 DUP2 SWAP1 POP PUSH1 0x20 DUP3 ADD SWAP1 POP SWAP2 SWAP1 POP JUMP JUMPDEST PUSH0 DUP2 SWAP1 POP SWAP2 SWAP1 POP JUMP JUMPDEST PUSH2 0x3C1 DUP2 PUSH2 0x3AF JUMP JUMPDEST DUP3 MSTORE POP POP JUMP JUMPDEST PUSH0 PUSH2 0x3D2 DUP4 DUP4 PUSH2 0x3B8 JUMP JUMPDEST PUSH1 0x20 DUP4 ADD SWAP1 POP SWAP3 SWAP2 POP POP JUMP JUMPDEST PUSH0 PUSH1 0x20 DUP3 ADD SWAP1 POP SWAP2 SWAP1 POP JUMP JUMPDEST PUSH0 PUSH2 0x3F4 DUP3 PUSH2 0x386 JUMP JUMPDEST PUSH2 0x3FE DUP2 DUP6 PUSH2 0x390 JUMP JUMPDEST SWAP4 POP PUSH2 0x409 DUP4 PUSH2 0x3A0 JUMP JUMPDEST DUP1 PUSH0 JUMPDEST DUP4 DUP2 LT ISZERO PUSH2 0x439 JUMPI DUP2 MLOAD PUSH2 0x420 DUP9 DUP3 PUSH2 0x3C7 JUMP JUMPDEST SWAP8 POP PUSH2 0x42B DUP4 PUSH2 0x3DE JUMP JUMPDEST SWAP3 POP POP PUSH1 0x1 DUP2 ADD SWAP1 POP PUSH2 0x40C JUMP JUMPDEST POP DUP6 SWAP4 POP POP POP POP SWAP3 SWAP2 POP POP JUMP JUMPDEST PUSH0 PUSH1 0x20 DUP3 ADD SWAP1 POP DUP2 DUP2 SUB PUSH0 DUP4 ADD MSTORE PUSH2 0x45E DUP2 DUP5 PUSH2 0x3EA JUMP JUMPDEST SWAP1 POP SWAP3 SWAP2 POP POP JUMP JUMPDEST PUSH32 0x4E487B7100000000000000000000000000000000000000000000000000000000 PUSH0 MSTORE PUSH1 0x31 PUSH1 0x4 MSTORE PUSH1 0x24 PUSH0 REVERT INVALID LOG2 PUSH5 0x6970667358 0x22 SLT KECCAK256 BYTE 0x23 SWAP3 CALLVALUE 0xDF 0xA7 PUSH28 0x78A18104C665CA0F8FD09715D1DD07CB1FC101B7A289F19B0064736F PUSH13 0x63430008190033000000000000 "
				},
				"gasEstimates": {
					"creation": {
						"codeDepositCost": "245000",
						"executionCost": "285",
						"totalCost": "245285"
					},
					"external": {
						"arrayPop()": "infinite",
						"arrayPush()": "infinite",
						"initStudent()": "44460",
						"initStudent2()": "44383",
						"initStudent3()": "44497",
						"initStudent4()": "44474",
						"initStudent5()": "54433"
					}
				},
				"methodIdentifiers": {
					"arrayPop()": "d661981d",
					"arrayPush()": "47f6ac11",
					"initStudent()": "dd49702c",
					"initStudent2()": "1a8d7dc3",
					"initStudent3()": "5a4236b1",
					"initStudent4()": "9ebb8d20",
					"initStudent5()": "903fda95"
				}
			},
			"storageLayout": {
				"storage": [
					{
						"astId": 4,
						"contract": "SolidityProjects/contracts/Study/8-ReferenceTypes.sol:ReferenceTypes",
						"label": "array4",
						"offset": 0,
						"slot": "0",
						"type": "t_array(t_uint256)dyn_storage"
					},
					{
						"astId": 81,
						"contract": "SolidityProjects/contracts/Study/8-ReferenceTypes.sol:ReferenceTypes",
						"label": "student",
						"offset": 0,
						"slot": "1",
						"type": "t_struct(Student)78_storage"
					}
				],
				"types": {
					"t_array(t_uint256)dyn_storage": {
						"base": "t_uint256",
						"encoding": "dynamic_array",
						"label": "uint256[]",
						"numberOfBytes": "32"
					},
					"t_struct(Student)78_storage": {
						"encoding": "inplace",
						"label": "struct ReferenceTypes.Student",
						"members": [
							{
								"astId": 75,
								"contract": "SolidityProjects/contracts/Study/8-ReferenceTypes.sol:ReferenceTypes",
								"label": "id",
								"offset": 0,
								"slot": "0",
								"type": "t_uint256"
							},
							{
								"astId": 77,
								"contract": "SolidityProjects/contracts/Study/8-ReferenceTypes.sol:ReferenceTypes",
								"label": "score",
								"offset": 0,
								"slot": "1",
								"type": "t_uint256"
							}
						],
						"numberOfBytes": "64"
					},
					"t_uint256": {
						"encoding": "inplace",
						"label": "uint256",
						"numberOfBytes": "32"
					}
				}
			},
			"userdoc": {
				"kind": "user",
				"methods": {},
				"version": 1
			}
		}
	}
}