{
	"SolidityProjects/contracts/SolidityGrammers/6-VariableScope(变量作用域).sol": {
		"Variables": {
			"abi": [
				{
					"inputs": [],
					"name": "bar",
					"outputs": [
						{
							"internalType": "uint256",
							"name": "",
							"type": "uint256"
						}
					],
					"stateMutability": "pure",
					"type": "function"
				},
				{
					"inputs": [],
					"name": "daysUint",
					"outputs": [
						{
							"internalType": "uint256",
							"name": "",
							"type": "uint256"
						}
					],
					"stateMutability": "pure",
					"type": "function"
				},
				{
					"inputs": [],
					"name": "etherUint",
					"outputs": [
						{
							"internalType": "uint256",
							"name": "",
							"type": "uint256"
						}
					],
					"stateMutability": "pure",
					"type": "function"
				},
				{
					"inputs": [],
					"name": "foo",
					"outputs": [],
					"stateMutability": "nonpayable",
					"type": "function"
				},
				{
					"inputs": [],
					"name": "global",
					"outputs": [
						{
							"internalType": "address",
							"name": "",
							"type": "address"
						},
						{
							"internalType": "uint256",
							"name": "",
							"type": "uint256"
						},
						{
							"internalType": "uint256",
							"name": "",
							"type": "uint256"
						},
						{
							"internalType": "bytes",
							"name": "",
							"type": "bytes"
						}
					],
					"stateMutability": "view",
					"type": "function"
				},
				{
					"inputs": [],
					"name": "gweiUint",
					"outputs": [
						{
							"internalType": "uint256",
							"name": "",
							"type": "uint256"
						}
					],
					"stateMutability": "pure",
					"type": "function"
				},
				{
					"inputs": [],
					"name": "hoursUint",
					"outputs": [
						{
							"internalType": "uint256",
							"name": "",
							"type": "uint256"
						}
					],
					"stateMutability": "pure",
					"type": "function"
				},
				{
					"inputs": [],
					"name": "minutesUint",
					"outputs": [
						{
							"internalType": "uint256",
							"name": "",
							"type": "uint256"
						}
					],
					"stateMutability": "pure",
					"type": "function"
				},
				{
					"inputs": [],
					"name": "secondsUint",
					"outputs": [
						{
							"internalType": "uint256",
							"name": "",
							"type": "uint256"
						}
					],
					"stateMutability": "pure",
					"type": "function"
				},
				{
					"inputs": [],
					"name": "weeksUint",
					"outputs": [
						{
							"internalType": "uint256",
							"name": "",
							"type": "uint256"
						}
					],
					"stateMutability": "pure",
					"type": "function"
				},
				{
					"inputs": [],
					"name": "weiUint",
					"outputs": [
						{
							"internalType": "uint256",
							"name": "",
							"type": "uint256"
						}
					],
					"stateMutability": "pure",
					"type": "function"
				},
				{
					"inputs": [],
					"name": "x",
					"outputs": [
						{
							"internalType": "uint256",
							"name": "",
							"type": "uint256"
						}
					],
					"stateMutability": "view",
					"type": "function"
				},
				{
					"inputs": [],
					"name": "y",
					"outputs": [
						{
							"internalType": "uint256",
							"name": "",
							"type": "uint256"
						}
					],
					"stateMutability": "view",
					"type": "function"
				},
				{
					"inputs": [],
					"name": "z",
					"outputs": [
						{
							"internalType": "string",
							"name": "",
							"type": "string"
						}
					],
					"stateMutability": "view",
					"type": "function"
				}
			],
			"devdoc": {
				"kind": "dev",
				"methods": {},
				"version": 1
			},
			"evm": {
				"assembly": "    /* \"SolidityProjects/contracts/SolidityGrammers/6-VariableScope(\\xe5\\x8f\\x98\\xe9\\x87\\x8f\\xe4\\xbd\\x9c\\xe7\\x94\\xa8\\xe5\\x9f\\x9f).sol\":224:5078  contract Variables {... */\n  mstore(0x40, 0x80)\n    /* \"SolidityProjects/contracts/SolidityGrammers/6-VariableScope(\\xe5\\x8f\\x98\\xe9\\x87\\x8f\\xe4\\xbd\\x9c\\xe7\\x94\\xa8\\xe5\\x9f\\x9f).sol\":450:451  1 */\n  0x01\n    /* \"SolidityProjects/contracts/SolidityGrammers/6-VariableScope(\\xe5\\x8f\\x98\\xe9\\x87\\x8f\\xe4\\xbd\\x9c\\xe7\\x94\\xa8\\xe5\\x9f\\x9f).sol\":434:451  uint public x = 1 */\n  0x00\n  sstore\n    /* \"SolidityProjects/contracts/SolidityGrammers/6-VariableScope(\\xe5\\x8f\\x98\\xe9\\x87\\x8f\\xe4\\xbd\\x9c\\xe7\\x94\\xa8\\xe5\\x9f\\x9f).sol\":224:5078  contract Variables {... */\n  callvalue\n  dup1\n  iszero\n  tag_1\n  jumpi\n  0x00\n  dup1\n  revert\ntag_1:\n  pop\n  dataSize(sub_0)\n  dup1\n  dataOffset(sub_0)\n  0x00\n  codecopy\n  0x00\n  return\nstop\n\nsub_0: assembly {\n        /* \"SolidityProjects/contracts/SolidityGrammers/6-VariableScope(\\xe5\\x8f\\x98\\xe9\\x87\\x8f\\xe4\\xbd\\x9c\\xe7\\x94\\xa8\\xe5\\x9f\\x9f).sol\":224:5078  contract Variables {... */\n      mstore(0x40, 0x80)\n      callvalue\n      dup1\n      iszero\n      tag_1\n      jumpi\n      0x00\n      dup1\n      revert\n    tag_1:\n      pop\n      jumpi(tag_2, lt(calldatasize, 0x04))\n      shr(0xe0, calldataload(0x00))\n      dup1\n      0xa05f9906\n      gt\n      tag_17\n      jumpi\n      dup1\n      0xc2985578\n      gt\n      tag_18\n      jumpi\n      dup1\n      0xc2985578\n      eq\n      tag_13\n      jumpi\n      dup1\n      0xc5d7802e\n      eq\n      tag_14\n      jumpi\n      dup1\n      0xcc97e238\n      eq\n      tag_15\n      jumpi\n      dup1\n      0xfebb0f7e\n      eq\n      tag_16\n      jumpi\n      jump(tag_2)\n    tag_18:\n      dup1\n      0xa05f9906\n      eq\n      tag_10\n      jumpi\n      dup1\n      0xa56dfe4a\n      eq\n      tag_11\n      jumpi\n      dup1\n      0xb932d448\n      eq\n      tag_12\n      jumpi\n      jump(tag_2)\n    tag_17:\n      dup1\n      0x2da422fe\n      gt\n      tag_19\n      jumpi\n      dup1\n      0x2da422fe\n      eq\n      tag_6\n      jumpi\n      dup1\n      0x39ab09a7\n      eq\n      tag_7\n      jumpi\n      dup1\n      0x556b90b2\n      eq\n      tag_8\n      jumpi\n      dup1\n      0x6ee41262\n      eq\n      tag_9\n      jumpi\n      jump(tag_2)\n    tag_19:\n      dup1\n      0x0c55699c\n      eq\n      tag_3\n      jumpi\n      dup1\n      0x22d05d60\n      eq\n      tag_4\n      jumpi\n      dup1\n      0x23004238\n      eq\n      tag_5\n      jumpi\n    tag_2:\n      0x00\n      dup1\n      revert\n        /* \"SolidityProjects/contracts/SolidityGrammers/6-VariableScope(\\xe5\\x8f\\x98\\xe9\\x87\\x8f\\xe4\\xbd\\x9c\\xe7\\x94\\xa8\\xe5\\x9f\\x9f).sol\":434:451  uint public x = 1 */\n    tag_3:\n      tag_20\n      tag_21\n      jump\t// in\n    tag_20:\n      mload(0x40)\n      tag_22\n      swap2\n      swap1\n      tag_23\n      jump\t// in\n    tag_22:\n      mload(0x40)\n      dup1\n      swap2\n      sub\n      swap1\n      return\n        /* \"SolidityProjects/contracts/SolidityGrammers/6-VariableScope(\\xe5\\x8f\\x98\\xe9\\x87\\x8f\\xe4\\xbd\\x9c\\xe7\\x94\\xa8\\xe5\\x9f\\x9f).sol\":3595:3759  function etherUint() external pure returns(uint){... */\n    tag_4:\n      tag_24\n      tag_25\n      jump\t// in\n    tag_24:\n      mload(0x40)\n      tag_26\n      swap2\n      swap1\n      tag_23\n      jump\t// in\n    tag_26:\n      mload(0x40)\n      dup1\n      swap2\n      sub\n      swap1\n      return\n        /* \"SolidityProjects/contracts/SolidityGrammers/6-VariableScope(\\xe5\\x8f\\x98\\xe9\\x87\\x8f\\xe4\\xbd\\x9c\\xe7\\x94\\xa8\\xe5\\x9f\\x9f).sol\":4703:4824  function hoursUint() external pure returns(uint){... */\n    tag_5:\n      tag_27\n      tag_28\n      jump\t// in\n    tag_27:\n      mload(0x40)\n      tag_29\n      swap2\n      swap1\n      tag_23\n      jump\t// in\n    tag_29:\n      mload(0x40)\n      dup1\n      swap2\n      sub\n      swap1\n      return\n        /* \"SolidityProjects/contracts/SolidityGrammers/6-VariableScope(\\xe5\\x8f\\x98\\xe9\\x87\\x8f\\xe4\\xbd\\x9c\\xe7\\x94\\xa8\\xe5\\x9f\\x9f).sol\":3292:3429  function weiUint() external pure returns(uint){... */\n    tag_6:\n      tag_30\n      tag_31\n      jump\t// in\n    tag_30:\n      mload(0x40)\n      tag_32\n      swap2\n      swap1\n      tag_23\n      jump\t// in\n    tag_32:\n      mload(0x40)\n      dup1\n      swap2\n      sub\n      swap1\n      return\n        /* \"SolidityProjects/contracts/SolidityGrammers/6-VariableScope(\\xe5\\x8f\\x98\\xe9\\x87\\x8f\\xe4\\xbd\\x9c\\xe7\\x94\\xa8\\xe5\\x9f\\x9f).sol\":3437:3587  function gweiUint() external pure returns(uint){... */\n    tag_7:\n      tag_33\n      tag_34\n      jump\t// in\n    tag_33:\n      mload(0x40)\n      tag_35\n      swap2\n      swap1\n      tag_23\n      jump\t// in\n    tag_35:\n      mload(0x40)\n      dup1\n      swap2\n      sub\n      swap1\n      return\n        /* \"SolidityProjects/contracts/SolidityGrammers/6-VariableScope(\\xe5\\x8f\\x98\\xe9\\x87\\x8f\\xe4\\xbd\\x9c\\xe7\\x94\\xa8\\xe5\\x9f\\x9f).sol\":4956:5073  function weeksUint() external pure returns(uint){... */\n    tag_8:\n      tag_36\n      tag_37\n      jump\t// in\n    tag_36:\n      mload(0x40)\n      tag_38\n      swap2\n      swap1\n      tag_23\n      jump\t// in\n    tag_38:\n      mload(0x40)\n      dup1\n      swap2\n      sub\n      swap1\n      return\n        /* \"SolidityProjects/contracts/SolidityGrammers/6-VariableScope(\\xe5\\x8f\\x98\\xe9\\x87\\x8f\\xe4\\xbd\\x9c\\xe7\\x94\\xa8\\xe5\\x9f\\x9f).sol\":4442:4560  function secondsUint() external pure returns(uint){... */\n    tag_9:\n      tag_39\n      tag_40\n      jump\t// in\n    tag_39:\n      mload(0x40)\n      tag_41\n      swap2\n      swap1\n      tag_23\n      jump\t// in\n    tag_41:\n      mload(0x40)\n      dup1\n      swap2\n      sub\n      swap1\n      return\n        /* \"SolidityProjects/contracts/SolidityGrammers/6-VariableScope(\\xe5\\x8f\\x98\\xe9\\x87\\x8f\\xe4\\xbd\\x9c\\xe7\\x94\\xa8\\xe5\\x9f\\x9f).sol\":1187:1481  function global() external view returns(address,uint,uint,bytes memory){... */\n    tag_10:\n      tag_42\n      tag_43\n      jump\t// in\n    tag_42:\n      mload(0x40)\n      tag_44\n      swap5\n      swap4\n      swap3\n      swap2\n      swap1\n      tag_45\n      jump\t// in\n    tag_44:\n      mload(0x40)\n      dup1\n      swap2\n      sub\n      swap1\n      return\n        /* \"SolidityProjects/contracts/SolidityGrammers/6-VariableScope(\\xe5\\x8f\\x98\\xe9\\x87\\x8f\\xe4\\xbd\\x9c\\xe7\\x94\\xa8\\xe5\\x9f\\x9f).sol\":458:471  uint public y */\n    tag_11:\n      tag_46\n      tag_47\n      jump\t// in\n    tag_46:\n      mload(0x40)\n      tag_48\n      swap2\n      swap1\n      tag_23\n      jump\t// in\n    tag_48:\n      mload(0x40)\n      dup1\n      swap2\n      sub\n      swap1\n      return\n        /* \"SolidityProjects/contracts/SolidityGrammers/6-VariableScope(\\xe5\\x8f\\x98\\xe9\\x87\\x8f\\xe4\\xbd\\x9c\\xe7\\x94\\xa8\\xe5\\x9f\\x9f).sol\":4568:4695  function minutesUint() external pure returns(uint){... */\n    tag_12:\n      tag_49\n      tag_50\n      jump\t// in\n    tag_49:\n      mload(0x40)\n      tag_51\n      swap2\n      swap1\n      tag_23\n      jump\t// in\n    tag_51:\n      mload(0x40)\n      dup1\n      swap2\n      sub\n      swap1\n      return\n        /* \"SolidityProjects/contracts/SolidityGrammers/6-VariableScope(\\xe5\\x8f\\x98\\xe9\\x87\\x8f\\xe4\\xbd\\x9c\\xe7\\x94\\xa8\\xe5\\x9f\\x9f).sol\":502:647  function foo() external {... */\n    tag_13:\n      tag_52\n      tag_53\n      jump\t// in\n    tag_52:\n      stop\n        /* \"SolidityProjects/contracts/SolidityGrammers/6-VariableScope(\\xe5\\x8f\\x98\\xe9\\x87\\x8f\\xe4\\xbd\\x9c\\xe7\\x94\\xa8\\xe5\\x9f\\x9f).sol\":478:493  string public z */\n    tag_14:\n      tag_54\n      tag_55\n      jump\t// in\n    tag_54:\n      mload(0x40)\n      tag_56\n      swap2\n      swap1\n      tag_57\n      jump\t// in\n    tag_56:\n      mload(0x40)\n      dup1\n      swap2\n      sub\n      swap1\n      return\n        /* \"SolidityProjects/contracts/SolidityGrammers/6-VariableScope(\\xe5\\x8f\\x98\\xe9\\x87\\x8f\\xe4\\xbd\\x9c\\xe7\\x94\\xa8\\xe5\\x9f\\x9f).sol\":4832:4948  function daysUint() external pure returns(uint){... */\n    tag_15:\n      tag_58\n      tag_59\n      jump\t// in\n    tag_58:\n      mload(0x40)\n      tag_60\n      swap2\n      swap1\n      tag_23\n      jump\t// in\n    tag_60:\n      mload(0x40)\n      dup1\n      swap2\n      sub\n      swap1\n      return\n        /* \"SolidityProjects/contracts/SolidityGrammers/6-VariableScope(\\xe5\\x8f\\x98\\xe9\\x87\\x8f\\xe4\\xbd\\x9c\\xe7\\x94\\xa8\\xe5\\x9f\\x9f).sol\":878:1019  function bar() external pure returns(uint) {... */\n    tag_16:\n      tag_61\n      tag_62\n      jump\t// in\n    tag_61:\n      mload(0x40)\n      tag_63\n      swap2\n      swap1\n      tag_23\n      jump\t// in\n    tag_63:\n      mload(0x40)\n      dup1\n      swap2\n      sub\n      swap1\n      return\n        /* \"SolidityProjects/contracts/SolidityGrammers/6-VariableScope(\\xe5\\x8f\\x98\\xe9\\x87\\x8f\\xe4\\xbd\\x9c\\xe7\\x94\\xa8\\xe5\\x9f\\x9f).sol\":434:451  uint public x = 1 */\n    tag_21:\n      sload(0x00)\n      dup2\n      jump\t// out\n        /* \"SolidityProjects/contracts/SolidityGrammers/6-VariableScope(\\xe5\\x8f\\x98\\xe9\\x87\\x8f\\xe4\\xbd\\x9c\\xe7\\x94\\xa8\\xe5\\x9f\\x9f).sol\":3595:3759  function etherUint() external pure returns(uint){... */\n    tag_25:\n        /* \"SolidityProjects/contracts/SolidityGrammers/6-VariableScope(\\xe5\\x8f\\x98\\xe9\\x87\\x8f\\xe4\\xbd\\x9c\\xe7\\x94\\xa8\\xe5\\x9f\\x9f).sol\":3638:3642  uint */\n      0x00\n        /* \"SolidityProjects/contracts/SolidityGrammers/6-VariableScope(\\xe5\\x8f\\x98\\xe9\\x87\\x8f\\xe4\\xbd\\x9c\\xe7\\x94\\xa8\\xe5\\x9f\\x9f).sol\":3672:3676  1e18 */\n      0x0de0b6b3a7640000\n        /* \"SolidityProjects/contracts/SolidityGrammers/6-VariableScope(\\xe5\\x8f\\x98\\xe9\\x87\\x8f\\xe4\\xbd\\x9c\\xe7\\x94\\xa8\\xe5\\x9f\\x9f).sol\":3661:3668  1 ether */\n      dup1\n        /* \"SolidityProjects/contracts/SolidityGrammers/6-VariableScope(\\xe5\\x8f\\x98\\xe9\\x87\\x8f\\xe4\\xbd\\x9c\\xe7\\x94\\xa8\\xe5\\x9f\\x9f).sol\":3661:3676  1 ether == 1e18 */\n      eq\n        /* \"SolidityProjects/contracts/SolidityGrammers/6-VariableScope(\\xe5\\x8f\\x98\\xe9\\x87\\x8f\\xe4\\xbd\\x9c\\xe7\\x94\\xa8\\xe5\\x9f\\x9f).sol\":3654:3677  assert(1 ether == 1e18) */\n      tag_65\n      jumpi\n      tag_66\n      tag_67\n      jump\t// in\n    tag_66:\n    tag_65:\n        /* \"SolidityProjects/contracts/SolidityGrammers/6-VariableScope(\\xe5\\x8f\\x98\\xe9\\x87\\x8f\\xe4\\xbd\\x9c\\xe7\\x94\\xa8\\xe5\\x9f\\x9f).sol\":3706:3725  1000000000000000000 */\n      0x0de0b6b3a7640000\n        /* \"SolidityProjects/contracts/SolidityGrammers/6-VariableScope(\\xe5\\x8f\\x98\\xe9\\x87\\x8f\\xe4\\xbd\\x9c\\xe7\\x94\\xa8\\xe5\\x9f\\x9f).sol\":3695:3702  1 ether */\n      dup1\n        /* \"SolidityProjects/contracts/SolidityGrammers/6-VariableScope(\\xe5\\x8f\\x98\\xe9\\x87\\x8f\\xe4\\xbd\\x9c\\xe7\\x94\\xa8\\xe5\\x9f\\x9f).sol\":3695:3725  1 ether == 1000000000000000000 */\n      eq\n        /* \"SolidityProjects/contracts/SolidityGrammers/6-VariableScope(\\xe5\\x8f\\x98\\xe9\\x87\\x8f\\xe4\\xbd\\x9c\\xe7\\x94\\xa8\\xe5\\x9f\\x9f).sol\":3688:3726  assert(1 ether == 1000000000000000000) */\n      tag_68\n      jumpi\n      tag_69\n      tag_67\n      jump\t// in\n    tag_69:\n    tag_68:\n        /* \"SolidityProjects/contracts/SolidityGrammers/6-VariableScope(\\xe5\\x8f\\x98\\xe9\\x87\\x8f\\xe4\\xbd\\x9c\\xe7\\x94\\xa8\\xe5\\x9f\\x9f).sol\":3744:3751  1 ether */\n      0x0de0b6b3a7640000\n        /* \"SolidityProjects/contracts/SolidityGrammers/6-VariableScope(\\xe5\\x8f\\x98\\xe9\\x87\\x8f\\xe4\\xbd\\x9c\\xe7\\x94\\xa8\\xe5\\x9f\\x9f).sol\":3737:3751  return 1 ether */\n      swap1\n      pop\n        /* \"SolidityProjects/contracts/SolidityGrammers/6-VariableScope(\\xe5\\x8f\\x98\\xe9\\x87\\x8f\\xe4\\xbd\\x9c\\xe7\\x94\\xa8\\xe5\\x9f\\x9f).sol\":3595:3759  function etherUint() external pure returns(uint){... */\n      swap1\n      jump\t// out\n        /* \"SolidityProjects/contracts/SolidityGrammers/6-VariableScope(\\xe5\\x8f\\x98\\xe9\\x87\\x8f\\xe4\\xbd\\x9c\\xe7\\x94\\xa8\\xe5\\x9f\\x9f).sol\":4703:4824  function hoursUint() external pure returns(uint){... */\n    tag_28:\n        /* \"SolidityProjects/contracts/SolidityGrammers/6-VariableScope(\\xe5\\x8f\\x98\\xe9\\x87\\x8f\\xe4\\xbd\\x9c\\xe7\\x94\\xa8\\xe5\\x9f\\x9f).sol\":4746:4750  uint */\n      0x00\n        /* \"SolidityProjects/contracts/SolidityGrammers/6-VariableScope(\\xe5\\x8f\\x98\\xe9\\x87\\x8f\\xe4\\xbd\\x9c\\xe7\\x94\\xa8\\xe5\\x9f\\x9f).sol\":4780:4790  60 minutes */\n      0x0e10\n        /* \"SolidityProjects/contracts/SolidityGrammers/6-VariableScope(\\xe5\\x8f\\x98\\xe9\\x87\\x8f\\xe4\\xbd\\x9c\\xe7\\x94\\xa8\\xe5\\x9f\\x9f).sol\":4769:4776  1 hours */\n      dup1\n        /* \"SolidityProjects/contracts/SolidityGrammers/6-VariableScope(\\xe5\\x8f\\x98\\xe9\\x87\\x8f\\xe4\\xbd\\x9c\\xe7\\x94\\xa8\\xe5\\x9f\\x9f).sol\":4769:4790  1 hours == 60 minutes */\n      eq\n        /* \"SolidityProjects/contracts/SolidityGrammers/6-VariableScope(\\xe5\\x8f\\x98\\xe9\\x87\\x8f\\xe4\\xbd\\x9c\\xe7\\x94\\xa8\\xe5\\x9f\\x9f).sol\":4762:4791  assert(1 hours == 60 minutes) */\n      tag_71\n      jumpi\n      tag_72\n      tag_67\n      jump\t// in\n    tag_72:\n    tag_71:\n        /* \"SolidityProjects/contracts/SolidityGrammers/6-VariableScope(\\xe5\\x8f\\x98\\xe9\\x87\\x8f\\xe4\\xbd\\x9c\\xe7\\x94\\xa8\\xe5\\x9f\\x9f).sol\":4809:4816  1 hours */\n      0x0e10\n        /* \"SolidityProjects/contracts/SolidityGrammers/6-VariableScope(\\xe5\\x8f\\x98\\xe9\\x87\\x8f\\xe4\\xbd\\x9c\\xe7\\x94\\xa8\\xe5\\x9f\\x9f).sol\":4802:4816  return 1 hours */\n      swap1\n      pop\n        /* \"SolidityProjects/contracts/SolidityGrammers/6-VariableScope(\\xe5\\x8f\\x98\\xe9\\x87\\x8f\\xe4\\xbd\\x9c\\xe7\\x94\\xa8\\xe5\\x9f\\x9f).sol\":4703:4824  function hoursUint() external pure returns(uint){... */\n      swap1\n      jump\t// out\n        /* \"SolidityProjects/contracts/SolidityGrammers/6-VariableScope(\\xe5\\x8f\\x98\\xe9\\x87\\x8f\\xe4\\xbd\\x9c\\xe7\\x94\\xa8\\xe5\\x9f\\x9f).sol\":3292:3429  function weiUint() external pure returns(uint){... */\n    tag_31:\n        /* \"SolidityProjects/contracts/SolidityGrammers/6-VariableScope(\\xe5\\x8f\\x98\\xe9\\x87\\x8f\\xe4\\xbd\\x9c\\xe7\\x94\\xa8\\xe5\\x9f\\x9f).sol\":3333:3337  uint */\n      0x00\n        /* \"SolidityProjects/contracts/SolidityGrammers/6-VariableScope(\\xe5\\x8f\\x98\\xe9\\x87\\x8f\\xe4\\xbd\\x9c\\xe7\\x94\\xa8\\xe5\\x9f\\x9f).sol\":3365:3368  1e0 */\n      0x01\n        /* \"SolidityProjects/contracts/SolidityGrammers/6-VariableScope(\\xe5\\x8f\\x98\\xe9\\x87\\x8f\\xe4\\xbd\\x9c\\xe7\\x94\\xa8\\xe5\\x9f\\x9f).sol\":3356:3361  1 wei */\n      dup1\n        /* \"SolidityProjects/contracts/SolidityGrammers/6-VariableScope(\\xe5\\x8f\\x98\\xe9\\x87\\x8f\\xe4\\xbd\\x9c\\xe7\\x94\\xa8\\xe5\\x9f\\x9f).sol\":3356:3368  1 wei == 1e0 */\n      eq\n        /* \"SolidityProjects/contracts/SolidityGrammers/6-VariableScope(\\xe5\\x8f\\x98\\xe9\\x87\\x8f\\xe4\\xbd\\x9c\\xe7\\x94\\xa8\\xe5\\x9f\\x9f).sol\":3349:3369  assert(1 wei == 1e0) */\n      tag_74\n      jumpi\n      tag_75\n      tag_67\n      jump\t// in\n    tag_75:\n    tag_74:\n        /* \"SolidityProjects/contracts/SolidityGrammers/6-VariableScope(\\xe5\\x8f\\x98\\xe9\\x87\\x8f\\xe4\\xbd\\x9c\\xe7\\x94\\xa8\\xe5\\x9f\\x9f).sol\":3396:3397  1 */\n      0x01\n        /* \"SolidityProjects/contracts/SolidityGrammers/6-VariableScope(\\xe5\\x8f\\x98\\xe9\\x87\\x8f\\xe4\\xbd\\x9c\\xe7\\x94\\xa8\\xe5\\x9f\\x9f).sol\":3387:3392  1 wei */\n      dup1\n        /* \"SolidityProjects/contracts/SolidityGrammers/6-VariableScope(\\xe5\\x8f\\x98\\xe9\\x87\\x8f\\xe4\\xbd\\x9c\\xe7\\x94\\xa8\\xe5\\x9f\\x9f).sol\":3387:3397  1 wei == 1 */\n      eq\n        /* \"SolidityProjects/contracts/SolidityGrammers/6-VariableScope(\\xe5\\x8f\\x98\\xe9\\x87\\x8f\\xe4\\xbd\\x9c\\xe7\\x94\\xa8\\xe5\\x9f\\x9f).sol\":3380:3398  assert(1 wei == 1) */\n      tag_76\n      jumpi\n      tag_77\n      tag_67\n      jump\t// in\n    tag_77:\n    tag_76:\n        /* \"SolidityProjects/contracts/SolidityGrammers/6-VariableScope(\\xe5\\x8f\\x98\\xe9\\x87\\x8f\\xe4\\xbd\\x9c\\xe7\\x94\\xa8\\xe5\\x9f\\x9f).sol\":3416:3421  1 wei */\n      0x01\n        /* \"SolidityProjects/contracts/SolidityGrammers/6-VariableScope(\\xe5\\x8f\\x98\\xe9\\x87\\x8f\\xe4\\xbd\\x9c\\xe7\\x94\\xa8\\xe5\\x9f\\x9f).sol\":3409:3421  return 1 wei */\n      swap1\n      pop\n        /* \"SolidityProjects/contracts/SolidityGrammers/6-VariableScope(\\xe5\\x8f\\x98\\xe9\\x87\\x8f\\xe4\\xbd\\x9c\\xe7\\x94\\xa8\\xe5\\x9f\\x9f).sol\":3292:3429  function weiUint() external pure returns(uint){... */\n      swap1\n      jump\t// out\n        /* \"SolidityProjects/contracts/SolidityGrammers/6-VariableScope(\\xe5\\x8f\\x98\\xe9\\x87\\x8f\\xe4\\xbd\\x9c\\xe7\\x94\\xa8\\xe5\\x9f\\x9f).sol\":3437:3587  function gweiUint() external pure returns(uint){... */\n    tag_34:\n        /* \"SolidityProjects/contracts/SolidityGrammers/6-VariableScope(\\xe5\\x8f\\x98\\xe9\\x87\\x8f\\xe4\\xbd\\x9c\\xe7\\x94\\xa8\\xe5\\x9f\\x9f).sol\":3479:3483  uint */\n      0x00\n        /* \"SolidityProjects/contracts/SolidityGrammers/6-VariableScope(\\xe5\\x8f\\x98\\xe9\\x87\\x8f\\xe4\\xbd\\x9c\\xe7\\x94\\xa8\\xe5\\x9f\\x9f).sol\":3512:3515  1e9 */\n      0x3b9aca00\n        /* \"SolidityProjects/contracts/SolidityGrammers/6-VariableScope(\\xe5\\x8f\\x98\\xe9\\x87\\x8f\\xe4\\xbd\\x9c\\xe7\\x94\\xa8\\xe5\\x9f\\x9f).sol\":3502:3508  1 gwei */\n      dup1\n        /* \"SolidityProjects/contracts/SolidityGrammers/6-VariableScope(\\xe5\\x8f\\x98\\xe9\\x87\\x8f\\xe4\\xbd\\x9c\\xe7\\x94\\xa8\\xe5\\x9f\\x9f).sol\":3502:3515  1 gwei == 1e9 */\n      eq\n        /* \"SolidityProjects/contracts/SolidityGrammers/6-VariableScope(\\xe5\\x8f\\x98\\xe9\\x87\\x8f\\xe4\\xbd\\x9c\\xe7\\x94\\xa8\\xe5\\x9f\\x9f).sol\":3495:3516  assert(1 gwei == 1e9) */\n      tag_79\n      jumpi\n      tag_80\n      tag_67\n      jump\t// in\n    tag_80:\n    tag_79:\n        /* \"SolidityProjects/contracts/SolidityGrammers/6-VariableScope(\\xe5\\x8f\\x98\\xe9\\x87\\x8f\\xe4\\xbd\\x9c\\xe7\\x94\\xa8\\xe5\\x9f\\x9f).sol\":3544:3554  1000000000 */\n      0x3b9aca00\n        /* \"SolidityProjects/contracts/SolidityGrammers/6-VariableScope(\\xe5\\x8f\\x98\\xe9\\x87\\x8f\\xe4\\xbd\\x9c\\xe7\\x94\\xa8\\xe5\\x9f\\x9f).sol\":3534:3540  1 gwei */\n      dup1\n        /* \"SolidityProjects/contracts/SolidityGrammers/6-VariableScope(\\xe5\\x8f\\x98\\xe9\\x87\\x8f\\xe4\\xbd\\x9c\\xe7\\x94\\xa8\\xe5\\x9f\\x9f).sol\":3534:3554  1 gwei == 1000000000 */\n      eq\n        /* \"SolidityProjects/contracts/SolidityGrammers/6-VariableScope(\\xe5\\x8f\\x98\\xe9\\x87\\x8f\\xe4\\xbd\\x9c\\xe7\\x94\\xa8\\xe5\\x9f\\x9f).sol\":3527:3555  assert(1 gwei == 1000000000) */\n      tag_81\n      jumpi\n      tag_82\n      tag_67\n      jump\t// in\n    tag_82:\n    tag_81:\n        /* \"SolidityProjects/contracts/SolidityGrammers/6-VariableScope(\\xe5\\x8f\\x98\\xe9\\x87\\x8f\\xe4\\xbd\\x9c\\xe7\\x94\\xa8\\xe5\\x9f\\x9f).sol\":3573:3579  1 gwei */\n      0x3b9aca00\n        /* \"SolidityProjects/contracts/SolidityGrammers/6-VariableScope(\\xe5\\x8f\\x98\\xe9\\x87\\x8f\\xe4\\xbd\\x9c\\xe7\\x94\\xa8\\xe5\\x9f\\x9f).sol\":3566:3579  return 1 gwei */\n      swap1\n      pop\n        /* \"SolidityProjects/contracts/SolidityGrammers/6-VariableScope(\\xe5\\x8f\\x98\\xe9\\x87\\x8f\\xe4\\xbd\\x9c\\xe7\\x94\\xa8\\xe5\\x9f\\x9f).sol\":3437:3587  function gweiUint() external pure returns(uint){... */\n      swap1\n      jump\t// out\n        /* \"SolidityProjects/contracts/SolidityGrammers/6-VariableScope(\\xe5\\x8f\\x98\\xe9\\x87\\x8f\\xe4\\xbd\\x9c\\xe7\\x94\\xa8\\xe5\\x9f\\x9f).sol\":4956:5073  function weeksUint() external pure returns(uint){... */\n    tag_37:\n        /* \"SolidityProjects/contracts/SolidityGrammers/6-VariableScope(\\xe5\\x8f\\x98\\xe9\\x87\\x8f\\xe4\\xbd\\x9c\\xe7\\x94\\xa8\\xe5\\x9f\\x9f).sol\":4999:5003  uint */\n      0x00\n        /* \"SolidityProjects/contracts/SolidityGrammers/6-VariableScope(\\xe5\\x8f\\x98\\xe9\\x87\\x8f\\xe4\\xbd\\x9c\\xe7\\x94\\xa8\\xe5\\x9f\\x9f).sol\":5033:5039  7 days */\n      0x093a80\n        /* \"SolidityProjects/contracts/SolidityGrammers/6-VariableScope(\\xe5\\x8f\\x98\\xe9\\x87\\x8f\\xe4\\xbd\\x9c\\xe7\\x94\\xa8\\xe5\\x9f\\x9f).sol\":5022:5029  1 weeks */\n      dup1\n        /* \"SolidityProjects/contracts/SolidityGrammers/6-VariableScope(\\xe5\\x8f\\x98\\xe9\\x87\\x8f\\xe4\\xbd\\x9c\\xe7\\x94\\xa8\\xe5\\x9f\\x9f).sol\":5022:5039  1 weeks == 7 days */\n      eq\n        /* \"SolidityProjects/contracts/SolidityGrammers/6-VariableScope(\\xe5\\x8f\\x98\\xe9\\x87\\x8f\\xe4\\xbd\\x9c\\xe7\\x94\\xa8\\xe5\\x9f\\x9f).sol\":5015:5040  assert(1 weeks == 7 days) */\n      tag_84\n      jumpi\n      tag_85\n      tag_67\n      jump\t// in\n    tag_85:\n    tag_84:\n        /* \"SolidityProjects/contracts/SolidityGrammers/6-VariableScope(\\xe5\\x8f\\x98\\xe9\\x87\\x8f\\xe4\\xbd\\x9c\\xe7\\x94\\xa8\\xe5\\x9f\\x9f).sol\":5058:5065  1 weeks */\n      0x093a80\n        /* \"SolidityProjects/contracts/SolidityGrammers/6-VariableScope(\\xe5\\x8f\\x98\\xe9\\x87\\x8f\\xe4\\xbd\\x9c\\xe7\\x94\\xa8\\xe5\\x9f\\x9f).sol\":5051:5065  return 1 weeks */\n      swap1\n      pop\n        /* \"SolidityProjects/contracts/SolidityGrammers/6-VariableScope(\\xe5\\x8f\\x98\\xe9\\x87\\x8f\\xe4\\xbd\\x9c\\xe7\\x94\\xa8\\xe5\\x9f\\x9f).sol\":4956:5073  function weeksUint() external pure returns(uint){... */\n      swap1\n      jump\t// out\n        /* \"SolidityProjects/contracts/SolidityGrammers/6-VariableScope(\\xe5\\x8f\\x98\\xe9\\x87\\x8f\\xe4\\xbd\\x9c\\xe7\\x94\\xa8\\xe5\\x9f\\x9f).sol\":4442:4560  function secondsUint() external pure returns(uint){... */\n    tag_40:\n        /* \"SolidityProjects/contracts/SolidityGrammers/6-VariableScope(\\xe5\\x8f\\x98\\xe9\\x87\\x8f\\xe4\\xbd\\x9c\\xe7\\x94\\xa8\\xe5\\x9f\\x9f).sol\":4487:4491  uint */\n      0x00\n        /* \"SolidityProjects/contracts/SolidityGrammers/6-VariableScope(\\xe5\\x8f\\x98\\xe9\\x87\\x8f\\xe4\\xbd\\x9c\\xe7\\x94\\xa8\\xe5\\x9f\\x9f).sol\":4523:4524  1 */\n      0x01\n        /* \"SolidityProjects/contracts/SolidityGrammers/6-VariableScope(\\xe5\\x8f\\x98\\xe9\\x87\\x8f\\xe4\\xbd\\x9c\\xe7\\x94\\xa8\\xe5\\x9f\\x9f).sol\":4510:4519  1 seconds */\n      dup1\n        /* \"SolidityProjects/contracts/SolidityGrammers/6-VariableScope(\\xe5\\x8f\\x98\\xe9\\x87\\x8f\\xe4\\xbd\\x9c\\xe7\\x94\\xa8\\xe5\\x9f\\x9f).sol\":4510:4524  1 seconds == 1 */\n      eq\n        /* \"SolidityProjects/contracts/SolidityGrammers/6-VariableScope(\\xe5\\x8f\\x98\\xe9\\x87\\x8f\\xe4\\xbd\\x9c\\xe7\\x94\\xa8\\xe5\\x9f\\x9f).sol\":4503:4525  assert(1 seconds == 1) */\n      tag_87\n      jumpi\n      tag_88\n      tag_67\n      jump\t// in\n    tag_88:\n    tag_87:\n        /* \"SolidityProjects/contracts/SolidityGrammers/6-VariableScope(\\xe5\\x8f\\x98\\xe9\\x87\\x8f\\xe4\\xbd\\x9c\\xe7\\x94\\xa8\\xe5\\x9f\\x9f).sol\":4543:4552  1 seconds */\n      0x01\n        /* \"SolidityProjects/contracts/SolidityGrammers/6-VariableScope(\\xe5\\x8f\\x98\\xe9\\x87\\x8f\\xe4\\xbd\\x9c\\xe7\\x94\\xa8\\xe5\\x9f\\x9f).sol\":4536:4552  return 1 seconds */\n      swap1\n      pop\n        /* \"SolidityProjects/contracts/SolidityGrammers/6-VariableScope(\\xe5\\x8f\\x98\\xe9\\x87\\x8f\\xe4\\xbd\\x9c\\xe7\\x94\\xa8\\xe5\\x9f\\x9f).sol\":4442:4560  function secondsUint() external pure returns(uint){... */\n      swap1\n      jump\t// out\n        /* \"SolidityProjects/contracts/SolidityGrammers/6-VariableScope(\\xe5\\x8f\\x98\\xe9\\x87\\x8f\\xe4\\xbd\\x9c\\xe7\\x94\\xa8\\xe5\\x9f\\x9f).sol\":1187:1481  function global() external view returns(address,uint,uint,bytes memory){... */\n    tag_43:\n        /* \"SolidityProjects/contracts/SolidityGrammers/6-VariableScope(\\xe5\\x8f\\x98\\xe9\\x87\\x8f\\xe4\\xbd\\x9c\\xe7\\x94\\xa8\\xe5\\x9f\\x9f).sol\":1227:1234  address */\n      0x00\n        /* \"SolidityProjects/contracts/SolidityGrammers/6-VariableScope(\\xe5\\x8f\\x98\\xe9\\x87\\x8f\\xe4\\xbd\\x9c\\xe7\\x94\\xa8\\xe5\\x9f\\x9f).sol\":1235:1239  uint */\n      dup1\n        /* \"SolidityProjects/contracts/SolidityGrammers/6-VariableScope(\\xe5\\x8f\\x98\\xe9\\x87\\x8f\\xe4\\xbd\\x9c\\xe7\\x94\\xa8\\xe5\\x9f\\x9f).sol\":1240:1244  uint */\n      0x00\n        /* \"SolidityProjects/contracts/SolidityGrammers/6-VariableScope(\\xe5\\x8f\\x98\\xe9\\x87\\x8f\\xe4\\xbd\\x9c\\xe7\\x94\\xa8\\xe5\\x9f\\x9f).sol\":1245:1257  bytes memory */\n      0x60\n        /* \"SolidityProjects/contracts/SolidityGrammers/6-VariableScope(\\xe5\\x8f\\x98\\xe9\\x87\\x8f\\xe4\\xbd\\x9c\\xe7\\x94\\xa8\\xe5\\x9f\\x9f).sol\":1269:1283  address sender */\n      0x00\n        /* \"SolidityProjects/contracts/SolidityGrammers/6-VariableScope(\\xe5\\x8f\\x98\\xe9\\x87\\x8f\\xe4\\xbd\\x9c\\xe7\\x94\\xa8\\xe5\\x9f\\x9f).sol\":1286:1296  msg.sender */\n      caller\n        /* \"SolidityProjects/contracts/SolidityGrammers/6-VariableScope(\\xe5\\x8f\\x98\\xe9\\x87\\x8f\\xe4\\xbd\\x9c\\xe7\\x94\\xa8\\xe5\\x9f\\x9f).sol\":1269:1296  address sender = msg.sender */\n      swap1\n      pop\n        /* \"SolidityProjects/contracts/SolidityGrammers/6-VariableScope(\\xe5\\x8f\\x98\\xe9\\x87\\x8f\\xe4\\xbd\\x9c\\xe7\\x94\\xa8\\xe5\\x9f\\x9f).sol\":1307:1323  uint blockNumber */\n      0x00\n        /* \"SolidityProjects/contracts/SolidityGrammers/6-VariableScope(\\xe5\\x8f\\x98\\xe9\\x87\\x8f\\xe4\\xbd\\x9c\\xe7\\x94\\xa8\\xe5\\x9f\\x9f).sol\":1326:1338  block.number */\n      number\n        /* \"SolidityProjects/contracts/SolidityGrammers/6-VariableScope(\\xe5\\x8f\\x98\\xe9\\x87\\x8f\\xe4\\xbd\\x9c\\xe7\\x94\\xa8\\xe5\\x9f\\x9f).sol\":1307:1338  uint blockNumber = block.number */\n      swap1\n      pop\n        /* \"SolidityProjects/contracts/SolidityGrammers/6-VariableScope(\\xe5\\x8f\\x98\\xe9\\x87\\x8f\\xe4\\xbd\\x9c\\xe7\\x94\\xa8\\xe5\\x9f\\x9f).sol\":1349:1363  uint timestamp */\n      0x00\n        /* \"SolidityProjects/contracts/SolidityGrammers/6-VariableScope(\\xe5\\x8f\\x98\\xe9\\x87\\x8f\\xe4\\xbd\\x9c\\xe7\\x94\\xa8\\xe5\\x9f\\x9f).sol\":1366:1381  block.timestamp */\n      timestamp\n        /* \"SolidityProjects/contracts/SolidityGrammers/6-VariableScope(\\xe5\\x8f\\x98\\xe9\\x87\\x8f\\xe4\\xbd\\x9c\\xe7\\x94\\xa8\\xe5\\x9f\\x9f).sol\":1349:1381  uint timestamp = block.timestamp */\n      swap1\n      pop\n        /* \"SolidityProjects/contracts/SolidityGrammers/6-VariableScope(\\xe5\\x8f\\x98\\xe9\\x87\\x8f\\xe4\\xbd\\x9c\\xe7\\x94\\xa8\\xe5\\x9f\\x9f).sol\":1392:1409  bytes memory data */\n      0x00\n        /* \"SolidityProjects/contracts/SolidityGrammers/6-VariableScope(\\xe5\\x8f\\x98\\xe9\\x87\\x8f\\xe4\\xbd\\x9c\\xe7\\x94\\xa8\\xe5\\x9f\\x9f).sol\":1412:1420  msg.data */\n      dup1\n      calldatasize\n        /* \"SolidityProjects/contracts/SolidityGrammers/6-VariableScope(\\xe5\\x8f\\x98\\xe9\\x87\\x8f\\xe4\\xbd\\x9c\\xe7\\x94\\xa8\\xe5\\x9f\\x9f).sol\":1392:1420  bytes memory data = msg.data */\n      dup1\n      dup1\n      0x1f\n      add\n      0x20\n      dup1\n      swap2\n      div\n      mul\n      0x20\n      add\n      mload(0x40)\n      swap1\n      dup2\n      add\n      0x40\n      mstore\n      dup1\n      swap4\n      swap3\n      swap2\n      swap1\n      dup2\n      dup2\n      mstore\n      0x20\n      add\n      dup4\n      dup4\n      dup1\n      dup3\n      dup5\n      calldatacopy\n      0x00\n      dup2\n      dup5\n      add\n      mstore\n      not(0x1f)\n      0x1f\n      dup3\n      add\n      and\n      swap1\n      pop\n      dup1\n      dup4\n      add\n      swap3\n      pop\n      pop\n      pop\n      pop\n      pop\n      pop\n      pop\n      swap1\n      pop\n        /* \"SolidityProjects/contracts/SolidityGrammers/6-VariableScope(\\xe5\\x8f\\x98\\xe9\\x87\\x8f\\xe4\\xbd\\x9c\\xe7\\x94\\xa8\\xe5\\x9f\\x9f).sol\":1439:1445  sender */\n      dup4\n        /* \"SolidityProjects/contracts/SolidityGrammers/6-VariableScope(\\xe5\\x8f\\x98\\xe9\\x87\\x8f\\xe4\\xbd\\x9c\\xe7\\x94\\xa8\\xe5\\x9f\\x9f).sol\":1446:1457  blockNumber */\n      dup4\n        /* \"SolidityProjects/contracts/SolidityGrammers/6-VariableScope(\\xe5\\x8f\\x98\\xe9\\x87\\x8f\\xe4\\xbd\\x9c\\xe7\\x94\\xa8\\xe5\\x9f\\x9f).sol\":1458:1467  timestamp */\n      dup4\n        /* \"SolidityProjects/contracts/SolidityGrammers/6-VariableScope(\\xe5\\x8f\\x98\\xe9\\x87\\x8f\\xe4\\xbd\\x9c\\xe7\\x94\\xa8\\xe5\\x9f\\x9f).sol\":1468:1472  data */\n      dup4\n        /* \"SolidityProjects/contracts/SolidityGrammers/6-VariableScope(\\xe5\\x8f\\x98\\xe9\\x87\\x8f\\xe4\\xbd\\x9c\\xe7\\x94\\xa8\\xe5\\x9f\\x9f).sol\":1431:1473  return (sender,blockNumber,timestamp,data) */\n      swap8\n      pop\n      swap8\n      pop\n      swap8\n      pop\n      swap8\n      pop\n      pop\n      pop\n      pop\n      pop\n        /* \"SolidityProjects/contracts/SolidityGrammers/6-VariableScope(\\xe5\\x8f\\x98\\xe9\\x87\\x8f\\xe4\\xbd\\x9c\\xe7\\x94\\xa8\\xe5\\x9f\\x9f).sol\":1187:1481  function global() external view returns(address,uint,uint,bytes memory){... */\n      swap1\n      swap2\n      swap3\n      swap4\n      jump\t// out\n        /* \"SolidityProjects/contracts/SolidityGrammers/6-VariableScope(\\xe5\\x8f\\x98\\xe9\\x87\\x8f\\xe4\\xbd\\x9c\\xe7\\x94\\xa8\\xe5\\x9f\\x9f).sol\":458:471  uint public y */\n    tag_47:\n      sload(0x01)\n      dup2\n      jump\t// out\n        /* \"SolidityProjects/contracts/SolidityGrammers/6-VariableScope(\\xe5\\x8f\\x98\\xe9\\x87\\x8f\\xe4\\xbd\\x9c\\xe7\\x94\\xa8\\xe5\\x9f\\x9f).sol\":4568:4695  function minutesUint() external pure returns(uint){... */\n    tag_50:\n        /* \"SolidityProjects/contracts/SolidityGrammers/6-VariableScope(\\xe5\\x8f\\x98\\xe9\\x87\\x8f\\xe4\\xbd\\x9c\\xe7\\x94\\xa8\\xe5\\x9f\\x9f).sol\":4613:4617  uint */\n      0x00\n        /* \"SolidityProjects/contracts/SolidityGrammers/6-VariableScope(\\xe5\\x8f\\x98\\xe9\\x87\\x8f\\xe4\\xbd\\x9c\\xe7\\x94\\xa8\\xe5\\x9f\\x9f).sol\":4649:4659  60 seconds */\n      0x3c\n        /* \"SolidityProjects/contracts/SolidityGrammers/6-VariableScope(\\xe5\\x8f\\x98\\xe9\\x87\\x8f\\xe4\\xbd\\x9c\\xe7\\x94\\xa8\\xe5\\x9f\\x9f).sol\":4636:4645  1 minutes */\n      dup1\n        /* \"SolidityProjects/contracts/SolidityGrammers/6-VariableScope(\\xe5\\x8f\\x98\\xe9\\x87\\x8f\\xe4\\xbd\\x9c\\xe7\\x94\\xa8\\xe5\\x9f\\x9f).sol\":4636:4659  1 minutes == 60 seconds */\n      eq\n        /* \"SolidityProjects/contracts/SolidityGrammers/6-VariableScope(\\xe5\\x8f\\x98\\xe9\\x87\\x8f\\xe4\\xbd\\x9c\\xe7\\x94\\xa8\\xe5\\x9f\\x9f).sol\":4629:4660  assert(1 minutes == 60 seconds) */\n      tag_91\n      jumpi\n      tag_92\n      tag_67\n      jump\t// in\n    tag_92:\n    tag_91:\n        /* \"SolidityProjects/contracts/SolidityGrammers/6-VariableScope(\\xe5\\x8f\\x98\\xe9\\x87\\x8f\\xe4\\xbd\\x9c\\xe7\\x94\\xa8\\xe5\\x9f\\x9f).sol\":4678:4687  1 minutes */\n      0x3c\n        /* \"SolidityProjects/contracts/SolidityGrammers/6-VariableScope(\\xe5\\x8f\\x98\\xe9\\x87\\x8f\\xe4\\xbd\\x9c\\xe7\\x94\\xa8\\xe5\\x9f\\x9f).sol\":4671:4687  return 1 minutes */\n      swap1\n      pop\n        /* \"SolidityProjects/contracts/SolidityGrammers/6-VariableScope(\\xe5\\x8f\\x98\\xe9\\x87\\x8f\\xe4\\xbd\\x9c\\xe7\\x94\\xa8\\xe5\\x9f\\x9f).sol\":4568:4695  function minutesUint() external pure returns(uint){... */\n      swap1\n      jump\t// out\n        /* \"SolidityProjects/contracts/SolidityGrammers/6-VariableScope(\\xe5\\x8f\\x98\\xe9\\x87\\x8f\\xe4\\xbd\\x9c\\xe7\\x94\\xa8\\xe5\\x9f\\x9f).sol\":502:647  function foo() external {... */\n    tag_53:\n        /* \"SolidityProjects/contracts/SolidityGrammers/6-VariableScope(\\xe5\\x8f\\x98\\xe9\\x87\\x8f\\xe4\\xbd\\x9c\\xe7\\x94\\xa8\\xe5\\x9f\\x9f).sol\":596:597  9 */\n      0x09\n        /* \"SolidityProjects/contracts/SolidityGrammers/6-VariableScope(\\xe5\\x8f\\x98\\xe9\\x87\\x8f\\xe4\\xbd\\x9c\\xe7\\x94\\xa8\\xe5\\x9f\\x9f).sol\":592:593  x */\n      0x00\n        /* \"SolidityProjects/contracts/SolidityGrammers/6-VariableScope(\\xe5\\x8f\\x98\\xe9\\x87\\x8f\\xe4\\xbd\\x9c\\xe7\\x94\\xa8\\xe5\\x9f\\x9f).sol\":592:597  x = 9 */\n      dup2\n      swap1\n      sstore\n      pop\n        /* \"SolidityProjects/contracts/SolidityGrammers/6-VariableScope(\\xe5\\x8f\\x98\\xe9\\x87\\x8f\\xe4\\xbd\\x9c\\xe7\\x94\\xa8\\xe5\\x9f\\x9f).sol\":612:613  1 */\n      0x01\n        /* \"SolidityProjects/contracts/SolidityGrammers/6-VariableScope(\\xe5\\x8f\\x98\\xe9\\x87\\x8f\\xe4\\xbd\\x9c\\xe7\\x94\\xa8\\xe5\\x9f\\x9f).sol\":608:609  y */\n      dup1\n        /* \"SolidityProjects/contracts/SolidityGrammers/6-VariableScope(\\xe5\\x8f\\x98\\xe9\\x87\\x8f\\xe4\\xbd\\x9c\\xe7\\x94\\xa8\\xe5\\x9f\\x9f).sol\":608:613  y = 1 */\n      dup2\n      swap1\n      sstore\n      pop\n        /* \"SolidityProjects/contracts/SolidityGrammers/6-VariableScope(\\xe5\\x8f\\x98\\xe9\\x87\\x8f\\xe4\\xbd\\x9c\\xe7\\x94\\xa8\\xe5\\x9f\\x9f).sol\":624:639  z = \"MakeMoney\" */\n      mload(0x40)\n      dup1\n      0x40\n      add\n      0x40\n      mstore\n      dup1\n      0x09\n      dup2\n      mstore\n      0x20\n      add\n      0x4d616b654d6f6e65790000000000000000000000000000000000000000000000\n      dup2\n      mstore\n      pop\n        /* \"SolidityProjects/contracts/SolidityGrammers/6-VariableScope(\\xe5\\x8f\\x98\\xe9\\x87\\x8f\\xe4\\xbd\\x9c\\xe7\\x94\\xa8\\xe5\\x9f\\x9f).sol\":624:625  z */\n      0x02\n        /* \"SolidityProjects/contracts/SolidityGrammers/6-VariableScope(\\xe5\\x8f\\x98\\xe9\\x87\\x8f\\xe4\\xbd\\x9c\\xe7\\x94\\xa8\\xe5\\x9f\\x9f).sol\":624:639  z = \"MakeMoney\" */\n      swap1\n      dup2\n      tag_94\n      swap2\n      swap1\n      tag_95\n      jump\t// in\n    tag_94:\n      pop\n        /* \"SolidityProjects/contracts/SolidityGrammers/6-VariableScope(\\xe5\\x8f\\x98\\xe9\\x87\\x8f\\xe4\\xbd\\x9c\\xe7\\x94\\xa8\\xe5\\x9f\\x9f).sol\":502:647  function foo() external {... */\n      jump\t// out\n        /* \"SolidityProjects/contracts/SolidityGrammers/6-VariableScope(\\xe5\\x8f\\x98\\xe9\\x87\\x8f\\xe4\\xbd\\x9c\\xe7\\x94\\xa8\\xe5\\x9f\\x9f).sol\":478:493  string public z */\n    tag_55:\n      0x02\n      dup1\n      sload\n      tag_96\n      swap1\n      tag_97\n      jump\t// in\n    tag_96:\n      dup1\n      0x1f\n      add\n      0x20\n      dup1\n      swap2\n      div\n      mul\n      0x20\n      add\n      mload(0x40)\n      swap1\n      dup2\n      add\n      0x40\n      mstore\n      dup1\n      swap3\n      swap2\n      swap1\n      dup2\n      dup2\n      mstore\n      0x20\n      add\n      dup3\n      dup1\n      sload\n      tag_98\n      swap1\n      tag_97\n      jump\t// in\n    tag_98:\n      dup1\n      iszero\n      tag_99\n      jumpi\n      dup1\n      0x1f\n      lt\n      tag_100\n      jumpi\n      0x0100\n      dup1\n      dup4\n      sload\n      div\n      mul\n      dup4\n      mstore\n      swap2\n      0x20\n      add\n      swap2\n      jump(tag_99)\n    tag_100:\n      dup3\n      add\n      swap2\n      swap1\n      0x00\n      mstore\n      keccak256(0x00, 0x20)\n      swap1\n    tag_101:\n      dup2\n      sload\n      dup2\n      mstore\n      swap1\n      0x01\n      add\n      swap1\n      0x20\n      add\n      dup1\n      dup4\n      gt\n      tag_101\n      jumpi\n      dup3\n      swap1\n      sub\n      0x1f\n      and\n      dup3\n      add\n      swap2\n    tag_99:\n      pop\n      pop\n      pop\n      pop\n      pop\n      dup2\n      jump\t// out\n        /* \"SolidityProjects/contracts/SolidityGrammers/6-VariableScope(\\xe5\\x8f\\x98\\xe9\\x87\\x8f\\xe4\\xbd\\x9c\\xe7\\x94\\xa8\\xe5\\x9f\\x9f).sol\":4832:4948  function daysUint() external pure returns(uint){... */\n    tag_59:\n        /* \"SolidityProjects/contracts/SolidityGrammers/6-VariableScope(\\xe5\\x8f\\x98\\xe9\\x87\\x8f\\xe4\\xbd\\x9c\\xe7\\x94\\xa8\\xe5\\x9f\\x9f).sol\":4874:4878  uint */\n      0x00\n        /* \"SolidityProjects/contracts/SolidityGrammers/6-VariableScope(\\xe5\\x8f\\x98\\xe9\\x87\\x8f\\xe4\\xbd\\x9c\\xe7\\x94\\xa8\\xe5\\x9f\\x9f).sol\":4907:4915  24 hours */\n      0x015180\n        /* \"SolidityProjects/contracts/SolidityGrammers/6-VariableScope(\\xe5\\x8f\\x98\\xe9\\x87\\x8f\\xe4\\xbd\\x9c\\xe7\\x94\\xa8\\xe5\\x9f\\x9f).sol\":4897:4903  1 days */\n      dup1\n        /* \"SolidityProjects/contracts/SolidityGrammers/6-VariableScope(\\xe5\\x8f\\x98\\xe9\\x87\\x8f\\xe4\\xbd\\x9c\\xe7\\x94\\xa8\\xe5\\x9f\\x9f).sol\":4897:4915  1 days == 24 hours */\n      eq\n        /* \"SolidityProjects/contracts/SolidityGrammers/6-VariableScope(\\xe5\\x8f\\x98\\xe9\\x87\\x8f\\xe4\\xbd\\x9c\\xe7\\x94\\xa8\\xe5\\x9f\\x9f).sol\":4890:4916  assert(1 days == 24 hours) */\n      tag_103\n      jumpi\n      tag_104\n      tag_67\n      jump\t// in\n    tag_104:\n    tag_103:\n        /* \"SolidityProjects/contracts/SolidityGrammers/6-VariableScope(\\xe5\\x8f\\x98\\xe9\\x87\\x8f\\xe4\\xbd\\x9c\\xe7\\x94\\xa8\\xe5\\x9f\\x9f).sol\":4934:4940  1 days */\n      0x015180\n        /* \"SolidityProjects/contracts/SolidityGrammers/6-VariableScope(\\xe5\\x8f\\x98\\xe9\\x87\\x8f\\xe4\\xbd\\x9c\\xe7\\x94\\xa8\\xe5\\x9f\\x9f).sol\":4927:4940  return 1 days */\n      swap1\n      pop\n        /* \"SolidityProjects/contracts/SolidityGrammers/6-VariableScope(\\xe5\\x8f\\x98\\xe9\\x87\\x8f\\xe4\\xbd\\x9c\\xe7\\x94\\xa8\\xe5\\x9f\\x9f).sol\":4832:4948  function daysUint() external pure returns(uint){... */\n      swap1\n      jump\t// out\n        /* \"SolidityProjects/contracts/SolidityGrammers/6-VariableScope(\\xe5\\x8f\\x98\\xe9\\x87\\x8f\\xe4\\xbd\\x9c\\xe7\\x94\\xa8\\xe5\\x9f\\x9f).sol\":878:1019  function bar() external pure returns(uint) {... */\n    tag_62:\n        /* \"SolidityProjects/contracts/SolidityGrammers/6-VariableScope(\\xe5\\x8f\\x98\\xe9\\x87\\x8f\\xe4\\xbd\\x9c\\xe7\\x94\\xa8\\xe5\\x9f\\x9f).sol\":915:919  uint */\n      0x00\n        /* \"SolidityProjects/contracts/SolidityGrammers/6-VariableScope(\\xe5\\x8f\\x98\\xe9\\x87\\x8f\\xe4\\xbd\\x9c\\xe7\\x94\\xa8\\xe5\\x9f\\x9f).sol\":932:938  uint a */\n      dup1\n        /* \"SolidityProjects/contracts/SolidityGrammers/6-VariableScope(\\xe5\\x8f\\x98\\xe9\\x87\\x8f\\xe4\\xbd\\x9c\\xe7\\x94\\xa8\\xe5\\x9f\\x9f).sol\":941:944  520 */\n      0x0208\n        /* \"SolidityProjects/contracts/SolidityGrammers/6-VariableScope(\\xe5\\x8f\\x98\\xe9\\x87\\x8f\\xe4\\xbd\\x9c\\xe7\\x94\\xa8\\xe5\\x9f\\x9f).sol\":932:944  uint a = 520 */\n      swap1\n      pop\n        /* \"SolidityProjects/contracts/SolidityGrammers/6-VariableScope(\\xe5\\x8f\\x98\\xe9\\x87\\x8f\\xe4\\xbd\\x9c\\xe7\\x94\\xa8\\xe5\\x9f\\x9f).sol\":955:961  uint b */\n      0x00\n        /* \"SolidityProjects/contracts/SolidityGrammers/6-VariableScope(\\xe5\\x8f\\x98\\xe9\\x87\\x8f\\xe4\\xbd\\x9c\\xe7\\x94\\xa8\\xe5\\x9f\\x9f).sol\":964:965  1 */\n      0x01\n        /* \"SolidityProjects/contracts/SolidityGrammers/6-VariableScope(\\xe5\\x8f\\x98\\xe9\\x87\\x8f\\xe4\\xbd\\x9c\\xe7\\x94\\xa8\\xe5\\x9f\\x9f).sol\":955:965  uint b = 1 */\n      swap1\n      pop\n        /* \"SolidityProjects/contracts/SolidityGrammers/6-VariableScope(\\xe5\\x8f\\x98\\xe9\\x87\\x8f\\xe4\\xbd\\x9c\\xe7\\x94\\xa8\\xe5\\x9f\\x9f).sol\":976:982  uint c */\n      0x00\n        /* \"SolidityProjects/contracts/SolidityGrammers/6-VariableScope(\\xe5\\x8f\\x98\\xe9\\x87\\x8f\\xe4\\xbd\\x9c\\xe7\\x94\\xa8\\xe5\\x9f\\x9f).sol\":989:990  b */\n      dup2\n        /* \"SolidityProjects/contracts/SolidityGrammers/6-VariableScope(\\xe5\\x8f\\x98\\xe9\\x87\\x8f\\xe4\\xbd\\x9c\\xe7\\x94\\xa8\\xe5\\x9f\\x9f).sol\":985:986  a */\n      dup4\n        /* \"SolidityProjects/contracts/SolidityGrammers/6-VariableScope(\\xe5\\x8f\\x98\\xe9\\x87\\x8f\\xe4\\xbd\\x9c\\xe7\\x94\\xa8\\xe5\\x9f\\x9f).sol\":985:990  a + b */\n      tag_106\n      swap2\n      swap1\n      tag_107\n      jump\t// in\n    tag_106:\n        /* \"SolidityProjects/contracts/SolidityGrammers/6-VariableScope(\\xe5\\x8f\\x98\\xe9\\x87\\x8f\\xe4\\xbd\\x9c\\xe7\\x94\\xa8\\xe5\\x9f\\x9f).sol\":976:990  uint c = a + b */\n      swap1\n      pop\n        /* \"SolidityProjects/contracts/SolidityGrammers/6-VariableScope(\\xe5\\x8f\\x98\\xe9\\x87\\x8f\\xe4\\xbd\\x9c\\xe7\\x94\\xa8\\xe5\\x9f\\x9f).sol\":1009:1010  c */\n      dup1\n        /* \"SolidityProjects/contracts/SolidityGrammers/6-VariableScope(\\xe5\\x8f\\x98\\xe9\\x87\\x8f\\xe4\\xbd\\x9c\\xe7\\x94\\xa8\\xe5\\x9f\\x9f).sol\":1001:1011  return (c) */\n      swap4\n      pop\n      pop\n      pop\n      pop\n        /* \"SolidityProjects/contracts/SolidityGrammers/6-VariableScope(\\xe5\\x8f\\x98\\xe9\\x87\\x8f\\xe4\\xbd\\x9c\\xe7\\x94\\xa8\\xe5\\x9f\\x9f).sol\":878:1019  function bar() external pure returns(uint) {... */\n      swap1\n      jump\t// out\n        /* \"#utility.yul\":7:84   */\n    tag_108:\n        /* \"#utility.yul\":44:51   */\n      0x00\n        /* \"#utility.yul\":73:78   */\n      dup2\n        /* \"#utility.yul\":62:78   */\n      swap1\n      pop\n        /* \"#utility.yul\":7:84   */\n      swap2\n      swap1\n      pop\n      jump\t// out\n        /* \"#utility.yul\":90:208   */\n    tag_109:\n        /* \"#utility.yul\":177:201   */\n      tag_142\n        /* \"#utility.yul\":195:200   */\n      dup2\n        /* \"#utility.yul\":177:201   */\n      tag_108\n      jump\t// in\n    tag_142:\n        /* \"#utility.yul\":172:175   */\n      dup3\n        /* \"#utility.yul\":165:202   */\n      mstore\n        /* \"#utility.yul\":90:208   */\n      pop\n      pop\n      jump\t// out\n        /* \"#utility.yul\":214:436   */\n    tag_23:\n        /* \"#utility.yul\":307:311   */\n      0x00\n        /* \"#utility.yul\":345:347   */\n      0x20\n        /* \"#utility.yul\":334:343   */\n      dup3\n        /* \"#utility.yul\":330:348   */\n      add\n        /* \"#utility.yul\":322:348   */\n      swap1\n      pop\n        /* \"#utility.yul\":358:429   */\n      tag_144\n        /* \"#utility.yul\":426:427   */\n      0x00\n        /* \"#utility.yul\":415:424   */\n      dup4\n        /* \"#utility.yul\":411:428   */\n      add\n        /* \"#utility.yul\":402:408   */\n      dup5\n        /* \"#utility.yul\":358:429   */\n      tag_109\n      jump\t// in\n    tag_144:\n        /* \"#utility.yul\":214:436   */\n      swap3\n      swap2\n      pop\n      pop\n      jump\t// out\n        /* \"#utility.yul\":442:568   */\n    tag_110:\n        /* \"#utility.yul\":479:486   */\n      0x00\n        /* \"#utility.yul\":519:561   */\n      0xffffffffffffffffffffffffffffffffffffffff\n        /* \"#utility.yul\":512:517   */\n      dup3\n        /* \"#utility.yul\":508:562   */\n      and\n        /* \"#utility.yul\":497:562   */\n      swap1\n      pop\n        /* \"#utility.yul\":442:568   */\n      swap2\n      swap1\n      pop\n      jump\t// out\n        /* \"#utility.yul\":574:670   */\n    tag_111:\n        /* \"#utility.yul\":611:618   */\n      0x00\n        /* \"#utility.yul\":640:664   */\n      tag_147\n        /* \"#utility.yul\":658:663   */\n      dup3\n        /* \"#utility.yul\":640:664   */\n      tag_110\n      jump\t// in\n    tag_147:\n        /* \"#utility.yul\":629:664   */\n      swap1\n      pop\n        /* \"#utility.yul\":574:670   */\n      swap2\n      swap1\n      pop\n      jump\t// out\n        /* \"#utility.yul\":676:794   */\n    tag_112:\n        /* \"#utility.yul\":763:787   */\n      tag_149\n        /* \"#utility.yul\":781:786   */\n      dup2\n        /* \"#utility.yul\":763:787   */\n      tag_111\n      jump\t// in\n    tag_149:\n        /* \"#utility.yul\":758:761   */\n      dup3\n        /* \"#utility.yul\":751:788   */\n      mstore\n        /* \"#utility.yul\":676:794   */\n      pop\n      pop\n      jump\t// out\n        /* \"#utility.yul\":800:898   */\n    tag_113:\n        /* \"#utility.yul\":851:857   */\n      0x00\n        /* \"#utility.yul\":885:890   */\n      dup2\n        /* \"#utility.yul\":879:891   */\n      mload\n        /* \"#utility.yul\":869:891   */\n      swap1\n      pop\n        /* \"#utility.yul\":800:898   */\n      swap2\n      swap1\n      pop\n      jump\t// out\n        /* \"#utility.yul\":904:1072   */\n    tag_114:\n        /* \"#utility.yul\":987:998   */\n      0x00\n        /* \"#utility.yul\":1021:1027   */\n      dup3\n        /* \"#utility.yul\":1016:1019   */\n      dup3\n        /* \"#utility.yul\":1009:1028   */\n      mstore\n        /* \"#utility.yul\":1061:1065   */\n      0x20\n        /* \"#utility.yul\":1056:1059   */\n      dup3\n        /* \"#utility.yul\":1052:1066   */\n      add\n        /* \"#utility.yul\":1037:1066   */\n      swap1\n      pop\n        /* \"#utility.yul\":904:1072   */\n      swap3\n      swap2\n      pop\n      pop\n      jump\t// out\n        /* \"#utility.yul\":1078:1217   */\n    tag_115:\n        /* \"#utility.yul\":1167:1173   */\n      dup3\n        /* \"#utility.yul\":1162:1165   */\n      dup2\n        /* \"#utility.yul\":1157:1160   */\n      dup4\n        /* \"#utility.yul\":1151:1174   */\n      mcopy\n        /* \"#utility.yul\":1208:1209   */\n      0x00\n        /* \"#utility.yul\":1199:1205   */\n      dup4\n        /* \"#utility.yul\":1194:1197   */\n      dup4\n        /* \"#utility.yul\":1190:1206   */\n      add\n        /* \"#utility.yul\":1183:1210   */\n      mstore\n        /* \"#utility.yul\":1078:1217   */\n      pop\n      pop\n      pop\n      jump\t// out\n        /* \"#utility.yul\":1223:1325   */\n    tag_116:\n        /* \"#utility.yul\":1264:1270   */\n      0x00\n        /* \"#utility.yul\":1315:1317   */\n      0x1f\n        /* \"#utility.yul\":1311:1318   */\n      not\n        /* \"#utility.yul\":1306:1308   */\n      0x1f\n        /* \"#utility.yul\":1299:1304   */\n      dup4\n        /* \"#utility.yul\":1295:1309   */\n      add\n        /* \"#utility.yul\":1291:1319   */\n      and\n        /* \"#utility.yul\":1281:1319   */\n      swap1\n      pop\n        /* \"#utility.yul\":1223:1325   */\n      swap2\n      swap1\n      pop\n      jump\t// out\n        /* \"#utility.yul\":1331:1704   */\n    tag_117:\n        /* \"#utility.yul\":1417:1420   */\n      0x00\n        /* \"#utility.yul\":1445:1483   */\n      tag_155\n        /* \"#utility.yul\":1477:1482   */\n      dup3\n        /* \"#utility.yul\":1445:1483   */\n      tag_113\n      jump\t// in\n    tag_155:\n        /* \"#utility.yul\":1499:1569   */\n      tag_156\n        /* \"#utility.yul\":1562:1568   */\n      dup2\n        /* \"#utility.yul\":1557:1560   */\n      dup6\n        /* \"#utility.yul\":1499:1569   */\n      tag_114\n      jump\t// in\n    tag_156:\n        /* \"#utility.yul\":1492:1569   */\n      swap4\n      pop\n        /* \"#utility.yul\":1578:1643   */\n      tag_157\n        /* \"#utility.yul\":1636:1642   */\n      dup2\n        /* \"#utility.yul\":1631:1634   */\n      dup6\n        /* \"#utility.yul\":1624:1628   */\n      0x20\n        /* \"#utility.yul\":1617:1622   */\n      dup7\n        /* \"#utility.yul\":1613:1629   */\n      add\n        /* \"#utility.yul\":1578:1643   */\n      tag_115\n      jump\t// in\n    tag_157:\n        /* \"#utility.yul\":1668:1697   */\n      tag_158\n        /* \"#utility.yul\":1690:1696   */\n      dup2\n        /* \"#utility.yul\":1668:1697   */\n      tag_116\n      jump\t// in\n    tag_158:\n        /* \"#utility.yul\":1663:1666   */\n      dup5\n        /* \"#utility.yul\":1659:1698   */\n      add\n        /* \"#utility.yul\":1652:1698   */\n      swap2\n      pop\n        /* \"#utility.yul\":1421:1704   */\n      pop\n        /* \"#utility.yul\":1331:1704   */\n      swap3\n      swap2\n      pop\n      pop\n      jump\t// out\n        /* \"#utility.yul\":1710:2350   */\n    tag_45:\n        /* \"#utility.yul\":1905:1909   */\n      0x00\n        /* \"#utility.yul\":1943:1946   */\n      0x80\n        /* \"#utility.yul\":1932:1941   */\n      dup3\n        /* \"#utility.yul\":1928:1947   */\n      add\n        /* \"#utility.yul\":1920:1947   */\n      swap1\n      pop\n        /* \"#utility.yul\":1957:2028   */\n      tag_160\n        /* \"#utility.yul\":2025:2026   */\n      0x00\n        /* \"#utility.yul\":2014:2023   */\n      dup4\n        /* \"#utility.yul\":2010:2027   */\n      add\n        /* \"#utility.yul\":2001:2007   */\n      dup8\n        /* \"#utility.yul\":1957:2028   */\n      tag_112\n      jump\t// in\n    tag_160:\n        /* \"#utility.yul\":2038:2110   */\n      tag_161\n        /* \"#utility.yul\":2106:2108   */\n      0x20\n        /* \"#utility.yul\":2095:2104   */\n      dup4\n        /* \"#utility.yul\":2091:2109   */\n      add\n        /* \"#utility.yul\":2082:2088   */\n      dup7\n        /* \"#utility.yul\":2038:2110   */\n      tag_109\n      jump\t// in\n    tag_161:\n        /* \"#utility.yul\":2120:2192   */\n      tag_162\n        /* \"#utility.yul\":2188:2190   */\n      0x40\n        /* \"#utility.yul\":2177:2186   */\n      dup4\n        /* \"#utility.yul\":2173:2191   */\n      add\n        /* \"#utility.yul\":2164:2170   */\n      dup6\n        /* \"#utility.yul\":2120:2192   */\n      tag_109\n      jump\t// in\n    tag_162:\n        /* \"#utility.yul\":2239:2248   */\n      dup2\n        /* \"#utility.yul\":2233:2237   */\n      dup2\n        /* \"#utility.yul\":2229:2249   */\n      sub\n        /* \"#utility.yul\":2224:2226   */\n      0x60\n        /* \"#utility.yul\":2213:2222   */\n      dup4\n        /* \"#utility.yul\":2209:2227   */\n      add\n        /* \"#utility.yul\":2202:2250   */\n      mstore\n        /* \"#utility.yul\":2267:2343   */\n      tag_163\n        /* \"#utility.yul\":2338:2342   */\n      dup2\n        /* \"#utility.yul\":2329:2335   */\n      dup5\n        /* \"#utility.yul\":2267:2343   */\n      tag_117\n      jump\t// in\n    tag_163:\n        /* \"#utility.yul\":2259:2343   */\n      swap1\n      pop\n        /* \"#utility.yul\":1710:2350   */\n      swap6\n      swap5\n      pop\n      pop\n      pop\n      pop\n      pop\n      jump\t// out\n        /* \"#utility.yul\":2356:2455   */\n    tag_118:\n        /* \"#utility.yul\":2408:2414   */\n      0x00\n        /* \"#utility.yul\":2442:2447   */\n      dup2\n        /* \"#utility.yul\":2436:2448   */\n      mload\n        /* \"#utility.yul\":2426:2448   */\n      swap1\n      pop\n        /* \"#utility.yul\":2356:2455   */\n      swap2\n      swap1\n      pop\n      jump\t// out\n        /* \"#utility.yul\":2461:2630   */\n    tag_119:\n        /* \"#utility.yul\":2545:2556   */\n      0x00\n        /* \"#utility.yul\":2579:2585   */\n      dup3\n        /* \"#utility.yul\":2574:2577   */\n      dup3\n        /* \"#utility.yul\":2567:2586   */\n      mstore\n        /* \"#utility.yul\":2619:2623   */\n      0x20\n        /* \"#utility.yul\":2614:2617   */\n      dup3\n        /* \"#utility.yul\":2610:2624   */\n      add\n        /* \"#utility.yul\":2595:2624   */\n      swap1\n      pop\n        /* \"#utility.yul\":2461:2630   */\n      swap3\n      swap2\n      pop\n      pop\n      jump\t// out\n        /* \"#utility.yul\":2636:3013   */\n    tag_120:\n        /* \"#utility.yul\":2724:2727   */\n      0x00\n        /* \"#utility.yul\":2752:2791   */\n      tag_167\n        /* \"#utility.yul\":2785:2790   */\n      dup3\n        /* \"#utility.yul\":2752:2791   */\n      tag_118\n      jump\t// in\n    tag_167:\n        /* \"#utility.yul\":2807:2878   */\n      tag_168\n        /* \"#utility.yul\":2871:2877   */\n      dup2\n        /* \"#utility.yul\":2866:2869   */\n      dup6\n        /* \"#utility.yul\":2807:2878   */\n      tag_119\n      jump\t// in\n    tag_168:\n        /* \"#utility.yul\":2800:2878   */\n      swap4\n      pop\n        /* \"#utility.yul\":2887:2952   */\n      tag_169\n        /* \"#utility.yul\":2945:2951   */\n      dup2\n        /* \"#utility.yul\":2940:2943   */\n      dup6\n        /* \"#utility.yul\":2933:2937   */\n      0x20\n        /* \"#utility.yul\":2926:2931   */\n      dup7\n        /* \"#utility.yul\":2922:2938   */\n      add\n        /* \"#utility.yul\":2887:2952   */\n      tag_115\n      jump\t// in\n    tag_169:\n        /* \"#utility.yul\":2977:3006   */\n      tag_170\n        /* \"#utility.yul\":2999:3005   */\n      dup2\n        /* \"#utility.yul\":2977:3006   */\n      tag_116\n      jump\t// in\n    tag_170:\n        /* \"#utility.yul\":2972:2975   */\n      dup5\n        /* \"#utility.yul\":2968:3007   */\n      add\n        /* \"#utility.yul\":2961:3007   */\n      swap2\n      pop\n        /* \"#utility.yul\":2728:3013   */\n      pop\n        /* \"#utility.yul\":2636:3013   */\n      swap3\n      swap2\n      pop\n      pop\n      jump\t// out\n        /* \"#utility.yul\":3019:3332   */\n    tag_57:\n        /* \"#utility.yul\":3132:3136   */\n      0x00\n        /* \"#utility.yul\":3170:3172   */\n      0x20\n        /* \"#utility.yul\":3159:3168   */\n      dup3\n        /* \"#utility.yul\":3155:3173   */\n      add\n        /* \"#utility.yul\":3147:3173   */\n      swap1\n      pop\n        /* \"#utility.yul\":3219:3228   */\n      dup2\n        /* \"#utility.yul\":3213:3217   */\n      dup2\n        /* \"#utility.yul\":3209:3229   */\n      sub\n        /* \"#utility.yul\":3205:3206   */\n      0x00\n        /* \"#utility.yul\":3194:3203   */\n      dup4\n        /* \"#utility.yul\":3190:3207   */\n      add\n        /* \"#utility.yul\":3183:3230   */\n      mstore\n        /* \"#utility.yul\":3247:3325   */\n      tag_172\n        /* \"#utility.yul\":3320:3324   */\n      dup2\n        /* \"#utility.yul\":3311:3317   */\n      dup5\n        /* \"#utility.yul\":3247:3325   */\n      tag_120\n      jump\t// in\n    tag_172:\n        /* \"#utility.yul\":3239:3325   */\n      swap1\n      pop\n        /* \"#utility.yul\":3019:3332   */\n      swap3\n      swap2\n      pop\n      pop\n      jump\t// out\n        /* \"#utility.yul\":3338:3518   */\n    tag_67:\n        /* \"#utility.yul\":3386:3463   */\n      0x4e487b7100000000000000000000000000000000000000000000000000000000\n        /* \"#utility.yul\":3383:3384   */\n      0x00\n        /* \"#utility.yul\":3376:3464   */\n      mstore\n        /* \"#utility.yul\":3483:3487   */\n      0x01\n        /* \"#utility.yul\":3480:3481   */\n      0x04\n        /* \"#utility.yul\":3473:3488   */\n      mstore\n        /* \"#utility.yul\":3507:3511   */\n      0x24\n        /* \"#utility.yul\":3504:3505   */\n      0x00\n        /* \"#utility.yul\":3497:3512   */\n      revert\n        /* \"#utility.yul\":3524:3704   */\n    tag_121:\n        /* \"#utility.yul\":3572:3649   */\n      0x4e487b7100000000000000000000000000000000000000000000000000000000\n        /* \"#utility.yul\":3569:3570   */\n      0x00\n        /* \"#utility.yul\":3562:3650   */\n      mstore\n        /* \"#utility.yul\":3669:3673   */\n      0x41\n        /* \"#utility.yul\":3666:3667   */\n      0x04\n        /* \"#utility.yul\":3659:3674   */\n      mstore\n        /* \"#utility.yul\":3693:3697   */\n      0x24\n        /* \"#utility.yul\":3690:3691   */\n      0x00\n        /* \"#utility.yul\":3683:3698   */\n      revert\n        /* \"#utility.yul\":3710:3890   */\n    tag_122:\n        /* \"#utility.yul\":3758:3835   */\n      0x4e487b7100000000000000000000000000000000000000000000000000000000\n        /* \"#utility.yul\":3755:3756   */\n      0x00\n        /* \"#utility.yul\":3748:3836   */\n      mstore\n        /* \"#utility.yul\":3855:3859   */\n      0x22\n        /* \"#utility.yul\":3852:3853   */\n      0x04\n        /* \"#utility.yul\":3845:3860   */\n      mstore\n        /* \"#utility.yul\":3879:3883   */\n      0x24\n        /* \"#utility.yul\":3876:3877   */\n      0x00\n        /* \"#utility.yul\":3869:3884   */\n      revert\n        /* \"#utility.yul\":3896:4216   */\n    tag_97:\n        /* \"#utility.yul\":3940:3946   */\n      0x00\n        /* \"#utility.yul\":3977:3978   */\n      0x02\n        /* \"#utility.yul\":3971:3975   */\n      dup3\n        /* \"#utility.yul\":3967:3979   */\n      div\n        /* \"#utility.yul\":3957:3979   */\n      swap1\n      pop\n        /* \"#utility.yul\":4024:4025   */\n      0x01\n        /* \"#utility.yul\":4018:4022   */\n      dup3\n        /* \"#utility.yul\":4014:4026   */\n      and\n        /* \"#utility.yul\":4045:4063   */\n      dup1\n        /* \"#utility.yul\":4035:4116   */\n      tag_177\n      jumpi\n        /* \"#utility.yul\":4101:4105   */\n      0x7f\n        /* \"#utility.yul\":4093:4099   */\n      dup3\n        /* \"#utility.yul\":4089:4106   */\n      and\n        /* \"#utility.yul\":4079:4106   */\n      swap2\n      pop\n        /* \"#utility.yul\":4035:4116   */\n    tag_177:\n        /* \"#utility.yul\":4163:4165   */\n      0x20\n        /* \"#utility.yul\":4155:4161   */\n      dup3\n        /* \"#utility.yul\":4152:4166   */\n      lt\n        /* \"#utility.yul\":4132:4150   */\n      dup2\n        /* \"#utility.yul\":4129:4167   */\n      sub\n        /* \"#utility.yul\":4126:4210   */\n      tag_178\n      jumpi\n        /* \"#utility.yul\":4182:4200   */\n      tag_179\n      tag_122\n      jump\t// in\n    tag_179:\n        /* \"#utility.yul\":4126:4210   */\n    tag_178:\n        /* \"#utility.yul\":3947:4216   */\n      pop\n        /* \"#utility.yul\":3896:4216   */\n      swap2\n      swap1\n      pop\n      jump\t// out\n        /* \"#utility.yul\":4222:4363   */\n    tag_123:\n        /* \"#utility.yul\":4271:4275   */\n      0x00\n        /* \"#utility.yul\":4294:4297   */\n      dup2\n        /* \"#utility.yul\":4286:4297   */\n      swap1\n      pop\n        /* \"#utility.yul\":4317:4320   */\n      dup2\n        /* \"#utility.yul\":4314:4315   */\n      0x00\n        /* \"#utility.yul\":4307:4321   */\n      mstore\n        /* \"#utility.yul\":4351:4355   */\n      0x20\n        /* \"#utility.yul\":4348:4349   */\n      0x00\n        /* \"#utility.yul\":4338:4356   */\n      keccak256\n        /* \"#utility.yul\":4330:4356   */\n      swap1\n      pop\n        /* \"#utility.yul\":4222:4363   */\n      swap2\n      swap1\n      pop\n      jump\t// out\n        /* \"#utility.yul\":4369:4462   */\n    tag_124:\n        /* \"#utility.yul\":4406:4412   */\n      0x00\n        /* \"#utility.yul\":4453:4455   */\n      0x20\n        /* \"#utility.yul\":4448:4450   */\n      0x1f\n        /* \"#utility.yul\":4441:4446   */\n      dup4\n        /* \"#utility.yul\":4437:4451   */\n      add\n        /* \"#utility.yul\":4433:4456   */\n      div\n        /* \"#utility.yul\":4423:4456   */\n      swap1\n      pop\n        /* \"#utility.yul\":4369:4462   */\n      swap2\n      swap1\n      pop\n      jump\t// out\n        /* \"#utility.yul\":4468:4575   */\n    tag_125:\n        /* \"#utility.yul\":4512:4520   */\n      0x00\n        /* \"#utility.yul\":4562:4567   */\n      dup3\n        /* \"#utility.yul\":4556:4560   */\n      dup3\n        /* \"#utility.yul\":4552:4568   */\n      shl\n        /* \"#utility.yul\":4531:4568   */\n      swap1\n      pop\n        /* \"#utility.yul\":4468:4575   */\n      swap3\n      swap2\n      pop\n      pop\n      jump\t// out\n        /* \"#utility.yul\":4581:4974   */\n    tag_126:\n        /* \"#utility.yul\":4650:4656   */\n      0x00\n        /* \"#utility.yul\":4700:4701   */\n      0x08\n        /* \"#utility.yul\":4688:4698   */\n      dup4\n        /* \"#utility.yul\":4684:4702   */\n      mul\n        /* \"#utility.yul\":4723:4820   */\n      tag_184\n        /* \"#utility.yul\":4753:4819   */\n      0xffffffffffffffffffffffffffffffffffffffffffffffffffffffffffffffff\n        /* \"#utility.yul\":4742:4751   */\n      dup3\n        /* \"#utility.yul\":4723:4820   */\n      tag_125\n      jump\t// in\n    tag_184:\n        /* \"#utility.yul\":4841:4880   */\n      tag_185\n        /* \"#utility.yul\":4871:4879   */\n      dup7\n        /* \"#utility.yul\":4860:4869   */\n      dup4\n        /* \"#utility.yul\":4841:4880   */\n      tag_125\n      jump\t// in\n    tag_185:\n        /* \"#utility.yul\":4829:4880   */\n      swap6\n      pop\n        /* \"#utility.yul\":4913:4917   */\n      dup1\n        /* \"#utility.yul\":4909:4918   */\n      not\n        /* \"#utility.yul\":4902:4907   */\n      dup5\n        /* \"#utility.yul\":4898:4919   */\n      and\n        /* \"#utility.yul\":4889:4919   */\n      swap4\n      pop\n        /* \"#utility.yul\":4962:4966   */\n      dup1\n        /* \"#utility.yul\":4952:4960   */\n      dup7\n        /* \"#utility.yul\":4948:4967   */\n      and\n        /* \"#utility.yul\":4941:4946   */\n      dup5\n        /* \"#utility.yul\":4938:4968   */\n      or\n        /* \"#utility.yul\":4928:4968   */\n      swap3\n      pop\n        /* \"#utility.yul\":4657:4974   */\n      pop\n      pop\n        /* \"#utility.yul\":4581:4974   */\n      swap4\n      swap3\n      pop\n      pop\n      pop\n      jump\t// out\n        /* \"#utility.yul\":4980:5040   */\n    tag_127:\n        /* \"#utility.yul\":5008:5011   */\n      0x00\n        /* \"#utility.yul\":5029:5034   */\n      dup2\n        /* \"#utility.yul\":5022:5034   */\n      swap1\n      pop\n        /* \"#utility.yul\":4980:5040   */\n      swap2\n      swap1\n      pop\n      jump\t// out\n        /* \"#utility.yul\":5046:5188   */\n    tag_128:\n        /* \"#utility.yul\":5096:5105   */\n      0x00\n        /* \"#utility.yul\":5129:5182   */\n      tag_188\n        /* \"#utility.yul\":5147:5181   */\n      tag_189\n        /* \"#utility.yul\":5156:5180   */\n      tag_190\n        /* \"#utility.yul\":5174:5179   */\n      dup5\n        /* \"#utility.yul\":5156:5180   */\n      tag_108\n      jump\t// in\n    tag_190:\n        /* \"#utility.yul\":5147:5181   */\n      tag_127\n      jump\t// in\n    tag_189:\n        /* \"#utility.yul\":5129:5182   */\n      tag_108\n      jump\t// in\n    tag_188:\n        /* \"#utility.yul\":5116:5182   */\n      swap1\n      pop\n        /* \"#utility.yul\":5046:5188   */\n      swap2\n      swap1\n      pop\n      jump\t// out\n        /* \"#utility.yul\":5194:5269   */\n    tag_129:\n        /* \"#utility.yul\":5237:5240   */\n      0x00\n        /* \"#utility.yul\":5258:5263   */\n      dup2\n        /* \"#utility.yul\":5251:5263   */\n      swap1\n      pop\n        /* \"#utility.yul\":5194:5269   */\n      swap2\n      swap1\n      pop\n      jump\t// out\n        /* \"#utility.yul\":5275:5544   */\n    tag_130:\n        /* \"#utility.yul\":5385:5424   */\n      tag_193\n        /* \"#utility.yul\":5416:5423   */\n      dup4\n        /* \"#utility.yul\":5385:5424   */\n      tag_128\n      jump\t// in\n    tag_193:\n        /* \"#utility.yul\":5446:5537   */\n      tag_194\n        /* \"#utility.yul\":5495:5536   */\n      tag_195\n        /* \"#utility.yul\":5519:5535   */\n      dup3\n        /* \"#utility.yul\":5495:5536   */\n      tag_129\n      jump\t// in\n    tag_195:\n        /* \"#utility.yul\":5487:5493   */\n      dup5\n        /* \"#utility.yul\":5480:5484   */\n      dup5\n        /* \"#utility.yul\":5474:5485   */\n      sload\n        /* \"#utility.yul\":5446:5537   */\n      tag_126\n      jump\t// in\n    tag_194:\n        /* \"#utility.yul\":5440:5444   */\n      dup3\n        /* \"#utility.yul\":5433:5538   */\n      sstore\n        /* \"#utility.yul\":5351:5544   */\n      pop\n        /* \"#utility.yul\":5275:5544   */\n      pop\n      pop\n      pop\n      jump\t// out\n        /* \"#utility.yul\":5550:5623   */\n    tag_131:\n        /* \"#utility.yul\":5595:5598   */\n      0x00\n        /* \"#utility.yul\":5550:5623   */\n      swap1\n      jump\t// out\n        /* \"#utility.yul\":5629:5818   */\n    tag_132:\n        /* \"#utility.yul\":5706:5738   */\n      tag_198\n      tag_131\n      jump\t// in\n    tag_198:\n        /* \"#utility.yul\":5747:5812   */\n      tag_199\n        /* \"#utility.yul\":5805:5811   */\n      dup2\n        /* \"#utility.yul\":5797:5803   */\n      dup5\n        /* \"#utility.yul\":5791:5795   */\n      dup5\n        /* \"#utility.yul\":5747:5812   */\n      tag_130\n      jump\t// in\n    tag_199:\n        /* \"#utility.yul\":5682:5818   */\n      pop\n        /* \"#utility.yul\":5629:5818   */\n      pop\n      pop\n      jump\t// out\n        /* \"#utility.yul\":5824:6010   */\n    tag_133:\n        /* \"#utility.yul\":5884:6004   */\n    tag_201:\n        /* \"#utility.yul\":5901:5904   */\n      dup2\n        /* \"#utility.yul\":5894:5899   */\n      dup2\n        /* \"#utility.yul\":5891:5905   */\n      lt\n        /* \"#utility.yul\":5884:6004   */\n      iszero\n      tag_203\n      jumpi\n        /* \"#utility.yul\":5955:5994   */\n      tag_204\n        /* \"#utility.yul\":5992:5993   */\n      0x00\n        /* \"#utility.yul\":5985:5990   */\n      dup3\n        /* \"#utility.yul\":5955:5994   */\n      tag_132\n      jump\t// in\n    tag_204:\n        /* \"#utility.yul\":5928:5929   */\n      0x01\n        /* \"#utility.yul\":5921:5926   */\n      dup2\n        /* \"#utility.yul\":5917:5930   */\n      add\n        /* \"#utility.yul\":5908:5930   */\n      swap1\n      pop\n        /* \"#utility.yul\":5884:6004   */\n      jump(tag_201)\n    tag_203:\n        /* \"#utility.yul\":5824:6010   */\n      pop\n      pop\n      jump\t// out\n        /* \"#utility.yul\":6016:6559   */\n    tag_134:\n        /* \"#utility.yul\":6117:6119   */\n      0x1f\n        /* \"#utility.yul\":6112:6115   */\n      dup3\n        /* \"#utility.yul\":6109:6120   */\n      gt\n        /* \"#utility.yul\":6106:6552   */\n      iszero\n      tag_206\n      jumpi\n        /* \"#utility.yul\":6151:6189   */\n      tag_207\n        /* \"#utility.yul\":6183:6188   */\n      dup2\n        /* \"#utility.yul\":6151:6189   */\n      tag_123\n      jump\t// in\n    tag_207:\n        /* \"#utility.yul\":6235:6264   */\n      tag_208\n        /* \"#utility.yul\":6253:6263   */\n      dup5\n        /* \"#utility.yul\":6235:6264   */\n      tag_124\n      jump\t// in\n    tag_208:\n        /* \"#utility.yul\":6225:6233   */\n      dup2\n        /* \"#utility.yul\":6221:6265   */\n      add\n        /* \"#utility.yul\":6418:6420   */\n      0x20\n        /* \"#utility.yul\":6406:6416   */\n      dup6\n        /* \"#utility.yul\":6403:6421   */\n      lt\n        /* \"#utility.yul\":6400:6449   */\n      iszero\n      tag_209\n      jumpi\n        /* \"#utility.yul\":6439:6447   */\n      dup2\n        /* \"#utility.yul\":6424:6447   */\n      swap1\n      pop\n        /* \"#utility.yul\":6400:6449   */\n    tag_209:\n        /* \"#utility.yul\":6462:6542   */\n      tag_210\n        /* \"#utility.yul\":6518:6540   */\n      tag_211\n        /* \"#utility.yul\":6536:6539   */\n      dup6\n        /* \"#utility.yul\":6518:6540   */\n      tag_124\n      jump\t// in\n    tag_211:\n        /* \"#utility.yul\":6508:6516   */\n      dup4\n        /* \"#utility.yul\":6504:6541   */\n      add\n        /* \"#utility.yul\":6491:6502   */\n      dup3\n        /* \"#utility.yul\":6462:6542   */\n      tag_133\n      jump\t// in\n    tag_210:\n        /* \"#utility.yul\":6121:6552   */\n      pop\n      pop\n        /* \"#utility.yul\":6106:6552   */\n    tag_206:\n        /* \"#utility.yul\":6016:6559   */\n      pop\n      pop\n      pop\n      jump\t// out\n        /* \"#utility.yul\":6565:6682   */\n    tag_135:\n        /* \"#utility.yul\":6619:6627   */\n      0x00\n        /* \"#utility.yul\":6669:6674   */\n      dup3\n        /* \"#utility.yul\":6663:6667   */\n      dup3\n        /* \"#utility.yul\":6659:6675   */\n      shr\n        /* \"#utility.yul\":6638:6675   */\n      swap1\n      pop\n        /* \"#utility.yul\":6565:6682   */\n      swap3\n      swap2\n      pop\n      pop\n      jump\t// out\n        /* \"#utility.yul\":6688:6857   */\n    tag_136:\n        /* \"#utility.yul\":6732:6738   */\n      0x00\n        /* \"#utility.yul\":6765:6816   */\n      tag_214\n        /* \"#utility.yul\":6813:6814   */\n      0x00\n        /* \"#utility.yul\":6809:6815   */\n      not\n        /* \"#utility.yul\":6801:6806   */\n      dup5\n        /* \"#utility.yul\":6798:6799   */\n      0x08\n        /* \"#utility.yul\":6794:6807   */\n      mul\n        /* \"#utility.yul\":6765:6816   */\n      tag_135\n      jump\t// in\n    tag_214:\n        /* \"#utility.yul\":6761:6817   */\n      not\n        /* \"#utility.yul\":6846:6850   */\n      dup1\n        /* \"#utility.yul\":6840:6844   */\n      dup4\n        /* \"#utility.yul\":6836:6851   */\n      and\n        /* \"#utility.yul\":6826:6851   */\n      swap2\n      pop\n        /* \"#utility.yul\":6739:6857   */\n      pop\n        /* \"#utility.yul\":6688:6857   */\n      swap3\n      swap2\n      pop\n      pop\n      jump\t// out\n        /* \"#utility.yul\":6862:7157   */\n    tag_137:\n        /* \"#utility.yul\":6938:6942   */\n      0x00\n        /* \"#utility.yul\":7084:7113   */\n      tag_216\n        /* \"#utility.yul\":7109:7112   */\n      dup4\n        /* \"#utility.yul\":7103:7107   */\n      dup4\n        /* \"#utility.yul\":7084:7113   */\n      tag_136\n      jump\t// in\n    tag_216:\n        /* \"#utility.yul\":7076:7113   */\n      swap2\n      pop\n        /* \"#utility.yul\":7146:7149   */\n      dup3\n        /* \"#utility.yul\":7143:7144   */\n      0x02\n        /* \"#utility.yul\":7139:7150   */\n      mul\n        /* \"#utility.yul\":7133:7137   */\n      dup3\n        /* \"#utility.yul\":7130:7151   */\n      or\n        /* \"#utility.yul\":7122:7151   */\n      swap1\n      pop\n        /* \"#utility.yul\":6862:7157   */\n      swap3\n      swap2\n      pop\n      pop\n      jump\t// out\n        /* \"#utility.yul\":7162:8557   */\n    tag_95:\n        /* \"#utility.yul\":7279:7316   */\n      tag_218\n        /* \"#utility.yul\":7312:7315   */\n      dup3\n        /* \"#utility.yul\":7279:7316   */\n      tag_118\n      jump\t// in\n    tag_218:\n        /* \"#utility.yul\":7381:7399   */\n      0xffffffffffffffff\n        /* \"#utility.yul\":7373:7379   */\n      dup2\n        /* \"#utility.yul\":7370:7400   */\n      gt\n        /* \"#utility.yul\":7367:7423   */\n      iszero\n      tag_219\n      jumpi\n        /* \"#utility.yul\":7403:7421   */\n      tag_220\n      tag_121\n      jump\t// in\n    tag_220:\n        /* \"#utility.yul\":7367:7423   */\n    tag_219:\n        /* \"#utility.yul\":7447:7485   */\n      tag_221\n        /* \"#utility.yul\":7479:7483   */\n      dup3\n        /* \"#utility.yul\":7473:7484   */\n      sload\n        /* \"#utility.yul\":7447:7485   */\n      tag_97\n      jump\t// in\n    tag_221:\n        /* \"#utility.yul\":7532:7599   */\n      tag_222\n        /* \"#utility.yul\":7592:7598   */\n      dup3\n        /* \"#utility.yul\":7584:7590   */\n      dup3\n        /* \"#utility.yul\":7578:7582   */\n      dup6\n        /* \"#utility.yul\":7532:7599   */\n      tag_134\n      jump\t// in\n    tag_222:\n        /* \"#utility.yul\":7626:7627   */\n      0x00\n        /* \"#utility.yul\":7650:7654   */\n      0x20\n        /* \"#utility.yul\":7637:7654   */\n      swap1\n      pop\n        /* \"#utility.yul\":7682:7684   */\n      0x1f\n        /* \"#utility.yul\":7674:7680   */\n      dup4\n        /* \"#utility.yul\":7671:7685   */\n      gt\n        /* \"#utility.yul\":7699:7700   */\n      0x01\n        /* \"#utility.yul\":7694:8312   */\n      dup2\n      eq\n      tag_224\n      jumpi\n        /* \"#utility.yul\":8356:8357   */\n      0x00\n        /* \"#utility.yul\":8373:8379   */\n      dup5\n        /* \"#utility.yul\":8370:8447   */\n      iszero\n      tag_225\n      jumpi\n        /* \"#utility.yul\":8422:8431   */\n      dup3\n        /* \"#utility.yul\":8417:8420   */\n      dup8\n        /* \"#utility.yul\":8413:8432   */\n      add\n        /* \"#utility.yul\":8407:8433   */\n      mload\n        /* \"#utility.yul\":8398:8433   */\n      swap1\n      pop\n        /* \"#utility.yul\":8370:8447   */\n    tag_225:\n        /* \"#utility.yul\":8473:8540   */\n      tag_226\n        /* \"#utility.yul\":8533:8539   */\n      dup6\n        /* \"#utility.yul\":8526:8531   */\n      dup3\n        /* \"#utility.yul\":8473:8540   */\n      tag_137\n      jump\t// in\n    tag_226:\n        /* \"#utility.yul\":8467:8471   */\n      dup7\n        /* \"#utility.yul\":8460:8541   */\n      sstore\n        /* \"#utility.yul\":8329:8551   */\n      pop\n        /* \"#utility.yul\":7664:8551   */\n      jump(tag_223)\n        /* \"#utility.yul\":7694:8312   */\n    tag_224:\n        /* \"#utility.yul\":7746:7750   */\n      0x1f\n        /* \"#utility.yul\":7742:7751   */\n      not\n        /* \"#utility.yul\":7734:7740   */\n      dup5\n        /* \"#utility.yul\":7730:7752   */\n      and\n        /* \"#utility.yul\":7780:7817   */\n      tag_227\n        /* \"#utility.yul\":7812:7816   */\n      dup7\n        /* \"#utility.yul\":7780:7817   */\n      tag_123\n      jump\t// in\n    tag_227:\n        /* \"#utility.yul\":7839:7840   */\n      0x00\n        /* \"#utility.yul\":7853:8061   */\n    tag_228:\n        /* \"#utility.yul\":7867:7874   */\n      dup3\n        /* \"#utility.yul\":7864:7865   */\n      dup2\n        /* \"#utility.yul\":7861:7875   */\n      lt\n        /* \"#utility.yul\":7853:8061   */\n      iszero\n      tag_230\n      jumpi\n        /* \"#utility.yul\":7946:7955   */\n      dup5\n        /* \"#utility.yul\":7941:7944   */\n      dup10\n        /* \"#utility.yul\":7937:7956   */\n      add\n        /* \"#utility.yul\":7931:7957   */\n      mload\n        /* \"#utility.yul\":7923:7929   */\n      dup3\n        /* \"#utility.yul\":7916:7958   */\n      sstore\n        /* \"#utility.yul\":7997:7998   */\n      0x01\n        /* \"#utility.yul\":7989:7995   */\n      dup3\n        /* \"#utility.yul\":7985:7999   */\n      add\n        /* \"#utility.yul\":7975:7999   */\n      swap2\n      pop\n        /* \"#utility.yul\":8044:8046   */\n      0x20\n        /* \"#utility.yul\":8033:8042   */\n      dup6\n        /* \"#utility.yul\":8029:8047   */\n      add\n        /* \"#utility.yul\":8016:8047   */\n      swap5\n      pop\n        /* \"#utility.yul\":7890:7894   */\n      0x20\n        /* \"#utility.yul\":7887:7888   */\n      dup2\n        /* \"#utility.yul\":7883:7895   */\n      add\n        /* \"#utility.yul\":7878:7895   */\n      swap1\n      pop\n        /* \"#utility.yul\":7853:8061   */\n      jump(tag_228)\n    tag_230:\n        /* \"#utility.yul\":8089:8095   */\n      dup7\n        /* \"#utility.yul\":8080:8087   */\n      dup4\n        /* \"#utility.yul\":8077:8096   */\n      lt\n        /* \"#utility.yul\":8074:8253   */\n      iszero\n      tag_231\n      jumpi\n        /* \"#utility.yul\":8147:8156   */\n      dup5\n        /* \"#utility.yul\":8142:8145   */\n      dup10\n        /* \"#utility.yul\":8138:8157   */\n      add\n        /* \"#utility.yul\":8132:8158   */\n      mload\n        /* \"#utility.yul\":8190:8238   */\n      tag_232\n        /* \"#utility.yul\":8232:8236   */\n      0x1f\n        /* \"#utility.yul\":8224:8230   */\n      dup10\n        /* \"#utility.yul\":8220:8237   */\n      and\n        /* \"#utility.yul\":8209:8218   */\n      dup3\n        /* \"#utility.yul\":8190:8238   */\n      tag_136\n      jump\t// in\n    tag_232:\n        /* \"#utility.yul\":8182:8188   */\n      dup4\n        /* \"#utility.yul\":8175:8239   */\n      sstore\n        /* \"#utility.yul\":8097:8253   */\n      pop\n        /* \"#utility.yul\":8074:8253   */\n    tag_231:\n        /* \"#utility.yul\":8299:8300   */\n      0x01\n        /* \"#utility.yul\":8295:8296   */\n      0x02\n        /* \"#utility.yul\":8287:8293   */\n      dup9\n        /* \"#utility.yul\":8283:8297   */\n      mul\n        /* \"#utility.yul\":8279:8301   */\n      add\n        /* \"#utility.yul\":8273:8277   */\n      dup9\n        /* \"#utility.yul\":8266:8302   */\n      sstore\n        /* \"#utility.yul\":7701:8312   */\n      pop\n      pop\n      pop\n        /* \"#utility.yul\":7664:8551   */\n    tag_223:\n      pop\n        /* \"#utility.yul\":7254:8557   */\n      pop\n      pop\n      pop\n        /* \"#utility.yul\":7162:8557   */\n      pop\n      pop\n      jump\t// out\n        /* \"#utility.yul\":8563:8743   */\n    tag_138:\n        /* \"#utility.yul\":8611:8688   */\n      0x4e487b7100000000000000000000000000000000000000000000000000000000\n        /* \"#utility.yul\":8608:8609   */\n      0x00\n        /* \"#utility.yul\":8601:8689   */\n      mstore\n        /* \"#utility.yul\":8708:8712   */\n      0x11\n        /* \"#utility.yul\":8705:8706   */\n      0x04\n        /* \"#utility.yul\":8698:8713   */\n      mstore\n        /* \"#utility.yul\":8732:8736   */\n      0x24\n        /* \"#utility.yul\":8729:8730   */\n      0x00\n        /* \"#utility.yul\":8722:8737   */\n      revert\n        /* \"#utility.yul\":8749:8940   */\n    tag_107:\n        /* \"#utility.yul\":8789:8792   */\n      0x00\n        /* \"#utility.yul\":8808:8828   */\n      tag_235\n        /* \"#utility.yul\":8826:8827   */\n      dup3\n        /* \"#utility.yul\":8808:8828   */\n      tag_108\n      jump\t// in\n    tag_235:\n        /* \"#utility.yul\":8803:8828   */\n      swap2\n      pop\n        /* \"#utility.yul\":8842:8862   */\n      tag_236\n        /* \"#utility.yul\":8860:8861   */\n      dup4\n        /* \"#utility.yul\":8842:8862   */\n      tag_108\n      jump\t// in\n    tag_236:\n        /* \"#utility.yul\":8837:8862   */\n      swap3\n      pop\n        /* \"#utility.yul\":8885:8886   */\n      dup3\n        /* \"#utility.yul\":8882:8883   */\n      dup3\n        /* \"#utility.yul\":8878:8887   */\n      add\n        /* \"#utility.yul\":8871:8887   */\n      swap1\n      pop\n        /* \"#utility.yul\":8906:8909   */\n      dup1\n        /* \"#utility.yul\":8903:8904   */\n      dup3\n        /* \"#utility.yul\":8900:8910   */\n      gt\n        /* \"#utility.yul\":8897:8933   */\n      iszero\n      tag_237\n      jumpi\n        /* \"#utility.yul\":8913:8931   */\n      tag_238\n      tag_138\n      jump\t// in\n    tag_238:\n        /* \"#utility.yul\":8897:8933   */\n    tag_237:\n        /* \"#utility.yul\":8749:8940   */\n      swap3\n      swap2\n      pop\n      pop\n      jump\t// out\n\n    auxdata: 0xa2646970667358221220d595aed8be8edca6865e1db14e1cdd78df61d6e16ca05704c98554143f0fbc0964736f6c63430008190033\n}\n",
				"bytecode": {
					"linkReferences": {},
					"object": "608060405260015f553480156012575f80fd5b50610a75806100205f395ff3fe608060405234801561000f575f80fd5b50600436106100e8575f3560e01c8063a05f99061161008a578063c298557811610064578063c29855781461021b578063c5d7802e14610225578063cc97e23814610243578063febb0f7e14610261576100e8565b8063a05f9906146101be578063a56dfe4a146101df578063b932d448146101fd576100e8565b80632da422fe116100c65780632da422fe1461014657806339ab09a714610164578063556b90b2146101825780636ee41262146101a0576100e8565b80630c55699c146100ec57806322d05d601461010a5780632300423814610128575b5f80fd5b6100f461027f565b6040516101019190610538565b60405180910390f35b610112610284565b60405161011f9190610538565b60405180910390f35b6101306102c3565b60405161013d9190610538565b60405180910390f35b61014e6102de565b60405161015b9190610538565b60405180910390f35b61016c610308565b6040516101799190610538565b60405180910390f35b61018a61033b565b6040516101979190610538565b60405180910390f35b6101a8610358565b6040516101b59190610538565b60405180910390f35b6101c6610371565b6040516101d69493929190610600565b60405180910390f35b6101e76103df565b6040516101f49190610538565b60405180910390f35b6102056103e5565b6040516102129190610538565b60405180910390f35b6102236103fe565b005b61022d610453565b60405161023a919061069c565b60405180910390f35b61024b6104df565b6040516102589190610538565b60405180910390f35b6102696104fc565b6040516102769190610538565b60405180910390f35b5f5481565b5f670de0b6b3a7640000801461029d5761029c6106bc565b5b670de0b6b3a764000080146102b5576102b46106bc565b5b670de0b6b3a7640000905090565b5f610e1080146102d6576102d56106bc565b5b610e10905090565b5f600180146102f0576102ef6106bc565b5b60018014610301576103006106bc565b5b6001905090565b5f633b9aca00801461031d5761031c6106bc565b5b633b9aca008014610331576103306106bc565b5b633b9aca00905090565b5f62093a80801461034f5761034e6106bc565b5b62093a80905090565b5f6001801461036a576103696106bc565b5b6001905090565b5f805f60605f3390505f4390505f4290505f80368080601f0160208091040260200160405190810160405280939291908181526020018383808284375f81840152601f19601f8201169050808301925050505050505090508383838397509750975097505050505090919293565b60015481565b5f603c80146103f7576103f66106bc565b5b603c905090565b60095f81905550600180819055506040518060400160405280600981526020017f4d616b654d6f6e65790000000000000000000000000000000000000000000000815250600290816104509190610910565b50565b6002805461046090610743565b80601f016020809104026020016040519081016040528092919081815260200182805461048c90610743565b80156104d75780601f106104ae576101008083540402835291602001916104d7565b820191905f5260205f20905b8154815290600101906020018083116104ba57829003601f168201915b505050505081565b5f6201518080146104f3576104f26106bc565b5b62015180905090565b5f8061020890505f600190505f81836105159190610a0c565b905080935050505090565b5f819050919050565b61053281610520565b82525050565b5f60208201905061054b5f830184610529565b92915050565b5f73ffffffffffffffffffffffffffffffffffffffff82169050919050565b5f61057a82610551565b9050919050565b61058a81610570565b82525050565b5f81519050919050565b5f82825260208201905092915050565b8281835e5f83830152505050565b5f601f19601f8301169050919050565b5f6105d282610590565b6105dc818561059a565b93506105ec8185602086016105aa565b6105f5816105b8565b840191505092915050565b5f6080820190506106135f830187610581565b6106206020830186610529565b61062d6040830185610529565b818103606083015261063f81846105c8565b905095945050505050565b5f81519050919050565b5f82825260208201905092915050565b5f61066e8261064a565b6106788185610654565b93506106888185602086016105aa565b610691816105b8565b840191505092915050565b5f6020820190508181035f8301526106b48184610664565b905092915050565b7f4e487b71000000000000000000000000000000000000000000000000000000005f52600160045260245ffd5b7f4e487b71000000000000000000000000000000000000000000000000000000005f52604160045260245ffd5b7f4e487b71000000000000000000000000000000000000000000000000000000005f52602260045260245ffd5b5f600282049050600182168061075a57607f821691505b60208210810361076d5761076c610716565b5b50919050565b5f819050815f5260205f209050919050565b5f6020601f8301049050919050565b5f82821b905092915050565b5f600883026107cf7fffffffffffffffffffffffffffffffffffffffffffffffffffffffffffffffff82610794565b6107d98683610794565b95508019841693508086168417925050509392505050565b5f819050919050565b5f61081461080f61080a84610520565b6107f1565b610520565b9050919050565b5f819050919050565b61082d836107fa565b6108416108398261081b565b8484546107a0565b825550505050565b5f90565b610855610849565b610860818484610824565b505050565b5b81811015610883576108785f8261084d565b600181019050610866565b5050565b601f8211156108c85761089981610773565b6108a284610785565b810160208510156108b1578190505b6108c56108bd85610785565b830182610865565b50505b505050565b5f82821c905092915050565b5f6108e85f19846008026108cd565b1980831691505092915050565b5f61090083836108d9565b9150826002028217905092915050565b6109198261064a565b67ffffffffffffffff811115610932576109316106e9565b5b61093c8254610743565b610947828285610887565b5f60209050601f831160018114610978575f8415610966578287015190505b61097085826108f5565b8655506109d7565b601f19841661098686610773565b5f5b828110156109ad57848901518255600182019150602085019450602081019050610988565b868310156109ca57848901516109c6601f8916826108d9565b8355505b6001600288020188555050505b505050505050565b7f4e487b71000000000000000000000000000000000000000000000000000000005f52601160045260245ffd5b5f610a1682610520565b9150610a2183610520565b9250828201905080821115610a3957610a386109df565b5b9291505056fea2646970667358221220d595aed8be8edca6865e1db14e1cdd78df61d6e16ca05704c98554143f0fbc0964736f6c63430008190033",
					"opcodes": "PUSH1 0x80 PUSH1 0x40 MSTORE PUSH1 0x1 PUSH0 SSTORE CALLVALUE DUP1 ISZERO PUSH1 0x12 JUMPI PUSH0 DUP1 REVERT JUMPDEST POP PUSH2 0xA75 DUP1 PUSH2 0x20 PUSH0 CODECOPY PUSH0 RETURN INVALID PUSH1 0x80 PUSH1 0x40 MSTORE CALLVALUE DUP1 ISZERO PUSH2 0xF JUMPI PUSH0 DUP1 REVERT JUMPDEST POP PUSH1 0x4 CALLDATASIZE LT PUSH2 0xE8 JUMPI PUSH0 CALLDATALOAD PUSH1 0xE0 SHR DUP1 PUSH4 0xA05F9906 GT PUSH2 0x8A JUMPI DUP1 PUSH4 0xC2985578 GT PUSH2 0x64 JUMPI DUP1 PUSH4 0xC2985578 EQ PUSH2 0x21B JUMPI DUP1 PUSH4 0xC5D7802E EQ PUSH2 0x225 JUMPI DUP1 PUSH4 0xCC97E238 EQ PUSH2 0x243 JUMPI DUP1 PUSH4 0xFEBB0F7E EQ PUSH2 0x261 JUMPI PUSH2 0xE8 JUMP JUMPDEST DUP1 PUSH4 0xA05F9906 EQ PUSH2 0x1BE JUMPI DUP1 PUSH4 0xA56DFE4A EQ PUSH2 0x1DF JUMPI DUP1 PUSH4 0xB932D448 EQ PUSH2 0x1FD JUMPI PUSH2 0xE8 JUMP JUMPDEST DUP1 PUSH4 0x2DA422FE GT PUSH2 0xC6 JUMPI DUP1 PUSH4 0x2DA422FE EQ PUSH2 0x146 JUMPI DUP1 PUSH4 0x39AB09A7 EQ PUSH2 0x164 JUMPI DUP1 PUSH4 0x556B90B2 EQ PUSH2 0x182 JUMPI DUP1 PUSH4 0x6EE41262 EQ PUSH2 0x1A0 JUMPI PUSH2 0xE8 JUMP JUMPDEST DUP1 PUSH4 0xC55699C EQ PUSH2 0xEC JUMPI DUP1 PUSH4 0x22D05D60 EQ PUSH2 0x10A JUMPI DUP1 PUSH4 0x23004238 EQ PUSH2 0x128 JUMPI JUMPDEST PUSH0 DUP1 REVERT JUMPDEST PUSH2 0xF4 PUSH2 0x27F JUMP JUMPDEST PUSH1 0x40 MLOAD PUSH2 0x101 SWAP2 SWAP1 PUSH2 0x538 JUMP JUMPDEST PUSH1 0x40 MLOAD DUP1 SWAP2 SUB SWAP1 RETURN JUMPDEST PUSH2 0x112 PUSH2 0x284 JUMP JUMPDEST PUSH1 0x40 MLOAD PUSH2 0x11F SWAP2 SWAP1 PUSH2 0x538 JUMP JUMPDEST PUSH1 0x40 MLOAD DUP1 SWAP2 SUB SWAP1 RETURN JUMPDEST PUSH2 0x130 PUSH2 0x2C3 JUMP JUMPDEST PUSH1 0x40 MLOAD PUSH2 0x13D SWAP2 SWAP1 PUSH2 0x538 JUMP JUMPDEST PUSH1 0x40 MLOAD DUP1 SWAP2 SUB SWAP1 RETURN JUMPDEST PUSH2 0x14E PUSH2 0x2DE JUMP JUMPDEST PUSH1 0x40 MLOAD PUSH2 0x15B SWAP2 SWAP1 PUSH2 0x538 JUMP JUMPDEST PUSH1 0x40 MLOAD DUP1 SWAP2 SUB SWAP1 RETURN JUMPDEST PUSH2 0x16C PUSH2 0x308 JUMP JUMPDEST PUSH1 0x40 MLOAD PUSH2 0x179 SWAP2 SWAP1 PUSH2 0x538 JUMP JUMPDEST PUSH1 0x40 MLOAD DUP1 SWAP2 SUB SWAP1 RETURN JUMPDEST PUSH2 0x18A PUSH2 0x33B JUMP JUMPDEST PUSH1 0x40 MLOAD PUSH2 0x197 SWAP2 SWAP1 PUSH2 0x538 JUMP JUMPDEST PUSH1 0x40 MLOAD DUP1 SWAP2 SUB SWAP1 RETURN JUMPDEST PUSH2 0x1A8 PUSH2 0x358 JUMP JUMPDEST PUSH1 0x40 MLOAD PUSH2 0x1B5 SWAP2 SWAP1 PUSH2 0x538 JUMP JUMPDEST PUSH1 0x40 MLOAD DUP1 SWAP2 SUB SWAP1 RETURN JUMPDEST PUSH2 0x1C6 PUSH2 0x371 JUMP JUMPDEST PUSH1 0x40 MLOAD PUSH2 0x1D6 SWAP5 SWAP4 SWAP3 SWAP2 SWAP1 PUSH2 0x600 JUMP JUMPDEST PUSH1 0x40 MLOAD DUP1 SWAP2 SUB SWAP1 RETURN JUMPDEST PUSH2 0x1E7 PUSH2 0x3DF JUMP JUMPDEST PUSH1 0x40 MLOAD PUSH2 0x1F4 SWAP2 SWAP1 PUSH2 0x538 JUMP JUMPDEST PUSH1 0x40 MLOAD DUP1 SWAP2 SUB SWAP1 RETURN JUMPDEST PUSH2 0x205 PUSH2 0x3E5 JUMP JUMPDEST PUSH1 0x40 MLOAD PUSH2 0x212 SWAP2 SWAP1 PUSH2 0x538 JUMP JUMPDEST PUSH1 0x40 MLOAD DUP1 SWAP2 SUB SWAP1 RETURN JUMPDEST PUSH2 0x223 PUSH2 0x3FE JUMP JUMPDEST STOP JUMPDEST PUSH2 0x22D PUSH2 0x453 JUMP JUMPDEST PUSH1 0x40 MLOAD PUSH2 0x23A SWAP2 SWAP1 PUSH2 0x69C JUMP JUMPDEST PUSH1 0x40 MLOAD DUP1 SWAP2 SUB SWAP1 RETURN JUMPDEST PUSH2 0x24B PUSH2 0x4DF JUMP JUMPDEST PUSH1 0x40 MLOAD PUSH2 0x258 SWAP2 SWAP1 PUSH2 0x538 JUMP JUMPDEST PUSH1 0x40 MLOAD DUP1 SWAP2 SUB SWAP1 RETURN JUMPDEST PUSH2 0x269 PUSH2 0x4FC JUMP JUMPDEST PUSH1 0x40 MLOAD PUSH2 0x276 SWAP2 SWAP1 PUSH2 0x538 JUMP JUMPDEST PUSH1 0x40 MLOAD DUP1 SWAP2 SUB SWAP1 RETURN JUMPDEST PUSH0 SLOAD DUP2 JUMP JUMPDEST PUSH0 PUSH8 0xDE0B6B3A7640000 DUP1 EQ PUSH2 0x29D JUMPI PUSH2 0x29C PUSH2 0x6BC JUMP JUMPDEST JUMPDEST PUSH8 0xDE0B6B3A7640000 DUP1 EQ PUSH2 0x2B5 JUMPI PUSH2 0x2B4 PUSH2 0x6BC JUMP JUMPDEST JUMPDEST PUSH8 0xDE0B6B3A7640000 SWAP1 POP SWAP1 JUMP JUMPDEST PUSH0 PUSH2 0xE10 DUP1 EQ PUSH2 0x2D6 JUMPI PUSH2 0x2D5 PUSH2 0x6BC JUMP JUMPDEST JUMPDEST PUSH2 0xE10 SWAP1 POP SWAP1 JUMP JUMPDEST PUSH0 PUSH1 0x1 DUP1 EQ PUSH2 0x2F0 JUMPI PUSH2 0x2EF PUSH2 0x6BC JUMP JUMPDEST JUMPDEST PUSH1 0x1 DUP1 EQ PUSH2 0x301 JUMPI PUSH2 0x300 PUSH2 0x6BC JUMP JUMPDEST JUMPDEST PUSH1 0x1 SWAP1 POP SWAP1 JUMP JUMPDEST PUSH0 PUSH4 0x3B9ACA00 DUP1 EQ PUSH2 0x31D JUMPI PUSH2 0x31C PUSH2 0x6BC JUMP JUMPDEST JUMPDEST PUSH4 0x3B9ACA00 DUP1 EQ PUSH2 0x331 JUMPI PUSH2 0x330 PUSH2 0x6BC JUMP JUMPDEST JUMPDEST PUSH4 0x3B9ACA00 SWAP1 POP SWAP1 JUMP JUMPDEST PUSH0 PUSH3 0x93A80 DUP1 EQ PUSH2 0x34F JUMPI PUSH2 0x34E PUSH2 0x6BC JUMP JUMPDEST JUMPDEST PUSH3 0x93A80 SWAP1 POP SWAP1 JUMP JUMPDEST PUSH0 PUSH1 0x1 DUP1 EQ PUSH2 0x36A JUMPI PUSH2 0x369 PUSH2 0x6BC JUMP JUMPDEST JUMPDEST PUSH1 0x1 SWAP1 POP SWAP1 JUMP JUMPDEST PUSH0 DUP1 PUSH0 PUSH1 0x60 PUSH0 CALLER SWAP1 POP PUSH0 NUMBER SWAP1 POP PUSH0 TIMESTAMP SWAP1 POP PUSH0 DUP1 CALLDATASIZE DUP1 DUP1 PUSH1 0x1F ADD PUSH1 0x20 DUP1 SWAP2 DIV MUL PUSH1 0x20 ADD PUSH1 0x40 MLOAD SWAP1 DUP2 ADD PUSH1 0x40 MSTORE DUP1 SWAP4 SWAP3 SWAP2 SWAP1 DUP2 DUP2 MSTORE PUSH1 0x20 ADD DUP4 DUP4 DUP1 DUP3 DUP5 CALLDATACOPY PUSH0 DUP2 DUP5 ADD MSTORE PUSH1 0x1F NOT PUSH1 0x1F DUP3 ADD AND SWAP1 POP DUP1 DUP4 ADD SWAP3 POP POP POP POP POP POP POP SWAP1 POP DUP4 DUP4 DUP4 DUP4 SWAP8 POP SWAP8 POP SWAP8 POP SWAP8 POP POP POP POP POP SWAP1 SWAP2 SWAP3 SWAP4 JUMP JUMPDEST PUSH1 0x1 SLOAD DUP2 JUMP JUMPDEST PUSH0 PUSH1 0x3C DUP1 EQ PUSH2 0x3F7 JUMPI PUSH2 0x3F6 PUSH2 0x6BC JUMP JUMPDEST JUMPDEST PUSH1 0x3C SWAP1 POP SWAP1 JUMP JUMPDEST PUSH1 0x9 PUSH0 DUP2 SWAP1 SSTORE POP PUSH1 0x1 DUP1 DUP2 SWAP1 SSTORE POP PUSH1 0x40 MLOAD DUP1 PUSH1 0x40 ADD PUSH1 0x40 MSTORE DUP1 PUSH1 0x9 DUP2 MSTORE PUSH1 0x20 ADD PUSH32 0x4D616B654D6F6E65790000000000000000000000000000000000000000000000 DUP2 MSTORE POP PUSH1 0x2 SWAP1 DUP2 PUSH2 0x450 SWAP2 SWAP1 PUSH2 0x910 JUMP JUMPDEST POP JUMP JUMPDEST PUSH1 0x2 DUP1 SLOAD PUSH2 0x460 SWAP1 PUSH2 0x743 JUMP JUMPDEST DUP1 PUSH1 0x1F ADD PUSH1 0x20 DUP1 SWAP2 DIV MUL PUSH1 0x20 ADD PUSH1 0x40 MLOAD SWAP1 DUP2 ADD PUSH1 0x40 MSTORE DUP1 SWAP3 SWAP2 SWAP1 DUP2 DUP2 MSTORE PUSH1 0x20 ADD DUP3 DUP1 SLOAD PUSH2 0x48C SWAP1 PUSH2 0x743 JUMP JUMPDEST DUP1 ISZERO PUSH2 0x4D7 JUMPI DUP1 PUSH1 0x1F LT PUSH2 0x4AE JUMPI PUSH2 0x100 DUP1 DUP4 SLOAD DIV MUL DUP4 MSTORE SWAP2 PUSH1 0x20 ADD SWAP2 PUSH2 0x4D7 JUMP JUMPDEST DUP3 ADD SWAP2 SWAP1 PUSH0 MSTORE PUSH1 0x20 PUSH0 KECCAK256 SWAP1 JUMPDEST DUP2 SLOAD DUP2 MSTORE SWAP1 PUSH1 0x1 ADD SWAP1 PUSH1 0x20 ADD DUP1 DUP4 GT PUSH2 0x4BA JUMPI DUP3 SWAP1 SUB PUSH1 0x1F AND DUP3 ADD SWAP2 JUMPDEST POP POP POP POP POP DUP2 JUMP JUMPDEST PUSH0 PUSH3 0x15180 DUP1 EQ PUSH2 0x4F3 JUMPI PUSH2 0x4F2 PUSH2 0x6BC JUMP JUMPDEST JUMPDEST PUSH3 0x15180 SWAP1 POP SWAP1 JUMP JUMPDEST PUSH0 DUP1 PUSH2 0x208 SWAP1 POP PUSH0 PUSH1 0x1 SWAP1 POP PUSH0 DUP2 DUP4 PUSH2 0x515 SWAP2 SWAP1 PUSH2 0xA0C JUMP JUMPDEST SWAP1 POP DUP1 SWAP4 POP POP POP POP SWAP1 JUMP JUMPDEST PUSH0 DUP2 SWAP1 POP SWAP2 SWAP1 POP JUMP JUMPDEST PUSH2 0x532 DUP2 PUSH2 0x520 JUMP JUMPDEST DUP3 MSTORE POP POP JUMP JUMPDEST PUSH0 PUSH1 0x20 DUP3 ADD SWAP1 POP PUSH2 0x54B PUSH0 DUP4 ADD DUP5 PUSH2 0x529 JUMP JUMPDEST SWAP3 SWAP2 POP POP JUMP JUMPDEST PUSH0 PUSH20 0xFFFFFFFFFFFFFFFFFFFFFFFFFFFFFFFFFFFFFFFF DUP3 AND SWAP1 POP SWAP2 SWAP1 POP JUMP JUMPDEST PUSH0 PUSH2 0x57A DUP3 PUSH2 0x551 JUMP JUMPDEST SWAP1 POP SWAP2 SWAP1 POP JUMP JUMPDEST PUSH2 0x58A DUP2 PUSH2 0x570 JUMP JUMPDEST DUP3 MSTORE POP POP JUMP JUMPDEST PUSH0 DUP2 MLOAD SWAP1 POP SWAP2 SWAP1 POP JUMP JUMPDEST PUSH0 DUP3 DUP3 MSTORE PUSH1 0x20 DUP3 ADD SWAP1 POP SWAP3 SWAP2 POP POP JUMP JUMPDEST DUP3 DUP2 DUP4 MCOPY PUSH0 DUP4 DUP4 ADD MSTORE POP POP POP JUMP JUMPDEST PUSH0 PUSH1 0x1F NOT PUSH1 0x1F DUP4 ADD AND SWAP1 POP SWAP2 SWAP1 POP JUMP JUMPDEST PUSH0 PUSH2 0x5D2 DUP3 PUSH2 0x590 JUMP JUMPDEST PUSH2 0x5DC DUP2 DUP6 PUSH2 0x59A JUMP JUMPDEST SWAP4 POP PUSH2 0x5EC DUP2 DUP6 PUSH1 0x20 DUP7 ADD PUSH2 0x5AA JUMP JUMPDEST PUSH2 0x5F5 DUP2 PUSH2 0x5B8 JUMP JUMPDEST DUP5 ADD SWAP2 POP POP SWAP3 SWAP2 POP POP JUMP JUMPDEST PUSH0 PUSH1 0x80 DUP3 ADD SWAP1 POP PUSH2 0x613 PUSH0 DUP4 ADD DUP8 PUSH2 0x581 JUMP JUMPDEST PUSH2 0x620 PUSH1 0x20 DUP4 ADD DUP7 PUSH2 0x529 JUMP JUMPDEST PUSH2 0x62D PUSH1 0x40 DUP4 ADD DUP6 PUSH2 0x529 JUMP JUMPDEST DUP2 DUP2 SUB PUSH1 0x60 DUP4 ADD MSTORE PUSH2 0x63F DUP2 DUP5 PUSH2 0x5C8 JUMP JUMPDEST SWAP1 POP SWAP6 SWAP5 POP POP POP POP POP JUMP JUMPDEST PUSH0 DUP2 MLOAD SWAP1 POP SWAP2 SWAP1 POP JUMP JUMPDEST PUSH0 DUP3 DUP3 MSTORE PUSH1 0x20 DUP3 ADD SWAP1 POP SWAP3 SWAP2 POP POP JUMP JUMPDEST PUSH0 PUSH2 0x66E DUP3 PUSH2 0x64A JUMP JUMPDEST PUSH2 0x678 DUP2 DUP6 PUSH2 0x654 JUMP JUMPDEST SWAP4 POP PUSH2 0x688 DUP2 DUP6 PUSH1 0x20 DUP7 ADD PUSH2 0x5AA JUMP JUMPDEST PUSH2 0x691 DUP2 PUSH2 0x5B8 JUMP JUMPDEST DUP5 ADD SWAP2 POP POP SWAP3 SWAP2 POP POP JUMP JUMPDEST PUSH0 PUSH1 0x20 DUP3 ADD SWAP1 POP DUP2 DUP2 SUB PUSH0 DUP4 ADD MSTORE PUSH2 0x6B4 DUP2 DUP5 PUSH2 0x664 JUMP JUMPDEST SWAP1 POP SWAP3 SWAP2 POP POP JUMP JUMPDEST PUSH32 0x4E487B7100000000000000000000000000000000000000000000000000000000 PUSH0 MSTORE PUSH1 0x1 PUSH1 0x4 MSTORE PUSH1 0x24 PUSH0 REVERT JUMPDEST PUSH32 0x4E487B7100000000000000000000000000000000000000000000000000000000 PUSH0 MSTORE PUSH1 0x41 PUSH1 0x4 MSTORE PUSH1 0x24 PUSH0 REVERT JUMPDEST PUSH32 0x4E487B7100000000000000000000000000000000000000000000000000000000 PUSH0 MSTORE PUSH1 0x22 PUSH1 0x4 MSTORE PUSH1 0x24 PUSH0 REVERT JUMPDEST PUSH0 PUSH1 0x2 DUP3 DIV SWAP1 POP PUSH1 0x1 DUP3 AND DUP1 PUSH2 0x75A JUMPI PUSH1 0x7F DUP3 AND SWAP2 POP JUMPDEST PUSH1 0x20 DUP3 LT DUP2 SUB PUSH2 0x76D JUMPI PUSH2 0x76C PUSH2 0x716 JUMP JUMPDEST JUMPDEST POP SWAP2 SWAP1 POP JUMP JUMPDEST PUSH0 DUP2 SWAP1 POP DUP2 PUSH0 MSTORE PUSH1 0x20 PUSH0 KECCAK256 SWAP1 POP SWAP2 SWAP1 POP JUMP JUMPDEST PUSH0 PUSH1 0x20 PUSH1 0x1F DUP4 ADD DIV SWAP1 POP SWAP2 SWAP1 POP JUMP JUMPDEST PUSH0 DUP3 DUP3 SHL SWAP1 POP SWAP3 SWAP2 POP POP JUMP JUMPDEST PUSH0 PUSH1 0x8 DUP4 MUL PUSH2 0x7CF PUSH32 0xFFFFFFFFFFFFFFFFFFFFFFFFFFFFFFFFFFFFFFFFFFFFFFFFFFFFFFFFFFFFFFFF DUP3 PUSH2 0x794 JUMP JUMPDEST PUSH2 0x7D9 DUP7 DUP4 PUSH2 0x794 JUMP JUMPDEST SWAP6 POP DUP1 NOT DUP5 AND SWAP4 POP DUP1 DUP7 AND DUP5 OR SWAP3 POP POP POP SWAP4 SWAP3 POP POP POP JUMP JUMPDEST PUSH0 DUP2 SWAP1 POP SWAP2 SWAP1 POP JUMP JUMPDEST PUSH0 PUSH2 0x814 PUSH2 0x80F PUSH2 0x80A DUP5 PUSH2 0x520 JUMP JUMPDEST PUSH2 0x7F1 JUMP JUMPDEST PUSH2 0x520 JUMP JUMPDEST SWAP1 POP SWAP2 SWAP1 POP JUMP JUMPDEST PUSH0 DUP2 SWAP1 POP SWAP2 SWAP1 POP JUMP JUMPDEST PUSH2 0x82D DUP4 PUSH2 0x7FA JUMP JUMPDEST PUSH2 0x841 PUSH2 0x839 DUP3 PUSH2 0x81B JUMP JUMPDEST DUP5 DUP5 SLOAD PUSH2 0x7A0 JUMP JUMPDEST DUP3 SSTORE POP POP POP POP JUMP JUMPDEST PUSH0 SWAP1 JUMP JUMPDEST PUSH2 0x855 PUSH2 0x849 JUMP JUMPDEST PUSH2 0x860 DUP2 DUP5 DUP5 PUSH2 0x824 JUMP JUMPDEST POP POP POP JUMP JUMPDEST JUMPDEST DUP2 DUP2 LT ISZERO PUSH2 0x883 JUMPI PUSH2 0x878 PUSH0 DUP3 PUSH2 0x84D JUMP JUMPDEST PUSH1 0x1 DUP2 ADD SWAP1 POP PUSH2 0x866 JUMP JUMPDEST POP POP JUMP JUMPDEST PUSH1 0x1F DUP3 GT ISZERO PUSH2 0x8C8 JUMPI PUSH2 0x899 DUP2 PUSH2 0x773 JUMP JUMPDEST PUSH2 0x8A2 DUP5 PUSH2 0x785 JUMP JUMPDEST DUP2 ADD PUSH1 0x20 DUP6 LT ISZERO PUSH2 0x8B1 JUMPI DUP2 SWAP1 POP JUMPDEST PUSH2 0x8C5 PUSH2 0x8BD DUP6 PUSH2 0x785 JUMP JUMPDEST DUP4 ADD DUP3 PUSH2 0x865 JUMP JUMPDEST POP POP JUMPDEST POP POP POP JUMP JUMPDEST PUSH0 DUP3 DUP3 SHR SWAP1 POP SWAP3 SWAP2 POP POP JUMP JUMPDEST PUSH0 PUSH2 0x8E8 PUSH0 NOT DUP5 PUSH1 0x8 MUL PUSH2 0x8CD JUMP JUMPDEST NOT DUP1 DUP4 AND SWAP2 POP POP SWAP3 SWAP2 POP POP JUMP JUMPDEST PUSH0 PUSH2 0x900 DUP4 DUP4 PUSH2 0x8D9 JUMP JUMPDEST SWAP2 POP DUP3 PUSH1 0x2 MUL DUP3 OR SWAP1 POP SWAP3 SWAP2 POP POP JUMP JUMPDEST PUSH2 0x919 DUP3 PUSH2 0x64A JUMP JUMPDEST PUSH8 0xFFFFFFFFFFFFFFFF DUP2 GT ISZERO PUSH2 0x932 JUMPI PUSH2 0x931 PUSH2 0x6E9 JUMP JUMPDEST JUMPDEST PUSH2 0x93C DUP3 SLOAD PUSH2 0x743 JUMP JUMPDEST PUSH2 0x947 DUP3 DUP3 DUP6 PUSH2 0x887 JUMP JUMPDEST PUSH0 PUSH1 0x20 SWAP1 POP PUSH1 0x1F DUP4 GT PUSH1 0x1 DUP2 EQ PUSH2 0x978 JUMPI PUSH0 DUP5 ISZERO PUSH2 0x966 JUMPI DUP3 DUP8 ADD MLOAD SWAP1 POP JUMPDEST PUSH2 0x970 DUP6 DUP3 PUSH2 0x8F5 JUMP JUMPDEST DUP7 SSTORE POP PUSH2 0x9D7 JUMP JUMPDEST PUSH1 0x1F NOT DUP5 AND PUSH2 0x986 DUP7 PUSH2 0x773 JUMP JUMPDEST PUSH0 JUMPDEST DUP3 DUP2 LT ISZERO PUSH2 0x9AD JUMPI DUP5 DUP10 ADD MLOAD DUP3 SSTORE PUSH1 0x1 DUP3 ADD SWAP2 POP PUSH1 0x20 DUP6 ADD SWAP5 POP PUSH1 0x20 DUP2 ADD SWAP1 POP PUSH2 0x988 JUMP JUMPDEST DUP7 DUP4 LT ISZERO PUSH2 0x9CA JUMPI DUP5 DUP10 ADD MLOAD PUSH2 0x9C6 PUSH1 0x1F DUP10 AND DUP3 PUSH2 0x8D9 JUMP JUMPDEST DUP4 SSTORE POP JUMPDEST PUSH1 0x1 PUSH1 0x2 DUP9 MUL ADD DUP9 SSTORE POP POP POP JUMPDEST POP POP POP POP POP POP JUMP JUMPDEST PUSH32 0x4E487B7100000000000000000000000000000000000000000000000000000000 PUSH0 MSTORE PUSH1 0x11 PUSH1 0x4 MSTORE PUSH1 0x24 PUSH0 REVERT JUMPDEST PUSH0 PUSH2 0xA16 DUP3 PUSH2 0x520 JUMP JUMPDEST SWAP2 POP PUSH2 0xA21 DUP4 PUSH2 0x520 JUMP JUMPDEST SWAP3 POP DUP3 DUP3 ADD SWAP1 POP DUP1 DUP3 GT ISZERO PUSH2 0xA39 JUMPI PUSH2 0xA38 PUSH2 0x9DF JUMP JUMPDEST JUMPDEST SWAP3 SWAP2 POP POP JUMP INVALID LOG2 PUSH5 0x6970667358 0x22 SLT KECCAK256 0xD5 SWAP6 0xAE 0xD8 0xBE DUP15 0xDC 0xA6 DUP7 MCOPY SAR 0xB1 0x4E SHR 0xDD PUSH25 0xDF61D6E16CA05704C98554143F0FBC0964736F6C6343000819 STOP CALLER "
				},
				"gasEstimates": {
					"creation": {
						"codeDepositCost": "535400",
						"executionCost": "22671",
						"totalCost": "558071"
					},
					"external": {
						"bar()": "infinite",
						"daysUint()": "421",
						"etherUint()": "424",
						"foo()": "infinite",
						"global()": "infinite",
						"gweiUint()": "423",
						"hoursUint()": "423",
						"minutesUint()": "422",
						"secondsUint()": "444",
						"weeksUint()": "422",
						"weiUint()": "401",
						"x()": "2448",
						"y()": "2470",
						"z()": "infinite"
					}
				},
				"methodIdentifiers": {
					"bar()": "febb0f7e",
					"daysUint()": "cc97e238",
					"etherUint()": "22d05d60",
					"foo()": "c2985578",
					"global()": "a05f9906",
					"gweiUint()": "39ab09a7",
					"hoursUint()": "23004238",
					"minutesUint()": "b932d448",
					"secondsUint()": "6ee41262",
					"weeksUint()": "556b90b2",
					"weiUint()": "2da422fe",
					"x()": "0c55699c",
					"y()": "a56dfe4a",
					"z()": "c5d7802e"
				}
			},
			"storageLayout": {
				"storage": [
					{
						"astId": 4,
						"contract": "SolidityProjects/contracts/SolidityGrammers/6-VariableScope(变量作用域).sol:Variables",
						"label": "x",
						"offset": 0,
						"slot": "0",
						"type": "t_uint256"
					},
					{
						"astId": 6,
						"contract": "SolidityProjects/contracts/SolidityGrammers/6-VariableScope(变量作用域).sol:Variables",
						"label": "y",
						"offset": 0,
						"slot": "1",
						"type": "t_uint256"
					},
					{
						"astId": 8,
						"contract": "SolidityProjects/contracts/SolidityGrammers/6-VariableScope(变量作用域).sol:Variables",
						"label": "z",
						"offset": 0,
						"slot": "2",
						"type": "t_string_storage"
					}
				],
				"types": {
					"t_string_storage": {
						"encoding": "bytes",
						"label": "string",
						"numberOfBytes": "32"
					},
					"t_uint256": {
						"encoding": "inplace",
						"label": "uint256",
						"numberOfBytes": "32"
					}
				}
			},
			"userdoc": {
				"kind": "user",
				"methods": {},
				"version": 1
			}
		}
	}
}